{
  "address": "0x618560902f7f86CEeAd0174376A6dA4eCa445151",
  "abi": [
    {
      "inputs": [],
      "name": "_totalSupply",
      "outputs": [
        {
          "internalType": "uint256",
          "name": "",
          "type": "uint256"
        }
      ],
      "stateMutability": "view",
      "type": "function"
    },
    {
      "inputs": [],
      "name": "getReserves",
      "outputs": [
        {
          "internalType": "uint112",
          "name": "reserve0",
          "type": "uint112"
        },
        {
          "internalType": "uint112",
          "name": "reserve1",
          "type": "uint112"
        },
        {
          "internalType": "uint32",
          "name": "blockTimestampLast",
          "type": "uint32"
        }
      ],
      "stateMutability": "view",
      "type": "function"
    },
    {
      "inputs": [],
      "name": "reserveBold",
      "outputs": [
        {
          "internalType": "uint112",
          "name": "",
          "type": "uint112"
        }
      ],
      "stateMutability": "view",
      "type": "function"
    },
    {
      "inputs": [
        {
          "internalType": "uint256",
          "name": "_totalSupply_",
          "type": "uint256"
        },
        {
          "internalType": "uint112",
          "name": "_reserveBold_",
          "type": "uint112"
        }
      ],
      "name": "setParams",
      "outputs": [],
      "stateMutability": "nonpayable",
      "type": "function"
    },
    {
      "inputs": [],
      "name": "totalSupply",
      "outputs": [
        {
          "internalType": "uint256",
          "name": "",
          "type": "uint256"
        }
      ],
      "stateMutability": "view",
      "type": "function"
    }
  ],
  "transactionHash": "0x85f97cf20e519a8ae7f8d56253aa42d4a3539f276a684183edfa9955e5266ce8",
  "args": [],
  "numDeployments": 1,
  "solcInputHash": "ab20f7579c850e0fbcbcfcb1ce50b5a1",
  "bytecode": "0x60806040526103e8600055600180546001600160701b031916600a17905534801561002957600080fd5b506101b6806100396000396000f3fe608060405234801561001057600080fd5b50600436106100675760003560e01c80633eaaf86b116100505780633eaaf86b146100b857806385e702df146100c15780638650f2bc146100fa57600080fd5b80630902f1ac1461006c57806318160ddd146100a6575b600080fd5b60015460408051600081526dffffffffffffffffffffffffffff909216602083015263ffffffff4216908201526060015b60405180910390f35b6000545b60405190815260200161009d565b6100aa60005481565b6001546100db906dffffffffffffffffffffffffffff1681565b6040516dffffffffffffffffffffffffffff909116815260200161009d565b61013d61010836600461013f565b600091909155600180546dffffffffffffffffffffffffffff19166dffffffffffffffffffffffffffff909216919091179055565b005b60008060408385031215610151578182fd5b8235915060208301356dffffffffffffffffffffffffffff81168114610175578182fd5b80915050925092905056fea264697066735822122066245f9e30574f88cd9741a2b5bdb0bdf6bd18f28cf585ce44768693001eadd764736f6c63430008040033",
  "devdoc": {
    "kind": "dev",
    "methods": {},
    "version": 1
  },
  "userdoc": {
    "kind": "user",
    "methods": {},
    "version": 1
  },
  "storageLayout": {
    "storage": [
      {
        "astId": 16923,
        "contract": "contracts/mock/MockUniswapV2Pair.sol:MockUniswapV2Pair",
        "label": "_totalSupply",
        "offset": 0,
        "slot": "0",
        "type": "t_uint256"
      },
      {
        "astId": 16926,
        "contract": "contracts/mock/MockUniswapV2Pair.sol:MockUniswapV2Pair",
        "label": "reserveBold",
        "offset": 0,
        "slot": "1",
        "type": "t_uint112"
      }
    ],
    "types": {
      "t_uint112": {
        "encoding": "inplace",
        "label": "uint112",
        "numberOfBytes": "14"
      },
      "t_uint256": {
        "encoding": "inplace",
        "label": "uint256",
        "numberOfBytes": "32"
      }
    }
  }
}