{
  "address": "0x0872e92307EF0E4148f023F531c997d6a71f6D22",
  "abi": [
    {
      "anonymous": false,
      "inputs": [
        {
          "indexed": false,
          "internalType": "address",
          "name": "previousAdmin",
          "type": "address"
        },
        {
          "indexed": false,
          "internalType": "address",
          "name": "newAdmin",
          "type": "address"
        }
      ],
      "name": "AdminChanged",
      "type": "event"
    },
    {
      "anonymous": false,
      "inputs": [
        {
          "indexed": true,
          "internalType": "address",
          "name": "beacon",
          "type": "address"
        }
      ],
      "name": "BeaconUpgraded",
      "type": "event"
    },
    {
      "anonymous": false,
      "inputs": [
        {
          "indexed": true,
          "internalType": "address",
          "name": "sender",
          "type": "address"
        },
        {
          "indexed": true,
          "internalType": "uint256",
          "name": "epoch",
          "type": "uint256"
        },
        {
          "indexed": false,
          "internalType": "uint256",
          "name": "amount",
          "type": "uint256"
        }
      ],
      "name": "BetHeads",
      "type": "event"
    },
    {
      "anonymous": false,
      "inputs": [
        {
          "indexed": true,
          "internalType": "address",
          "name": "sender",
          "type": "address"
        },
        {
          "indexed": true,
          "internalType": "uint256",
          "name": "epoch",
          "type": "uint256"
        },
        {
          "indexed": false,
          "internalType": "uint256",
          "name": "amount",
          "type": "uint256"
        }
      ],
      "name": "BetTails",
      "type": "event"
    },
    {
      "anonymous": false,
      "inputs": [
        {
          "indexed": true,
          "internalType": "address",
          "name": "sender",
          "type": "address"
        },
        {
          "indexed": true,
          "internalType": "uint256",
          "name": "epoch",
          "type": "uint256"
        },
        {
          "indexed": false,
          "internalType": "uint256",
          "name": "amount",
          "type": "uint256"
        }
      ],
      "name": "Claim",
      "type": "event"
    },
    {
      "anonymous": false,
      "inputs": [
        {
          "indexed": true,
          "internalType": "address",
          "name": "sender",
          "type": "address"
        },
        {
          "indexed": true,
          "internalType": "uint256",
          "name": "epoch",
          "type": "uint256"
        },
        {
          "indexed": false,
          "internalType": "uint256",
          "name": "amount",
          "type": "uint256"
        }
      ],
      "name": "ClaimBonus",
      "type": "event"
    },
    {
      "anonymous": false,
      "inputs": [
        {
          "indexed": true,
          "internalType": "uint256",
          "name": "epoch",
          "type": "uint256"
        },
        {
          "indexed": true,
          "internalType": "uint256",
          "name": "roundId",
          "type": "uint256"
        }
      ],
      "name": "EndRound",
      "type": "event"
    },
    {
      "anonymous": false,
      "inputs": [
        {
          "indexed": true,
          "internalType": "uint256",
          "name": "epoch",
          "type": "uint256"
        },
        {
          "indexed": true,
          "internalType": "uint256",
          "name": "roundId",
          "type": "uint256"
        }
      ],
      "name": "LockRound",
      "type": "event"
    },
    {
      "anonymous": false,
      "inputs": [
        {
          "indexed": false,
          "internalType": "address",
          "name": "admin",
          "type": "address"
        }
      ],
      "name": "NewAdminAddress",
      "type": "event"
    },
    {
      "anonymous": false,
      "inputs": [
        {
          "indexed": false,
          "internalType": "uint256",
          "name": "secs",
          "type": "uint256"
        }
      ],
      "name": "NewIntervalPeriod",
      "type": "event"
    },
    {
      "anonymous": false,
      "inputs": [
        {
          "indexed": true,
          "internalType": "uint256",
          "name": "epoch",
          "type": "uint256"
        },
        {
          "indexed": false,
          "internalType": "uint256",
          "name": "minBetAmount",
          "type": "uint256"
        }
      ],
      "name": "NewMinBetAmount",
      "type": "event"
    },
    {
      "anonymous": false,
      "inputs": [
        {
          "indexed": false,
          "internalType": "address",
          "name": "operator",
          "type": "address"
        }
      ],
      "name": "NewOperatorAddress",
      "type": "event"
    },
    {
      "anonymous": false,
      "inputs": [
        {
          "indexed": false,
          "internalType": "uint256",
          "name": "oracleUpdateAllowance",
          "type": "uint256"
        }
      ],
      "name": "NewOracleUpdateAllowance",
      "type": "event"
    },
    {
      "anonymous": false,
      "inputs": [
        {
          "indexed": true,
          "internalType": "uint256",
          "name": "epoch",
          "type": "uint256"
        },
        {
          "indexed": false,
          "internalType": "uint256",
          "name": "treasuryFee",
          "type": "uint256"
        }
      ],
      "name": "NewTreasuryFee",
      "type": "event"
    },
    {
      "anonymous": false,
      "inputs": [
        {
          "indexed": true,
          "internalType": "address",
          "name": "previousOwner",
          "type": "address"
        },
        {
          "indexed": true,
          "internalType": "address",
          "name": "newOwner",
          "type": "address"
        }
      ],
      "name": "OwnershipTransferred",
      "type": "event"
    },
    {
      "anonymous": false,
      "inputs": [
        {
          "indexed": true,
          "internalType": "uint256",
          "name": "epoch",
          "type": "uint256"
        }
      ],
      "name": "Pause",
      "type": "event"
    },
    {
      "anonymous": false,
      "inputs": [
        {
          "indexed": false,
          "internalType": "address",
          "name": "account",
          "type": "address"
        }
      ],
      "name": "Paused",
      "type": "event"
    },
    {
      "anonymous": false,
      "inputs": [
        {
          "indexed": true,
          "internalType": "uint256",
          "name": "epoch",
          "type": "uint256"
        },
        {
          "indexed": false,
          "internalType": "uint256",
          "name": "rewardBaseCalAmount",
          "type": "uint256"
        },
        {
          "indexed": false,
          "internalType": "uint256",
          "name": "rewardAmount",
          "type": "uint256"
        },
        {
          "indexed": false,
          "internalType": "uint256",
          "name": "treasuryAmount",
          "type": "uint256"
        }
      ],
      "name": "RewardsCalculated",
      "type": "event"
    },
    {
      "anonymous": false,
      "inputs": [
        {
          "indexed": true,
          "internalType": "uint256",
          "name": "epoch",
          "type": "uint256"
        }
      ],
      "name": "StartRound",
      "type": "event"
    },
    {
      "anonymous": false,
      "inputs": [
        {
          "indexed": true,
          "internalType": "address",
          "name": "token",
          "type": "address"
        },
        {
          "indexed": false,
          "internalType": "uint256",
          "name": "amount",
          "type": "uint256"
        }
      ],
      "name": "TokenRecovery",
      "type": "event"
    },
    {
      "anonymous": false,
      "inputs": [
        {
          "indexed": false,
          "internalType": "uint256",
          "name": "amount",
          "type": "uint256"
        }
      ],
      "name": "TreasuryClaim",
      "type": "event"
    },
    {
      "anonymous": false,
      "inputs": [
        {
          "indexed": true,
          "internalType": "uint256",
          "name": "epoch",
          "type": "uint256"
        }
      ],
      "name": "Unpause",
      "type": "event"
    },
    {
      "anonymous": false,
      "inputs": [
        {
          "indexed": false,
          "internalType": "address",
          "name": "account",
          "type": "address"
        }
      ],
      "name": "Unpaused",
      "type": "event"
    },
    {
      "anonymous": false,
      "inputs": [
        {
          "indexed": true,
          "internalType": "address",
          "name": "implementation",
          "type": "address"
        }
      ],
      "name": "Upgraded",
      "type": "event"
    },
    {
      "anonymous": false,
      "inputs": [
        {
          "indexed": false,
          "internalType": "bytes32",
          "name": "requestId",
          "type": "bytes32"
        },
        {
          "indexed": false,
          "internalType": "uint256",
          "name": "randomness",
          "type": "uint256"
        },
        {
          "indexed": false,
          "internalType": "address",
          "name": "sender",
          "type": "address"
        }
      ],
      "name": "receivedRandom",
      "type": "event"
    },
    {
      "anonymous": false,
      "inputs": [
        {
          "indexed": false,
          "internalType": "bytes32",
          "name": "requestId",
          "type": "bytes32"
        }
      ],
      "name": "requestRandom",
      "type": "event"
    },
    {
      "inputs": [],
      "name": "EV_CLAIM",
      "outputs": [
        {
          "internalType": "uint256",
          "name": "",
          "type": "uint256"
        }
      ],
      "stateMutability": "view",
      "type": "function"
    },
    {
      "inputs": [],
      "name": "EV_CLAIM_BONUS",
      "outputs": [
        {
          "internalType": "uint256",
          "name": "",
          "type": "uint256"
        }
      ],
      "stateMutability": "view",
      "type": "function"
    },
    {
      "inputs": [],
      "name": "EV_HEADS",
      "outputs": [
        {
          "internalType": "uint256",
          "name": "",
          "type": "uint256"
        }
      ],
      "stateMutability": "view",
      "type": "function"
    },
    {
      "inputs": [],
      "name": "EV_RESULT",
      "outputs": [
        {
          "internalType": "uint256",
          "name": "",
          "type": "uint256"
        }
      ],
      "stateMutability": "view",
      "type": "function"
    },
    {
      "inputs": [],
      "name": "EV_TAILS",
      "outputs": [
        {
          "internalType": "uint256",
          "name": "",
          "type": "uint256"
        }
      ],
      "stateMutability": "view",
      "type": "function"
    },
    {
      "inputs": [],
      "name": "MAX_TREASURY_FEE",
      "outputs": [
        {
          "internalType": "uint256",
          "name": "",
          "type": "uint256"
        }
      ],
      "stateMutability": "view",
      "type": "function"
    },
    {
      "inputs": [
        {
          "internalType": "address",
          "name": "_vrfCoordinator",
          "type": "address"
        },
        {
          "internalType": "address",
          "name": "_link",
          "type": "address"
        }
      ],
      "name": "__VRFConsumerBaseUpgradable__init",
      "outputs": [],
      "stateMutability": "nonpayable",
      "type": "function"
    },
    {
      "inputs": [],
      "name": "adminAddress",
      "outputs": [
        {
          "internalType": "address",
          "name": "",
          "type": "address"
        }
      ],
      "stateMutability": "view",
      "type": "function"
    },
    {
      "inputs": [
        {
          "internalType": "uint256",
          "name": "epoch",
          "type": "uint256"
        }
      ],
      "name": "betHeads",
      "outputs": [],
      "stateMutability": "payable",
      "type": "function"
    },
    {
      "inputs": [
        {
          "internalType": "uint256",
          "name": "epoch",
          "type": "uint256"
        }
      ],
      "name": "betTails",
      "outputs": [],
      "stateMutability": "payable",
      "type": "function"
    },
    {
      "inputs": [
        {
          "internalType": "uint256",
          "name": "epoch",
          "type": "uint256"
        },
        {
          "internalType": "address",
          "name": "user",
          "type": "address"
        }
      ],
      "name": "bonusClaimable",
      "outputs": [
        {
          "internalType": "bool",
          "name": "",
          "type": "bool"
        }
      ],
      "stateMutability": "view",
      "type": "function"
    },
    {
      "inputs": [
        {
          "internalType": "uint256[]",
          "name": "epochs",
          "type": "uint256[]"
        }
      ],
      "name": "claim",
      "outputs": [],
      "stateMutability": "nonpayable",
      "type": "function"
    },
    {
      "inputs": [
        {
          "internalType": "uint256[]",
          "name": "epochs",
          "type": "uint256[]"
        }
      ],
      "name": "claimBonusRewards",
      "outputs": [],
      "stateMutability": "nonpayable",
      "type": "function"
    },
    {
      "inputs": [],
      "name": "claimTreasury",
      "outputs": [],
      "stateMutability": "nonpayable",
      "type": "function"
    },
    {
      "inputs": [
        {
          "internalType": "uint256",
          "name": "epoch",
          "type": "uint256"
        },
        {
          "internalType": "address",
          "name": "user",
          "type": "address"
        }
      ],
      "name": "claimable",
      "outputs": [
        {
          "internalType": "bool",
          "name": "",
          "type": "bool"
        }
      ],
      "stateMutability": "view",
      "type": "function"
    },
    {
      "inputs": [],
      "name": "count",
      "outputs": [
        {
          "internalType": "uint256",
          "name": "",
          "type": "uint256"
        }
      ],
      "stateMutability": "view",
      "type": "function"
    },
    {
      "inputs": [],
      "name": "currentEpoch",
      "outputs": [
        {
          "internalType": "uint256",
          "name": "",
          "type": "uint256"
        }
      ],
      "stateMutability": "view",
      "type": "function"
    },
    {
      "inputs": [],
      "name": "executeRound",
      "outputs": [],
      "stateMutability": "nonpayable",
      "type": "function"
    },
    {
      "inputs": [],
      "name": "genesisStartOnce",
      "outputs": [
        {
          "internalType": "bool",
          "name": "",
          "type": "bool"
        }
      ],
      "stateMutability": "view",
      "type": "function"
    },
    {
      "inputs": [],
      "name": "genesisStartRound",
      "outputs": [],
      "stateMutability": "nonpayable",
      "type": "function"
    },
    {
      "inputs": [],
      "name": "getLinkFee",
      "outputs": [
        {
          "internalType": "uint256",
          "name": "",
          "type": "uint256"
        }
      ],
      "stateMutability": "view",
      "type": "function"
    },
    {
      "inputs": [
        {
          "internalType": "address",
          "name": "user",
          "type": "address"
        },
        {
          "internalType": "uint256",
          "name": "cursor",
          "type": "uint256"
        },
        {
          "internalType": "uint256",
          "name": "size",
          "type": "uint256"
        }
      ],
      "name": "getUserRounds",
      "outputs": [
        {
          "internalType": "uint256[]",
          "name": "",
          "type": "uint256[]"
        },
        {
          "components": [
            {
              "internalType": "uint256",
              "name": "position",
              "type": "uint256"
            },
            {
              "internalType": "uint256",
              "name": "amount",
              "type": "uint256"
            },
            {
              "internalType": "bool",
              "name": "claimed",
              "type": "bool"
            },
            {
              "internalType": "bool",
              "name": "bonusClaimed",
              "type": "bool"
            }
          ],
          "internalType": "struct OFCointossP2PStorage.BetInfo[]",
          "name": "",
          "type": "tuple[]"
        },
        {
          "internalType": "uint256",
          "name": "",
          "type": "uint256"
        }
      ],
      "stateMutability": "view",
      "type": "function"
    },
    {
      "inputs": [
        {
          "internalType": "address",
          "name": "user",
          "type": "address"
        }
      ],
      "name": "getUserRoundsLength",
      "outputs": [
        {
          "internalType": "uint256",
          "name": "",
          "type": "uint256"
        }
      ],
      "stateMutability": "view",
      "type": "function"
    },
    {
      "inputs": [
        {
          "internalType": "address",
          "name": "_adminAddress",
          "type": "address"
        },
        {
          "internalType": "address",
          "name": "_operatorAddress",
          "type": "address"
        },
        {
          "internalType": "uint256",
          "name": "_intervalSeconds",
          "type": "uint256"
        },
        {
          "internalType": "uint256",
          "name": "_minBetAmount",
          "type": "uint256"
        },
        {
          "internalType": "uint256",
          "name": "_oracleUpdateAllowance",
          "type": "uint256"
        },
        {
          "internalType": "uint256",
          "name": "_treasuryFee",
          "type": "uint256"
        },
        {
          "internalType": "address",
          "name": "_tokenAddress",
          "type": "address"
        },
        {
          "internalType": "address",
          "name": "_routerContract",
          "type": "address"
        },
        {
          "internalType": "address",
          "name": "_coordinatorContract",
          "type": "address"
        },
        {
          "internalType": "address",
          "name": "_linkContract",
          "type": "address"
        },
        {
          "internalType": "bytes32",
          "name": "_keyHash",
          "type": "bytes32"
        },
        {
          "internalType": "uint256",
          "name": "linkFee",
          "type": "uint256"
        }
      ],
      "name": "initialize",
      "outputs": [],
      "stateMutability": "nonpayable",
      "type": "function"
    },
    {
      "inputs": [],
      "name": "intervalSeconds",
      "outputs": [
        {
          "internalType": "uint256",
          "name": "",
          "type": "uint256"
        }
      ],
      "stateMutability": "view",
      "type": "function"
    },
    {
      "inputs": [
        {
          "internalType": "uint256",
          "name": "",
          "type": "uint256"
        },
        {
          "internalType": "address",
          "name": "",
          "type": "address"
        }
      ],
      "name": "ledger",
      "outputs": [
        {
          "internalType": "uint256",
          "name": "position",
          "type": "uint256"
        },
        {
          "internalType": "uint256",
          "name": "amount",
          "type": "uint256"
        },
        {
          "internalType": "bool",
          "name": "claimed",
          "type": "bool"
        },
        {
          "internalType": "bool",
          "name": "bonusClaimed",
          "type": "bool"
        }
      ],
      "stateMutability": "view",
      "type": "function"
    },
    {
      "inputs": [
        {
          "internalType": "uint256",
          "name": "epoch",
          "type": "uint256"
        }
      ],
      "name": "makeRefundable",
      "outputs": [],
      "stateMutability": "nonpayable",
      "type": "function"
    },
    {
      "inputs": [],
      "name": "minBetAmount",
      "outputs": [
        {
          "internalType": "uint256",
          "name": "",
          "type": "uint256"
        }
      ],
      "stateMutability": "view",
      "type": "function"
    },
    {
      "inputs": [],
      "name": "operatorAddress",
      "outputs": [
        {
          "internalType": "address",
          "name": "",
          "type": "address"
        }
      ],
      "stateMutability": "view",
      "type": "function"
    },
    {
      "inputs": [],
      "name": "oracleLatestRoundId",
      "outputs": [
        {
          "internalType": "uint256",
          "name": "",
          "type": "uint256"
        }
      ],
      "stateMutability": "view",
      "type": "function"
    },
    {
      "inputs": [],
      "name": "oracleUpdateAllowance",
      "outputs": [
        {
          "internalType": "uint256",
          "name": "",
          "type": "uint256"
        }
      ],
      "stateMutability": "view",
      "type": "function"
    },
    {
      "inputs": [],
      "name": "owner",
      "outputs": [
        {
          "internalType": "address",
          "name": "",
          "type": "address"
        }
      ],
      "stateMutability": "view",
      "type": "function"
    },
    {
      "inputs": [],
      "name": "pause",
      "outputs": [],
      "stateMutability": "nonpayable",
      "type": "function"
    },
    {
      "inputs": [],
      "name": "paused",
      "outputs": [
        {
          "internalType": "bool",
          "name": "",
          "type": "bool"
        }
      ],
      "stateMutability": "view",
      "type": "function"
    },
    {
      "inputs": [],
      "name": "proxiableUUID",
      "outputs": [
        {
          "internalType": "bytes32",
          "name": "",
          "type": "bytes32"
        }
      ],
      "stateMutability": "view",
      "type": "function"
    },
    {
      "inputs": [],
      "name": "randomResult",
      "outputs": [
        {
          "internalType": "uint256",
          "name": "",
          "type": "uint256"
        }
      ],
      "stateMutability": "view",
      "type": "function"
    },
    {
      "inputs": [
        {
          "internalType": "bytes32",
          "name": "requestId",
          "type": "bytes32"
        },
        {
          "internalType": "uint256",
          "name": "randomness",
          "type": "uint256"
        }
      ],
      "name": "rawFulfillRandomness",
      "outputs": [],
      "stateMutability": "nonpayable",
      "type": "function"
    },
    {
      "inputs": [
        {
          "internalType": "address",
          "name": "_token",
          "type": "address"
        },
        {
          "internalType": "uint256",
          "name": "_amount",
          "type": "uint256"
        }
      ],
      "name": "recoverToken",
      "outputs": [],
      "stateMutability": "nonpayable",
      "type": "function"
    },
    {
      "inputs": [
        {
          "internalType": "uint256",
          "name": "epoch",
          "type": "uint256"
        },
        {
          "internalType": "address",
          "name": "user",
          "type": "address"
        }
      ],
      "name": "refundable",
      "outputs": [
        {
          "internalType": "bool",
          "name": "",
          "type": "bool"
        }
      ],
      "stateMutability": "view",
      "type": "function"
    },
    {
      "inputs": [],
      "name": "renounceOwnership",
      "outputs": [],
      "stateMutability": "nonpayable",
      "type": "function"
    },
    {
      "inputs": [
        {
          "internalType": "uint256",
          "name": "",
          "type": "uint256"
        }
      ],
      "name": "rounds",
      "outputs": [
        {
          "internalType": "uint256",
          "name": "epoch",
          "type": "uint256"
        },
        {
          "internalType": "uint256",
          "name": "startTimestamp",
          "type": "uint256"
        },
        {
          "internalType": "uint256",
          "name": "closeTimestamp",
          "type": "uint256"
        },
        {
          "internalType": "int256",
          "name": "tossResult",
          "type": "int256"
        },
        {
          "internalType": "uint256",
          "name": "closeOracleId",
          "type": "uint256"
        },
        {
          "internalType": "uint256",
          "name": "totalAmount",
          "type": "uint256"
        },
        {
          "internalType": "uint256",
          "name": "headsAmount",
          "type": "uint256"
        },
        {
          "internalType": "uint256",
          "name": "tailsAmount",
          "type": "uint256"
        },
        {
          "internalType": "uint256",
          "name": "rewardBaseCalAmount",
          "type": "uint256"
        },
        {
          "internalType": "uint256",
          "name": "rewardAmount",
          "type": "uint256"
        },
        {
          "internalType": "bool",
          "name": "oracleCalled",
          "type": "bool"
        },
        {
          "internalType": "bool",
          "name": "ifRefundable",
          "type": "bool"
        }
      ],
      "stateMutability": "view",
      "type": "function"
    },
    {
      "inputs": [],
      "name": "routerContract",
      "outputs": [
        {
          "internalType": "address",
          "name": "",
          "type": "address"
        }
      ],
      "stateMutability": "view",
      "type": "function"
    },
    {
      "inputs": [
        {
          "internalType": "address",
          "name": "_adminAddress",
          "type": "address"
        }
      ],
      "name": "setAdmin",
      "outputs": [],
      "stateMutability": "nonpayable",
      "type": "function"
    },
    {
      "inputs": [
        {
          "internalType": "uint256",
          "name": "_intervalSeconds",
          "type": "uint256"
        }
      ],
      "name": "setIntervalSeconds",
      "outputs": [],
      "stateMutability": "nonpayable",
      "type": "function"
    },
    {
      "inputs": [
        {
          "internalType": "uint256",
          "name": "_linkFee",
          "type": "uint256"
        }
      ],
      "name": "setLinkFee",
      "outputs": [],
      "stateMutability": "nonpayable",
      "type": "function"
    },
    {
      "inputs": [
        {
          "internalType": "uint256",
          "name": "_minBetAmount",
          "type": "uint256"
        }
      ],
      "name": "setMinBetAmount",
      "outputs": [],
      "stateMutability": "nonpayable",
      "type": "function"
    },
    {
      "inputs": [
        {
          "internalType": "address",
          "name": "_operatorAddress",
          "type": "address"
        }
      ],
      "name": "setOperator",
      "outputs": [],
      "stateMutability": "nonpayable",
      "type": "function"
    },
    {
      "inputs": [
        {
          "internalType": "uint256",
          "name": "_oracleUpdateAllowance",
          "type": "uint256"
        }
      ],
      "name": "setOracleUpdateAllowance",
      "outputs": [],
      "stateMutability": "nonpayable",
      "type": "function"
    },
    {
      "inputs": [
        {
          "internalType": "uint256",
          "name": "_treasuryFee",
          "type": "uint256"
        }
      ],
      "name": "setTreasuryFee",
      "outputs": [],
      "stateMutability": "nonpayable",
      "type": "function"
    },
    {
      "inputs": [],
      "name": "tokenAddress",
      "outputs": [
        {
          "internalType": "address",
          "name": "",
          "type": "address"
        }
      ],
      "stateMutability": "view",
      "type": "function"
    },
    {
      "inputs": [
        {
          "internalType": "address",
          "name": "newOwner",
          "type": "address"
        }
      ],
      "name": "transferOwnership",
      "outputs": [],
      "stateMutability": "nonpayable",
      "type": "function"
    },
    {
      "inputs": [],
      "name": "treasuryAmount",
      "outputs": [
        {
          "internalType": "uint256",
          "name": "",
          "type": "uint256"
        }
      ],
      "stateMutability": "view",
      "type": "function"
    },
    {
      "inputs": [],
      "name": "treasuryFee",
      "outputs": [
        {
          "internalType": "uint256",
          "name": "",
          "type": "uint256"
        }
      ],
      "stateMutability": "view",
      "type": "function"
    },
    {
      "inputs": [],
      "name": "unpause",
      "outputs": [],
      "stateMutability": "nonpayable",
      "type": "function"
    },
    {
      "inputs": [
        {
          "internalType": "address",
          "name": "newImplementation",
          "type": "address"
        }
      ],
      "name": "upgradeTo",
      "outputs": [],
      "stateMutability": "nonpayable",
      "type": "function"
    },
    {
      "inputs": [
        {
          "internalType": "address",
          "name": "newImplementation",
          "type": "address"
        },
        {
          "internalType": "bytes",
          "name": "data",
          "type": "bytes"
        }
      ],
      "name": "upgradeToAndCall",
      "outputs": [],
      "stateMutability": "payable",
      "type": "function"
    },
    {
      "inputs": [
        {
          "internalType": "address",
          "name": "",
          "type": "address"
        },
        {
          "internalType": "uint256",
          "name": "",
          "type": "uint256"
        }
      ],
      "name": "userRounds",
      "outputs": [
        {
          "internalType": "uint256",
          "name": "",
          "type": "uint256"
        }
      ],
      "stateMutability": "view",
      "type": "function"
    }
  ],
  "transactionHash": "0xe24cb316d39f6751136b2c7969feb7bf75b6d2cea02c63620734be1399b02515",
  "args": [],
  "numDeployments": 1,
  "solcInputHash": "ab20f7579c850e0fbcbcfcb1ce50b5a1",
  "bytecode": "0x60a06040523060601b60805234801561001757600080fd5b5060805160601c615abc620000536000396000818161106e015281816110f3015281816113f1015281816114760152611ba40152615abc6000f3fe6080604052600436106103755760003560e01c80637b3205f5116101d1578063b29a814011610102578063ec324703116100a0578063f7fdec281161006f578063f7fdec2814610abb578063fa968eea14610ad6578063faf147e014610aed578063fc6f946814610b0257600080fd5b8063ec32470314610a5b578063efd12caa14610a72578063f2b3c80914610a85578063f2fde38b14610a9b57600080fd5b8063cc32d176116100dc578063cc32d176146109e4578063cd8ff657146109fb578063cf2f503914610a1b578063dd1f759614610a3b57600080fd5b8063b29a814014610959578063b3ab15fb14610979578063b96570491461099957600080fd5b8063941548c31161016f5780639d76ea58116101495780639d76ea58146108e3578063a0c7f71c14610904578063a890075f14610924578063ae5a7e661461093957600080fd5b8063941548c31461087457806394985ddd14610894578063951fd600146108b457600080fd5b80637d7aca60116101ab5780637d7aca60146107505780638456cb59146107635780638c65c81f146107785780638da5cb5b1461085657600080fd5b80637b3205f5146107045780637bf41254146107195780637d1cd04f1461073957600080fd5b80634f72d846116102ab5780636c18859311610249578063715018a611610223578063715018a61461063c5780637285c58b1461065157806376671808146106cd57806377e741c7146106e457600080fd5b80636c188593146105e75780636c3bed8514610607578063704b6c021461061c57600080fd5b806352d1902d1161028557806352d1902d146105775780635c975abb1461058c57806360554011146105b05780636ba4c138146105c757600080fd5b80634f72d846146105165780634f7cf35b1461053757806351aae1321461055757600080fd5b80633659cfe61161031857806342619f66116102f257806342619f66146104c2578063452fd75a146104d95780634674b31d146104ee5780634f1ef2861461050357600080fd5b80633659cfe614610476578063368acb09146104965780633f4ba83a146104ad57600080fd5b806314b117df1161035457806314b117df146103f4578063205083ba14610414578063273867d414610429578063337a5c801461046057600080fd5b80623bdc741461037a57806306661abd14610391578063127effb2146103bb575b600080fd5b34801561038657600080fd5b5061038f610b28565b005b34801561039d57600080fd5b506103a861013c5481565b6040519081526020015b60405180910390f35b3480156103c757600080fd5b50610131546103dc906001600160a01b031681565b6040516001600160a01b0390911681526020016103b2565b34801561040057600080fd5b5061038f61040f36600461553b565b610df3565b34801561042057600080fd5b506103a8600a81565b34801561043557600080fd5b506103a86104443660046154cb565b6001600160a01b0316600090815261013f602052604090205490565b34801561046c57600080fd5b5061013a546103a8565b34801561048257600080fd5b5061038f6104913660046154cb565b611063565b3480156104a257600080fd5b506103a86101355481565b3480156104b957600080fd5b5061038f6111b6565b3480156104ce57600080fd5b506103a861013b5481565b3480156104e557600080fd5b5061038f61128d565b3480156104fa57600080fd5b506103a8600281565b61038f6105113660046155fa565b6113e6565b34801561052257600080fd5b50610141546103dc906001600160a01b031681565b34801561054357600080fd5b5061038f6105523660046157e1565b61152a565b34801561056357600080fd5b5061038f610572366004615718565b6115e0565b34801561058357600080fd5b506103a8611b97565b34801561059857600080fd5b5060c95460ff165b60405190151581526020016103b2565b3480156105bc57600080fd5b506103a86101385481565b3480156105d357600080fd5b5061038f6105e2366004615718565b611c5c565b3480156105f357600080fd5b5061038f6106023660046157e1565b612428565b34801561061357600080fd5b506103a8600381565b34801561062857600080fd5b5061038f6106373660046154cb565b61254b565b34801561064857600080fd5b5061038f612670565b34801561065d57600080fd5b506106a561066c3660046157f9565b61013d60209081526000928352604080842090915290825290208054600182015460029092015490919060ff8082169161010090041684565b60408051948552602085019390935290151591830191909152151560608201526080016103b2565b3480156106d957600080fd5b506103a86101365481565b3480156106f057600080fd5b5061038f6106ff3660046157e1565b6126d6565b34801561071057600080fd5b5061038f6127f7565b34801561072557600080fd5b506105a06107343660046157f9565b612b5f565b34801561074557600080fd5b506103a86101325481565b61038f61075e3660046157e1565b612c90565b34801561076f57600080fd5b5061038f6130c6565b34801561078457600080fd5b506107f96107933660046157e1565b61013e60205260009081526040902080546001820154600283015460038401546004850154600586015460068701546007880154600889015460098a0154600a909a01549899979896979596949593949293919290919060ff808216916101009004168c565b604080519c8d5260208d019b909b52998b019890985260608a0196909652608089019490945260a088019290925260c087015260e086015261010085015261012084015215156101408301521515610160820152610180016103b2565b34801561086257600080fd5b506097546001600160a01b03166103dc565b34801561088057600080fd5b506105a061088f3660046157f9565b6131ae565b3480156108a057600080fd5b5061038f6108af3660046157c0565b6132cb565b3480156108c057600080fd5b506108d46108cf3660046156e4565b613330565b6040516103b2939291906158b0565b3480156108ef57600080fd5b50610140546103dc906001600160a01b031681565b34801561091057600080fd5b506105a061091f3660046157f9565b613635565b34801561093057600080fd5b506103a8600181565b34801561094557600080fd5b5061038f6109543660046157e1565b61379f565b34801561096557600080fd5b5061038f6109743660046156b9565b6138ba565b34801561098557600080fd5b5061038f6109943660046154cb565b6139f5565b3480156109a557600080fd5b5061038f6109b4366004615503565b61012e80546001600160a01b039384166001600160a01b03199182161790915561012d8054929093169116179055565b3480156109f057600080fd5b506103a86101345481565b348015610a0757600080fd5b5061038f610a163660046157e1565b613ae6565b348015610a2757600080fd5b5061038f610a363660046157e1565b613b81565b348015610a4757600080fd5b506103a8610a563660046156b9565b613c4c565b348015610a6757600080fd5b506103a86101375481565b61038f610a803660046157e1565b613c7e565b348015610a9157600080fd5b506103a86103e881565b348015610aa757600080fd5b5061038f610ab63660046154cb565b61407a565b348015610ac757600080fd5b50610130546105a09060ff1681565b348015610ae257600080fd5b506103a86101335481565b348015610af957600080fd5b506103a8600b81565b348015610b0e57600080fd5b50610130546103dc9061010090046001600160a01b031681565b600260fb541415610b805760405162461bcd60e51b815260206004820152601f60248201527f5265656e7472616e637947756172643a207265656e7472616e742063616c6c0060448201526064015b60405180910390fd5b600260fb556101305461010090046001600160a01b03163314610bd15760405162461bcd60e51b81526020600482015260096024820152682737ba1030b236b4b760b91b6044820152606401610b77565b610135805460009182905561014154604080517f2c035b7400000000000000000000000000000000000000000000000000000000815290519293926001600160a01b0390921691632c035b7491600480820192602092909190829003018186803b158015610c3e57600080fd5b505afa158015610c52573d6000803e3d6000fd5b505050506040513d601f19601f82011682018060405250810190610c7691906154e7565b9050600061014160009054906101000a90046001600160a01b03166001600160a01b0316631c578fde6040518163ffffffff1660e01b815260040160206040518083038186803b158015610cc957600080fd5b505afa158015610cdd573d6000803e3d6000fd5b505050506040513d601f19601f82011682018060405250810190610d0191906154e7565b610141546040517f75ecb9f90000000000000000000000000000000000000000000000000000000081526004810186905291925060009182916001600160a01b0316906375ecb9f990602401604080518083038186803b158015610d6457600080fd5b505afa158015610d78573d6000803e3d6000fd5b505050506040513d601f19601f82011682018060405250810190610d9c919061581d565b91509150610daa8483614142565b610db48382614142565b6040518581527fb9197c6b8e21274bd1e2d9c956a88af5cfee510f630fab3f046300f88b4223619060200160405180910390a15050600160fb55505050565b600054610100900460ff16610e0e5760005460ff1615610e12565b303b155b610e845760405162461bcd60e51b815260206004820152602e60248201527f496e697469616c697a61626c653a20636f6e747261637420697320616c72656160448201527f647920696e697469616c697a65640000000000000000000000000000000000006064820152608401610b77565b600054610100900460ff16158015610ea6576000805461ffff19166101011790555b610eae614210565b610eb6614283565b610ebe6142ee565b610ec6614361565b610efb858561012e80546001600160a01b039384166001600160a01b03199182161790915561012d8054929093169116179055565b610f04336143d4565b6103e8881115610f565760405162461bcd60e51b815260206004820152601560248201527f54726561737572792066656520746f6f206869676800000000000000000000006044820152606401610b77565b8c61013060016101000a8154816001600160a01b0302191690836001600160a01b031602179055508b61013160006101000a8154816001600160a01b0302191690836001600160a01b031602179055508a610132819055508961013381905550886101388190555087610134819055508661014060006101000a8154816001600160a01b0302191690836001600160a01b0316021790555082610139819055508161013a819055508561014160006101000a8154816001600160a01b0302191690836001600160a01b03160217905550600061013060006101000a81548160ff0219169083151502179055508015611054576000805461ff00191690555b50505050505050505050505050565b306001600160a01b037f00000000000000000000000000000000000000000000000000000000000000001614156110f15760405162461bcd60e51b815260206004820152602c60248201527f46756e6374696f6e206d7573742062652063616c6c6564207468726f7567682060448201526b19195b1959d85d1958d85b1b60a21b6064820152608401610b77565b7f00000000000000000000000000000000000000000000000000000000000000006001600160a01b0316611123614428565b6001600160a01b03161461118e5760405162461bcd60e51b815260206004820152602c60248201527f46756e6374696f6e206d7573742062652063616c6c6564207468726f7567682060448201526b6163746976652070726f787960a01b6064820152608401610b77565b6111978161445b565b604080516000808252602082019092526111b3918391906144b5565b50565b60c95460ff166111ff5760405162461bcd60e51b815260206004820152601460248201527314185d5cd8589b194e881b9bdd081c185d5cd95960621b6044820152606401610b77565b6101305461010090046001600160a01b0316331461124b5760405162461bcd60e51b81526020600482015260096024820152682737ba1030b236b4b760b91b6044820152606401610b77565b610130805460ff1916905561125e614664565b610136546040517faaa520fdd7d2c83061d632fa017b0432407e798818af63ea908589fceda39ab790600090a2565b60c95460ff16156112d35760405162461bcd60e51b815260206004820152601060248201526f14185d5cd8589b194e881c185d5cd95960821b6044820152606401610b77565b6101305461010090046001600160a01b03163314806112fd5750610131546001600160a01b031633145b61133e5760405162461bcd60e51b81526020600482015260126024820152712737ba1037b832b930ba37b917b0b236b4b760711b6044820152606401610b77565b6101305460ff16156113b85760405162461bcd60e51b815260206004820152602360248201527f43616e206f6e6c792072756e2067656e657369735374617274526f756e64206f60448201527f6e636500000000000000000000000000000000000000000000000000000000006064820152608401610b77565b610136546113c7906001615969565b6101368190556113d6906146f7565b610130805460ff19166001179055565b306001600160a01b037f00000000000000000000000000000000000000000000000000000000000000001614156114745760405162461bcd60e51b815260206004820152602c60248201527f46756e6374696f6e206d7573742062652063616c6c6564207468726f7567682060448201526b19195b1959d85d1958d85b1b60a21b6064820152608401610b77565b7f00000000000000000000000000000000000000000000000000000000000000006001600160a01b03166114a6614428565b6001600160a01b0316146115115760405162461bcd60e51b815260206004820152602c60248201527f46756e6374696f6e206d7573742062652063616c6c6564207468726f7567682060448201526b6163746976652070726f787960a01b6064820152608401610b77565b61151a8261445b565b611526828260016144b5565b5050565b60c95460ff166115735760405162461bcd60e51b815260206004820152601460248201527314185d5cd8589b194e881b9bdd081c185d5cd95960621b6044820152606401610b77565b6101305461010090046001600160a01b031633146115bf5760405162461bcd60e51b81526020600482015260096024820152682737ba1030b236b4b760b91b6044820152606401610b77565b600090815261013e60205260409020600a01805461ff001916610100179055565b600260fb5414156116335760405162461bcd60e51b815260206004820152601f60248201527f5265656e7472616e637947756172643a207265656e7472616e742063616c6c006044820152606401610b77565b600260fb55333b1561167e5760405162461bcd60e51b815260206004820152601460248201527310dbdb9d1c9858dd081b9bdd08185b1b1bddd95960621b6044820152606401610b77565b3332146116cd5760405162461bcd60e51b815260206004820152601a60248201527f50726f787920636f6e7472616374206e6f7420616c6c6f7765640000000000006044820152606401610b77565b6000805b82811015611adb5761013e60008585848181106116fe57634e487b7160e01b600052603260045260246000fd5b90506020020135815260200190815260200160002060010154600014156117675760405162461bcd60e51b815260206004820152601560248201527f526f756e6420686173206e6f74207374617274656400000000000000000000006044820152606401610b77565b61013e600085858481811061178c57634e487b7160e01b600052603260045260246000fd5b9050602002013581526020019081526020016000206002015442116117f35760405162461bcd60e51b815260206004820152601360248201527f526f756e6420686173206e6f7420656e646564000000000000000000000000006044820152606401610b77565b600061013e600086868581811061181a57634e487b7160e01b600052603260045260246000fd5b60209081029290920135835250810191909152604001600020600a015460ff161561191f5761186f85858481811061186257634e487b7160e01b600052603260045260246000fd5b90506020020135336131ae565b6118bb5760405162461bcd60e51b815260206004820152601c60248201527f4e6f7420656c696769626c6520666f7220626f6e757320636c61696d000000006044820152606401610b77565b61013d60008686858181106118e057634e487b7160e01b600052603260045260246000fd5b9050602002013581526020019081526020016000206000336001600160a01b03166001600160a01b031681526020019081526020016000206001015490505b600161013d600087878681811061194657634e487b7160e01b600052603260045260246000fd5b602090810292909201358352508181019290925260409081016000908120338252909252902060020180549115156101000261ff001990921691909117905561198f8184615969565b92508484838181106119b157634e487b7160e01b600052603260045260246000fd5b90506020020135336001600160a01b03167f7e567203bd9dab3b24539e75d82375de02e29a014088b0266d5905880d2692b6836040516119f391815260200190565b60405180910390a3610141546001600160a01b03166350ca72cd600a3033898988818110611a3157634e487b7160e01b600052603260045260246000fd5b60405160e088901b7fffffffff0000000000000000000000000000000000000000000000000000000016815260048101969096526001600160a01b039485166024870152929093166044850152602090910201356064830152506084810184905260a401600060405180830381600087803b158015611aaf57600080fd5b505af1158015611ac3573d6000803e3d6000fd5b50505050508080611ad390615a03565b9150506116d1565b508015611b8d5761014154610140546040517f5e8c2c8d0000000000000000000000000000000000000000000000000000000081526001600160a01b03918216600482015233602482015260448101849052911690635e8c2c8d90606401602060405180830381600087803b158015611b5357600080fd5b505af1158015611b67573d6000803e3d6000fd5b505050506040513d601f19601f82011682018060405250810190611b8b91906157a8565b505b5050600160fb5550565b6000306001600160a01b037f00000000000000000000000000000000000000000000000000000000000000001614611c375760405162461bcd60e51b815260206004820152603860248201527f555550535570677261646561626c653a206d757374206e6f742062652063616c60448201527f6c6564207468726f7567682064656c656761746563616c6c00000000000000006064820152608401610b77565b507f360894a13ba1a3210667c828492db98dca3e2076cc3735a920a3ca505d382bbc90565b600260fb541415611caf5760405162461bcd60e51b815260206004820152601f60248201527f5265656e7472616e637947756172643a207265656e7472616e742063616c6c006044820152606401610b77565b600260fb55333b15611cfa5760405162461bcd60e51b815260206004820152601460248201527310dbdb9d1c9858dd081b9bdd08185b1b1bddd95960621b6044820152606401610b77565b333214611d495760405162461bcd60e51b815260206004820152601a60248201527f50726f787920636f6e7472616374206e6f7420616c6c6f7765640000000000006044820152606401610b77565b6000805b828110156124175761013e6000858584818110611d7a57634e487b7160e01b600052603260045260246000fd5b9050602002013581526020019081526020016000206001015460001415611de35760405162461bcd60e51b815260206004820152601560248201527f526f756e6420686173206e6f74207374617274656400000000000000000000006044820152606401610b77565b61013e6000858584818110611e0857634e487b7160e01b600052603260045260246000fd5b90506020020135815260200190815260200160002060020154421180611e75575061013e6000858584818110611e4e57634e487b7160e01b600052603260045260246000fd5b905060200201358152602001908152602001600020600a0160019054906101000a900460ff165b611ec15760405162461bcd60e51b815260206004820152601360248201527f526f756e6420686173206e6f7420656e646564000000000000000000000000006044820152606401610b77565b600061013e6000868685818110611ee857634e487b7160e01b600052603260045260246000fd5b60209081029290920135835250810191909152604001600020600a015460ff16156120de57611f3d858584818110611f3057634e487b7160e01b600052603260045260246000fd5b9050602002013533613635565b611f895760405162461bcd60e51b815260206004820152601660248201527f4e6f7420656c696769626c6520666f7220636c61696d000000000000000000006044820152606401610b77565b600061013e6000878786818110611fb057634e487b7160e01b600052603260045260246000fd5b602090810292909201358352508181019290925260409081016000908120825161018081018452815481526001820154948101949094526002810154928401929092526003820154606084015260048201546080840152600582015460a0840152600682015460c0840152600782015460e0840152600882015461010080850182905260098401546101208601819052600a9094015460ff808216151561014088015291900416151561016085015292935061013d9089898881811061208657634e487b7160e01b600052603260045260246000fd5b9050602002013581526020019081526020016000206000336001600160a01b03166001600160a01b03168152602001908152602001600020600101546120cc91906159a1565b6120d69190615981565b915050612262565b61210e85858481811061210157634e487b7160e01b600052603260045260246000fd5b9050602002013533612b5f565b61215a5760405162461bcd60e51b815260206004820152601760248201527f4e6f7420656c696769626c6520666f7220726566756e640000000000000000006044820152606401610b77565b60006127106101345461013d600089898881811061218857634e487b7160e01b600052603260045260246000fd5b9050602002013581526020019081526020016000206000336001600160a01b03166001600160a01b03168152602001908152602001600020600101546121ce91906159a1565b6121d89190615981565b90508061013d600088888781811061220057634e487b7160e01b600052603260045260246000fd5b9050602002013581526020019081526020016000206000336001600160a01b03166001600160a01b031681526020019081526020016000206001015461224691906159c0565b915080610135600082825461225b9190615969565b9091555050505b600161013d600087878681811061228957634e487b7160e01b600052603260045260246000fd5b6020908102929092013583525081810192909252604090810160009081203382529092529020600201805460ff19169115159190911790556122cb8184615969565b92508484838181106122ed57634e487b7160e01b600052603260045260246000fd5b90506020020135336001600160a01b03167f34fcbac0073d7c3d388e51312faf357774904998eeb8fca628b9e6f65ee1cbf78360405161232f91815260200190565b60405180910390a3610141546001600160a01b03166350ca72cd6001303389898881811061236d57634e487b7160e01b600052603260045260246000fd5b60405160e088901b7fffffffff0000000000000000000000000000000000000000000000000000000016815260048101969096526001600160a01b039485166024870152929093166044850152602090910201356064830152506084810184905260a401600060405180830381600087803b1580156123eb57600080fd5b505af11580156123ff573d6000803e3d6000fd5b5050505050808061240f90615a03565b915050611d4d565b508015611b8d57611b8d3382614142565b60c95460ff166124715760405162461bcd60e51b815260206004820152601460248201527314185d5cd8589b194e881b9bdd081c185d5cd95960621b6044820152606401610b77565b6101305461010090046001600160a01b031633146124bd5760405162461bcd60e51b81526020600482015260096024820152682737ba1030b236b4b760b91b6044820152606401610b77565b8061250a5760405162461bcd60e51b815260206004820152601560248201527f4d757374206265207375706572696f7220746f203000000000000000000000006044820152606401610b77565b610133819055610136546040518281527f90eb87c560a0213754ceb3a7fa3012f01acab0a35602c1e1995adf69dabc9d50906020015b60405180910390a250565b6097546001600160a01b031633146125a55760405162461bcd60e51b815260206004820181905260248201527f4f776e61626c653a2063616c6c6572206973206e6f7420746865206f776e65726044820152606401610b77565b6001600160a01b0381166125fb5760405162461bcd60e51b815260206004820152601660248201527f43616e6e6f74206265207a65726f2061646472657373000000000000000000006044820152606401610b77565b61013080547fffffffffffffffffffffff0000000000000000000000000000000000000000ff166101006001600160a01b038416908102919091179091556040519081527f137b621413925496477d46e5055ac0d56178bdd724ba8bf843afceef18268ba3906020015b60405180910390a150565b6097546001600160a01b031633146126ca5760405162461bcd60e51b815260206004820181905260248201527f4f776e61626c653a2063616c6c6572206973206e6f7420746865206f776e65726044820152606401610b77565b6126d46000614758565b565b60c95460ff1661271f5760405162461bcd60e51b815260206004820152601460248201527314185d5cd8589b194e881b9bdd081c185d5cd95960621b6044820152606401610b77565b6101305461010090046001600160a01b0316331461276b5760405162461bcd60e51b81526020600482015260096024820152682737ba1030b236b4b760b91b6044820152606401610b77565b6103e88111156127bd5760405162461bcd60e51b815260206004820152601560248201527f54726561737572792066656520746f6f206869676800000000000000000000006044820152606401610b77565b610134819055610136546040518281527fb1c4ee38d35556741133da7ff9b6f7ab0fa88d0406133126ff128f635490a85790602001612540565b60c95460ff161561283d5760405162461bcd60e51b815260206004820152601060248201526f14185d5cd8589b194e881c185d5cd95960821b6044820152606401610b77565b6101305461010090046001600160a01b03163314806128675750610131546001600160a01b031633145b6128a85760405162461bcd60e51b81526020600482015260126024820152712737ba1037b832b930ba37b917b0b236b4b760711b6044820152606401610b77565b6101305460ff166129215760405162461bcd60e51b815260206004820152603160248201527f43616e206f6e6c792072756e2061667465722067656e6573697353746172745260448201527f6f756e64206973207472696767657265640000000000000000000000000000006064820152608401610b77565b61013a5461012d546040517f70a082310000000000000000000000000000000000000000000000000000000081523060048201526001600160a01b03909116906370a082319060240160206040518083038186803b15801561298257600080fd5b505afa158015612996573d6000803e3d6000fd5b505050506040513d601f19601f820116820180604052508101906129ba91906157a8565b1015612a2e5760405162461bcd60e51b815260206004820152602b60248201527f4e6f7420656e6f756768204c494e4b202d2066696c6c20636f6e74726163742060448201527f77697468206661756365740000000000000000000000000000000000000000006064820152608401610b77565b61013654600090815261013e6020526040902060010154612aa45760405162461bcd60e51b815260206004820152602a60248201527f43616e206f6e6c7920656e6420726f756e6420616674657220726f756e642068604482015269185cc81cdd185c9d195960b21b6064820152608401610b77565b61013654600090815261013e6020526040902060020154421015612b1a5760405162461bcd60e51b815260206004820152602760248201527f43616e206f6e6c7920656e6420726f756e6420616674657220636c6f7365546960448201526606d657374616d760cc1b6064820152608401610b77565b6000612b2c6101395461013a546147aa565b90507fc42af83c28556d10f63cf885e6cd2082168ea0e8f457a89dadf156cc8df1ea9a8160405161266591815260200190565b600082815261013d602090815260408083206001600160a01b03851684528252808320815160808082018452825482526001808401548387015260029384015460ff80821615158588015261010091829004811615156060808701919091528b8a5261013e8952878a20885161018081018a528154815294810154998501999099529588015496830196909652600387015494820194909452600486015491810191909152600585015460a0820152600685015460c0820152600785015460e08201526008850154818401526009850154610120820152600a90940154808416151561014086015291909104909116158015610160840181905291929190612c6957508160400151155b8015612c785750806040015142115b8015612c875750602082015115155b95945050505050565b60c95460ff1615612cd65760405162461bcd60e51b815260206004820152601060248201526f14185d5cd8589b194e881c185d5cd95960821b6044820152606401610b77565b600260fb541415612d295760405162461bcd60e51b815260206004820152601f60248201527f5265656e7472616e637947756172643a207265656e7472616e742063616c6c006044820152606401610b77565b600260fb55333b15612d745760405162461bcd60e51b815260206004820152601460248201527310dbdb9d1c9858dd081b9bdd08185b1b1bddd95960621b6044820152606401610b77565b333214612dc35760405162461bcd60e51b815260206004820152601a60248201527f50726f787920636f6e7472616374206e6f7420616c6c6f7765640000000000006044820152606401610b77565b610136548114612e155760405162461bcd60e51b815260206004820152601560248201527f42657420697320746f6f206561726c792f6c61746500000000000000000000006044820152606401610b77565b612e1e81614919565b612e6a5760405162461bcd60e51b815260206004820152601260248201527f526f756e64206e6f74206265747461626c6500000000000000000000000000006044820152606401610b77565b61013354341015612ee35760405162461bcd60e51b815260206004820152602c60248201527f42657420616d6f756e74206d7573742062652067726561746572207468616e2060448201527f6d696e426574416d6f756e7400000000000000000000000000000000000000006064820152608401610b77565b600081815261013d60209081526040808320338452909152902060010154349015612f7257600082815261013d60209081526040808320338452909152902054600114612f725760405162461bcd60e51b815260206004820152601d60248201527f43616e206f6e6c7920626574206f6e207468652073616d6520736964650000006044820152606401610b77565b600082815261013e602052604090206005810154612f91908390615969565b60058201556006810154612fa6908390615969565b6006820155600083815261013d6020908152604080832033845290915290206001810154612ff25733600090815261013f60209081526040822080546001810182559083529120018490555b6001808255810154613005908490615969565b6001820155604051838152849033907fb6d8e7d6ffd9d5a3a37fec9f3e7ae19b4252138e5d2b7a4faf8022f7f09969ed9060200160405180910390a3610141546040516350ca72cd60e01b81526003600482015230602482015233604482015260648101869052608481018590526001600160a01b03909116906350ca72cd9060a4015b600060405180830381600087803b1580156130a357600080fd5b505af11580156130b7573d6000803e3d6000fd5b5050600160fb55505050505050565b60c95460ff161561310c5760405162461bcd60e51b815260206004820152601060248201526f14185d5cd8589b194e881c185d5cd95960821b6044820152606401610b77565b6101305461010090046001600160a01b03163314806131365750610131546001600160a01b031633145b6131775760405162461bcd60e51b81526020600482015260126024820152712737ba1037b832b930ba37b917b0b236b4b760711b6044820152606401610b77565b61317f61498b565b610136546040517f68b095021b1f40fe513109f513c66692f0b3219aee674a69f4efc57badb8201d90600090a2565b600082815261013d602090815260408083206001600160a01b03851684528252808320815160808082018452825482526001808401548387015260029384015460ff80821615158588015261010091829004811615156060808701919091528b8a5261013e8952878a20885161018081018a528154815294810154998501999099529588015496830196909652600387015494820194909452600486015491810191909152600585015460a0820152600685015460c0820152600785015460e08201526008850154818401526009850154610120820152600a90940154808416158015610140870181905293909104909316151561016085015292916132b75750602082015115155b8015612c8757505060600151159392505050565b61012e546001600160a01b031633146133265760405162461bcd60e51b815260206004820152601f60248201527f4f6e6c7920565246436f6f7264696e61746f722063616e2066756c66696c6c006044820152606401610b77565b6115268282614a06565b6001600160a01b038316600090815261013f6020526040812054606091829184908611156133a05760405162461bcd60e51b815260206004820152601460248201527f437572736f72206f7574206f6620626f756e64730000000000000000000000006044820152606401610b77565b6001600160a01b038716600090815261013f60205260409020546133c59087906159c0565b8111156133f4576001600160a01b038716600090815261013f60205260409020546133f19087906159c0565b90505b60008167ffffffffffffffff81111561341d57634e487b7160e01b600052604160045260246000fd5b604051908082528060200260200182016040528015613446578160200160208202803683370190505b50905060008267ffffffffffffffff81111561347257634e487b7160e01b600052604160045260246000fd5b6040519080825280602002602001820160405280156134c457816020015b6040805160808101825260008082526020808301829052928201819052606082015282526000199092019101816134905790505b50905060005b83811015613616576001600160a01b038a16600090815261013f602052604090206134f5828b615969565b8154811061351357634e487b7160e01b600052603260045260246000fd5b906000526020600020015483828151811061353e57634e487b7160e01b600052603260045260246000fd5b60200260200101818152505061013d600084838151811061356f57634e487b7160e01b600052603260045260246000fd5b602090810291909101810151825281810192909252604090810160009081206001600160a01b038e16825283528190208151608081018352815481526001820154938101939093526002015460ff8082161515928401929092526101009004161515606082015282518390839081106135f857634e487b7160e01b600052603260045260246000fd5b6020026020010181905250808061360e90615a03565b9150506134ca565b508181613623858b615969565b95509550955050505093509350939050565b600082815261013d602090815260408083206001600160a01b03851684528252808320815160808082018452825482526001808401548387015260029384015460ff80821615158588015261010091829004811615156060808701919091528b8a5261013e8952878a20885161018081018a528154815294810154998501999099529588015496830196909652600387015494820194909452600486015491810191909152600585015460a0820152600685015460c0820152600785015460e08201526008850154818401526009850154610120820152600a909401548084161580156101408701819052939091049093161515610160850152929161373e5750602082015115155b801561374c57508160400151155b8015612c87575080606001516001148015613768575081516001145b8061377f5750606081015115801561377f57508151155b8061378c575060c0810151155b80612c87575060e0015115949350505050565b60c95460ff166137e85760405162461bcd60e51b815260206004820152601460248201527314185d5cd8589b194e881b9bdd081c185d5cd95960621b6044820152606401610b77565b6101305461010090046001600160a01b031633146138345760405162461bcd60e51b81526020600482015260096024820152682737ba1030b236b4b760b91b6044820152606401610b77565b600081116138845760405162461bcd60e51b815260206004820152601660248201527f4d7573742062652067726561746572207468616e2030000000000000000000006044820152606401610b77565b6101328190556040518181527f6efaca79509f934278cc6180e6675623f6c3b11afb2f4f96fb714d229d58f22790602001612665565b6097546001600160a01b031633146139145760405162461bcd60e51b815260206004820181905260248201527f4f776e61626c653a2063616c6c6572206973206e6f7420746865206f776e65726044820152606401610b77565b6040517fa9059cbb000000000000000000000000000000000000000000000000000000008152336004820152602481018290526001600160a01b0383169063a9059cbb90604401602060405180830381600087803b15801561397557600080fd5b505af1158015613989573d6000803e3d6000fd5b505050506040513d601f19601f820116820180604052508101906139ad9190615788565b50816001600160a01b03167f14f11966a996e0629572e51064726d2057a80fbd34efc066682c06a71dbb6e98826040516139e991815260200190565b60405180910390a25050565b6101305461010090046001600160a01b03163314613a415760405162461bcd60e51b81526020600482015260096024820152682737ba1030b236b4b760b91b6044820152606401610b77565b6001600160a01b038116613a975760405162461bcd60e51b815260206004820152601660248201527f43616e6e6f74206265207a65726f2061646472657373000000000000000000006044820152606401610b77565b61013180546001600160a01b0319166001600160a01b0383169081179091556040519081527fc47d127c07bdd56c5ccba00463ce3bd3c1bca71b4670eea6e5d0c02e4aa156e290602001612665565b60c95460ff16613b2f5760405162461bcd60e51b815260206004820152601460248201527314185d5cd8589b194e881b9bdd081c185d5cd95960621b6044820152606401610b77565b6101305461010090046001600160a01b03163314613b7b5760405162461bcd60e51b81526020600482015260096024820152682737ba1030b236b4b760b91b6044820152606401610b77565b61013a55565b60c95460ff16613bca5760405162461bcd60e51b815260206004820152601460248201527314185d5cd8589b194e881b9bdd081c185d5cd95960621b6044820152606401610b77565b6101305461010090046001600160a01b03163314613c165760405162461bcd60e51b81526020600482015260096024820152682737ba1030b236b4b760b91b6044820152606401610b77565b6101388190556040518181527f93ccaceac092ffb842c46b8718667a13a80e9058dcd0bd403d0b47215b30da0790602001612665565b61013f6020528160005260406000208181548110613c6957600080fd5b90600052602060002001600091509150505481565b60c95460ff1615613cc45760405162461bcd60e51b815260206004820152601060248201526f14185d5cd8589b194e881c185d5cd95960821b6044820152606401610b77565b600260fb541415613d175760405162461bcd60e51b815260206004820152601f60248201527f5265656e7472616e637947756172643a207265656e7472616e742063616c6c006044820152606401610b77565b600260fb55333b15613d625760405162461bcd60e51b815260206004820152601460248201527310dbdb9d1c9858dd081b9bdd08185b1b1bddd95960621b6044820152606401610b77565b333214613db15760405162461bcd60e51b815260206004820152601a60248201527f50726f787920636f6e7472616374206e6f7420616c6c6f7765640000000000006044820152606401610b77565b610136548114613e035760405162461bcd60e51b815260206004820152601560248201527f42657420697320746f6f206561726c792f6c61746500000000000000000000006044820152606401610b77565b613e0c81614919565b613e585760405162461bcd60e51b815260206004820152601260248201527f526f756e64206e6f74206265747461626c6500000000000000000000000000006044820152606401610b77565b61013354341015613ed15760405162461bcd60e51b815260206004820152602d60248201527f2042657420616d6f756e74206d7573742062652067726561746572207468616e60448201527f206d696e426574416d6f756e74000000000000000000000000000000000000006064820152608401610b77565b600081815261013d60209081526040808320338452909152902060010154349015613f5e57600082815261013d6020908152604080832033845290915290205415613f5e5760405162461bcd60e51b815260206004820152601d60248201527f43616e206f6e6c7920626574206f6e207468652073616d6520736964650000006044820152606401610b77565b600082815261013e602052604090206005810154613f7d908390615969565b60058201556007810154613f92908390615969565b6007820155600083815261013d6020908152604080832033845290915290206001810154613fde5733600090815261013f60209081526040822080546001810182559083529120018490555b600081556001810154613ff2908490615969565b6001820155604051838152849033907fe5c4e2521320c9bf477fd178a50f99ad0a3242b16ff67be0f697b0998ccfd3169060200160405180910390a3610141546040516350ca72cd60e01b81526002600482015230602482015233604482015260648101869052608481018590526001600160a01b03909116906350ca72cd9060a401613089565b6097546001600160a01b031633146140d45760405162461bcd60e51b815260206004820181905260248201527f4f776e61626c653a2063616c6c6572206973206e6f7420746865206f776e65726044820152606401610b77565b6001600160a01b0381166141395760405162461bcd60e51b815260206004820152602660248201527f4f776e61626c653a206e6577206f776e657220697320746865207a65726f206160448201526564647265737360d01b6064820152608401610b77565b6111b381614758565b6000826001600160a01b03168260405160006040518083038185875af1925050503d806000811461418f576040519150601f19603f3d011682016040523d82523d6000602084013e614194565b606091505b505090508061420b5760405162461bcd60e51b815260206004820152602560248201527f5472616e7366657248656c7065723a204d415449435f5452414e534645525f4660448201527f41494c45440000000000000000000000000000000000000000000000000000006064820152608401610b77565b505050565b600054610100900460ff1661427b5760405162461bcd60e51b815260206004820152602b60248201527f496e697469616c697a61626c653a20636f6e7472616374206973206e6f74206960448201526a6e697469616c697a696e6760a81b6064820152608401610b77565b6126d4614b8d565b600054610100900460ff166126d45760405162461bcd60e51b815260206004820152602b60248201527f496e697469616c697a61626c653a20636f6e7472616374206973206e6f74206960448201526a6e697469616c697a696e6760a81b6064820152608401610b77565b600054610100900460ff166143595760405162461bcd60e51b815260206004820152602b60248201527f496e697469616c697a61626c653a20636f6e7472616374206973206e6f74206960448201526a6e697469616c697a696e6760a81b6064820152608401610b77565b6126d4614c01565b600054610100900460ff166143cc5760405162461bcd60e51b815260206004820152602b60248201527f496e697469616c697a61626c653a20636f6e7472616374206973206e6f74206960448201526a6e697469616c697a696e6760a81b6064820152608401610b77565b6126d4614c73565b7f7e644d79422f17c01e4894b5f4f588d331ebfa28653d42ae832dc59e38c9798f6143fd614cea565b604080516001600160a01b03928316815291841660208301520160405180910390a16111b381614d12565b60007f360894a13ba1a3210667c828492db98dca3e2076cc3735a920a3ca505d382bbc5b546001600160a01b0316919050565b6097546001600160a01b031633146111b35760405162461bcd60e51b815260206004820181905260248201527f4f776e61626c653a2063616c6c6572206973206e6f7420746865206f776e65726044820152606401610b77565b7f4910fdfa16fed3260ed0e7147f7cc6da11a60208b5b9406d12a635614ffd91435460ff16156144e85761420b83614dbb565b826001600160a01b03166352d1902d6040518163ffffffff1660e01b815260040160206040518083038186803b15801561452157600080fd5b505afa925050508015614551575060408051601f3d908101601f1916820190925261454e918101906157a8565b60015b6145c35760405162461bcd60e51b815260206004820152602e60248201527f45524331393637557067726164653a206e657720696d706c656d656e7461746960448201527f6f6e206973206e6f7420555550530000000000000000000000000000000000006064820152608401610b77565b7f360894a13ba1a3210667c828492db98dca3e2076cc3735a920a3ca505d382bbc81146146585760405162461bcd60e51b815260206004820152602960248201527f45524331393637557067726164653a20756e737570706f727465642070726f7860448201527f6961626c655555494400000000000000000000000000000000000000000000006064820152608401610b77565b5061420b838383614e5f565b60c95460ff166146ad5760405162461bcd60e51b815260206004820152601460248201527314185d5cd8589b194e881b9bdd081c185d5cd95960621b6044820152606401610b77565b60c9805460ff191690557f5db9ee0a495bf2e6ff9c91a7834c1ba4fdd244a5e8aa4e537bd38aeae4b073aa335b6040516001600160a01b03909116815260200160405180910390a1565b600081815261013e6020526040902042600182018190556101325461471b91615969565b600282015581815560006005820181905560405183917f939f42374aa9bf1d8d8cd56d8a9110cb040cd8dfeae44080c6fcf2645e51b45291a25050565b609780546001600160a01b038381166001600160a01b0319831681179093556040519116919082907f8be0079c531659141344cd1fd0a4f28419497f9722a3daafe3b4186f6b6457e090600090a35050565b61012d5461012e546040805160208101869052600081830181905282518083038401815260608301938490527f4000aea000000000000000000000000000000000000000000000000000000000909352936001600160a01b0390811693634000aea093614821939290911691879190606401615888565b602060405180830381600087803b15801561483b57600080fd5b505af115801561484f573d6000803e3d6000fd5b505050506040513d601f19601f820116820180604052508101906148739190615788565b50600083815261012f6020818152604080842054815180840189905280830186905230606082015260808082018390528351808303909101815260a0909101909252815191830191909120938790529190526148d0906001615969565b600085815261012f60205260409020556149118482604080516020808201949094528082019290925280518083038201815260609092019052805191012090565b949350505050565b600081815261013e60205260408120600101541580159061494b5750600082815261013e602052604090206002015415155b80156149685750600082815261013e602052604090206001015442115b80156149855750600082815261013e602052604090206002015442105b92915050565b60c95460ff16156149d15760405162461bcd60e51b815260206004820152601060248201526f14185d5cd8589b194e881c185d5cd95960821b6044820152606401610b77565b60c9805460ff191660011790557f62e78cea01bee320cd4e420270b5ea74000d11b0c9f74754ebdbfc544b05a2586146da3390565b60c95460ff1615614a4c5760405162461bcd60e51b815260206004820152601060248201526f14185d5cd8589b194e881c185d5cd95960821b6044820152606401610b77565b61013b81905561013c8054906000614a6383615a03565b90915550506040805183815260208101839052338183015290517f71ddff8a6689dc446a2b56d55e9f2f3a5b3d39b9e1a8ee0355fcd096d0e78fce9181900360600190a161013c546101378190556001821660026000821315614ac4575060035b61014154610136546040516350ca72cd60e01b8152600b60048201523060248201523360448201526064810191909152608481018390526001600160a01b03909116906350ca72cd9060a401600060405180830381600087803b158015614b2a57600080fd5b505af1158015614b3e573d6000803e3d6000fd5b50505050614b5c610136548469ffffffffffffffffffff1684614e8a565b614b6861013654614fcc565b61013654614b77906001615969565b610136819055614b869061519d565b5050505050565b600054610100900460ff16614bf85760405162461bcd60e51b815260206004820152602b60248201527f496e697469616c697a61626c653a20636f6e7472616374206973206e6f74206960448201526a6e697469616c697a696e6760a81b6064820152608401610b77565b6126d433614758565b600054610100900460ff16614c6c5760405162461bcd60e51b815260206004820152602b60248201527f496e697469616c697a61626c653a20636f6e7472616374206973206e6f74206960448201526a6e697469616c697a696e6760a81b6064820152608401610b77565b600160fb55565b600054610100900460ff16614cde5760405162461bcd60e51b815260206004820152602b60248201527f496e697469616c697a61626c653a20636f6e7472616374206973206e6f74206960448201526a6e697469616c697a696e6760a81b6064820152608401610b77565b60c9805460ff19169055565b60007fb53127684a568b3173ae13b9f8a6016e243e63b6e8ee1178d6a717850b5d610361444c565b6001600160a01b038116614d775760405162461bcd60e51b815260206004820152602660248201527f455243313936373a206e65772061646d696e20697320746865207a65726f206160448201526564647265737360d01b6064820152608401610b77565b807fb53127684a568b3173ae13b9f8a6016e243e63b6e8ee1178d6a717850b5d61035b80546001600160a01b0319166001600160a01b039290921691909117905550565b6001600160a01b0381163b614e385760405162461bcd60e51b815260206004820152602d60248201527f455243313936373a206e657720696d706c656d656e746174696f6e206973206e60448201527f6f74206120636f6e7472616374000000000000000000000000000000000000006064820152608401610b77565b807f360894a13ba1a3210667c828492db98dca3e2076cc3735a920a3ca505d382bbc614d9a565b614e688361534e565b600082511180614e755750805b1561420b57614e84838361538e565b50505050565b600083815261013e6020526040902060010154614efc5760405162461bcd60e51b815260206004820152602a60248201527f43616e206f6e6c7920656e6420726f756e6420616674657220726f756e642068604482015269185cc81cdd185c9d195960b21b6064820152608401610b77565b600083815261013e6020526040902060020154421015614f6e5760405162461bcd60e51b815260206004820152602760248201527f43616e206f6e6c7920656e6420726f756e6420616674657220636c6f7365546960448201526606d657374616d760cc1b6064820152608401610b77565b600083815261013e60205260408082206003810184905560048101859055600a8101805460ff1916600117905590519091849186917f3de62ea950fc2ed1ed823bb23086296729e73cdd05823251b76e36665ff267b591a350505050565b600081815261013e6020526040902060080154158015614ffc5750600081815261013e6020526040902060090154155b6150485760405162461bcd60e51b815260206004820152601260248201527f526577617264732063616c63756c6174656400000000000000000000000000006044820152606401610b77565b600081815261013e602052604081206006810154909190819081906150a7578360070154925061271061013454856005015461508491906159a1565b61508e9190615981565b91508184600501546150a091906159c0565b905061512a565b60078401546150cd578360060154925061271061013454856005015461508491906159a1565b8360030154600114156150f7578360060154925061271061013454856005015461508491906159a1565b600384015461511d578360070154925061271061013454856005015461508491906159a1565b5050506005810154600090815b6008840183905560098401819055610135805483919060009061514e908490615969565b9091555050604080518481526020810183905290810183905285907f6dfdfcb09c8804d0058826cd2539f1acfbe3cb887c9be03d928035bce0f1a58d9060600160405180910390a25050505050565b6101305460ff166152165760405162461bcd60e51b815260206004820152603160248201527f43616e206f6e6c792072756e2061667465722067656e6573697353746172745260448201527f6f756e64206973207472696767657265640000000000000000000000000000006064820152608401610b77565b61013e60006152266001846159c0565b815260200190815260200160002060020154600014156152ae5760405162461bcd60e51b815260206004820152602e60248201527f43616e206f6e6c7920737461727420726f756e6420616674657220726f756e6460448201527f206e2d312068617320656e6465640000000000000000000000000000000000006064820152608401610b77565b61013e60006152be6001846159c0565b8152602001908152602001600020600201544210156153455760405162461bcd60e51b815260206004820152603760248201527f43616e206f6e6c79207374617274206e657720726f756e64206166746572207260448201527f6f756e64206e2d3120636c6f736554696d657374616d700000000000000000006064820152608401610b77565b6111b3816146f7565b61535781614dbb565b6040516001600160a01b038216907fbc7cd75a20ee27fd9adebab32041f755214dbc6bffa90cc0225b39da2e5c2d3b90600090a250565b60606001600160a01b0383163b61540d5760405162461bcd60e51b815260206004820152602660248201527f416464726573733a2064656c65676174652063616c6c20746f206e6f6e2d636f60448201527f6e747261637400000000000000000000000000000000000000000000000000006064820152608401610b77565b600080846001600160a01b031684604051615428919061586c565b600060405180830381855af49150503d8060008114615463576040519150601f19603f3d011682016040523d82523d6000602084013e615468565b606091505b5091509150612c878282604051806060016040528060278152602001615a60602791396060831561549a5750816154c4565b8251156154aa5782518084602001fd5b8160405162461bcd60e51b8152600401610b779190615956565b9392505050565b6000602082840312156154dc578081fd5b81356154c481615a4a565b6000602082840312156154f8578081fd5b81516154c481615a4a565b60008060408385031215615515578081fd5b823561552081615a4a565b9150602083013561553081615a4a565b809150509250929050565b6000806000806000806000806000806000806101808d8f03121561555d578788fd5b8c3561556881615a4a565b9b5060208d013561557881615a4a565b9a5060408d0135995060608d0135985060808d0135975060a08d0135965060c08d01356155a481615a4a565b955060e08d01356155b481615a4a565b94506101008d01356155c581615a4a565b93506101208d01356155d681615a4a565b809350506101408d013591506101608d013590509295989b509295989b509295989b565b6000806040838503121561560c578182fd5b823561561781615a4a565b9150602083013567ffffffffffffffff80821115615633578283fd5b818501915085601f830112615646578283fd5b81358181111561565857615658615a34565b604051601f8201601f19908116603f0116810190838211818310171561568057615680615a34565b81604052828152886020848701011115615698578586fd5b82602086016020830137856020848301015280955050505050509250929050565b600080604083850312156156cb578182fd5b82356156d681615a4a565b946020939093013593505050565b6000806000606084860312156156f8578283fd5b833561570381615a4a565b95602085013595506040909401359392505050565b6000806020838503121561572a578182fd5b823567ffffffffffffffff80821115615741578384fd5b818501915085601f830112615754578384fd5b813581811115615762578485fd5b8660208260051b8501011115615776578485fd5b60209290920196919550909350505050565b600060208284031215615799578081fd5b815180151581146154c4578182fd5b6000602082840312156157b9578081fd5b5051919050565b600080604083850312156157d2578182fd5b50508035926020909101359150565b6000602082840312156157f2578081fd5b5035919050565b6000806040838503121561580b578182fd5b82359150602083013561553081615a4a565b6000806040838503121561582f578182fd5b505080516020909101519092909150565b600081518084526158588160208601602086016159d7565b601f01601f19169290920160200192915050565b6000825161587e8184602087016159d7565b9190910192915050565b6001600160a01b0384168152826020820152606060408201526000612c876060830184615840565b6060808252845182820181905260009190608090818501906020808a01865b838110156158eb578151855293820193908201906001016158cf565b50508683038188015288518084528982019382019250865b8181101561593e5784518051855283810151848601526040808201511515908601528701511515878501529382019392850192600101615903565b50505080945050505050826040830152949350505050565b6020815260006154c46020830184615840565b6000821982111561597c5761597c615a1e565b500190565b60008261599c57634e487b7160e01b81526012600452602481fd5b500490565b60008160001904831182151516156159bb576159bb615a1e565b500290565b6000828210156159d2576159d2615a1e565b500390565b60005b838110156159f25781810151838201526020016159da565b83811115614e845750506000910152565b6000600019821415615a1757615a17615a1e565b5060010190565b634e487b7160e01b600052601160045260246000fd5b634e487b7160e01b600052604160045260246000fd5b6001600160a01b03811681146111b357600080fdfe416464726573733a206c6f772d6c6576656c2064656c65676174652063616c6c206661696c6564a264697066735822122091a7ff23846283a78c8480068683390a575270982ca0c20738a01d52ef0146f564736f6c63430008040033",
  "devdoc": {
    "kind": "dev",
    "methods": {
      "__VRFConsumerBaseUpgradable__init(address,address)": {
        "details": "https://docs.chain.link/docs/link-token-contracts",
        "params": {
          "_link": "address of LINK token contract",
          "_vrfCoordinator": "address of VRFCoordinator contract"
        }
      },
      "claimTreasury()": {
        "details": "Callable by admin"
      },
      "getUserRounds(address,uint256,uint256)": {
        "params": {
          "cursor": ": cursor",
          "size": ": size",
          "user": ": user address"
        }
      },
      "getUserRoundsLength(address)": {
        "params": {
          "user": ": user address"
        }
      },
      "initialize(address,address,uint256,uint256,uint256,uint256,address,address,address,address,bytes32,uint256)": {
        "params": {
          "_adminAddress": ": admin address",
          "_coordinatorContract": "VRF coordinator address",
          "_intervalSeconds": ": number of time within an interval",
          "_keyHash": "key hash fro VRF Cordinator",
          "_linkContract": "LINK token contravt address",
          "_minBetAmount": ": minimum bet amounts (in wei)",
          "_operatorAddress": ": operator address",
          "_oracleUpdateAllowance": ": oracle update allowance",
          "_routerContract": "ROuter contract",
          "_tokenAddress": "for bonus rewards (BOLD)",
          "_treasuryFee": ": treasury fee (1000 = 10%)",
          "linkFee": "Fees to pay to VRF Coordinator"
        }
      },
      "owner()": {
        "details": "Returns the address of the current owner."
      },
      "pause()": {
        "details": "Callable by admin or operator"
      },
      "paused()": {
        "details": "Returns true if the contract is paused, and false otherwise."
      },
      "proxiableUUID()": {
        "details": "Implementation of the ERC1822 {proxiableUUID} function. This returns the storage slot used by the implementation. It is used to validate that the this implementation remains valid after an upgrade. IMPORTANT: A proxy pointing at a proxiable contract should not be considered proxiable itself, because this risks bricking a proxy that upgrades to it, by delegating to itself until out of gas. Thus it is critical that this function revert if invoked through a proxy. This is guaranteed by the `notDelegated` modifier."
      },
      "recoverToken(address,uint256)": {
        "details": "Callable by owner",
        "params": {
          "_amount": ": token amount",
          "_token": ": token address"
        }
      },
      "refundable(uint256,address)": {
        "params": {
          "epoch": ": epoch",
          "user": ": user address"
        }
      },
      "renounceOwnership()": {
        "details": "Leaves the contract without owner. It will not be possible to call `onlyOwner` functions anymore. Can only be called by the current owner. NOTE: Renouncing ownership will leave the contract without an owner, thereby removing any functionality that is only available to the owner."
      },
      "setAdmin(address)": {
        "details": "Callable by owner"
      },
      "setIntervalSeconds(uint256)": {
        "details": "Callable by admin"
      },
      "setLinkFee(uint256)": {
        "details": "Callable by admin"
      },
      "setMinBetAmount(uint256)": {
        "details": "Callable by admin"
      },
      "setOperator(address)": {
        "details": "Callable by admin"
      },
      "setOracleUpdateAllowance(uint256)": {
        "details": "Callable by admin"
      },
      "setTreasuryFee(uint256)": {
        "details": "Callable by admin"
      },
      "transferOwnership(address)": {
        "details": "Transfers ownership of the contract to a new account (`newOwner`). Can only be called by the current owner."
      },
      "upgradeTo(address)": {
        "details": "Upgrade the implementation of the proxy to `newImplementation`. Calls {_authorizeUpgrade}. Emits an {Upgraded} event."
      },
      "upgradeToAndCall(address,bytes)": {
        "details": "Upgrade the implementation of the proxy to `newImplementation`, and subsequently execute the function call encoded in `data`. Calls {_authorizeUpgrade}. Emits an {Upgraded} event."
      }
    },
    "version": 1
  },
  "userdoc": {
    "kind": "user",
    "methods": {
      "claimTreasury()": {
        "notice": "Claim all rewards in treasury"
      },
      "getUserRounds(address,uint256,uint256)": {
        "notice": "Returns round epochs and bet information for a user that has participated"
      },
      "getUserRoundsLength(address)": {
        "notice": "Returns round epochs length"
      },
      "initialize(address,address,uint256,uint256,uint256,uint256,address,address,address,address,bytes32,uint256)": {
        "notice": "Initializer"
      },
      "pause()": {
        "notice": "called by the admin to pause, triggers stopped state"
      },
      "recoverToken(address,uint256)": {
        "notice": "It allows the owner to recover tokens sent to the contract by mistake"
      },
      "refundable(uint256,address)": {
        "notice": "Get the refundable stats of specific epoch and user account"
      },
      "setAdmin(address)": {
        "notice": "Set admin address"
      },
      "setIntervalSeconds(uint256)": {
        "notice": "Set interval seconds"
      },
      "setLinkFee(uint256)": {
        "notice": "Set LINK token fee"
      },
      "setMinBetAmount(uint256)": {
        "notice": "Set minBetAmount"
      },
      "setOperator(address)": {
        "notice": "Set operator address"
      },
      "setOracleUpdateAllowance(uint256)": {
        "notice": "Set oracle update allowance"
      },
      "setTreasuryFee(uint256)": {
        "notice": "Set treasury fee"
      },
      "unpause()": {
        "notice": "called by the admin to unpause, returns to normal state Reset genesis state. Once paused, the rounds would need to be kickstarted by genesis"
      }
    },
    "version": 1
  },
  "storageLayout": {
    "storage": [
      {
        "astId": 519,
        "contract": "contracts/OFCointossP2P.sol:OFCointossP2P",
        "label": "_initialized",
        "offset": 0,
        "slot": "0",
        "type": "t_bool"
      },
      {
        "astId": 522,
        "contract": "contracts/OFCointossP2P.sol:OFCointossP2P",
        "label": "_initializing",
        "offset": 1,
        "slot": "0",
        "type": "t_bool"
      },
      {
        "astId": 501,
        "contract": "contracts/OFCointossP2P.sol:OFCointossP2P",
        "label": "__gap",
        "offset": 0,
        "slot": "1",
        "type": "t_array(t_uint256)50_storage"
      },
      {
        "astId": 721,
        "contract": "contracts/OFCointossP2P.sol:OFCointossP2P",
        "label": "__gap",
        "offset": 0,
        "slot": "51",
        "type": "t_array(t_uint256)50_storage"
      },
      {
        "astId": 2116,
        "contract": "contracts/OFCointossP2P.sol:OFCointossP2P",
        "label": "__gap",
        "offset": 0,
        "slot": "101",
        "type": "t_array(t_uint256)50_storage"
      },
      {
        "astId": 10,
        "contract": "contracts/OFCointossP2P.sol:OFCointossP2P",
        "label": "_owner",
        "offset": 0,
        "slot": "151",
        "type": "t_address"
      },
      {
        "astId": 122,
        "contract": "contracts/OFCointossP2P.sol:OFCointossP2P",
        "label": "__gap",
        "offset": 0,
        "slot": "152",
        "type": "t_array(t_uint256)49_storage"
      },
      {
        "astId": 743,
        "contract": "contracts/OFCointossP2P.sol:OFCointossP2P",
        "label": "_paused",
        "offset": 0,
        "slot": "201",
        "type": "t_bool"
      },
      {
        "astId": 832,
        "contract": "contracts/OFCointossP2P.sol:OFCointossP2P",
        "label": "__gap",
        "offset": 0,
        "slot": "202",
        "type": "t_array(t_uint256)49_storage"
      },
      {
        "astId": 847,
        "contract": "contracts/OFCointossP2P.sol:OFCointossP2P",
        "label": "_status",
        "offset": 0,
        "slot": "251",
        "type": "t_uint256"
      },
      {
        "astId": 891,
        "contract": "contracts/OFCointossP2P.sol:OFCointossP2P",
        "label": "__gap",
        "offset": 0,
        "slot": "252",
        "type": "t_array(t_uint256)49_storage"
      },
      {
        "astId": 28847,
        "contract": "contracts/OFCointossP2P.sol:OFCointossP2P",
        "label": "LINK",
        "offset": 0,
        "slot": "301",
        "type": "t_contract(LinkTokenInterface)16629"
      },
      {
        "astId": 28849,
        "contract": "contracts/OFCointossP2P.sol:OFCointossP2P",
        "label": "vrfCoordinator",
        "offset": 0,
        "slot": "302",
        "type": "t_address"
      },
      {
        "astId": 28853,
        "contract": "contracts/OFCointossP2P.sol:OFCointossP2P",
        "label": "nonces",
        "offset": 0,
        "slot": "303",
        "type": "t_mapping(t_bytes32,t_uint256)"
      },
      {
        "astId": 9306,
        "contract": "contracts/OFCointossP2P.sol:OFCointossP2P",
        "label": "genesisStartOnce",
        "offset": 0,
        "slot": "304",
        "type": "t_bool"
      },
      {
        "astId": 9308,
        "contract": "contracts/OFCointossP2P.sol:OFCointossP2P",
        "label": "adminAddress",
        "offset": 1,
        "slot": "304",
        "type": "t_address"
      },
      {
        "astId": 9310,
        "contract": "contracts/OFCointossP2P.sol:OFCointossP2P",
        "label": "operatorAddress",
        "offset": 0,
        "slot": "305",
        "type": "t_address"
      },
      {
        "astId": 9312,
        "contract": "contracts/OFCointossP2P.sol:OFCointossP2P",
        "label": "intervalSeconds",
        "offset": 0,
        "slot": "306",
        "type": "t_uint256"
      },
      {
        "astId": 9314,
        "contract": "contracts/OFCointossP2P.sol:OFCointossP2P",
        "label": "minBetAmount",
        "offset": 0,
        "slot": "307",
        "type": "t_uint256"
      },
      {
        "astId": 9316,
        "contract": "contracts/OFCointossP2P.sol:OFCointossP2P",
        "label": "treasuryFee",
        "offset": 0,
        "slot": "308",
        "type": "t_uint256"
      },
      {
        "astId": 9318,
        "contract": "contracts/OFCointossP2P.sol:OFCointossP2P",
        "label": "treasuryAmount",
        "offset": 0,
        "slot": "309",
        "type": "t_uint256"
      },
      {
        "astId": 9320,
        "contract": "contracts/OFCointossP2P.sol:OFCointossP2P",
        "label": "currentEpoch",
        "offset": 0,
        "slot": "310",
        "type": "t_uint256"
      },
      {
        "astId": 9322,
        "contract": "contracts/OFCointossP2P.sol:OFCointossP2P",
        "label": "oracleLatestRoundId",
        "offset": 0,
        "slot": "311",
        "type": "t_uint256"
      },
      {
        "astId": 9324,
        "contract": "contracts/OFCointossP2P.sol:OFCointossP2P",
        "label": "oracleUpdateAllowance",
        "offset": 0,
        "slot": "312",
        "type": "t_uint256"
      },
      {
        "astId": 9329,
        "contract": "contracts/OFCointossP2P.sol:OFCointossP2P",
        "label": "keyHash",
        "offset": 0,
        "slot": "313",
        "type": "t_bytes32"
      },
      {
        "astId": 9331,
        "contract": "contracts/OFCointossP2P.sol:OFCointossP2P",
        "label": "fee",
        "offset": 0,
        "slot": "314",
        "type": "t_uint256"
      },
      {
        "astId": 9333,
        "contract": "contracts/OFCointossP2P.sol:OFCointossP2P",
        "label": "randomResult",
        "offset": 0,
        "slot": "315",
        "type": "t_uint256"
      },
      {
        "astId": 9335,
        "contract": "contracts/OFCointossP2P.sol:OFCointossP2P",
        "label": "count",
        "offset": 0,
        "slot": "316",
        "type": "t_uint256"
      },
      {
        "astId": 9342,
        "contract": "contracts/OFCointossP2P.sol:OFCointossP2P",
        "label": "ledger",
        "offset": 0,
        "slot": "317",
        "type": "t_mapping(t_uint256,t_mapping(t_address,t_struct(BetInfo)9390_storage))"
      },
      {
        "astId": 9347,
        "contract": "contracts/OFCointossP2P.sol:OFCointossP2P",
        "label": "rounds",
        "offset": 0,
        "slot": "318",
        "type": "t_mapping(t_uint256,t_struct(Round)9381_storage)"
      },
      {
        "astId": 9352,
        "contract": "contracts/OFCointossP2P.sol:OFCointossP2P",
        "label": "userRounds",
        "offset": 0,
        "slot": "319",
        "type": "t_mapping(t_address,t_array(t_uint256)dyn_storage)"
      },
      {
        "astId": 9354,
        "contract": "contracts/OFCointossP2P.sol:OFCointossP2P",
        "label": "tokenAddress",
        "offset": 0,
        "slot": "320",
        "type": "t_address"
      },
      {
        "astId": 9356,
        "contract": "contracts/OFCointossP2P.sol:OFCointossP2P",
        "label": "routerContract",
        "offset": 0,
        "slot": "321",
        "type": "t_address"
      }
    ],
    "types": {
      "t_address": {
        "encoding": "inplace",
        "label": "address",
        "numberOfBytes": "20"
      },
      "t_array(t_uint256)49_storage": {
        "base": "t_uint256",
        "encoding": "inplace",
        "label": "uint256[49]",
        "numberOfBytes": "1568"
      },
      "t_array(t_uint256)50_storage": {
        "base": "t_uint256",
        "encoding": "inplace",
        "label": "uint256[50]",
        "numberOfBytes": "1600"
      },
      "t_array(t_uint256)dyn_storage": {
        "base": "t_uint256",
        "encoding": "dynamic_array",
        "label": "uint256[]",
        "numberOfBytes": "32"
      },
      "t_bool": {
        "encoding": "inplace",
        "label": "bool",
        "numberOfBytes": "1"
      },
      "t_bytes32": {
        "encoding": "inplace",
        "label": "bytes32",
        "numberOfBytes": "32"
      },
      "t_contract(LinkTokenInterface)16629": {
        "encoding": "inplace",
        "label": "contract LinkTokenInterface",
        "numberOfBytes": "20"
      },
      "t_int256": {
        "encoding": "inplace",
        "label": "int256",
        "numberOfBytes": "32"
      },
      "t_mapping(t_address,t_array(t_uint256)dyn_storage)": {
        "encoding": "mapping",
        "key": "t_address",
        "label": "mapping(address => uint256[])",
        "numberOfBytes": "32",
        "value": "t_array(t_uint256)dyn_storage"
      },
      "t_mapping(t_address,t_struct(BetInfo)9390_storage)": {
        "encoding": "mapping",
        "key": "t_address",
        "label": "mapping(address => struct OFCointossP2PStorage.BetInfo)",
        "numberOfBytes": "32",
        "value": "t_struct(BetInfo)9390_storage"
      },
      "t_mapping(t_bytes32,t_uint256)": {
        "encoding": "mapping",
        "key": "t_bytes32",
        "label": "mapping(bytes32 => uint256)",
        "numberOfBytes": "32",
        "value": "t_uint256"
      },
      "t_mapping(t_uint256,t_mapping(t_address,t_struct(BetInfo)9390_storage))": {
        "encoding": "mapping",
        "key": "t_uint256",
        "label": "mapping(uint256 => mapping(address => struct OFCointossP2PStorage.BetInfo))",
        "numberOfBytes": "32",
        "value": "t_mapping(t_address,t_struct(BetInfo)9390_storage)"
      },
      "t_mapping(t_uint256,t_struct(Round)9381_storage)": {
        "encoding": "mapping",
        "key": "t_uint256",
        "label": "mapping(uint256 => struct OFCointossP2PStorage.Round)",
        "numberOfBytes": "32",
        "value": "t_struct(Round)9381_storage"
      },
      "t_struct(BetInfo)9390_storage": {
        "encoding": "inplace",
        "label": "struct OFCointossP2PStorage.BetInfo",
        "members": [
          {
            "astId": 9383,
            "contract": "contracts/OFCointossP2P.sol:OFCointossP2P",
            "label": "position",
            "offset": 0,
            "slot": "0",
            "type": "t_uint256"
          },
          {
            "astId": 9385,
            "contract": "contracts/OFCointossP2P.sol:OFCointossP2P",
            "label": "amount",
            "offset": 0,
            "slot": "1",
            "type": "t_uint256"
          },
          {
            "astId": 9387,
            "contract": "contracts/OFCointossP2P.sol:OFCointossP2P",
            "label": "claimed",
            "offset": 0,
            "slot": "2",
            "type": "t_bool"
          },
          {
            "astId": 9389,
            "contract": "contracts/OFCointossP2P.sol:OFCointossP2P",
            "label": "bonusClaimed",
            "offset": 1,
            "slot": "2",
            "type": "t_bool"
          }
        ],
        "numberOfBytes": "96"
      },
      "t_struct(Round)9381_storage": {
        "encoding": "inplace",
        "label": "struct OFCointossP2PStorage.Round",
        "members": [
          {
            "astId": 9358,
            "contract": "contracts/OFCointossP2P.sol:OFCointossP2P",
            "label": "epoch",
            "offset": 0,
            "slot": "0",
            "type": "t_uint256"
          },
          {
            "astId": 9360,
            "contract": "contracts/OFCointossP2P.sol:OFCointossP2P",
            "label": "startTimestamp",
            "offset": 0,
            "slot": "1",
            "type": "t_uint256"
          },
          {
            "astId": 9362,
            "contract": "contracts/OFCointossP2P.sol:OFCointossP2P",
            "label": "closeTimestamp",
            "offset": 0,
            "slot": "2",
            "type": "t_uint256"
          },
          {
            "astId": 9364,
            "contract": "contracts/OFCointossP2P.sol:OFCointossP2P",
            "label": "tossResult",
            "offset": 0,
            "slot": "3",
            "type": "t_int256"
          },
          {
            "astId": 9366,
            "contract": "contracts/OFCointossP2P.sol:OFCointossP2P",
            "label": "closeOracleId",
            "offset": 0,
            "slot": "4",
            "type": "t_uint256"
          },
          {
            "astId": 9368,
            "contract": "contracts/OFCointossP2P.sol:OFCointossP2P",
            "label": "totalAmount",
            "offset": 0,
            "slot": "5",
            "type": "t_uint256"
          },
          {
            "astId": 9370,
            "contract": "contracts/OFCointossP2P.sol:OFCointossP2P",
            "label": "headsAmount",
            "offset": 0,
            "slot": "6",
            "type": "t_uint256"
          },
          {
            "astId": 9372,
            "contract": "contracts/OFCointossP2P.sol:OFCointossP2P",
            "label": "tailsAmount",
            "offset": 0,
            "slot": "7",
            "type": "t_uint256"
          },
          {
            "astId": 9374,
            "contract": "contracts/OFCointossP2P.sol:OFCointossP2P",
            "label": "rewardBaseCalAmount",
            "offset": 0,
            "slot": "8",
            "type": "t_uint256"
          },
          {
            "astId": 9376,
            "contract": "contracts/OFCointossP2P.sol:OFCointossP2P",
            "label": "rewardAmount",
            "offset": 0,
            "slot": "9",
            "type": "t_uint256"
          },
          {
            "astId": 9378,
            "contract": "contracts/OFCointossP2P.sol:OFCointossP2P",
            "label": "oracleCalled",
            "offset": 0,
            "slot": "10",
            "type": "t_bool"
          },
          {
            "astId": 9380,
            "contract": "contracts/OFCointossP2P.sol:OFCointossP2P",
            "label": "ifRefundable",
            "offset": 1,
            "slot": "10",
            "type": "t_bool"
          }
        ],
        "numberOfBytes": "352"
      },
      "t_uint256": {
        "encoding": "inplace",
        "label": "uint256",
        "numberOfBytes": "32"
      }
    }
  }
}