{
  "address": "0x56C2f176c655a50139aBF896A75248F9A084Aa92",
  "abi": [
    {
      "anonymous": false,
      "inputs": [
        {
          "indexed": false,
          "internalType": "address",
          "name": "previousAdmin",
          "type": "address"
        },
        {
          "indexed": false,
          "internalType": "address",
          "name": "newAdmin",
          "type": "address"
        }
      ],
      "name": "AdminChanged",
      "type": "event"
    },
    {
      "anonymous": false,
      "inputs": [
        {
          "indexed": true,
          "internalType": "address",
          "name": "beacon",
          "type": "address"
        }
      ],
      "name": "BeaconUpgraded",
      "type": "event"
    },
    {
      "anonymous": false,
      "inputs": [
        {
          "indexed": true,
          "internalType": "address",
          "name": "sender",
          "type": "address"
        },
        {
          "indexed": true,
          "internalType": "uint256",
          "name": "epoch",
          "type": "uint256"
        },
        {
          "indexed": false,
          "internalType": "uint256",
          "name": "amount",
          "type": "uint256"
        }
      ],
      "name": "BetHeads",
      "type": "event"
    },
    {
      "anonymous": false,
      "inputs": [
        {
          "indexed": true,
          "internalType": "address",
          "name": "sender",
          "type": "address"
        },
        {
          "indexed": true,
          "internalType": "uint256",
          "name": "epoch",
          "type": "uint256"
        },
        {
          "indexed": false,
          "internalType": "uint256",
          "name": "amount",
          "type": "uint256"
        }
      ],
      "name": "BetTails",
      "type": "event"
    },
    {
      "anonymous": false,
      "inputs": [
        {
          "indexed": true,
          "internalType": "address",
          "name": "sender",
          "type": "address"
        },
        {
          "indexed": true,
          "internalType": "uint256",
          "name": "epoch",
          "type": "uint256"
        },
        {
          "indexed": false,
          "internalType": "uint256",
          "name": "amount",
          "type": "uint256"
        }
      ],
      "name": "Claim",
      "type": "event"
    },
    {
      "anonymous": false,
      "inputs": [
        {
          "indexed": true,
          "internalType": "uint256",
          "name": "epoch",
          "type": "uint256"
        },
        {
          "indexed": true,
          "internalType": "uint256",
          "name": "roundId",
          "type": "uint256"
        }
      ],
      "name": "EndRound",
      "type": "event"
    },
    {
      "anonymous": false,
      "inputs": [
        {
          "indexed": true,
          "internalType": "uint256",
          "name": "epoch",
          "type": "uint256"
        },
        {
          "indexed": true,
          "internalType": "uint256",
          "name": "roundId",
          "type": "uint256"
        }
      ],
      "name": "LockRound",
      "type": "event"
    },
    {
      "anonymous": false,
      "inputs": [
        {
          "indexed": false,
          "internalType": "address",
          "name": "admin",
          "type": "address"
        }
      ],
      "name": "NewAdminAddress",
      "type": "event"
    },
    {
      "anonymous": false,
      "inputs": [
        {
          "indexed": false,
          "internalType": "uint256",
          "name": "secs",
          "type": "uint256"
        }
      ],
      "name": "NewIntervalPeriod",
      "type": "event"
    },
    {
      "anonymous": false,
      "inputs": [
        {
          "indexed": true,
          "internalType": "uint256",
          "name": "epoch",
          "type": "uint256"
        },
        {
          "indexed": false,
          "internalType": "uint256",
          "name": "minBetAmount",
          "type": "uint256"
        }
      ],
      "name": "NewMinBetAmount",
      "type": "event"
    },
    {
      "anonymous": false,
      "inputs": [
        {
          "indexed": false,
          "internalType": "address",
          "name": "operator",
          "type": "address"
        }
      ],
      "name": "NewOperatorAddress",
      "type": "event"
    },
    {
      "anonymous": false,
      "inputs": [
        {
          "indexed": false,
          "internalType": "uint256",
          "name": "oracleUpdateAllowance",
          "type": "uint256"
        }
      ],
      "name": "NewOracleUpdateAllowance",
      "type": "event"
    },
    {
      "anonymous": false,
      "inputs": [
        {
          "indexed": true,
          "internalType": "uint256",
          "name": "epoch",
          "type": "uint256"
        },
        {
          "indexed": false,
          "internalType": "uint256",
          "name": "treasuryFee",
          "type": "uint256"
        }
      ],
      "name": "NewTreasuryFee",
      "type": "event"
    },
    {
      "anonymous": false,
      "inputs": [
        {
          "indexed": true,
          "internalType": "address",
          "name": "previousOwner",
          "type": "address"
        },
        {
          "indexed": true,
          "internalType": "address",
          "name": "newOwner",
          "type": "address"
        }
      ],
      "name": "OwnershipTransferred",
      "type": "event"
    },
    {
      "anonymous": false,
      "inputs": [
        {
          "indexed": true,
          "internalType": "uint256",
          "name": "epoch",
          "type": "uint256"
        }
      ],
      "name": "Pause",
      "type": "event"
    },
    {
      "anonymous": false,
      "inputs": [
        {
          "indexed": false,
          "internalType": "address",
          "name": "account",
          "type": "address"
        }
      ],
      "name": "Paused",
      "type": "event"
    },
    {
      "anonymous": false,
      "inputs": [
        {
          "indexed": true,
          "internalType": "uint256",
          "name": "epoch",
          "type": "uint256"
        },
        {
          "indexed": false,
          "internalType": "uint256",
          "name": "rewardBaseCalAmount",
          "type": "uint256"
        },
        {
          "indexed": false,
          "internalType": "uint256",
          "name": "rewardAmount",
          "type": "uint256"
        },
        {
          "indexed": false,
          "internalType": "uint256",
          "name": "treasuryAmount",
          "type": "uint256"
        }
      ],
      "name": "RewardsCalculated",
      "type": "event"
    },
    {
      "anonymous": false,
      "inputs": [
        {
          "indexed": true,
          "internalType": "uint256",
          "name": "epoch",
          "type": "uint256"
        }
      ],
      "name": "StartRound",
      "type": "event"
    },
    {
      "anonymous": false,
      "inputs": [
        {
          "indexed": true,
          "internalType": "address",
          "name": "token",
          "type": "address"
        },
        {
          "indexed": false,
          "internalType": "uint256",
          "name": "amount",
          "type": "uint256"
        }
      ],
      "name": "TokenRecovery",
      "type": "event"
    },
    {
      "anonymous": false,
      "inputs": [
        {
          "indexed": false,
          "internalType": "uint256",
          "name": "amount",
          "type": "uint256"
        }
      ],
      "name": "TreasuryClaim",
      "type": "event"
    },
    {
      "anonymous": false,
      "inputs": [
        {
          "indexed": true,
          "internalType": "uint256",
          "name": "epoch",
          "type": "uint256"
        }
      ],
      "name": "Unpause",
      "type": "event"
    },
    {
      "anonymous": false,
      "inputs": [
        {
          "indexed": false,
          "internalType": "address",
          "name": "account",
          "type": "address"
        }
      ],
      "name": "Unpaused",
      "type": "event"
    },
    {
      "anonymous": false,
      "inputs": [
        {
          "indexed": true,
          "internalType": "address",
          "name": "implementation",
          "type": "address"
        }
      ],
      "name": "Upgraded",
      "type": "event"
    },
    {
      "anonymous": false,
      "inputs": [
        {
          "indexed": false,
          "internalType": "uint256",
          "name": "randomness",
          "type": "uint256"
        },
        {
          "indexed": false,
          "internalType": "address",
          "name": "sender",
          "type": "address"
        }
      ],
      "name": "receivedRandom",
      "type": "event"
    },
    {
      "anonymous": false,
      "inputs": [
        {
          "indexed": false,
          "internalType": "bytes32",
          "name": "requestId",
          "type": "bytes32"
        }
      ],
      "name": "requestRandom",
      "type": "event"
    },
    {
      "inputs": [],
      "name": "EV_CLAIM",
      "outputs": [
        {
          "internalType": "uint256",
          "name": "",
          "type": "uint256"
        }
      ],
      "stateMutability": "view",
      "type": "function"
    },
    {
      "inputs": [],
      "name": "EV_CLAIM_BONUS",
      "outputs": [
        {
          "internalType": "uint256",
          "name": "",
          "type": "uint256"
        }
      ],
      "stateMutability": "view",
      "type": "function"
    },
    {
      "inputs": [],
      "name": "EV_HEADS",
      "outputs": [
        {
          "internalType": "uint256",
          "name": "",
          "type": "uint256"
        }
      ],
      "stateMutability": "view",
      "type": "function"
    },
    {
      "inputs": [],
      "name": "EV_RESULT",
      "outputs": [
        {
          "internalType": "uint256",
          "name": "",
          "type": "uint256"
        }
      ],
      "stateMutability": "view",
      "type": "function"
    },
    {
      "inputs": [],
      "name": "EV_TAILS",
      "outputs": [
        {
          "internalType": "uint256",
          "name": "",
          "type": "uint256"
        }
      ],
      "stateMutability": "view",
      "type": "function"
    },
    {
      "inputs": [],
      "name": "MAX_TREASURY_FEE",
      "outputs": [
        {
          "internalType": "uint256",
          "name": "",
          "type": "uint256"
        }
      ],
      "stateMutability": "view",
      "type": "function"
    },
    {
      "inputs": [],
      "name": "Position_Heads",
      "outputs": [
        {
          "internalType": "uint256",
          "name": "",
          "type": "uint256"
        }
      ],
      "stateMutability": "view",
      "type": "function"
    },
    {
      "inputs": [],
      "name": "Position_Tails",
      "outputs": [
        {
          "internalType": "uint256",
          "name": "",
          "type": "uint256"
        }
      ],
      "stateMutability": "view",
      "type": "function"
    },
    {
      "inputs": [],
      "name": "adminAddress",
      "outputs": [
        {
          "internalType": "address",
          "name": "",
          "type": "address"
        }
      ],
      "stateMutability": "view",
      "type": "function"
    },
    {
      "inputs": [
        {
          "internalType": "uint256",
          "name": "epoch",
          "type": "uint256"
        },
        {
          "internalType": "uint256",
          "name": "amount",
          "type": "uint256"
        }
      ],
      "name": "betHeads",
      "outputs": [],
      "stateMutability": "payable",
      "type": "function"
    },
    {
      "inputs": [
        {
          "internalType": "uint256",
          "name": "epoch",
          "type": "uint256"
        },
        {
          "internalType": "uint256",
          "name": "amount",
          "type": "uint256"
        }
      ],
      "name": "betTails",
      "outputs": [],
      "stateMutability": "payable",
      "type": "function"
    },
    {
      "inputs": [
        {
          "internalType": "uint256[]",
          "name": "epochs",
          "type": "uint256[]"
        }
      ],
      "name": "claim",
      "outputs": [],
      "stateMutability": "nonpayable",
      "type": "function"
    },
    {
      "inputs": [],
      "name": "claimTreasury",
      "outputs": [],
      "stateMutability": "nonpayable",
      "type": "function"
    },
    {
      "inputs": [
        {
          "internalType": "uint256",
          "name": "epoch",
          "type": "uint256"
        },
        {
          "internalType": "address",
          "name": "user",
          "type": "address"
        }
      ],
      "name": "claimable",
      "outputs": [
        {
          "internalType": "bool",
          "name": "",
          "type": "bool"
        }
      ],
      "stateMutability": "view",
      "type": "function"
    },
    {
      "inputs": [],
      "name": "count",
      "outputs": [
        {
          "internalType": "uint256",
          "name": "",
          "type": "uint256"
        }
      ],
      "stateMutability": "view",
      "type": "function"
    },
    {
      "inputs": [],
      "name": "currentEpoch",
      "outputs": [
        {
          "internalType": "uint256",
          "name": "",
          "type": "uint256"
        }
      ],
      "stateMutability": "view",
      "type": "function"
    },
    {
      "inputs": [],
      "name": "feeAmount",
      "outputs": [
        {
          "internalType": "uint256",
          "name": "",
          "type": "uint256"
        }
      ],
      "stateMutability": "view",
      "type": "function"
    },
    {
      "inputs": [],
      "name": "feeToken",
      "outputs": [
        {
          "internalType": "address",
          "name": "",
          "type": "address"
        }
      ],
      "stateMutability": "view",
      "type": "function"
    },
    {
      "inputs": [
        {
          "internalType": "uint256",
          "name": "randomness",
          "type": "uint256"
        }
      ],
      "name": "fulfillRandomness",
      "outputs": [],
      "stateMutability": "nonpayable",
      "type": "function"
    },
    {
      "inputs": [],
      "name": "genesisStartOnce",
      "outputs": [
        {
          "internalType": "bool",
          "name": "",
          "type": "bool"
        }
      ],
      "stateMutability": "view",
      "type": "function"
    },
    {
      "inputs": [],
      "name": "genesisStartRound",
      "outputs": [],
      "stateMutability": "nonpayable",
      "type": "function"
    },
    {
      "inputs": [
        {
          "internalType": "address",
          "name": "user",
          "type": "address"
        },
        {
          "internalType": "uint256",
          "name": "cursor",
          "type": "uint256"
        },
        {
          "internalType": "uint256",
          "name": "size",
          "type": "uint256"
        }
      ],
      "name": "getUserRounds",
      "outputs": [
        {
          "internalType": "uint256[]",
          "name": "",
          "type": "uint256[]"
        },
        {
          "components": [
            {
              "internalType": "uint256",
              "name": "position",
              "type": "uint256"
            },
            {
              "internalType": "uint256",
              "name": "amount",
              "type": "uint256"
            },
            {
              "internalType": "bool",
              "name": "claimed",
              "type": "bool"
            }
          ],
          "internalType": "struct OFCointossHouseStorage.BetInfo[]",
          "name": "",
          "type": "tuple[]"
        },
        {
          "internalType": "uint256",
          "name": "",
          "type": "uint256"
        }
      ],
      "stateMutability": "view",
      "type": "function"
    },
    {
      "inputs": [
        {
          "internalType": "address",
          "name": "user",
          "type": "address"
        }
      ],
      "name": "getUserRoundsLength",
      "outputs": [
        {
          "internalType": "uint256",
          "name": "",
          "type": "uint256"
        }
      ],
      "stateMutability": "view",
      "type": "function"
    },
    {
      "inputs": [
        {
          "internalType": "address",
          "name": "_adminAddress",
          "type": "address"
        },
        {
          "internalType": "address",
          "name": "_operatorAddress",
          "type": "address"
        },
        {
          "internalType": "uint256",
          "name": "_intervalSeconds",
          "type": "uint256"
        },
        {
          "internalType": "uint256",
          "name": "_minBetAmount",
          "type": "uint256"
        },
        {
          "internalType": "uint256",
          "name": "_oracleUpdateAllowance",
          "type": "uint256"
        },
        {
          "internalType": "uint256",
          "name": "_treasuryFee",
          "type": "uint256"
        },
        {
          "internalType": "address",
          "name": "_tokenAddress",
          "type": "address"
        },
        {
          "internalType": "address",
          "name": "_routerContract",
          "type": "address"
        },
        {
          "internalType": "address",
          "name": "_feeToken",
          "type": "address"
        },
        {
          "internalType": "uint256",
          "name": "_feeAmount",
          "type": "uint256"
        }
      ],
      "name": "initialize",
      "outputs": [],
      "stateMutability": "nonpayable",
      "type": "function"
    },
    {
      "inputs": [],
      "name": "intervalSeconds",
      "outputs": [
        {
          "internalType": "uint256",
          "name": "",
          "type": "uint256"
        }
      ],
      "stateMutability": "view",
      "type": "function"
    },
    {
      "inputs": [
        {
          "internalType": "uint256",
          "name": "",
          "type": "uint256"
        },
        {
          "internalType": "address",
          "name": "",
          "type": "address"
        }
      ],
      "name": "ledger",
      "outputs": [
        {
          "internalType": "uint256",
          "name": "position",
          "type": "uint256"
        },
        {
          "internalType": "uint256",
          "name": "amount",
          "type": "uint256"
        },
        {
          "internalType": "bool",
          "name": "claimed",
          "type": "bool"
        }
      ],
      "stateMutability": "view",
      "type": "function"
    },
    {
      "inputs": [
        {
          "internalType": "uint256",
          "name": "epoch",
          "type": "uint256"
        }
      ],
      "name": "makeRefundable",
      "outputs": [],
      "stateMutability": "nonpayable",
      "type": "function"
    },
    {
      "inputs": [],
      "name": "minBetAmount",
      "outputs": [
        {
          "internalType": "uint256",
          "name": "",
          "type": "uint256"
        }
      ],
      "stateMutability": "view",
      "type": "function"
    },
    {
      "inputs": [],
      "name": "operatorAddress",
      "outputs": [
        {
          "internalType": "address",
          "name": "",
          "type": "address"
        }
      ],
      "stateMutability": "view",
      "type": "function"
    },
    {
      "inputs": [],
      "name": "oracleLatestRoundId",
      "outputs": [
        {
          "internalType": "uint256",
          "name": "",
          "type": "uint256"
        }
      ],
      "stateMutability": "view",
      "type": "function"
    },
    {
      "inputs": [],
      "name": "oracleUpdateAllowance",
      "outputs": [
        {
          "internalType": "uint256",
          "name": "",
          "type": "uint256"
        }
      ],
      "stateMutability": "view",
      "type": "function"
    },
    {
      "inputs": [],
      "name": "owner",
      "outputs": [
        {
          "internalType": "address",
          "name": "",
          "type": "address"
        }
      ],
      "stateMutability": "view",
      "type": "function"
    },
    {
      "inputs": [],
      "name": "pause",
      "outputs": [],
      "stateMutability": "nonpayable",
      "type": "function"
    },
    {
      "inputs": [],
      "name": "paused",
      "outputs": [
        {
          "internalType": "bool",
          "name": "",
          "type": "bool"
        }
      ],
      "stateMutability": "view",
      "type": "function"
    },
    {
      "inputs": [],
      "name": "proxiableUUID",
      "outputs": [
        {
          "internalType": "bytes32",
          "name": "",
          "type": "bytes32"
        }
      ],
      "stateMutability": "view",
      "type": "function"
    },
    {
      "inputs": [],
      "name": "randomResult",
      "outputs": [
        {
          "internalType": "uint256",
          "name": "",
          "type": "uint256"
        }
      ],
      "stateMutability": "view",
      "type": "function"
    },
    {
      "inputs": [
        {
          "internalType": "address",
          "name": "_token",
          "type": "address"
        },
        {
          "internalType": "uint256",
          "name": "_amount",
          "type": "uint256"
        }
      ],
      "name": "recoverToken",
      "outputs": [],
      "stateMutability": "nonpayable",
      "type": "function"
    },
    {
      "inputs": [
        {
          "internalType": "uint256",
          "name": "epoch",
          "type": "uint256"
        },
        {
          "internalType": "address",
          "name": "user",
          "type": "address"
        }
      ],
      "name": "refundable",
      "outputs": [
        {
          "internalType": "bool",
          "name": "",
          "type": "bool"
        }
      ],
      "stateMutability": "view",
      "type": "function"
    },
    {
      "inputs": [],
      "name": "renounceOwnership",
      "outputs": [],
      "stateMutability": "nonpayable",
      "type": "function"
    },
    {
      "inputs": [
        {
          "internalType": "uint256",
          "name": "",
          "type": "uint256"
        }
      ],
      "name": "rounds",
      "outputs": [
        {
          "internalType": "uint256",
          "name": "epoch",
          "type": "uint256"
        },
        {
          "internalType": "uint256",
          "name": "startTimestamp",
          "type": "uint256"
        },
        {
          "internalType": "uint256",
          "name": "closeTimestamp",
          "type": "uint256"
        },
        {
          "internalType": "int256",
          "name": "tossResult",
          "type": "int256"
        },
        {
          "internalType": "uint256",
          "name": "closeOracleId",
          "type": "uint256"
        },
        {
          "internalType": "uint256",
          "name": "totalAmount",
          "type": "uint256"
        },
        {
          "internalType": "uint256",
          "name": "headsAmount",
          "type": "uint256"
        },
        {
          "internalType": "uint256",
          "name": "tailsAmount",
          "type": "uint256"
        },
        {
          "internalType": "uint256",
          "name": "rewardBaseCalAmount",
          "type": "uint256"
        },
        {
          "internalType": "uint256",
          "name": "rewardAmount",
          "type": "uint256"
        },
        {
          "internalType": "bool",
          "name": "oracleCalled",
          "type": "bool"
        },
        {
          "internalType": "bool",
          "name": "ifRefundable",
          "type": "bool"
        }
      ],
      "stateMutability": "view",
      "type": "function"
    },
    {
      "inputs": [],
      "name": "routerContract",
      "outputs": [
        {
          "internalType": "address",
          "name": "",
          "type": "address"
        }
      ],
      "stateMutability": "view",
      "type": "function"
    },
    {
      "inputs": [
        {
          "internalType": "address",
          "name": "_adminAddress",
          "type": "address"
        }
      ],
      "name": "setAdmin",
      "outputs": [],
      "stateMutability": "nonpayable",
      "type": "function"
    },
    {
      "inputs": [
        {
          "internalType": "uint256",
          "name": "_amount",
          "type": "uint256"
        }
      ],
      "name": "setFeeAmount",
      "outputs": [],
      "stateMutability": "nonpayable",
      "type": "function"
    },
    {
      "inputs": [
        {
          "internalType": "address",
          "name": "_token",
          "type": "address"
        }
      ],
      "name": "setFeeToken",
      "outputs": [],
      "stateMutability": "nonpayable",
      "type": "function"
    },
    {
      "inputs": [
        {
          "internalType": "uint256",
          "name": "_intervalSeconds",
          "type": "uint256"
        }
      ],
      "name": "setIntervalSeconds",
      "outputs": [],
      "stateMutability": "nonpayable",
      "type": "function"
    },
    {
      "inputs": [
        {
          "internalType": "uint256",
          "name": "_minBetAmount",
          "type": "uint256"
        }
      ],
      "name": "setMinBetAmount",
      "outputs": [],
      "stateMutability": "nonpayable",
      "type": "function"
    },
    {
      "inputs": [
        {
          "internalType": "address",
          "name": "_operatorAddress",
          "type": "address"
        }
      ],
      "name": "setOperator",
      "outputs": [],
      "stateMutability": "nonpayable",
      "type": "function"
    },
    {
      "inputs": [
        {
          "internalType": "uint256",
          "name": "_oracleUpdateAllowance",
          "type": "uint256"
        }
      ],
      "name": "setOracleUpdateAllowance",
      "outputs": [],
      "stateMutability": "nonpayable",
      "type": "function"
    },
    {
      "inputs": [
        {
          "internalType": "uint256",
          "name": "_treasuryFee",
          "type": "uint256"
        }
      ],
      "name": "setTreasuryFee",
      "outputs": [],
      "stateMutability": "nonpayable",
      "type": "function"
    },
    {
      "inputs": [],
      "name": "tokenAddress",
      "outputs": [
        {
          "internalType": "address",
          "name": "",
          "type": "address"
        }
      ],
      "stateMutability": "view",
      "type": "function"
    },
    {
      "inputs": [],
      "name": "totalFeeAmount",
      "outputs": [
        {
          "internalType": "uint256",
          "name": "",
          "type": "uint256"
        }
      ],
      "stateMutability": "view",
      "type": "function"
    },
    {
      "inputs": [
        {
          "internalType": "address",
          "name": "newOwner",
          "type": "address"
        }
      ],
      "name": "transferOwnership",
      "outputs": [],
      "stateMutability": "nonpayable",
      "type": "function"
    },
    {
      "inputs": [],
      "name": "treasuryAmount",
      "outputs": [
        {
          "internalType": "uint256",
          "name": "",
          "type": "uint256"
        }
      ],
      "stateMutability": "view",
      "type": "function"
    },
    {
      "inputs": [],
      "name": "treasuryFee",
      "outputs": [
        {
          "internalType": "uint256",
          "name": "",
          "type": "uint256"
        }
      ],
      "stateMutability": "view",
      "type": "function"
    },
    {
      "inputs": [],
      "name": "unpause",
      "outputs": [],
      "stateMutability": "nonpayable",
      "type": "function"
    },
    {
      "inputs": [
        {
          "internalType": "address",
          "name": "_adminAddress",
          "type": "address"
        },
        {
          "internalType": "address",
          "name": "_operatorAddress",
          "type": "address"
        },
        {
          "internalType": "uint256",
          "name": "_intervalSeconds",
          "type": "uint256"
        },
        {
          "internalType": "uint256",
          "name": "_minBetAmount",
          "type": "uint256"
        },
        {
          "internalType": "uint256",
          "name": "_oracleUpdateAllowance",
          "type": "uint256"
        },
        {
          "internalType": "uint256",
          "name": "_treasuryFee",
          "type": "uint256"
        },
        {
          "internalType": "address",
          "name": "_tokenAddress",
          "type": "address"
        },
        {
          "internalType": "address",
          "name": "_routerContract",
          "type": "address"
        },
        {
          "internalType": "address",
          "name": "_feeToken",
          "type": "address"
        },
        {
          "internalType": "uint256",
          "name": "_feeAmount",
          "type": "uint256"
        }
      ],
      "name": "upgrade",
      "outputs": [],
      "stateMutability": "nonpayable",
      "type": "function"
    },
    {
      "inputs": [
        {
          "internalType": "address",
          "name": "newImplementation",
          "type": "address"
        }
      ],
      "name": "upgradeTo",
      "outputs": [],
      "stateMutability": "nonpayable",
      "type": "function"
    },
    {
      "inputs": [
        {
          "internalType": "address",
          "name": "newImplementation",
          "type": "address"
        },
        {
          "internalType": "bytes",
          "name": "data",
          "type": "bytes"
        }
      ],
      "name": "upgradeToAndCall",
      "outputs": [],
      "stateMutability": "payable",
      "type": "function"
    },
    {
      "inputs": [
        {
          "internalType": "address",
          "name": "",
          "type": "address"
        },
        {
          "internalType": "uint256",
          "name": "",
          "type": "uint256"
        }
      ],
      "name": "userRounds",
      "outputs": [
        {
          "internalType": "uint256",
          "name": "",
          "type": "uint256"
        }
      ],
      "stateMutability": "view",
      "type": "function"
    }
  ],
  "transactionHash": "0x932a4fc2c78bab78c410aa23593dd1f3ca88675ee6ec703aaeda3d17adf7bdde",
  "args": [],
  "numDeployments": 2,
  "solcInputHash": "9668e744e0b13810e13f8a6f30499aea",
  "bytecode": "0x60a06040523060601b60805234801561001757600080fd5b5060805160601c615500610052600039600081816117030152818161178801528181611db701528181611e3c0152611fb301526155006000f3fe60806040526004361061038b5760003560e01c8063704b6c02116101dc578063a0c7f71c11610102578063dd1f7596116100a0578063f7fdec281161006f578063f7fdec2814610aab578063fa968eea14610ac6578063faf147e014610add578063fc6f946814610af257600080fd5b8063dd1f759614610a3e578063ec32470314610a5e578063f2b3c80914610a75578063f2fde38b14610a8b57600080fd5b8063b29a8140116100dc578063b29a8140146109c7578063b3ab15fb146109e7578063cc32d17614610a07578063cf2f503914610a1e57600080fd5b8063a0c7f71c14610987578063a890075f1461093e578063ae5a7e66146109a757600080fd5b80638456cb591161017a578063965217161161014957806396521716146109275780639d5f79f71461093e5780639d76ea58146109535780639e265fad1461097457600080fd5b80638456cb59146107e75780638c65c81f146107fc5780638da5cb5b146108da578063951fd600146108f857600080fd5b806376671808116101b6578063766718081461077957806377e741c7146107905780637bf41254146107b05780637d1cd04f146107d057600080fd5b8063704b6c02146106dc578063715018a6146106fc5780637285c58b1461071157600080fd5b8063452fd75a116102c15780635c975abb1161025f5780636b3926801161022e5780636b392680146106675780636ba4c138146106875780636c188593146106a75780636c3bed85146106c757600080fd5b80635c975abb146105f45780636055401114610618578063647846a51461062f57806369e154041461065057600080fd5b80634f1ef2861161029b5780634f1ef2861461058b5780634f72d8461461059e5780634f7cf35b146105bf57806352d1902d146105df57600080fd5b8063452fd75a146105415780634674b31d14610556578063495bd94e1461056b57600080fd5b8063205aa9cd1161032e578063368acb0911610308578063368acb09146104de578063373d8990146104f55780633f4ba83a1461051557806342619f661461052a57600080fd5b8063205aa9cd14610474578063273867d4146104875780633659cfe6146104be57600080fd5b80630fcbf4631161036a5780630fcbf463146103f1578063127effb21461040657806315cce2241461043f578063205083ba1461045f57600080fd5b80623bdc741461039057806306661abd146103a75780630ed201a8146103d1575b600080fd5b34801561039c57600080fd5b506103a5610b18565b005b3480156103b357600080fd5b506103be6101395481565b6040519081526020015b60405180910390f35b3480156103dd57600080fd5b506103a56103ec366004614fd0565b610dda565b3480156103fd57600080fd5b506103be600081565b34801561041257600080fd5b5061012e54610427906001600160a01b031681565b6040516001600160a01b0390911681526020016103c8565b34801561044b57600080fd5b506103a561045a366004614f98565b610fc8565b34801561046b57600080fd5b506103be600a81565b6103a561048236600461527f565b6110d6565b34801561049357600080fd5b506103be6104a2366004614f98565b6001600160a01b03166000908152610141602052604090205490565b3480156104ca57600080fd5b506103a56104d9366004614f98565b6116f8565b3480156104ea57600080fd5b506103be6101325481565b34801561050157600080fd5b506103a5610510366004614fd0565b61184b565b34801561052157600080fd5b506103a5611992565b34801561053657600080fd5b506103be6101385481565b34801561054d57600080fd5b506103a5611a69565b34801561056257600080fd5b506103be600281565b34801561057757600080fd5b506103a5610586366004615238565b611bc2565b6103a5610599366004615072565b611dac565b3480156105aa57600080fd5b5061013b54610427906001600160a01b031681565b3480156105cb57600080fd5b506103a56105da366004615238565b611ef0565b3480156105eb57600080fd5b506103be611fa6565b34801561060057600080fd5b5060c95460ff165b60405190151581526020016103c8565b34801561062457600080fd5b506103be6101355481565b34801561063b57600080fd5b5061013e54610427906001600160a01b031681565b34801561065c57600080fd5b506103be61013d5481565b34801561067357600080fd5b506103a5610682366004615238565b61206b565b34801561069357600080fd5b506103a56106a2366004615190565b612106565b3480156106b357600080fd5b506103a56106c2366004615238565b612a04565b3480156106d357600080fd5b506103be600381565b3480156106e857600080fd5b506103a56106f7366004614f98565b612b27565b34801561070857600080fd5b506103a5612c42565b34801561071d57600080fd5b5061075c61072c366004615250565b61013f60209081526000928352604080842090915290825290208054600182015460029092015490919060ff1683565b6040805193845260208401929092521515908201526060016103c8565b34801561078557600080fd5b506103be6101335481565b34801561079c57600080fd5b506103a56107ab366004615238565b612ca8565b3480156107bc57600080fd5b506106086107cb366004615250565b612dc9565b3480156107dc57600080fd5b506103be61012f5481565b3480156107f357600080fd5b506103a5612eec565b34801561080857600080fd5b5061087d610817366004615238565b61014060205260009081526040902080546001820154600283015460038401546004850154600586015460068701546007880154600889015460098a0154600a909a01549899979896979596949593949293919290919060ff808216916101009004168c565b604080519c8d5260208d019b909b52998b019890985260608a0196909652608089019490945260a088019290925260c087015260e086015261010085015261012084015215156101408301521515610160820152610180016103c8565b3480156108e657600080fd5b506097546001600160a01b0316610427565b34801561090457600080fd5b5061091861091336600461515c565b612fd4565b6040516103c8939291906152df565b34801561093357600080fd5b506103be61013c5481565b34801561094a57600080fd5b506103be600181565b34801561095f57600080fd5b5061013a54610427906001600160a01b031681565b6103a561098236600461527f565b6132cc565b34801561099357600080fd5b506106086109a2366004615250565b6138b4565b3480156109b357600080fd5b506103a56109c2366004615238565b6139f1565b3480156109d357600080fd5b506103a56109e2366004615131565b613b0c565b3480156109f357600080fd5b506103a5610a02366004614f98565b613c47565b348015610a1357600080fd5b506103be6101315481565b348015610a2a57600080fd5b506103a5610a39366004615238565b613d38565b348015610a4a57600080fd5b506103be610a59366004615131565b613e03565b348015610a6a57600080fd5b506103be6101345481565b348015610a8157600080fd5b506103be6103e881565b348015610a9757600080fd5b506103a5610aa6366004614f98565b613e35565b348015610ab757600080fd5b5061012d546106089060ff1681565b348015610ad257600080fd5b506103be6101305481565b348015610ae957600080fd5b506103be600b81565b348015610afe57600080fd5b5061012d546104279061010090046001600160a01b031681565b600260fb541415610b705760405162461bcd60e51b815260206004820152601f60248201527f5265656e7472616e637947756172643a207265656e7472616e742063616c6c0060448201526064015b60405180910390fd5b600260fb5561012d5461010090046001600160a01b03163314610bc15760405162461bcd60e51b81526020600482015260096024820152682737ba1030b236b4b760b91b6044820152606401610b67565b61013b54604080517f2c035b74000000000000000000000000000000000000000000000000000000008152905147926000926001600160a01b0390911691632c035b7491600480820192602092909190829003018186803b158015610c2557600080fd5b505afa158015610c39573d6000803e3d6000fd5b505050506040513d601f19601f82011682018060405250810190610c5d9190614fb4565b9050600061013b60009054906101000a90046001600160a01b03166001600160a01b0316631c578fde6040518163ffffffff1660e01b815260040160206040518083038186803b158015610cb057600080fd5b505afa158015610cc4573d6000803e3d6000fd5b505050506040513d601f19601f82011682018060405250810190610ce89190614fb4565b61013b546040517f75ecb9f90000000000000000000000000000000000000000000000000000000081526004810186905291925060009182916001600160a01b0316906375ecb9f990602401604080518083038186803b158015610d4b57600080fd5b505afa158015610d5f573d6000803e3d6000fd5b505050506040513d601f19601f82011682018060405250810190610d8391906152a0565b91509150610d918483613efd565b610d9b8382613efd565b6040518581527fb9197c6b8e21274bd1e2d9c956a88af5cfee510f630fab3f046300f88b4223619060200160405180910390a15050600160fb55505050565b600054610100900460ff16610df55760005460ff1615610df9565b303b155b610e6b5760405162461bcd60e51b815260206004820152602e60248201527f496e697469616c697a61626c653a20636f6e747261637420697320616c72656160448201527f647920696e697469616c697a65640000000000000000000000000000000000006064820152608401610b67565b600054610100900460ff16158015610e8d576000805461ffff19166101011790555b610e95613fcb565b610e9d61403e565b610ea56140a9565b610ead61411c565b610eb63361418f565b6103e8861115610f085760405162461bcd60e51b815260206004820152601560248201527f54726561737572792066656520746f6f206869676800000000000000000000006044820152606401610b67565b61012d805461012e80546001600160a01b038e81166001600160a01b03199283161790925561012f8d90556101308c90556101358b90556101318a905561013a80548a841690831617905561013b805489841690831617905561013e8054888416921691909117905561013d85905560ff19908e1661010002167fffffffffffffffffffffff0000000000000000000000000000000000000000009091161790558015610fbb576000805461ff00191690555b5050505050505050505050565b60c95460ff166110115760405162461bcd60e51b815260206004820152601460248201527314185d5cd8589b194e881b9bdd081c185d5cd95960621b6044820152606401610b67565b61012d5461010090046001600160a01b0316331461105d5760405162461bcd60e51b81526020600482015260096024820152682737ba1030b236b4b760b91b6044820152606401610b67565b6001600160a01b0381166110b35760405162461bcd60e51b815260206004820152601660248201527f43616e6e6f74206265207a65726f2061646472657373000000000000000000006044820152606401610b67565b61013e80546001600160a01b0319166001600160a01b0392909216919091179055565b60c95460ff161561111c5760405162461bcd60e51b815260206004820152601060248201526f14185d5cd8589b194e881c185d5cd95960821b6044820152606401610b67565b600260fb54141561116f5760405162461bcd60e51b815260206004820152601f60248201527f5265656e7472616e637947756172643a207265656e7472616e742063616c6c006044820152606401610b67565b600260fb55333b156111c35760405162461bcd60e51b815260206004820152601460248201527f436f6e7472616374206e6f7420616c6c6f7765640000000000000000000000006044820152606401610b67565b3332146112125760405162461bcd60e51b815260206004820152601a60248201527f50726f787920636f6e7472616374206e6f7420616c6c6f7765640000000000006044820152606401610b67565b6101335482146112645760405162461bcd60e51b815260206004820152601560248201527f42657420697320746f6f206561726c792f6c61746500000000000000000000006044820152606401610b67565b61126d826141e3565b6112b95760405162461bcd60e51b815260206004820152601260248201527f526f756e64206e6f74206265747461626c6500000000000000000000000000006044820152606401610b67565b610130548110156113215760405162461bcd60e51b815260206004820152602c60248201527f42657420616d6f756e74206d7573742062652067726561746572207468616e2060448201526b1b5a5b90995d105b5bdd5b9d60a21b6064820152608401610b67565b61013d5434101561139a5760405162461bcd60e51b815260206004820152602f60248201527f5573657220646f6573206e6f74206861766520656e6f7567682066756e64732060448201527f746f2070617920746865206665657300000000000000000000000000000000006064820152608401610b67565b61013a546040516370a0823160e01b815233600482015282916001600160a01b0316906370a082319060240160206040518083038186803b1580156113de57600080fd5b505afa1580156113f2573d6000803e3d6000fd5b505050506040513d601f19601f820116820180604052508101906114169190615220565b10156114645760405162461bcd60e51b815260206004820152601a60248201527f5573657220686173206e6f7420656e6f756768742066756e64730000000000006044820152606401610b67565b600082815261013f60209081526040808320338452909152902060010154156114f157600082815261013f602090815260408083203384529091529020546001146114f15760405162461bcd60e51b815260206004820152601d60248201527f43616e206f6e6c7920626574206f6e207468652073616d6520736964650000006044820152606401610b67565b61013b5461013a5461013154604051630453f59960e21b81526001600160a01b03928316600482015233602482015260448101859052606481019190915291169063114fd66490608401602060405180830381600087803b15801561155557600080fd5b505af1158015611569573d6000803e3d6000fd5b505050506040513d601f19601f8201168201806040525081019061158d9190615220565b5061013d5461013c546115a091906153ad565b61013c5560008281526101406020526040902060058101546115c39083906153ad565b600582015560068101546115d89083906153ad565b6006820155600083815261013f60209081526040808320338452909152902060018101546116245733600090815261014160209081526040822080546001810182559083529120018490555b60018082558101546116379084906153ad565b6001820155604051838152849033907fb6d8e7d6ffd9d5a3a37fec9f3e7ae19b4252138e5d2b7a4faf8022f7f09969ed9060200160405180910390a361013b546040516350ca72cd60e01b81526003600482015230602482015233604482015260648101869052608481018590526001600160a01b03909116906350ca72cd9060a4015b600060405180830381600087803b1580156116d557600080fd5b505af11580156116e9573d6000803e3d6000fd5b5050600160fb55505050505050565b306001600160a01b037f00000000000000000000000000000000000000000000000000000000000000001614156117865760405162461bcd60e51b815260206004820152602c60248201527f46756e6374696f6e206d7573742062652063616c6c6564207468726f7567682060448201526b19195b1959d85d1958d85b1b60a21b6064820152608401610b67565b7f00000000000000000000000000000000000000000000000000000000000000006001600160a01b03166117b8614255565b6001600160a01b0316146118235760405162461bcd60e51b815260206004820152602c60248201527f46756e6374696f6e206d7573742062652063616c6c6564207468726f7567682060448201526b6163746976652070726f787960a01b6064820152608401610b67565b61182c81614288565b60408051600080825260208201909252611848918391906142e2565b50565b6097546001600160a01b031633146118a55760405162461bcd60e51b815260206004820181905260248201527f4f776e61626c653a2063616c6c6572206973206e6f7420746865206f776e65726044820152606401610b67565b6103e88511156118f75760405162461bcd60e51b815260206004820152601560248201527f54726561737572792066656520746f6f206869676800000000000000000000006044820152606401610b67565b61012d805474ffffffffffffffffffffffffffffffffffffffff0019166101006001600160a01b039c8d160217905561012e80546001600160a01b03199081169a8c169a909a17905561012f9790975561013095909555610135939093556101319190915561013a8054861691871691909117905561013b8054851691861691909117905561013e8054909316931692909217905561013d55565b60c95460ff166119db5760405162461bcd60e51b815260206004820152601460248201527314185d5cd8589b194e881b9bdd081c185d5cd95960621b6044820152606401610b67565b61012d5461010090046001600160a01b03163314611a275760405162461bcd60e51b81526020600482015260096024820152682737ba1030b236b4b760b91b6044820152606401610b67565b61012d805460ff19169055611a3a614491565b610133546040517faaa520fdd7d2c83061d632fa017b0432407e798818af63ea908589fceda39ab790600090a2565b60c95460ff1615611aaf5760405162461bcd60e51b815260206004820152601060248201526f14185d5cd8589b194e881c185d5cd95960821b6044820152606401610b67565b61012d5461010090046001600160a01b0316331480611ad9575061012e546001600160a01b031633145b611b1a5760405162461bcd60e51b81526020600482015260126024820152712737ba1037b832b930ba37b917b0b236b4b760711b6044820152606401610b67565b61012d5460ff1615611b945760405162461bcd60e51b815260206004820152602360248201527f43616e206f6e6c792072756e2067656e657369735374617274526f756e64206f60448201527f6e636500000000000000000000000000000000000000000000000000000000006064820152608401610b67565b61013354611ba39060016153ad565b610133819055611bb290614524565b61012d805460ff19166001179055565b60c95460ff1615611c085760405162461bcd60e51b815260206004820152601060248201526f14185d5cd8589b194e881c185d5cd95960821b6044820152606401610b67565b61012d5461010090046001600160a01b0316331480611c32575061012e546001600160a01b031633145b611c735760405162461bcd60e51b81526020600482015260126024820152712737ba1037b832b930ba37b917b0b236b4b760711b6044820152606401610b67565b6101388190556101398054906000611c8a83615447565b9091555050604080518281523360208201527f3626e2f97953198c54f39d281ba2d6af75e90b8b81e9de0a62d4a4ec31dcb7c2910160405180910390a1610139546101348190556001821660026000821315611ce4575060035b61013b54610133546040516350ca72cd60e01b8152600b60048201523060248201523360448201526064810191909152608481018390526001600160a01b03909116906350ca72cd9060a401600060405180830381600087803b158015611d4a57600080fd5b505af1158015611d5e573d6000803e3d6000fd5b50505050611d7c610133548469ffffffffffffffffffff1684614585565b611d88610133546146f0565b61013354611d979060016153ad565b610133819055611da6906148a6565b50505050565b306001600160a01b037f0000000000000000000000000000000000000000000000000000000000000000161415611e3a5760405162461bcd60e51b815260206004820152602c60248201527f46756e6374696f6e206d7573742062652063616c6c6564207468726f7567682060448201526b19195b1959d85d1958d85b1b60a21b6064820152608401610b67565b7f00000000000000000000000000000000000000000000000000000000000000006001600160a01b0316611e6c614255565b6001600160a01b031614611ed75760405162461bcd60e51b815260206004820152602c60248201527f46756e6374696f6e206d7573742062652063616c6c6564207468726f7567682060448201526b6163746976652070726f787960a01b6064820152608401610b67565b611ee082614288565b611eec828260016142e2565b5050565b60c95460ff16611f395760405162461bcd60e51b815260206004820152601460248201527314185d5cd8589b194e881b9bdd081c185d5cd95960621b6044820152606401610b67565b61012d5461010090046001600160a01b03163314611f855760405162461bcd60e51b81526020600482015260096024820152682737ba1030b236b4b760b91b6044820152606401610b67565b600090815261014060205260409020600a01805461ff001916610100179055565b6000306001600160a01b037f000000000000000000000000000000000000000000000000000000000000000016146120465760405162461bcd60e51b815260206004820152603860248201527f555550535570677261646561626c653a206d757374206e6f742062652063616c60448201527f6c6564207468726f7567682064656c656761746563616c6c00000000000000006064820152608401610b67565b507f360894a13ba1a3210667c828492db98dca3e2076cc3735a920a3ca505d382bbc90565b60c95460ff166120b45760405162461bcd60e51b815260206004820152601460248201527314185d5cd8589b194e881b9bdd081c185d5cd95960621b6044820152606401610b67565b61012d5461010090046001600160a01b031633146121005760405162461bcd60e51b81526020600482015260096024820152682737ba1030b236b4b760b91b6044820152606401610b67565b61013d55565b600260fb5414156121595760405162461bcd60e51b815260206004820152601f60248201527f5265656e7472616e637947756172643a207265656e7472616e742063616c6c006044820152606401610b67565b600260fb55333b156121ad5760405162461bcd60e51b815260206004820152601460248201527f436f6e7472616374206e6f7420616c6c6f7765640000000000000000000000006044820152606401610b67565b3332146121fc5760405162461bcd60e51b815260206004820152601a60248201527f50726f787920636f6e7472616374206e6f7420616c6c6f7765640000000000006044820152606401610b67565b6000805b8281101561294857610140600085858481811061222d57634e487b7160e01b600052603260045260246000fd5b90506020020135815260200190815260200160002060010154600014156122965760405162461bcd60e51b815260206004820152601560248201527f526f756e6420686173206e6f74207374617274656400000000000000000000006044820152606401610b67565b61014060008585848181106122bb57634e487b7160e01b600052603260045260246000fd5b905060200201358152602001908152602001600020600201544211806123285750610140600085858481811061230157634e487b7160e01b600052603260045260246000fd5b905060200201358152602001908152602001600020600a0160019054906101000a900460ff165b6123745760405162461bcd60e51b815260206004820152601360248201527f526f756e6420686173206e6f7420656e646564000000000000000000000000006044820152606401610b67565b6000610140600086868581811061239b57634e487b7160e01b600052603260045260246000fd5b60209081029290920135835250810191909152604001600020600a015460ff1615612627576123f08585848181106123e357634e487b7160e01b600052603260045260246000fd5b90506020020135336138b4565b61243c5760405162461bcd60e51b815260206004820152601660248201527f4e6f7420656c696769626c6520666f7220636c61696d000000000000000000006044820152606401610b67565b6000610140600087878681811061246357634e487b7160e01b600052603260045260246000fd5b9050602002013581526020019081526020016000206040518061018001604052908160008201548152602001600182015481526020016002820154815260200160038201548152602001600482015481526020016005820154815260200160068201548152602001600782015481526020016008820154815260200160098201548152602001600a820160009054906101000a900460ff16151515158152602001600a820160019054906101000a900460ff16151515158152505090506127106101315461013f600089898881811061254c57634e487b7160e01b600052603260045260246000fd5b9050602002013581526020019081526020016000206000336001600160a01b03166001600160a01b0316815260200190815260200160002060010154600261259491906153e5565b61259e91906153e5565b6125a891906153c5565b61013f60008888878181106125cd57634e487b7160e01b600052603260045260246000fd5b9050602002013581526020019081526020016000206000336001600160a01b03166001600160a01b0316815260200190815260200160002060010154600261261591906153e5565b61261f9190615404565b915050612793565b61265785858481811061264a57634e487b7160e01b600052603260045260246000fd5b9050602002013533612dc9565b6126a35760405162461bcd60e51b815260206004820152601760248201527f4e6f7420656c696769626c6520666f7220726566756e640000000000000000006044820152606401610b67565b60006127106101315461013f60008989888181106126d157634e487b7160e01b600052603260045260246000fd5b9050602002013581526020019081526020016000206000336001600160a01b03166001600160a01b031681526020019081526020016000206001015461271791906153e5565b61272191906153c5565b90508061013f600088888781811061274957634e487b7160e01b600052603260045260246000fd5b9050602002013581526020019081526020016000206000336001600160a01b03166001600160a01b031681526020019081526020016000206001015461278f9190615404565b9150505b600161013f60008787868181106127ba57634e487b7160e01b600052603260045260246000fd5b6020908102929092013583525081810192909252604090810160009081203382529092529020600201805460ff19169115159190911790556127fc81846153ad565b925084848381811061281e57634e487b7160e01b600052603260045260246000fd5b90506020020135336001600160a01b03167f34fcbac0073d7c3d388e51312faf357774904998eeb8fca628b9e6f65ee1cbf78360405161286091815260200190565b60405180910390a361013b546001600160a01b03166350ca72cd6001303389898881811061289e57634e487b7160e01b600052603260045260246000fd5b60405160e088901b7fffffffff0000000000000000000000000000000000000000000000000000000016815260048101969096526001600160a01b039485166024870152929093166044850152602090910201356064830152506084810184905260a401600060405180830381600087803b15801561291c57600080fd5b505af1158015612930573d6000803e3d6000fd5b5050505050808061294090615447565b915050612200565b5080156129fa5761013b5461013a546040517fc6c3bbe60000000000000000000000000000000000000000000000000000000081526001600160a01b0391821660048201523360248201526044810184905291169063c6c3bbe690606401602060405180830381600087803b1580156129c057600080fd5b505af11580156129d4573d6000803e3d6000fd5b505050506040513d601f19601f820116820180604052508101906129f89190615220565b505b5050600160fb5550565b60c95460ff16612a4d5760405162461bcd60e51b815260206004820152601460248201527314185d5cd8589b194e881b9bdd081c185d5cd95960621b6044820152606401610b67565b61012d5461010090046001600160a01b03163314612a995760405162461bcd60e51b81526020600482015260096024820152682737ba1030b236b4b760b91b6044820152606401610b67565b80612ae65760405162461bcd60e51b815260206004820152601560248201527f4d757374206265207375706572696f7220746f203000000000000000000000006044820152606401610b67565b610130819055610133546040518281527f90eb87c560a0213754ceb3a7fa3012f01acab0a35602c1e1995adf69dabc9d50906020015b60405180910390a250565b6097546001600160a01b03163314612b815760405162461bcd60e51b815260206004820181905260248201527f4f776e61626c653a2063616c6c6572206973206e6f7420746865206f776e65726044820152606401610b67565b6001600160a01b038116612bd75760405162461bcd60e51b815260206004820152601660248201527f43616e6e6f74206265207a65726f2061646472657373000000000000000000006044820152606401610b67565b61012d805474ffffffffffffffffffffffffffffffffffffffff0019166101006001600160a01b038416908102919091179091556040519081527f137b621413925496477d46e5055ac0d56178bdd724ba8bf843afceef18268ba3906020015b60405180910390a150565b6097546001600160a01b03163314612c9c5760405162461bcd60e51b815260206004820181905260248201527f4f776e61626c653a2063616c6c6572206973206e6f7420746865206f776e65726044820152606401610b67565b612ca66000614a57565b565b60c95460ff16612cf15760405162461bcd60e51b815260206004820152601460248201527314185d5cd8589b194e881b9bdd081c185d5cd95960621b6044820152606401610b67565b61012d5461010090046001600160a01b03163314612d3d5760405162461bcd60e51b81526020600482015260096024820152682737ba1030b236b4b760b91b6044820152606401610b67565b6103e8811115612d8f5760405162461bcd60e51b815260206004820152601560248201527f54726561737572792066656520746f6f206869676800000000000000000000006044820152606401610b67565b610131819055610133546040518281527fb1c4ee38d35556741133da7ff9b6f7ab0fa88d0406133126ff128f635490a85790602001612b1c565b600082815261013f602090815260408083206001600160a01b03851684528252808320815160608082018452825482526001808401548387015260029384015460ff908116151584870152898852610140808852868920875161018081018952815481529381015498840198909852948701549582019590955260038601549181019190915260048501546080820152600585015460a0820152600685015460c0820152600785015460e08201526008850154610100828101919091526009860154610120830152600a9095015480851615159382019390935293909104909116158015610160840181905291929190612ec557508160400151155b8015612ed45750806040015142115b8015612ee35750602082015115155b95945050505050565b60c95460ff1615612f325760405162461bcd60e51b815260206004820152601060248201526f14185d5cd8589b194e881c185d5cd95960821b6044820152606401610b67565b61012d5461010090046001600160a01b0316331480612f5c575061012e546001600160a01b031633145b612f9d5760405162461bcd60e51b81526020600482015260126024820152712737ba1037b832b930ba37b917b0b236b4b760711b6044820152606401610b67565b612fa5614aa9565b610133546040517f68b095021b1f40fe513109f513c66692f0b3219aee674a69f4efc57badb8201d90600090a2565b6001600160a01b03831660009081526101416020526040812054606091829184908611156130445760405162461bcd60e51b815260206004820152601460248201527f437572736f72206f7574206f6620626f756e64730000000000000000000000006044820152606401610b67565b6001600160a01b03871660009081526101416020526040902054613069908790615404565b811115613098576001600160a01b03871660009081526101416020526040902054613095908790615404565b90505b60008167ffffffffffffffff8111156130c157634e487b7160e01b600052604160045260246000fd5b6040519080825280602002602001820160405280156130ea578160200160208202803683370190505b50905060008267ffffffffffffffff81111561311657634e487b7160e01b600052604160045260246000fd5b60405190808252806020026020018201604052801561316d57816020015b61315a604051806060016040528060008152602001600081526020016000151581525090565b8152602001906001900390816131345790505b50905060005b838110156132ad576001600160a01b038a1660009081526101416020526040902061319e828b6153ad565b815481106131bc57634e487b7160e01b600052603260045260246000fd5b90600052602060002001548382815181106131e757634e487b7160e01b600052603260045260246000fd5b60200260200101818152505061013f600084838151811061321857634e487b7160e01b600052603260045260246000fd5b602090810291909101810151825281810192909252604090810160009081206001600160a01b038e16825283528190208151606081018352815481526001820154938101939093526002015460ff16151590820152825183908390811061328f57634e487b7160e01b600052603260045260246000fd5b602002602001018190525080806132a590615447565b915050613173565b5081816132ba858b6153ad565b95509550955050505093509350939050565b60c95460ff16156133125760405162461bcd60e51b815260206004820152601060248201526f14185d5cd8589b194e881c185d5cd95960821b6044820152606401610b67565b600260fb5414156133655760405162461bcd60e51b815260206004820152601f60248201527f5265656e7472616e637947756172643a207265656e7472616e742063616c6c006044820152606401610b67565b600260fb55333b156133b95760405162461bcd60e51b815260206004820152601460248201527f436f6e7472616374206e6f7420616c6c6f7765640000000000000000000000006044820152606401610b67565b3332146134085760405162461bcd60e51b815260206004820152601a60248201527f50726f787920636f6e7472616374206e6f7420616c6c6f7765640000000000006044820152606401610b67565b61013354821461345a5760405162461bcd60e51b815260206004820152601560248201527f42657420697320746f6f206561726c792f6c61746500000000000000000000006044820152606401610b67565b613463826141e3565b6134af5760405162461bcd60e51b815260206004820152601260248201527f526f756e64206e6f74206265747461626c6500000000000000000000000000006044820152606401610b67565b610130548110156135175760405162461bcd60e51b815260206004820152602c60248201527f42657420616d6f756e74206d7573742062652067726561746572207468616e2060448201526b1b5a5b90995d105b5bdd5b9d60a21b6064820152608401610b67565b61013d543410156135905760405162461bcd60e51b815260206004820152602f60248201527f5573657220646f6573206e6f74206861766520656e6f7567682066756e64732060448201527f746f2070617920746865206665657300000000000000000000000000000000006064820152608401610b67565b61013a546040516370a0823160e01b815233600482015282916001600160a01b0316906370a082319060240160206040518083038186803b1580156135d457600080fd5b505afa1580156135e8573d6000803e3d6000fd5b505050506040513d601f19601f8201168201806040525081019061360c9190615220565b101561365a5760405162461bcd60e51b815260206004820152601a60248201527f5573657220686173206e6f7420656e6f756768742066756e64730000000000006044820152606401610b67565b600082815261013f60209081526040808320338452909152902060010154156136e557600082815261013f60209081526040808320338452909152902054156136e55760405162461bcd60e51b815260206004820152601d60248201527f43616e206f6e6c7920626574206f6e207468652073616d6520736964650000006044820152606401610b67565b61013b5461013a5461013154604051630453f59960e21b81526001600160a01b03928316600482015233602482015260448101859052606481019190915291169063114fd66490608401602060405180830381600087803b15801561374957600080fd5b505af115801561375d573d6000803e3d6000fd5b505050506040513d601f19601f820116820180604052508101906137819190615220565b5061013d5461013c5461379491906153ad565b61013c5560008281526101406020526040902060058101546137b79083906153ad565b600582015560078101546137cc9083906153ad565b6007820155600083815261013f60209081526040808320338452909152902060018101546138185733600090815261014160209081526040822080546001810182559083529120018490555b60008155600181015461382c9084906153ad565b6001820155604051838152849033907fe5c4e2521320c9bf477fd178a50f99ad0a3242b16ff67be0f697b0998ccfd3169060200160405180910390a361013b546040516350ca72cd60e01b81526002600482015230602482015233604482015260648101869052608481018590526001600160a01b03909116906350ca72cd9060a4016116bb565b600082815261013f602090815260408083206001600160a01b03851684528252808320815160608082018452825482526001808401548387015260029384015460ff908116151584870152898852610140808852868920875161018081018952815481529381015498840198909852948701549582019590955260038601549181019190915260048501546080820152600585015460a0820152600685015460c0820152600785015460e08201526008850154610100828101919091526009860154610120830152600a909501548085161580159483018590529590049093161515610160840152926139aa5750602082015115155b80156139b857508160400151155b8015612ee35750806060015160011480156139d4575081516001145b80612ee357506060810151158015612ee357505051159392505050565b60c95460ff16613a3a5760405162461bcd60e51b815260206004820152601460248201527314185d5cd8589b194e881b9bdd081c185d5cd95960621b6044820152606401610b67565b61012d5461010090046001600160a01b03163314613a865760405162461bcd60e51b81526020600482015260096024820152682737ba1030b236b4b760b91b6044820152606401610b67565b60008111613ad65760405162461bcd60e51b815260206004820152601660248201527f4d7573742062652067726561746572207468616e2030000000000000000000006044820152606401610b67565b61012f8190556040518181527f6efaca79509f934278cc6180e6675623f6c3b11afb2f4f96fb714d229d58f22790602001612c37565b6097546001600160a01b03163314613b665760405162461bcd60e51b815260206004820181905260248201527f4f776e61626c653a2063616c6c6572206973206e6f7420746865206f776e65726044820152606401610b67565b6040517fa9059cbb000000000000000000000000000000000000000000000000000000008152336004820152602481018290526001600160a01b0383169063a9059cbb90604401602060405180830381600087803b158015613bc757600080fd5b505af1158015613bdb573d6000803e3d6000fd5b505050506040513d601f19601f82011682018060405250810190613bff9190615200565b50816001600160a01b03167f14f11966a996e0629572e51064726d2057a80fbd34efc066682c06a71dbb6e9882604051613c3b91815260200190565b60405180910390a25050565b61012d5461010090046001600160a01b03163314613c935760405162461bcd60e51b81526020600482015260096024820152682737ba1030b236b4b760b91b6044820152606401610b67565b6001600160a01b038116613ce95760405162461bcd60e51b815260206004820152601660248201527f43616e6e6f74206265207a65726f2061646472657373000000000000000000006044820152606401610b67565b61012e80546001600160a01b0319166001600160a01b0383169081179091556040519081527fc47d127c07bdd56c5ccba00463ce3bd3c1bca71b4670eea6e5d0c02e4aa156e290602001612c37565b60c95460ff16613d815760405162461bcd60e51b815260206004820152601460248201527314185d5cd8589b194e881b9bdd081c185d5cd95960621b6044820152606401610b67565b61012d5461010090046001600160a01b03163314613dcd5760405162461bcd60e51b81526020600482015260096024820152682737ba1030b236b4b760b91b6044820152606401610b67565b6101358190556040518181527f93ccaceac092ffb842c46b8718667a13a80e9058dcd0bd403d0b47215b30da0790602001612c37565b6101416020528160005260406000208181548110613e2057600080fd5b90600052602060002001600091509150505481565b6097546001600160a01b03163314613e8f5760405162461bcd60e51b815260206004820181905260248201527f4f776e61626c653a2063616c6c6572206973206e6f7420746865206f776e65726044820152606401610b67565b6001600160a01b038116613ef45760405162461bcd60e51b815260206004820152602660248201527f4f776e61626c653a206e6577206f776e657220697320746865207a65726f206160448201526564647265737360d01b6064820152608401610b67565b61184881614a57565b6000826001600160a01b03168260405160006040518083038185875af1925050503d8060008114613f4a576040519150601f19603f3d011682016040523d82523d6000602084013e613f4f565b606091505b5050905080613fc65760405162461bcd60e51b815260206004820152602560248201527f5472616e7366657248656c7065723a204d415449435f5452414e534645525f4660448201527f41494c45440000000000000000000000000000000000000000000000000000006064820152608401610b67565b505050565b600054610100900460ff166140365760405162461bcd60e51b815260206004820152602b60248201527f496e697469616c697a61626c653a20636f6e7472616374206973206e6f74206960448201526a6e697469616c697a696e6760a81b6064820152608401610b67565b612ca6614b24565b600054610100900460ff16612ca65760405162461bcd60e51b815260206004820152602b60248201527f496e697469616c697a61626c653a20636f6e7472616374206973206e6f74206960448201526a6e697469616c697a696e6760a81b6064820152608401610b67565b600054610100900460ff166141145760405162461bcd60e51b815260206004820152602b60248201527f496e697469616c697a61626c653a20636f6e7472616374206973206e6f74206960448201526a6e697469616c697a696e6760a81b6064820152608401610b67565b612ca6614b98565b600054610100900460ff166141875760405162461bcd60e51b815260206004820152602b60248201527f496e697469616c697a61626c653a20636f6e7472616374206973206e6f74206960448201526a6e697469616c697a696e6760a81b6064820152608401610b67565b612ca6614c0a565b7f7e644d79422f17c01e4894b5f4f588d331ebfa28653d42ae832dc59e38c9798f6141b8614c81565b604080516001600160a01b03928316815291841660208301520160405180910390a161184881614ca9565b600081815261014060205260408120600101541580159061421557506000828152610140602052604090206002015415155b801561423257506000828152610140602052604090206001015442115b801561424f57506000828152610140602052604090206002015442105b92915050565b60007f360894a13ba1a3210667c828492db98dca3e2076cc3735a920a3ca505d382bbc5b546001600160a01b0316919050565b6097546001600160a01b031633146118485760405162461bcd60e51b815260206004820181905260248201527f4f776e61626c653a2063616c6c6572206973206e6f7420746865206f776e65726044820152606401610b67565b7f4910fdfa16fed3260ed0e7147f7cc6da11a60208b5b9406d12a635614ffd91435460ff161561431557613fc683614d52565b826001600160a01b03166352d1902d6040518163ffffffff1660e01b815260040160206040518083038186803b15801561434e57600080fd5b505afa92505050801561437e575060408051601f3d908101601f1916820190925261437b91810190615220565b60015b6143f05760405162461bcd60e51b815260206004820152602e60248201527f45524331393637557067726164653a206e657720696d706c656d656e7461746960448201527f6f6e206973206e6f7420555550530000000000000000000000000000000000006064820152608401610b67565b7f360894a13ba1a3210667c828492db98dca3e2076cc3735a920a3ca505d382bbc81146144855760405162461bcd60e51b815260206004820152602960248201527f45524331393637557067726164653a20756e737570706f727465642070726f7860448201527f6961626c655555494400000000000000000000000000000000000000000000006064820152608401610b67565b50613fc6838383614df6565b60c95460ff166144da5760405162461bcd60e51b815260206004820152601460248201527314185d5cd8589b194e881b9bdd081c185d5cd95960621b6044820152606401610b67565b60c9805460ff191690557f5db9ee0a495bf2e6ff9c91a7834c1ba4fdd244a5e8aa4e537bd38aeae4b073aa335b6040516001600160a01b03909116815260200160405180910390a1565b600081815261014060205260409020426001820181905561012f54614548916153ad565b600282015581815560006005820181905560405183917f939f42374aa9bf1d8d8cd56d8a9110cb040cd8dfeae44080c6fcf2645e51b45291a25050565b6000838152610140602052604090206001015461460a5760405162461bcd60e51b815260206004820152602a60248201527f43616e206f6e6c7920656e6420726f756e6420616674657220726f756e64206860448201527f61732073746172746564000000000000000000000000000000000000000000006064820152608401610b67565b600083815261014060205260409020600201544210156146925760405162461bcd60e51b815260206004820152602760248201527f43616e206f6e6c7920656e6420726f756e6420616674657220636c6f7365546960448201527f6d657374616d70000000000000000000000000000000000000000000000000006064820152608401610b67565b600083815261014060205260408082206003810184905560048101859055600a8101805460ff1916600117905590519091849186917f3de62ea950fc2ed1ed823bb23086296729e73cdd05823251b76e36665ff267b591a350505050565b60008181526101406020526040902060080154158015614720575060008181526101406020526040902060090154155b61476c5760405162461bcd60e51b815260206004820152601260248201527f526577617264732063616c63756c6174656400000000000000000000000000006044820152606401610b67565b6000818152610140602052604081206006810154909190819081906147cb57836007015492506127106101315485600501546147a891906153e5565b6147b291906153c5565b91508184600501546147c49190615404565b905061484e565b60078401546147f157836006015492506127106101315485600501546147a891906153e5565b83600301546001141561481b57836006015492506127106101315485600501546147a891906153e5565b600384015461484157836007015492506127106101315485600501546147a891906153e5565b5050506005810154600090815b6008840183905560098401819055604080518481526020810183905290810183905285907f6dfdfcb09c8804d0058826cd2539f1acfbe3cb887c9be03d928035bce0f1a58d9060600160405180910390a25050505050565b61012d5460ff1661491f5760405162461bcd60e51b815260206004820152603160248201527f43616e206f6e6c792072756e2061667465722067656e6573697353746172745260448201527f6f756e64206973207472696767657265640000000000000000000000000000006064820152608401610b67565b610140600061492f600184615404565b815260200190815260200160002060020154600014156149b75760405162461bcd60e51b815260206004820152602e60248201527f43616e206f6e6c7920737461727420726f756e6420616674657220726f756e6460448201527f206e2d312068617320656e6465640000000000000000000000000000000000006064820152608401610b67565b61014060006149c7600184615404565b815260200190815260200160002060020154421015614a4e5760405162461bcd60e51b815260206004820152603760248201527f43616e206f6e6c79207374617274206e657720726f756e64206166746572207260448201527f6f756e64206e2d3120636c6f736554696d657374616d700000000000000000006064820152608401610b67565b61184881614524565b609780546001600160a01b038381166001600160a01b0319831681179093556040519116919082907f8be0079c531659141344cd1fd0a4f28419497f9722a3daafe3b4186f6b6457e090600090a35050565b60c95460ff1615614aef5760405162461bcd60e51b815260206004820152601060248201526f14185d5cd8589b194e881c185d5cd95960821b6044820152606401610b67565b60c9805460ff191660011790557f62e78cea01bee320cd4e420270b5ea74000d11b0c9f74754ebdbfc544b05a2586145073390565b600054610100900460ff16614b8f5760405162461bcd60e51b815260206004820152602b60248201527f496e697469616c697a61626c653a20636f6e7472616374206973206e6f74206960448201526a6e697469616c697a696e6760a81b6064820152608401610b67565b612ca633614a57565b600054610100900460ff16614c035760405162461bcd60e51b815260206004820152602b60248201527f496e697469616c697a61626c653a20636f6e7472616374206973206e6f74206960448201526a6e697469616c697a696e6760a81b6064820152608401610b67565b600160fb55565b600054610100900460ff16614c755760405162461bcd60e51b815260206004820152602b60248201527f496e697469616c697a61626c653a20636f6e7472616374206973206e6f74206960448201526a6e697469616c697a696e6760a81b6064820152608401610b67565b60c9805460ff19169055565b60007fb53127684a568b3173ae13b9f8a6016e243e63b6e8ee1178d6a717850b5d6103614279565b6001600160a01b038116614d0e5760405162461bcd60e51b815260206004820152602660248201527f455243313936373a206e65772061646d696e20697320746865207a65726f206160448201526564647265737360d01b6064820152608401610b67565b807fb53127684a568b3173ae13b9f8a6016e243e63b6e8ee1178d6a717850b5d61035b80546001600160a01b0319166001600160a01b039290921691909117905550565b6001600160a01b0381163b614dcf5760405162461bcd60e51b815260206004820152602d60248201527f455243313936373a206e657720696d706c656d656e746174696f6e206973206e60448201527f6f74206120636f6e7472616374000000000000000000000000000000000000006064820152608401610b67565b807f360894a13ba1a3210667c828492db98dca3e2076cc3735a920a3ca505d382bbc614d31565b614dff83614e1b565b600082511180614e0c5750805b15613fc657611da68383614e5b565b614e2481614d52565b6040516001600160a01b038216907fbc7cd75a20ee27fd9adebab32041f755214dbc6bffa90cc0225b39da2e5c2d3b90600090a250565b60606001600160a01b0383163b614eda5760405162461bcd60e51b815260206004820152602660248201527f416464726573733a2064656c65676174652063616c6c20746f206e6f6e2d636f60448201527f6e747261637400000000000000000000000000000000000000000000000000006064820152608401610b67565b600080846001600160a01b031684604051614ef591906152c3565b600060405180830381855af49150503d8060008114614f30576040519150601f19603f3d011682016040523d82523d6000602084013e614f35565b606091505b5091509150612ee382826040518060600160405280602781526020016154a46027913960608315614f67575081614f91565b825115614f775782518084602001fd5b8160405162461bcd60e51b8152600401610b67919061537a565b9392505050565b600060208284031215614fa9578081fd5b8135614f918161548e565b600060208284031215614fc5578081fd5b8151614f918161548e565b6000806000806000806000806000806101408b8d031215614fef578586fd5b8a35614ffa8161548e565b995060208b013561500a8161548e565b985060408b0135975060608b0135965060808b0135955060a08b0135945060c08b01356150368161548e565b935060e08b01356150468161548e565b92506101008b01356150578161548e565b809250506101208b013590509295989b9194979a5092959850565b60008060408385031215615084578182fd5b823561508f8161548e565b9150602083013567ffffffffffffffff808211156150ab578283fd5b818501915085601f8301126150be578283fd5b8135818111156150d0576150d0615478565b604051601f8201601f19908116603f011681019083821181831017156150f8576150f8615478565b81604052828152886020848701011115615110578586fd5b82602086016020830137856020848301015280955050505050509250929050565b60008060408385031215615143578182fd5b823561514e8161548e565b946020939093013593505050565b600080600060608486031215615170578283fd5b833561517b8161548e565b95602085013595506040909401359392505050565b600080602083850312156151a2578182fd5b823567ffffffffffffffff808211156151b9578384fd5b818501915085601f8301126151cc578384fd5b8135818111156151da578485fd5b8660208260051b85010111156151ee578485fd5b60209290920196919550909350505050565b600060208284031215615211578081fd5b81518015158114614f91578182fd5b600060208284031215615231578081fd5b5051919050565b600060208284031215615249578081fd5b5035919050565b60008060408385031215615262578182fd5b8235915060208301356152748161548e565b809150509250929050565b60008060408385031215615291578182fd5b50508035926020909101359150565b600080604083850312156152b2578182fd5b505080516020909101519092909150565b600082516152d581846020870161541b565b9190910192915050565b60608082528451828201819052600091906020906080850190828901855b82811015615319578151845292840192908401906001016152fd565b50505084810382860152865180825287830191830190855b818110156153635783518051845285810151868501526040908101511515908401529284019291850191600101615331565b505080945050505050826040830152949350505050565b602081526000825180602084015261539981604085016020870161541b565b601f01601f19169190910160400192915050565b600082198211156153c0576153c0615462565b500190565b6000826153e057634e487b7160e01b81526012600452602481fd5b500490565b60008160001904831182151516156153ff576153ff615462565b500290565b60008282101561541657615416615462565b500390565b60005b8381101561543657818101518382015260200161541e565b83811115611da65750506000910152565b600060001982141561545b5761545b615462565b5060010190565b634e487b7160e01b600052601160045260246000fd5b634e487b7160e01b600052604160045260246000fd5b6001600160a01b038116811461184857600080fdfe416464726573733a206c6f772d6c6576656c2064656c65676174652063616c6c206661696c6564a26469706673582212200eb5d2efe94ca9ee7af6fc72c592e987202005c86ceb1bedc4e50759ff2f9d5f64736f6c63430008040033",
  "devdoc": {
    "kind": "dev",
    "methods": {
      "claimTreasury()": {
        "details": "Callable by admin"
      },
      "getUserRounds(address,uint256,uint256)": {
        "params": {
          "cursor": ": cursor",
          "size": ": size",
          "user": ": user address"
        }
      },
      "getUserRoundsLength(address)": {
        "params": {
          "user": ": user address"
        }
      },
      "initialize(address,address,uint256,uint256,uint256,uint256,address,address,address,uint256)": {
        "params": {
          "_adminAddress": ": admin address",
          "_intervalSeconds": ": number of time within an interval",
          "_minBetAmount": ": minimum bet amounts (in wei)",
          "_operatorAddress": ": operator address",
          "_oracleUpdateAllowance": ": oracle update allowance",
          "_treasuryFee": ": treasury fee (1000 = 10%)"
        }
      },
      "owner()": {
        "details": "Returns the address of the current owner."
      },
      "pause()": {
        "details": "Callable by admin or operator"
      },
      "paused()": {
        "details": "Returns true if the contract is paused, and false otherwise."
      },
      "proxiableUUID()": {
        "details": "Implementation of the ERC1822 {proxiableUUID} function. This returns the storage slot used by the implementation. It is used to validate that the this implementation remains valid after an upgrade. IMPORTANT: A proxy pointing at a proxiable contract should not be considered proxiable itself, because this risks bricking a proxy that upgrades to it, by delegating to itself until out of gas. Thus it is critical that this function revert if invoked through a proxy. This is guaranteed by the `notDelegated` modifier."
      },
      "recoverToken(address,uint256)": {
        "details": "Callable by owner",
        "params": {
          "_amount": ": token amount",
          "_token": ": token address"
        }
      },
      "refundable(uint256,address)": {
        "params": {
          "epoch": ": epoch",
          "user": ": user address"
        }
      },
      "renounceOwnership()": {
        "details": "Leaves the contract without owner. It will not be possible to call `onlyOwner` functions anymore. Can only be called by the current owner. NOTE: Renouncing ownership will leave the contract without an owner, thereby removing any functionality that is only available to the owner."
      },
      "setAdmin(address)": {
        "details": "Callable by owner"
      },
      "setFeeAmount(uint256)": {
        "details": "Callable by admin"
      },
      "setFeeToken(address)": {
        "details": "Callable by admin"
      },
      "setIntervalSeconds(uint256)": {
        "details": "Callable by admin"
      },
      "setMinBetAmount(uint256)": {
        "details": "Callable by admin"
      },
      "setOperator(address)": {
        "details": "Callable by admin"
      },
      "setOracleUpdateAllowance(uint256)": {
        "details": "Callable by admin"
      },
      "setTreasuryFee(uint256)": {
        "details": "Callable by admin"
      },
      "transferOwnership(address)": {
        "details": "Transfers ownership of the contract to a new account (`newOwner`). Can only be called by the current owner."
      },
      "upgradeTo(address)": {
        "details": "Upgrade the implementation of the proxy to `newImplementation`. Calls {_authorizeUpgrade}. Emits an {Upgraded} event."
      },
      "upgradeToAndCall(address,bytes)": {
        "details": "Upgrade the implementation of the proxy to `newImplementation`, and subsequently execute the function call encoded in `data`. Calls {_authorizeUpgrade}. Emits an {Upgraded} event."
      }
    },
    "version": 1
  },
  "userdoc": {
    "kind": "user",
    "methods": {
      "claimTreasury()": {
        "notice": "Claim all rewards in treasury"
      },
      "getUserRounds(address,uint256,uint256)": {
        "notice": "Returns round epochs and bet information for a user that has participated"
      },
      "getUserRoundsLength(address)": {
        "notice": "Returns round epochs length"
      },
      "initialize(address,address,uint256,uint256,uint256,uint256,address,address,address,uint256)": {
        "notice": "Initialize function from proxy contract"
      },
      "pause()": {
        "notice": "called by the admin to pause, triggers stopped state"
      },
      "recoverToken(address,uint256)": {
        "notice": "It allows the owner to recover tokens sent to the contract by mistake"
      },
      "refundable(uint256,address)": {
        "notice": "Get the refundable stats of specific epoch and user account"
      },
      "setAdmin(address)": {
        "notice": "Set admin address"
      },
      "setFeeAmount(uint256)": {
        "notice": "Set fee amount"
      },
      "setFeeToken(address)": {
        "notice": "Set fee token address"
      },
      "setIntervalSeconds(uint256)": {
        "notice": "Set interval seconds"
      },
      "setMinBetAmount(uint256)": {
        "notice": "Set minBetAmount"
      },
      "setOperator(address)": {
        "notice": "Set operator address"
      },
      "setOracleUpdateAllowance(uint256)": {
        "notice": "Set oracle update allowance"
      },
      "setTreasuryFee(uint256)": {
        "notice": "Set treasury fee"
      },
      "unpause()": {
        "notice": "called by the admin to unpause, returns to normal state Reset genesis state. Once paused, the rounds would need to be kickstarted by genesis"
      }
    },
    "version": 1
  },
  "storageLayout": {
    "storage": [
      {
        "astId": 519,
        "contract": "contracts/OFCointossHouse.sol:OFCointossHouse",
        "label": "_initialized",
        "offset": 0,
        "slot": "0",
        "type": "t_bool"
      },
      {
        "astId": 522,
        "contract": "contracts/OFCointossHouse.sol:OFCointossHouse",
        "label": "_initializing",
        "offset": 1,
        "slot": "0",
        "type": "t_bool"
      },
      {
        "astId": 501,
        "contract": "contracts/OFCointossHouse.sol:OFCointossHouse",
        "label": "__gap",
        "offset": 0,
        "slot": "1",
        "type": "t_array(t_uint256)50_storage"
      },
      {
        "astId": 721,
        "contract": "contracts/OFCointossHouse.sol:OFCointossHouse",
        "label": "__gap",
        "offset": 0,
        "slot": "51",
        "type": "t_array(t_uint256)50_storage"
      },
      {
        "astId": 2116,
        "contract": "contracts/OFCointossHouse.sol:OFCointossHouse",
        "label": "__gap",
        "offset": 0,
        "slot": "101",
        "type": "t_array(t_uint256)50_storage"
      },
      {
        "astId": 10,
        "contract": "contracts/OFCointossHouse.sol:OFCointossHouse",
        "label": "_owner",
        "offset": 0,
        "slot": "151",
        "type": "t_address"
      },
      {
        "astId": 122,
        "contract": "contracts/OFCointossHouse.sol:OFCointossHouse",
        "label": "__gap",
        "offset": 0,
        "slot": "152",
        "type": "t_array(t_uint256)49_storage"
      },
      {
        "astId": 743,
        "contract": "contracts/OFCointossHouse.sol:OFCointossHouse",
        "label": "_paused",
        "offset": 0,
        "slot": "201",
        "type": "t_bool"
      },
      {
        "astId": 832,
        "contract": "contracts/OFCointossHouse.sol:OFCointossHouse",
        "label": "__gap",
        "offset": 0,
        "slot": "202",
        "type": "t_array(t_uint256)49_storage"
      },
      {
        "astId": 847,
        "contract": "contracts/OFCointossHouse.sol:OFCointossHouse",
        "label": "_status",
        "offset": 0,
        "slot": "251",
        "type": "t_uint256"
      },
      {
        "astId": 891,
        "contract": "contracts/OFCointossHouse.sol:OFCointossHouse",
        "label": "__gap",
        "offset": 0,
        "slot": "252",
        "type": "t_array(t_uint256)49_storage"
      },
      {
        "astId": 7071,
        "contract": "contracts/OFCointossHouse.sol:OFCointossHouse",
        "label": "genesisStartOnce",
        "offset": 0,
        "slot": "301",
        "type": "t_bool"
      },
      {
        "astId": 7073,
        "contract": "contracts/OFCointossHouse.sol:OFCointossHouse",
        "label": "adminAddress",
        "offset": 1,
        "slot": "301",
        "type": "t_address"
      },
      {
        "astId": 7075,
        "contract": "contracts/OFCointossHouse.sol:OFCointossHouse",
        "label": "operatorAddress",
        "offset": 0,
        "slot": "302",
        "type": "t_address"
      },
      {
        "astId": 7077,
        "contract": "contracts/OFCointossHouse.sol:OFCointossHouse",
        "label": "intervalSeconds",
        "offset": 0,
        "slot": "303",
        "type": "t_uint256"
      },
      {
        "astId": 7079,
        "contract": "contracts/OFCointossHouse.sol:OFCointossHouse",
        "label": "minBetAmount",
        "offset": 0,
        "slot": "304",
        "type": "t_uint256"
      },
      {
        "astId": 7081,
        "contract": "contracts/OFCointossHouse.sol:OFCointossHouse",
        "label": "treasuryFee",
        "offset": 0,
        "slot": "305",
        "type": "t_uint256"
      },
      {
        "astId": 7083,
        "contract": "contracts/OFCointossHouse.sol:OFCointossHouse",
        "label": "treasuryAmount",
        "offset": 0,
        "slot": "306",
        "type": "t_uint256"
      },
      {
        "astId": 7085,
        "contract": "contracts/OFCointossHouse.sol:OFCointossHouse",
        "label": "currentEpoch",
        "offset": 0,
        "slot": "307",
        "type": "t_uint256"
      },
      {
        "astId": 7087,
        "contract": "contracts/OFCointossHouse.sol:OFCointossHouse",
        "label": "oracleLatestRoundId",
        "offset": 0,
        "slot": "308",
        "type": "t_uint256"
      },
      {
        "astId": 7089,
        "contract": "contracts/OFCointossHouse.sol:OFCointossHouse",
        "label": "oracleUpdateAllowance",
        "offset": 0,
        "slot": "309",
        "type": "t_uint256"
      },
      {
        "astId": 7094,
        "contract": "contracts/OFCointossHouse.sol:OFCointossHouse",
        "label": "keyHash",
        "offset": 0,
        "slot": "310",
        "type": "t_bytes32"
      },
      {
        "astId": 7096,
        "contract": "contracts/OFCointossHouse.sol:OFCointossHouse",
        "label": "fee",
        "offset": 0,
        "slot": "311",
        "type": "t_uint256"
      },
      {
        "astId": 7098,
        "contract": "contracts/OFCointossHouse.sol:OFCointossHouse",
        "label": "randomResult",
        "offset": 0,
        "slot": "312",
        "type": "t_uint256"
      },
      {
        "astId": 7100,
        "contract": "contracts/OFCointossHouse.sol:OFCointossHouse",
        "label": "count",
        "offset": 0,
        "slot": "313",
        "type": "t_uint256"
      },
      {
        "astId": 7102,
        "contract": "contracts/OFCointossHouse.sol:OFCointossHouse",
        "label": "tokenAddress",
        "offset": 0,
        "slot": "314",
        "type": "t_address"
      },
      {
        "astId": 7104,
        "contract": "contracts/OFCointossHouse.sol:OFCointossHouse",
        "label": "routerContract",
        "offset": 0,
        "slot": "315",
        "type": "t_address"
      },
      {
        "astId": 7106,
        "contract": "contracts/OFCointossHouse.sol:OFCointossHouse",
        "label": "totalFeeAmount",
        "offset": 0,
        "slot": "316",
        "type": "t_uint256"
      },
      {
        "astId": 7108,
        "contract": "contracts/OFCointossHouse.sol:OFCointossHouse",
        "label": "feeAmount",
        "offset": 0,
        "slot": "317",
        "type": "t_uint256"
      },
      {
        "astId": 7110,
        "contract": "contracts/OFCointossHouse.sol:OFCointossHouse",
        "label": "feeToken",
        "offset": 0,
        "slot": "318",
        "type": "t_address"
      },
      {
        "astId": 7149,
        "contract": "contracts/OFCointossHouse.sol:OFCointossHouse",
        "label": "ledger",
        "offset": 0,
        "slot": "319",
        "type": "t_mapping(t_uint256,t_mapping(t_address,t_struct(BetInfo)7142_storage))"
      },
      {
        "astId": 7154,
        "contract": "contracts/OFCointossHouse.sol:OFCointossHouse",
        "label": "rounds",
        "offset": 0,
        "slot": "320",
        "type": "t_mapping(t_uint256,t_struct(Round)7135_storage)"
      },
      {
        "astId": 7159,
        "contract": "contracts/OFCointossHouse.sol:OFCointossHouse",
        "label": "userRounds",
        "offset": 0,
        "slot": "321",
        "type": "t_mapping(t_address,t_array(t_uint256)dyn_storage)"
      }
    ],
    "types": {
      "t_address": {
        "encoding": "inplace",
        "label": "address",
        "numberOfBytes": "20"
      },
      "t_array(t_uint256)49_storage": {
        "base": "t_uint256",
        "encoding": "inplace",
        "label": "uint256[49]",
        "numberOfBytes": "1568"
      },
      "t_array(t_uint256)50_storage": {
        "base": "t_uint256",
        "encoding": "inplace",
        "label": "uint256[50]",
        "numberOfBytes": "1600"
      },
      "t_array(t_uint256)dyn_storage": {
        "base": "t_uint256",
        "encoding": "dynamic_array",
        "label": "uint256[]",
        "numberOfBytes": "32"
      },
      "t_bool": {
        "encoding": "inplace",
        "label": "bool",
        "numberOfBytes": "1"
      },
      "t_bytes32": {
        "encoding": "inplace",
        "label": "bytes32",
        "numberOfBytes": "32"
      },
      "t_int256": {
        "encoding": "inplace",
        "label": "int256",
        "numberOfBytes": "32"
      },
      "t_mapping(t_address,t_array(t_uint256)dyn_storage)": {
        "encoding": "mapping",
        "key": "t_address",
        "label": "mapping(address => uint256[])",
        "numberOfBytes": "32",
        "value": "t_array(t_uint256)dyn_storage"
      },
      "t_mapping(t_address,t_struct(BetInfo)7142_storage)": {
        "encoding": "mapping",
        "key": "t_address",
        "label": "mapping(address => struct OFCointossHouseStorage.BetInfo)",
        "numberOfBytes": "32",
        "value": "t_struct(BetInfo)7142_storage"
      },
      "t_mapping(t_uint256,t_mapping(t_address,t_struct(BetInfo)7142_storage))": {
        "encoding": "mapping",
        "key": "t_uint256",
        "label": "mapping(uint256 => mapping(address => struct OFCointossHouseStorage.BetInfo))",
        "numberOfBytes": "32",
        "value": "t_mapping(t_address,t_struct(BetInfo)7142_storage)"
      },
      "t_mapping(t_uint256,t_struct(Round)7135_storage)": {
        "encoding": "mapping",
        "key": "t_uint256",
        "label": "mapping(uint256 => struct OFCointossHouseStorage.Round)",
        "numberOfBytes": "32",
        "value": "t_struct(Round)7135_storage"
      },
      "t_struct(BetInfo)7142_storage": {
        "encoding": "inplace",
        "label": "struct OFCointossHouseStorage.BetInfo",
        "members": [
          {
            "astId": 7137,
            "contract": "contracts/OFCointossHouse.sol:OFCointossHouse",
            "label": "position",
            "offset": 0,
            "slot": "0",
            "type": "t_uint256"
          },
          {
            "astId": 7139,
            "contract": "contracts/OFCointossHouse.sol:OFCointossHouse",
            "label": "amount",
            "offset": 0,
            "slot": "1",
            "type": "t_uint256"
          },
          {
            "astId": 7141,
            "contract": "contracts/OFCointossHouse.sol:OFCointossHouse",
            "label": "claimed",
            "offset": 0,
            "slot": "2",
            "type": "t_bool"
          }
        ],
        "numberOfBytes": "96"
      },
      "t_struct(Round)7135_storage": {
        "encoding": "inplace",
        "label": "struct OFCointossHouseStorage.Round",
        "members": [
          {
            "astId": 7112,
            "contract": "contracts/OFCointossHouse.sol:OFCointossHouse",
            "label": "epoch",
            "offset": 0,
            "slot": "0",
            "type": "t_uint256"
          },
          {
            "astId": 7114,
            "contract": "contracts/OFCointossHouse.sol:OFCointossHouse",
            "label": "startTimestamp",
            "offset": 0,
            "slot": "1",
            "type": "t_uint256"
          },
          {
            "astId": 7116,
            "contract": "contracts/OFCointossHouse.sol:OFCointossHouse",
            "label": "closeTimestamp",
            "offset": 0,
            "slot": "2",
            "type": "t_uint256"
          },
          {
            "astId": 7118,
            "contract": "contracts/OFCointossHouse.sol:OFCointossHouse",
            "label": "tossResult",
            "offset": 0,
            "slot": "3",
            "type": "t_int256"
          },
          {
            "astId": 7120,
            "contract": "contracts/OFCointossHouse.sol:OFCointossHouse",
            "label": "closeOracleId",
            "offset": 0,
            "slot": "4",
            "type": "t_uint256"
          },
          {
            "astId": 7122,
            "contract": "contracts/OFCointossHouse.sol:OFCointossHouse",
            "label": "totalAmount",
            "offset": 0,
            "slot": "5",
            "type": "t_uint256"
          },
          {
            "astId": 7124,
            "contract": "contracts/OFCointossHouse.sol:OFCointossHouse",
            "label": "headsAmount",
            "offset": 0,
            "slot": "6",
            "type": "t_uint256"
          },
          {
            "astId": 7126,
            "contract": "contracts/OFCointossHouse.sol:OFCointossHouse",
            "label": "tailsAmount",
            "offset": 0,
            "slot": "7",
            "type": "t_uint256"
          },
          {
            "astId": 7128,
            "contract": "contracts/OFCointossHouse.sol:OFCointossHouse",
            "label": "rewardBaseCalAmount",
            "offset": 0,
            "slot": "8",
            "type": "t_uint256"
          },
          {
            "astId": 7130,
            "contract": "contracts/OFCointossHouse.sol:OFCointossHouse",
            "label": "rewardAmount",
            "offset": 0,
            "slot": "9",
            "type": "t_uint256"
          },
          {
            "astId": 7132,
            "contract": "contracts/OFCointossHouse.sol:OFCointossHouse",
            "label": "oracleCalled",
            "offset": 0,
            "slot": "10",
            "type": "t_bool"
          },
          {
            "astId": 7134,
            "contract": "contracts/OFCointossHouse.sol:OFCointossHouse",
            "label": "ifRefundable",
            "offset": 1,
            "slot": "10",
            "type": "t_bool"
          }
        ],
        "numberOfBytes": "352"
      },
      "t_uint256": {
        "encoding": "inplace",
        "label": "uint256",
        "numberOfBytes": "32"
      }
    }
  }
}