{
  "address": "0x1d16B9F653ACe9B4E0eFe18cc982181637442944",
  "abi": [
    {
      "anonymous": false,
      "inputs": [
        {
          "indexed": false,
          "internalType": "address",
          "name": "previousAdmin",
          "type": "address"
        },
        {
          "indexed": false,
          "internalType": "address",
          "name": "newAdmin",
          "type": "address"
        }
      ],
      "name": "AdminChanged",
      "type": "event"
    },
    {
      "anonymous": false,
      "inputs": [
        {
          "indexed": true,
          "internalType": "address",
          "name": "beacon",
          "type": "address"
        }
      ],
      "name": "BeaconUpgraded",
      "type": "event"
    },
    {
      "anonymous": false,
      "inputs": [
        {
          "indexed": true,
          "internalType": "address",
          "name": "sender",
          "type": "address"
        },
        {
          "indexed": true,
          "internalType": "uint256",
          "name": "epoch",
          "type": "uint256"
        },
        {
          "indexed": false,
          "internalType": "uint256",
          "name": "amount",
          "type": "uint256"
        }
      ],
      "name": "BetBear",
      "type": "event"
    },
    {
      "anonymous": false,
      "inputs": [
        {
          "indexed": true,
          "internalType": "address",
          "name": "sender",
          "type": "address"
        },
        {
          "indexed": true,
          "internalType": "uint256",
          "name": "epoch",
          "type": "uint256"
        },
        {
          "indexed": false,
          "internalType": "uint256",
          "name": "amount",
          "type": "uint256"
        }
      ],
      "name": "BetBull",
      "type": "event"
    },
    {
      "anonymous": false,
      "inputs": [
        {
          "indexed": true,
          "internalType": "address",
          "name": "sender",
          "type": "address"
        },
        {
          "indexed": true,
          "internalType": "uint256",
          "name": "epoch",
          "type": "uint256"
        },
        {
          "indexed": false,
          "internalType": "uint256",
          "name": "amount",
          "type": "uint256"
        }
      ],
      "name": "Claim",
      "type": "event"
    },
    {
      "anonymous": false,
      "inputs": [
        {
          "indexed": true,
          "internalType": "uint256",
          "name": "epoch",
          "type": "uint256"
        },
        {
          "indexed": true,
          "internalType": "uint256",
          "name": "roundId",
          "type": "uint256"
        },
        {
          "indexed": false,
          "internalType": "int256",
          "name": "price",
          "type": "int256"
        }
      ],
      "name": "EndRound",
      "type": "event"
    },
    {
      "anonymous": false,
      "inputs": [
        {
          "indexed": true,
          "internalType": "uint256",
          "name": "epoch",
          "type": "uint256"
        },
        {
          "indexed": true,
          "internalType": "uint256",
          "name": "roundId",
          "type": "uint256"
        },
        {
          "indexed": false,
          "internalType": "int256",
          "name": "price",
          "type": "int256"
        }
      ],
      "name": "LockRound",
      "type": "event"
    },
    {
      "anonymous": false,
      "inputs": [
        {
          "indexed": false,
          "internalType": "address",
          "name": "admin",
          "type": "address"
        }
      ],
      "name": "NewAdminAddress",
      "type": "event"
    },
    {
      "anonymous": false,
      "inputs": [
        {
          "indexed": false,
          "internalType": "uint256",
          "name": "bufferSeconds",
          "type": "uint256"
        },
        {
          "indexed": false,
          "internalType": "uint256",
          "name": "intervalSeconds",
          "type": "uint256"
        }
      ],
      "name": "NewBufferAndIntervalSeconds",
      "type": "event"
    },
    {
      "anonymous": false,
      "inputs": [
        {
          "indexed": true,
          "internalType": "uint256",
          "name": "epoch",
          "type": "uint256"
        },
        {
          "indexed": false,
          "internalType": "uint256",
          "name": "minBetAmount",
          "type": "uint256"
        }
      ],
      "name": "NewMinBetAmount",
      "type": "event"
    },
    {
      "anonymous": false,
      "inputs": [
        {
          "indexed": false,
          "internalType": "address",
          "name": "operator",
          "type": "address"
        }
      ],
      "name": "NewOperatorAddress",
      "type": "event"
    },
    {
      "anonymous": false,
      "inputs": [
        {
          "indexed": false,
          "internalType": "address",
          "name": "oracle",
          "type": "address"
        }
      ],
      "name": "NewOracle",
      "type": "event"
    },
    {
      "anonymous": false,
      "inputs": [
        {
          "indexed": false,
          "internalType": "uint256",
          "name": "oracleUpdateAllowance",
          "type": "uint256"
        }
      ],
      "name": "NewOracleUpdateAllowance",
      "type": "event"
    },
    {
      "anonymous": false,
      "inputs": [
        {
          "indexed": true,
          "internalType": "uint256",
          "name": "epoch",
          "type": "uint256"
        },
        {
          "indexed": false,
          "internalType": "uint256",
          "name": "treasuryFee",
          "type": "uint256"
        }
      ],
      "name": "NewTreasuryFee",
      "type": "event"
    },
    {
      "anonymous": false,
      "inputs": [
        {
          "indexed": true,
          "internalType": "address",
          "name": "previousOwner",
          "type": "address"
        },
        {
          "indexed": true,
          "internalType": "address",
          "name": "newOwner",
          "type": "address"
        }
      ],
      "name": "OwnershipTransferred",
      "type": "event"
    },
    {
      "anonymous": false,
      "inputs": [
        {
          "indexed": true,
          "internalType": "uint256",
          "name": "epoch",
          "type": "uint256"
        }
      ],
      "name": "Pause",
      "type": "event"
    },
    {
      "anonymous": false,
      "inputs": [
        {
          "indexed": false,
          "internalType": "address",
          "name": "account",
          "type": "address"
        }
      ],
      "name": "Paused",
      "type": "event"
    },
    {
      "anonymous": false,
      "inputs": [
        {
          "indexed": true,
          "internalType": "uint256",
          "name": "epoch",
          "type": "uint256"
        }
      ],
      "name": "Refundable",
      "type": "event"
    },
    {
      "anonymous": false,
      "inputs": [
        {
          "indexed": true,
          "internalType": "uint256",
          "name": "epoch",
          "type": "uint256"
        },
        {
          "indexed": false,
          "internalType": "uint256",
          "name": "rewardBaseCalAmount",
          "type": "uint256"
        },
        {
          "indexed": false,
          "internalType": "uint256",
          "name": "rewardAmount",
          "type": "uint256"
        },
        {
          "indexed": false,
          "internalType": "uint256",
          "name": "treasuryAmount",
          "type": "uint256"
        }
      ],
      "name": "RewardsCalculated",
      "type": "event"
    },
    {
      "anonymous": false,
      "inputs": [
        {
          "indexed": true,
          "internalType": "uint256",
          "name": "epoch",
          "type": "uint256"
        }
      ],
      "name": "StartRound",
      "type": "event"
    },
    {
      "anonymous": false,
      "inputs": [
        {
          "indexed": true,
          "internalType": "address",
          "name": "token",
          "type": "address"
        },
        {
          "indexed": false,
          "internalType": "uint256",
          "name": "amount",
          "type": "uint256"
        }
      ],
      "name": "TokenRecovery",
      "type": "event"
    },
    {
      "anonymous": false,
      "inputs": [
        {
          "indexed": false,
          "internalType": "uint256",
          "name": "amount",
          "type": "uint256"
        }
      ],
      "name": "TreasuryClaim",
      "type": "event"
    },
    {
      "anonymous": false,
      "inputs": [
        {
          "indexed": true,
          "internalType": "uint256",
          "name": "epoch",
          "type": "uint256"
        }
      ],
      "name": "Unpause",
      "type": "event"
    },
    {
      "anonymous": false,
      "inputs": [
        {
          "indexed": false,
          "internalType": "address",
          "name": "account",
          "type": "address"
        }
      ],
      "name": "Unpaused",
      "type": "event"
    },
    {
      "anonymous": false,
      "inputs": [
        {
          "indexed": true,
          "internalType": "address",
          "name": "implementation",
          "type": "address"
        }
      ],
      "name": "Upgraded",
      "type": "event"
    },
    {
      "inputs": [],
      "name": "EV_BEAR",
      "outputs": [
        {
          "internalType": "uint256",
          "name": "",
          "type": "uint256"
        }
      ],
      "stateMutability": "view",
      "type": "function"
    },
    {
      "inputs": [],
      "name": "EV_BULL",
      "outputs": [
        {
          "internalType": "uint256",
          "name": "",
          "type": "uint256"
        }
      ],
      "stateMutability": "view",
      "type": "function"
    },
    {
      "inputs": [],
      "name": "EV_CLAIM",
      "outputs": [
        {
          "internalType": "uint256",
          "name": "",
          "type": "uint256"
        }
      ],
      "stateMutability": "view",
      "type": "function"
    },
    {
      "inputs": [],
      "name": "EV_CLAIM_BONUS",
      "outputs": [
        {
          "internalType": "uint256",
          "name": "",
          "type": "uint256"
        }
      ],
      "stateMutability": "view",
      "type": "function"
    },
    {
      "inputs": [],
      "name": "EV_RESULT",
      "outputs": [
        {
          "internalType": "uint256",
          "name": "",
          "type": "uint256"
        }
      ],
      "stateMutability": "view",
      "type": "function"
    },
    {
      "inputs": [],
      "name": "MAX_TREASURY_FEE",
      "outputs": [
        {
          "internalType": "uint256",
          "name": "",
          "type": "uint256"
        }
      ],
      "stateMutability": "view",
      "type": "function"
    },
    {
      "inputs": [],
      "name": "Position_Bear",
      "outputs": [
        {
          "internalType": "uint256",
          "name": "",
          "type": "uint256"
        }
      ],
      "stateMutability": "view",
      "type": "function"
    },
    {
      "inputs": [],
      "name": "Position_Bull",
      "outputs": [
        {
          "internalType": "uint256",
          "name": "",
          "type": "uint256"
        }
      ],
      "stateMutability": "view",
      "type": "function"
    },
    {
      "inputs": [],
      "name": "_getPriceFromOracle",
      "outputs": [
        {
          "internalType": "uint80",
          "name": "",
          "type": "uint80"
        },
        {
          "internalType": "int256",
          "name": "",
          "type": "int256"
        }
      ],
      "stateMutability": "payable",
      "type": "function"
    },
    {
      "inputs": [],
      "name": "adminAddress",
      "outputs": [
        {
          "internalType": "address",
          "name": "",
          "type": "address"
        }
      ],
      "stateMutability": "view",
      "type": "function"
    },
    {
      "inputs": [
        {
          "internalType": "uint256",
          "name": "epoch",
          "type": "uint256"
        },
        {
          "internalType": "uint256",
          "name": "amount",
          "type": "uint256"
        }
      ],
      "name": "betBear",
      "outputs": [],
      "stateMutability": "payable",
      "type": "function"
    },
    {
      "inputs": [
        {
          "internalType": "uint256",
          "name": "epoch",
          "type": "uint256"
        },
        {
          "internalType": "uint256",
          "name": "amount",
          "type": "uint256"
        }
      ],
      "name": "betBull",
      "outputs": [],
      "stateMutability": "payable",
      "type": "function"
    },
    {
      "inputs": [],
      "name": "bufferSeconds",
      "outputs": [
        {
          "internalType": "uint256",
          "name": "",
          "type": "uint256"
        }
      ],
      "stateMutability": "view",
      "type": "function"
    },
    {
      "inputs": [
        {
          "internalType": "uint256[]",
          "name": "epochs",
          "type": "uint256[]"
        }
      ],
      "name": "claim",
      "outputs": [],
      "stateMutability": "nonpayable",
      "type": "function"
    },
    {
      "inputs": [],
      "name": "claimTreasury",
      "outputs": [],
      "stateMutability": "nonpayable",
      "type": "function"
    },
    {
      "inputs": [
        {
          "internalType": "uint256",
          "name": "epoch",
          "type": "uint256"
        },
        {
          "internalType": "address",
          "name": "user",
          "type": "address"
        }
      ],
      "name": "claimable",
      "outputs": [
        {
          "internalType": "bool",
          "name": "",
          "type": "bool"
        }
      ],
      "stateMutability": "view",
      "type": "function"
    },
    {
      "inputs": [],
      "name": "currentEpoch",
      "outputs": [
        {
          "internalType": "uint256",
          "name": "",
          "type": "uint256"
        }
      ],
      "stateMutability": "view",
      "type": "function"
    },
    {
      "inputs": [],
      "name": "executeRound",
      "outputs": [],
      "stateMutability": "nonpayable",
      "type": "function"
    },
    {
      "inputs": [],
      "name": "feeAmount",
      "outputs": [
        {
          "internalType": "uint256",
          "name": "",
          "type": "uint256"
        }
      ],
      "stateMutability": "view",
      "type": "function"
    },
    {
      "inputs": [],
      "name": "genesisLockOnce",
      "outputs": [
        {
          "internalType": "bool",
          "name": "",
          "type": "bool"
        }
      ],
      "stateMutability": "view",
      "type": "function"
    },
    {
      "inputs": [],
      "name": "genesisLockRound",
      "outputs": [],
      "stateMutability": "nonpayable",
      "type": "function"
    },
    {
      "inputs": [],
      "name": "genesisStartOnce",
      "outputs": [
        {
          "internalType": "bool",
          "name": "",
          "type": "bool"
        }
      ],
      "stateMutability": "view",
      "type": "function"
    },
    {
      "inputs": [],
      "name": "genesisStartRound",
      "outputs": [],
      "stateMutability": "nonpayable",
      "type": "function"
    },
    {
      "inputs": [
        {
          "internalType": "address",
          "name": "user",
          "type": "address"
        },
        {
          "internalType": "uint256",
          "name": "cursor",
          "type": "uint256"
        },
        {
          "internalType": "uint256",
          "name": "size",
          "type": "uint256"
        }
      ],
      "name": "getUserRounds",
      "outputs": [
        {
          "internalType": "uint256[]",
          "name": "",
          "type": "uint256[]"
        },
        {
          "components": [
            {
              "internalType": "uint256",
              "name": "position",
              "type": "uint256"
            },
            {
              "internalType": "uint256",
              "name": "amount",
              "type": "uint256"
            },
            {
              "internalType": "bool",
              "name": "claimed",
              "type": "bool"
            }
          ],
          "internalType": "struct OFPredictionsHouseStorage.BetInfo[]",
          "name": "",
          "type": "tuple[]"
        },
        {
          "internalType": "uint256",
          "name": "",
          "type": "uint256"
        }
      ],
      "stateMutability": "view",
      "type": "function"
    },
    {
      "inputs": [
        {
          "internalType": "address",
          "name": "user",
          "type": "address"
        }
      ],
      "name": "getUserRoundsLength",
      "outputs": [
        {
          "internalType": "uint256",
          "name": "",
          "type": "uint256"
        }
      ],
      "stateMutability": "view",
      "type": "function"
    },
    {
      "inputs": [
        {
          "internalType": "address",
          "name": "_oracleAddress",
          "type": "address"
        },
        {
          "internalType": "address",
          "name": "_adminAddress",
          "type": "address"
        },
        {
          "internalType": "address",
          "name": "_operatorAddress",
          "type": "address"
        },
        {
          "internalType": "uint256",
          "name": "_intervalSeconds",
          "type": "uint256"
        },
        {
          "internalType": "uint256",
          "name": "_bufferSeconds",
          "type": "uint256"
        },
        {
          "internalType": "uint256",
          "name": "_minBetAmount",
          "type": "uint256"
        },
        {
          "internalType": "uint256",
          "name": "_oracleUpdateAllowance",
          "type": "uint256"
        },
        {
          "internalType": "uint256",
          "name": "_treasuryFee",
          "type": "uint256"
        },
        {
          "internalType": "address",
          "name": "_tokenAddress",
          "type": "address"
        },
        {
          "internalType": "address",
          "name": "_routerContract",
          "type": "address"
        },
        {
          "internalType": "uint256",
          "name": "_feeAmount",
          "type": "uint256"
        }
      ],
      "name": "initialize",
      "outputs": [],
      "stateMutability": "nonpayable",
      "type": "function"
    },
    {
      "inputs": [],
      "name": "intervalSeconds",
      "outputs": [
        {
          "internalType": "uint256",
          "name": "",
          "type": "uint256"
        }
      ],
      "stateMutability": "view",
      "type": "function"
    },
    {
      "inputs": [
        {
          "internalType": "uint256",
          "name": "",
          "type": "uint256"
        },
        {
          "internalType": "address",
          "name": "",
          "type": "address"
        }
      ],
      "name": "ledger",
      "outputs": [
        {
          "internalType": "uint256",
          "name": "position",
          "type": "uint256"
        },
        {
          "internalType": "uint256",
          "name": "amount",
          "type": "uint256"
        },
        {
          "internalType": "bool",
          "name": "claimed",
          "type": "bool"
        }
      ],
      "stateMutability": "view",
      "type": "function"
    },
    {
      "inputs": [
        {
          "internalType": "uint256",
          "name": "epoch",
          "type": "uint256"
        }
      ],
      "name": "makeRefundable",
      "outputs": [],
      "stateMutability": "nonpayable",
      "type": "function"
    },
    {
      "inputs": [],
      "name": "minBetAmount",
      "outputs": [
        {
          "internalType": "uint256",
          "name": "",
          "type": "uint256"
        }
      ],
      "stateMutability": "view",
      "type": "function"
    },
    {
      "inputs": [],
      "name": "operatorAddress",
      "outputs": [
        {
          "internalType": "address",
          "name": "",
          "type": "address"
        }
      ],
      "stateMutability": "view",
      "type": "function"
    },
    {
      "inputs": [],
      "name": "oracle",
      "outputs": [
        {
          "internalType": "address",
          "name": "",
          "type": "address"
        }
      ],
      "stateMutability": "view",
      "type": "function"
    },
    {
      "inputs": [],
      "name": "oracleLatestRoundId",
      "outputs": [
        {
          "internalType": "uint256",
          "name": "",
          "type": "uint256"
        }
      ],
      "stateMutability": "view",
      "type": "function"
    },
    {
      "inputs": [],
      "name": "oracleUpdateAllowance",
      "outputs": [
        {
          "internalType": "uint256",
          "name": "",
          "type": "uint256"
        }
      ],
      "stateMutability": "view",
      "type": "function"
    },
    {
      "inputs": [],
      "name": "owner",
      "outputs": [
        {
          "internalType": "address",
          "name": "",
          "type": "address"
        }
      ],
      "stateMutability": "view",
      "type": "function"
    },
    {
      "inputs": [],
      "name": "pause",
      "outputs": [],
      "stateMutability": "nonpayable",
      "type": "function"
    },
    {
      "inputs": [],
      "name": "paused",
      "outputs": [
        {
          "internalType": "bool",
          "name": "",
          "type": "bool"
        }
      ],
      "stateMutability": "view",
      "type": "function"
    },
    {
      "inputs": [],
      "name": "proxiableUUID",
      "outputs": [
        {
          "internalType": "bytes32",
          "name": "",
          "type": "bytes32"
        }
      ],
      "stateMutability": "view",
      "type": "function"
    },
    {
      "inputs": [
        {
          "internalType": "address",
          "name": "_token",
          "type": "address"
        },
        {
          "internalType": "uint256",
          "name": "_amount",
          "type": "uint256"
        }
      ],
      "name": "recoverToken",
      "outputs": [],
      "stateMutability": "nonpayable",
      "type": "function"
    },
    {
      "inputs": [
        {
          "internalType": "uint256",
          "name": "epoch",
          "type": "uint256"
        },
        {
          "internalType": "address",
          "name": "user",
          "type": "address"
        }
      ],
      "name": "refundable",
      "outputs": [
        {
          "internalType": "bool",
          "name": "",
          "type": "bool"
        }
      ],
      "stateMutability": "view",
      "type": "function"
    },
    {
      "inputs": [],
      "name": "renounceOwnership",
      "outputs": [],
      "stateMutability": "nonpayable",
      "type": "function"
    },
    {
      "inputs": [
        {
          "internalType": "uint256",
          "name": "",
          "type": "uint256"
        }
      ],
      "name": "rounds",
      "outputs": [
        {
          "internalType": "uint256",
          "name": "epoch",
          "type": "uint256"
        },
        {
          "internalType": "uint256",
          "name": "startTimestamp",
          "type": "uint256"
        },
        {
          "internalType": "uint256",
          "name": "lockTimestamp",
          "type": "uint256"
        },
        {
          "internalType": "uint256",
          "name": "closeTimestamp",
          "type": "uint256"
        },
        {
          "internalType": "int256",
          "name": "lockPrice",
          "type": "int256"
        },
        {
          "internalType": "int256",
          "name": "closePrice",
          "type": "int256"
        },
        {
          "internalType": "uint256",
          "name": "totalAmount",
          "type": "uint256"
        },
        {
          "internalType": "uint256",
          "name": "bullAmount",
          "type": "uint256"
        },
        {
          "internalType": "uint256",
          "name": "bearAmount",
          "type": "uint256"
        },
        {
          "internalType": "uint256",
          "name": "rewardBaseCalAmount",
          "type": "uint256"
        },
        {
          "internalType": "uint256",
          "name": "rewardAmount",
          "type": "uint256"
        },
        {
          "internalType": "bool",
          "name": "oracleCalled",
          "type": "bool"
        },
        {
          "internalType": "bool",
          "name": "ifRefundable",
          "type": "bool"
        }
      ],
      "stateMutability": "view",
      "type": "function"
    },
    {
      "inputs": [],
      "name": "routerContract",
      "outputs": [
        {
          "internalType": "address",
          "name": "",
          "type": "address"
        }
      ],
      "stateMutability": "view",
      "type": "function"
    },
    {
      "inputs": [
        {
          "internalType": "address",
          "name": "_adminAddress",
          "type": "address"
        }
      ],
      "name": "setAdmin",
      "outputs": [],
      "stateMutability": "nonpayable",
      "type": "function"
    },
    {
      "inputs": [
        {
          "internalType": "uint256",
          "name": "_bufferSeconds",
          "type": "uint256"
        },
        {
          "internalType": "uint256",
          "name": "_intervalSeconds",
          "type": "uint256"
        }
      ],
      "name": "setBufferAndIntervalSeconds",
      "outputs": [],
      "stateMutability": "nonpayable",
      "type": "function"
    },
    {
      "inputs": [
        {
          "internalType": "uint256",
          "name": "_amount",
          "type": "uint256"
        }
      ],
      "name": "setFeeAmount",
      "outputs": [],
      "stateMutability": "nonpayable",
      "type": "function"
    },
    {
      "inputs": [
        {
          "internalType": "uint256",
          "name": "_minBetAmount",
          "type": "uint256"
        }
      ],
      "name": "setMinBetAmount",
      "outputs": [],
      "stateMutability": "nonpayable",
      "type": "function"
    },
    {
      "inputs": [
        {
          "internalType": "address",
          "name": "_operatorAddress",
          "type": "address"
        }
      ],
      "name": "setOperator",
      "outputs": [],
      "stateMutability": "nonpayable",
      "type": "function"
    },
    {
      "inputs": [
        {
          "internalType": "address",
          "name": "_oracle",
          "type": "address"
        }
      ],
      "name": "setOracle",
      "outputs": [],
      "stateMutability": "nonpayable",
      "type": "function"
    },
    {
      "inputs": [
        {
          "internalType": "uint256",
          "name": "_oracleUpdateAllowance",
          "type": "uint256"
        }
      ],
      "name": "setOracleUpdateAllowance",
      "outputs": [],
      "stateMutability": "nonpayable",
      "type": "function"
    },
    {
      "inputs": [
        {
          "internalType": "uint256",
          "name": "_treasuryFee",
          "type": "uint256"
        }
      ],
      "name": "setTreasuryFee",
      "outputs": [],
      "stateMutability": "nonpayable",
      "type": "function"
    },
    {
      "inputs": [],
      "name": "tokenAddress",
      "outputs": [
        {
          "internalType": "address",
          "name": "",
          "type": "address"
        }
      ],
      "stateMutability": "view",
      "type": "function"
    },
    {
      "inputs": [],
      "name": "totalFeeAmount",
      "outputs": [
        {
          "internalType": "uint256",
          "name": "",
          "type": "uint256"
        }
      ],
      "stateMutability": "view",
      "type": "function"
    },
    {
      "inputs": [
        {
          "internalType": "address",
          "name": "newOwner",
          "type": "address"
        }
      ],
      "name": "transferOwnership",
      "outputs": [],
      "stateMutability": "nonpayable",
      "type": "function"
    },
    {
      "inputs": [],
      "name": "treasuryFee",
      "outputs": [
        {
          "internalType": "uint256",
          "name": "",
          "type": "uint256"
        }
      ],
      "stateMutability": "view",
      "type": "function"
    },
    {
      "inputs": [],
      "name": "unpause",
      "outputs": [],
      "stateMutability": "nonpayable",
      "type": "function"
    },
    {
      "inputs": [
        {
          "internalType": "address",
          "name": "_oracleAddress",
          "type": "address"
        },
        {
          "internalType": "address",
          "name": "_adminAddress",
          "type": "address"
        },
        {
          "internalType": "address",
          "name": "_operatorAddress",
          "type": "address"
        },
        {
          "internalType": "uint256",
          "name": "_intervalSeconds",
          "type": "uint256"
        },
        {
          "internalType": "uint256",
          "name": "_bufferSeconds",
          "type": "uint256"
        },
        {
          "internalType": "uint256",
          "name": "_minBetAmount",
          "type": "uint256"
        },
        {
          "internalType": "uint256",
          "name": "_oracleUpdateAllowance",
          "type": "uint256"
        },
        {
          "internalType": "uint256",
          "name": "_treasuryFee",
          "type": "uint256"
        },
        {
          "internalType": "address",
          "name": "_tokenAddress",
          "type": "address"
        },
        {
          "internalType": "address",
          "name": "_routerContract",
          "type": "address"
        },
        {
          "internalType": "uint256",
          "name": "_feeAmount",
          "type": "uint256"
        }
      ],
      "name": "upgrade",
      "outputs": [],
      "stateMutability": "nonpayable",
      "type": "function"
    },
    {
      "inputs": [
        {
          "internalType": "address",
          "name": "newImplementation",
          "type": "address"
        }
      ],
      "name": "upgradeTo",
      "outputs": [],
      "stateMutability": "nonpayable",
      "type": "function"
    },
    {
      "inputs": [
        {
          "internalType": "address",
          "name": "newImplementation",
          "type": "address"
        },
        {
          "internalType": "bytes",
          "name": "data",
          "type": "bytes"
        }
      ],
      "name": "upgradeToAndCall",
      "outputs": [],
      "stateMutability": "payable",
      "type": "function"
    },
    {
      "inputs": [
        {
          "internalType": "address",
          "name": "",
          "type": "address"
        },
        {
          "internalType": "uint256",
          "name": "",
          "type": "uint256"
        }
      ],
      "name": "userRounds",
      "outputs": [
        {
          "internalType": "uint256",
          "name": "",
          "type": "uint256"
        }
      ],
      "stateMutability": "view",
      "type": "function"
    }
  ],
  "transactionHash": "0x05cd90fcc602f7cd28aa2c3a4d3fedda437530d01a6401851bd8f47243f2776f",
  "args": [],
  "numDeployments": 2,
  "solcInputHash": "046052e66f7be515b099fac1d710e997",
  "bytecode": "0x60a06040523060601b60805234801561001757600080fd5b5060805160601c615d01620000536000396000818161164f015281816116d40152818161200e0152818161209301526123550152615d016000f3fe6080604052600436106103965760003560e01c806378aa23a4116101dc578063b29a814011610102578063eaba2361116100a0578063f7fdec281161006f578063f7fdec2814610af1578063fa968eea14610b13578063faf147e014610b2a578063fc6f946814610b3f57600080fd5b8063eaba236114610a8d578063ec32470314610aa4578063f2b3c80914610abb578063f2fde38b14610ad157600080fd5b8063cf2f5039116100dc578063cf2f503914610a18578063d9d55eac14610a38578063dd1f759614610a4d578063df61bb7214610a6d57600080fd5b8063b29a8140146109c1578063b3ab15fb146109e1578063cc32d17614610a0157600080fd5b8063890dc7661161017a578063965217161161014957806396521716146109695780639d76ea5814610980578063a0c7f71c146109a1578063a890075f146104f757600080fd5b8063890dc7661461080f5780638c65c81f1461082f5780638da5cb5b1461091c578063951fd6001461093a57600080fd5b80637bf41254116101b65780637bf41254146107a25780637d1cd04f146107c25780637dc0d1d0146107d95780638456cb59146107fa57600080fd5b806378aa23a4146107585780637adbf9731461076d5780637b3205f51461078d57600080fd5b80634f7cf35b116102c15780636b3926801161025f578063715018a61161022e578063715018a6146106a45780637285c58b146106b9578063766718081461072157806377e741c71461073857600080fd5b80636b392680146106245780636ba4c138146106445780636c18859314610664578063704b6c021461068457600080fd5b80635c975abb1161029b5780635c975abb146105c957806360554011146105e157806369e15404146105f85780636a500dab1461060f57600080fd5b80634f7cf35b1461056a5780634fb6314e1461058a57806352d1902d146105b457600080fd5b8063273867d4116103395780633f4ba83a116103085780633f4ba83a1461050c578063452fd75a146105215780634f1ef286146105365780634f72d8461461054957600080fd5b8063273867d41461048d5780633659cfe6146104c45780633923e1b4146104e45780633ce206da146104f757600080fd5b8063127effb211610375578063127effb2146103fc57806312a6e4d214610435578063190fd37514610458578063205083ba1461047857600080fd5b80623bdc741461039b5780630e89e5a4146103b25780630f74174f146103c5575b600080fd5b3480156103a757600080fd5b506103b0610b60565b005b6103b06103c0366004615a31565b610e1d565b3480156103d157600080fd5b5061012d546103e790600160a01b900460ff1681565b60405190151581526020015b60405180910390f35b34801561040857600080fd5b5061012f5461041d906001600160a01b031681565b6040516001600160a01b0390911681526020016103f3565b34801561044157600080fd5b5061044a600481565b6040519081526020016103f3565b34801561046457600080fd5b506103b0610473366004615777565b611457565b34801561048457600080fd5b5061044a600a81565b34801561049957600080fd5b5061044a6104a836600461573f565b6001600160a01b0316600090815261013b602052604090205490565b3480156104d057600080fd5b506103b06104df36600461573f565b611644565b6103b06104f2366004615a31565b611797565b34801561050357600080fd5b5061044a600181565b34801561051857600080fd5b506103b0611d97565b34801561052d57600080fd5b506103b0611e87565b6103b0610544366004615824565b612003565b34801561055557600080fd5b5061013d5461041d906001600160a01b031681565b34801561057657600080fd5b506103b06105853660046159ea565b612147565b610592612197565b6040805169ffffffffffffffffffff90931683526020830191909152016103f3565b3480156105c057600080fd5b5061044a612348565b3480156105d557600080fd5b5060c95460ff166103e7565b3480156105ed57600080fd5b5061044a6101385481565b34801561060457600080fd5b5061044a6101355481565b34801561061b57600080fd5b5061044a600581565b34801561063057600080fd5b506103b061063f3660046159ea565b61240d565b34801561065057600080fd5b506103b061065f366004615942565b6124a3565b34801561067057600080fd5b506103b061067f3660046159ea565b612dab565b34801561069057600080fd5b506103b061069f36600461573f565b612ec9565b3480156106b057600080fd5b506103b0612fcf565b3480156106c557600080fd5b506107046106d4366004615a02565b61013960209081526000928352604080842090915290825290208054600182015460029092015490919060ff1683565b6040805193845260208401929092521515908201526060016103f3565b34801561072d57600080fd5b5061044a6101365481565b34801561074457600080fd5b506103b06107533660046159ea565b613035565b34801561076457600080fd5b5061044a600081565b34801561077957600080fd5b506103b061078836600461573f565b613151565b34801561079957600080fd5b506103b061328c565b3480156107ae57600080fd5b506103e76107bd366004615a02565b61348d565b3480156107ce57600080fd5b5061044a6101315481565b3480156107e557600080fd5b5061012d5461041d906001600160a01b031681565b34801561080657600080fd5b506103b06135a4565b34801561081b57600080fd5b506103b061082a366004615a31565b613687565b34801561083b57600080fd5b506108b661084a3660046159ea565b61013a60205260009081526040902080546001820154600283015460038401546004850154600586015460068701546007880154600889015460098a0154600a8b0154600b909b0154999a98999798969795969495939492939192909160ff808216916101009004168d565b604080519d8e5260208e019c909c529a8c019990995260608b019790975260808a019590955260a089019390935260c088019190915260e0870152610100860152610120850152610140840152151561016083015215156101808201526101a0016103f3565b34801561092857600080fd5b506097546001600160a01b031661041d565b34801561094657600080fd5b5061095a61095536600461590e565b6137d5565b6040516103f393929190615ae0565b34801561097557600080fd5b5061044a6101345481565b34801561098c57600080fd5b5061013c5461041d906001600160a01b031681565b3480156109ad57600080fd5b506103e76109bc366004615a02565b613acd565b3480156109cd57600080fd5b506103b06109dc3660046158e3565b613c36565b3480156109ed57600080fd5b506103b06109fc36600461573f565b613d71565b348015610a0d57600080fd5b5061044a6101335481565b348015610a2457600080fd5b506103b0610a333660046159ea565b613e5d565b348015610a4457600080fd5b506103b0613f23565b348015610a5957600080fd5b5061044a610a683660046158e3565b61415e565b348015610a7957600080fd5b506103b0610a88366004615777565b614190565b348015610a9957600080fd5b5061044a6101305481565b348015610ab057600080fd5b5061044a6101375481565b348015610ac757600080fd5b5061044a6103e881565b348015610add57600080fd5b506103b0610aec36600461573f565b6142c1565b348015610afd57600080fd5b5061012d546103e790600160a81b900460ff1681565b348015610b1f57600080fd5b5061044a6101325481565b348015610b3657600080fd5b5061044a600b81565b348015610b4b57600080fd5b5061012e5461041d906001600160a01b031681565b600260fb541415610bb85760405162461bcd60e51b815260206004820152601f60248201527f5265656e7472616e637947756172643a207265656e7472616e742063616c6c0060448201526064015b60405180910390fd5b600260fb5561012e546001600160a01b03163314610c045760405162461bcd60e51b81526020600482015260096024820152682737ba1030b236b4b760b91b6044820152606401610baf565b61013d54604080517f2c035b74000000000000000000000000000000000000000000000000000000008152905147926000926001600160a01b0390911691632c035b7491600480820192602092909190829003018186803b158015610c6857600080fd5b505afa158015610c7c573d6000803e3d6000fd5b505050506040513d601f19601f82011682018060405250810190610ca0919061575b565b9050600061013d60009054906101000a90046001600160a01b03166001600160a01b0316631c578fde6040518163ffffffff1660e01b815260040160206040518083038186803b158015610cf357600080fd5b505afa158015610d07573d6000803e3d6000fd5b505050506040513d601f19601f82011682018060405250810190610d2b919061575b565b61013d546040517f75ecb9f90000000000000000000000000000000000000000000000000000000081526004810186905291925060009182916001600160a01b0316906375ecb9f990602401604080518083038186803b158015610d8e57600080fd5b505afa158015610da2573d6000803e3d6000fd5b505050506040513d601f19601f82011682018060405250810190610dc69190615a52565b91509150610dd48483614389565b610dde8382614389565b6040518581527fb9197c6b8e21274bd1e2d9c956a88af5cfee510f630fab3f046300f88b4223619060200160405180910390a15050600160fb55505050565b60c95460ff1615610e635760405162461bcd60e51b815260206004820152601060248201526f14185d5cd8589b194e881c185d5cd95960821b6044820152606401610baf565b600260fb541415610eb65760405162461bcd60e51b815260206004820152601f60248201527f5265656e7472616e637947756172643a207265656e7472616e742063616c6c006044820152606401610baf565b600260fb55333b15610f0a5760405162461bcd60e51b815260206004820152601460248201527f436f6e7472616374206e6f7420616c6c6f7765640000000000000000000000006044820152606401610baf565b333214610f595760405162461bcd60e51b815260206004820152601a60248201527f50726f787920636f6e7472616374206e6f7420616c6c6f7765640000000000006044820152606401610baf565b610136548214610fab5760405162461bcd60e51b815260206004820152601560248201527f42657420697320746f6f206561726c792f6c61746500000000000000000000006044820152606401610baf565b610fb482614457565b6110005760405162461bcd60e51b815260206004820152601260248201527f526f756e64206e6f74206265747461626c6500000000000000000000000000006044820152606401610baf565b610132548110156110685760405162461bcd60e51b815260206004820152602c60248201527f42657420616d6f756e74206d7573742062652067726561746572207468616e2060448201526b1b5a5b90995d105b5bdd5b9d60a21b6064820152608401610baf565b610135543410156110e15760405162461bcd60e51b815260206004820152602f60248201527f5573657220646f6573206e6f74206861766520656e6f7567682066756e64732060448201527f746f2070617920746865206665657300000000000000000000000000000000006064820152608401610baf565b61013c546040516370a0823160e01b815233600482015282916001600160a01b0316906370a082319060240160206040518083038186803b15801561112557600080fd5b505afa158015611139573d6000803e3d6000fd5b505050506040513d601f19601f8201168201806040525081019061115d91906159d2565b10156111ab5760405162461bcd60e51b815260206004820152601a60248201527f5573657220686173206e6f7420656e6f756768742066756e64730000000000006044820152606401610baf565b60008281526101396020908152604080832033845290915290206001015415611238576000828152610139602090815260408083203384529091529020546001146112385760405162461bcd60e51b815260206004820152601d60248201527f43616e206f6e6c7920626574206f6e207468652073616d6520736964650000006044820152606401610baf565b61013d5461013c5461013354604051630453f59960e21b81526001600160a01b03928316600482015233602482015260448101859052606481019190915291169063114fd66490608401602060405180830381600087803b15801561129c57600080fd5b505af11580156112b0573d6000803e3d6000fd5b505050506040513d601f19601f820116820180604052508101906112d491906159d2565b5061013554610134546112e79190615bae565b61013455600082815261013a60205260409020600681015461130a908390615bae565b6006820155600881015461131f908390615bae565b600882015560008381526101396020908152604080832033845290915290206001015461136a5733600090815261013b60209081526040822080546001810182559083529120018390555b60008381526101396020908152604080832033845290915290206001808255810154611397908490615bae565b6001820155604051838152849033907f0d8c1fe3e67ab767116a81f122b83c2557a8c2564019cb7c4f83de1aeb1f1f0d9060200160405180910390a361013d546040516350ca72cd60e01b815260048082015230602482015233604482015260648101869052608481018590526001600160a01b03909116906350ca72cd9060a4015b600060405180830381600087803b15801561143457600080fd5b505af1158015611448573d6000803e3d6000fd5b5050600160fb55505050505050565b600054610100900460ff166114725760005460ff1615611476565b303b155b6114e85760405162461bcd60e51b815260206004820152602e60248201527f496e697469616c697a61626c653a20636f6e747261637420697320616c72656160448201527f647920696e697469616c697a65640000000000000000000000000000000000006064820152608401610baf565b600054610100900460ff1615801561150a576000805461ffff19166101011790555b6115126144c6565b61151a614539565b6115226145a4565b61152a614617565b6115333361468a565b6103e88511156115855760405162461bcd60e51b815260206004820152601560248201527f54726561737572792066656520746f6f206869676800000000000000000000006044820152606401610baf565b61012d805461012e80546001600160a01b038f81166001600160a01b03199283161790925561012f80548f84169083161790556101318d90556101308c90556101328b90556101388a905561013389905561013c805489841690831617905561013d805488841692169190911790556101358590557fffffffffffffffffffff00000000000000000000000000000000000000000000909116908e161790558015611636576000805461ff00191690555b505050505050505050505050565b306001600160a01b037f00000000000000000000000000000000000000000000000000000000000000001614156116d25760405162461bcd60e51b815260206004820152602c60248201527f46756e6374696f6e206d7573742062652063616c6c6564207468726f7567682060448201526b19195b1959d85d1958d85b1b60a21b6064820152608401610baf565b7f00000000000000000000000000000000000000000000000000000000000000006001600160a01b03166117046146de565b6001600160a01b03161461176f5760405162461bcd60e51b815260206004820152602c60248201527f46756e6374696f6e206d7573742062652063616c6c6564207468726f7567682060448201526b6163746976652070726f787960a01b6064820152608401610baf565b61177881614711565b604080516000808252602082019092526117949183919061476b565b50565b60c95460ff16156117dd5760405162461bcd60e51b815260206004820152601060248201526f14185d5cd8589b194e881c185d5cd95960821b6044820152606401610baf565b600260fb5414156118305760405162461bcd60e51b815260206004820152601f60248201527f5265656e7472616e637947756172643a207265656e7472616e742063616c6c006044820152606401610baf565b600260fb55333b156118845760405162461bcd60e51b815260206004820152601460248201527f436f6e7472616374206e6f7420616c6c6f7765640000000000000000000000006044820152606401610baf565b3332146118d35760405162461bcd60e51b815260206004820152601a60248201527f50726f787920636f6e7472616374206e6f7420616c6c6f7765640000000000006044820152606401610baf565b6101365482146119255760405162461bcd60e51b815260206004820152601560248201527f42657420697320746f6f206561726c792f6c61746500000000000000000000006044820152606401610baf565b61192e82614457565b61197a5760405162461bcd60e51b815260206004820152601260248201527f526f756e64206e6f74206265747461626c6500000000000000000000000000006044820152606401610baf565b610132548110156119e25760405162461bcd60e51b815260206004820152602c60248201527f42657420616d6f756e74206d7573742062652067726561746572207468616e2060448201526b1b5a5b90995d105b5bdd5b9d60a21b6064820152608401610baf565b61013554341015611a5b5760405162461bcd60e51b815260206004820152602f60248201527f5573657220646f6573206e6f74206861766520656e6f7567682066756e64732060448201527f746f2070617920746865206665657300000000000000000000000000000000006064820152608401610baf565b61013c546040516370a0823160e01b815233600482015282916001600160a01b0316906370a082319060240160206040518083038186803b158015611a9f57600080fd5b505afa158015611ab3573d6000803e3d6000fd5b505050506040513d601f19601f82011682018060405250810190611ad791906159d2565b1015611b255760405162461bcd60e51b815260206004820152601a60248201527f5573657220686173206e6f7420656e6f756768742066756e64730000000000006044820152606401610baf565b60008281526101396020908152604080832033845290915290206001015415611bb05760008281526101396020908152604080832033845290915290205415611bb05760405162461bcd60e51b815260206004820152601d60248201527f43616e206f6e6c7920626574206f6e207468652073616d6520736964650000006044820152606401610baf565b61013d5461013c5461013354604051630453f59960e21b81526001600160a01b03928316600482015233602482015260448101859052606481019190915291169063114fd66490608401602060405180830381600087803b158015611c1457600080fd5b505af1158015611c28573d6000803e3d6000fd5b505050506040513d601f19601f82011682018060405250810190611c4c91906159d2565b506101355461013454611c5f9190615bae565b61013455600082815261013a602052604090206006810154611c82908390615bae565b60068201556007810154611c97908390615bae565b6007820155600083815261013960209081526040808320338452909152902060010154611ce25733600090815261013b60209081526040822080546001810182559083529120018390555b60008381526101396020908152604080832033845290915281209081556001810154611d0f908490615bae565b6001820155604051838152849033907f438122d8cff518d18388099a5181f0d17a12b4f1b55faedf6e4a6acee0060c129060200160405180910390a361013d546040516350ca72cd60e01b81526005600482015230602482015233604482015260648101869052608481018590526001600160a01b03909116906350ca72cd9060a40161141a565b60c95460ff16611de05760405162461bcd60e51b815260206004820152601460248201527314185d5cd8589b194e881b9bdd081c185d5cd95960621b6044820152606401610baf565b61012e546001600160a01b03163314611e275760405162461bcd60e51b81526020600482015260096024820152682737ba1030b236b4b760b91b6044820152606401610baf565b61012d80547fffffffffffffffffffff0000ffffffffffffffffffffffffffffffffffffffff169055611e5861491a565b610136546040517faaa520fdd7d2c83061d632fa017b0432407e798818af63ea908589fceda39ab790600090a2565b60c95460ff1615611ecd5760405162461bcd60e51b815260206004820152601060248201526f14185d5cd8589b194e881c185d5cd95960821b6044820152606401610baf565b61012e546001600160a01b0316331480611ef2575061012f546001600160a01b031633145b611f335760405162461bcd60e51b81526020600482015260126024820152712737ba1037b832b930ba37b917b0b236b4b760711b6044820152606401610baf565b61012d54600160a81b900460ff1615611fb45760405162461bcd60e51b815260206004820152602360248201527f43616e206f6e6c792072756e2067656e657369735374617274526f756e64206f60448201527f6e636500000000000000000000000000000000000000000000000000000000006064820152608401610baf565b61013654611fc3906001615bae565b610136819055611fd2906149ad565b61012d80547fffffffffffffffffffff00ffffffffffffffffffffffffffffffffffffffffff16600160a81b179055565b306001600160a01b037f00000000000000000000000000000000000000000000000000000000000000001614156120915760405162461bcd60e51b815260206004820152602c60248201527f46756e6374696f6e206d7573742062652063616c6c6564207468726f7567682060448201526b19195b1959d85d1958d85b1b60a21b6064820152608401610baf565b7f00000000000000000000000000000000000000000000000000000000000000006001600160a01b03166120c36146de565b6001600160a01b03161461212e5760405162461bcd60e51b815260206004820152602c60248201527f46756e6374696f6e206d7573742062652063616c6c6564207468726f7567682060448201526b6163746976652070726f787960a01b6064820152608401610baf565b61213782614711565b6121438282600161476b565b5050565b61012e546001600160a01b0316331461218e5760405162461bcd60e51b81526020600482015260096024820152682737ba1030b236b4b760b91b6044820152606401610baf565b61179481614a2e565b600080600061013854426121ab9190615bae565b9050600080600061012d60009054906101000a90046001600160a01b03166001600160a01b031663feaf968c6040518163ffffffff1660e01b815260040160a060405180830381600087803b15801561220357600080fd5b505af1158015612217573d6000803e3d6000fd5b505050506040513d601f19601f8201168201806040525081019061223b9190615a75565b5093505092509250838111156122b95760405162461bcd60e51b815260206004820152602e60248201527f4f7261636c6520757064617465206578636565646564206d61782074696d657360448201527f74616d7020616c6c6f77616e63650000000000000000000000000000000000006064820152608401610baf565b610137548369ffffffffffffffffffff161161233d5760405162461bcd60e51b815260206004820152603d60248201527f4f7261636c652075706461746520726f756e644964206d757374206265206c6160448201527f72676572207468616e206f7261636c654c6174657374526f756e6449640000006064820152608401610baf565b509094909350915050565b6000306001600160a01b037f000000000000000000000000000000000000000000000000000000000000000016146123e85760405162461bcd60e51b815260206004820152603860248201527f555550535570677261646561626c653a206d757374206e6f742062652063616c60448201527f6c6564207468726f7567682064656c656761746563616c6c00000000000000006064820152608401610baf565b507f360894a13ba1a3210667c828492db98dca3e2076cc3735a920a3ca505d382bbc90565b60c95460ff166124565760405162461bcd60e51b815260206004820152601460248201527314185d5cd8589b194e881b9bdd081c185d5cd95960621b6044820152606401610baf565b61012e546001600160a01b0316331461249d5760405162461bcd60e51b81526020600482015260096024820152682737ba1030b236b4b760b91b6044820152606401610baf565b61013555565b600260fb5414156124f65760405162461bcd60e51b815260206004820152601f60248201527f5265656e7472616e637947756172643a207265656e7472616e742063616c6c006044820152606401610baf565b600260fb55333b1561254a5760405162461bcd60e51b815260206004820152601460248201527f436f6e7472616374206e6f7420616c6c6f7765640000000000000000000000006044820152606401610baf565b3332146125995760405162461bcd60e51b815260206004820152601a60248201527f50726f787920636f6e7472616374206e6f7420616c6c6f7765640000000000006044820152606401610baf565b6000805b82811015612cef5761013a60008585848181106125ca57634e487b7160e01b600052603260045260246000fd5b90506020020135815260200190815260200160002060010154600014156126335760405162461bcd60e51b815260206004820152601560248201527f526f756e6420686173206e6f74207374617274656400000000000000000000006044820152606401610baf565b61013a600085858481811061265857634e487b7160e01b600052603260045260246000fd5b905060200201358152602001908152602001600020600301544211806126c5575061013a600085858481811061269e57634e487b7160e01b600052603260045260246000fd5b905060200201358152602001908152602001600020600b0160019054906101000a900460ff165b6127115760405162461bcd60e51b815260206004820152601360248201527f526f756e6420686173206e6f7420656e646564000000000000000000000000006044820152606401610baf565b600061013a600086868581811061273857634e487b7160e01b600052603260045260246000fd5b60209081029290920135835250810191909152604001600020600b015460ff16156129ce5761278d85858481811061278057634e487b7160e01b600052603260045260246000fd5b9050602002013533613acd565b6127d95760405162461bcd60e51b815260206004820152601660248201527f4e6f7420656c696769626c6520666f7220636c61696d000000000000000000006044820152606401610baf565b600061013a600087878681811061280057634e487b7160e01b600052603260045260246000fd5b905060200201358152602001908152602001600020604051806101a001604052908160008201548152602001600182015481526020016002820154815260200160038201548152602001600482015481526020016005820154815260200160068201548152602001600782015481526020016008820154815260200160098201548152602001600a8201548152602001600b820160009054906101000a900460ff16151515158152602001600b820160019054906101000a900460ff16151515158152505090506127106101335461013960008989888181106128f357634e487b7160e01b600052603260045260246000fd5b9050602002013581526020019081526020016000206000336001600160a01b03166001600160a01b0316815260200190815260200160002060010154600261293b9190615be6565b6129459190615be6565b61294f9190615bc6565b610139600088888781811061297457634e487b7160e01b600052603260045260246000fd5b9050602002013581526020019081526020016000206000336001600160a01b03166001600160a01b031681526020019081526020016000206001015460026129bc9190615be6565b6129c69190615c05565b915050612b3a565b6129fe8585848181106129f157634e487b7160e01b600052603260045260246000fd5b905060200201353361348d565b612a4a5760405162461bcd60e51b815260206004820152601760248201527f4e6f7420656c696769626c6520666f7220726566756e640000000000000000006044820152606401610baf565b6000612710610133546101396000898988818110612a7857634e487b7160e01b600052603260045260246000fd5b9050602002013581526020019081526020016000206000336001600160a01b03166001600160a01b0316815260200190815260200160002060010154612abe9190615be6565b612ac89190615bc6565b9050806101396000888887818110612af057634e487b7160e01b600052603260045260246000fd5b9050602002013581526020019081526020016000206000336001600160a01b03166001600160a01b0316815260200190815260200160002060010154612b369190615c05565b9150505b60016101396000878786818110612b6157634e487b7160e01b600052603260045260246000fd5b6020908102929092013583525081810192909252604090810160009081203382529092529020600201805460ff1916911515919091179055612ba38184615bae565b9250848483818110612bc557634e487b7160e01b600052603260045260246000fd5b90506020020135336001600160a01b03167f34fcbac0073d7c3d388e51312faf357774904998eeb8fca628b9e6f65ee1cbf783604051612c0791815260200190565b60405180910390a361013d546001600160a01b03166350ca72cd60013033898988818110612c4557634e487b7160e01b600052603260045260246000fd5b60405160e088901b7fffffffff0000000000000000000000000000000000000000000000000000000016815260048101969096526001600160a01b039485166024870152929093166044850152602090910201356064830152506084810184905260a401600060405180830381600087803b158015612cc357600080fd5b505af1158015612cd7573d6000803e3d6000fd5b50505050508080612ce790615c48565b91505061259d565b508015612da15761013d5461013c546040517fc6c3bbe60000000000000000000000000000000000000000000000000000000081526001600160a01b0391821660048201523360248201526044810184905291169063c6c3bbe690606401602060405180830381600087803b158015612d6757600080fd5b505af1158015612d7b573d6000803e3d6000fd5b505050506040513d601f19601f82011682018060405250810190612d9f91906159d2565b505b5050600160fb5550565b60c95460ff16612df45760405162461bcd60e51b815260206004820152601460248201527314185d5cd8589b194e881b9bdd081c185d5cd95960621b6044820152606401610baf565b61012e546001600160a01b03163314612e3b5760405162461bcd60e51b81526020600482015260096024820152682737ba1030b236b4b760b91b6044820152606401610baf565b80612e885760405162461bcd60e51b815260206004820152601560248201527f4d757374206265207375706572696f7220746f203000000000000000000000006044820152606401610baf565b610132819055610136546040518281527f90eb87c560a0213754ceb3a7fa3012f01acab0a35602c1e1995adf69dabc9d50906020015b60405180910390a250565b6097546001600160a01b03163314612f235760405162461bcd60e51b815260206004820181905260248201527f4f776e61626c653a2063616c6c6572206973206e6f7420746865206f776e65726044820152606401610baf565b6001600160a01b038116612f795760405162461bcd60e51b815260206004820152601660248201527f43616e6e6f74206265207a65726f2061646472657373000000000000000000006044820152606401610baf565b61012e80546001600160a01b0319166001600160a01b0383169081179091556040519081527f137b621413925496477d46e5055ac0d56178bdd724ba8bf843afceef18268ba3906020015b60405180910390a150565b6097546001600160a01b031633146130295760405162461bcd60e51b815260206004820181905260248201527f4f776e61626c653a2063616c6c6572206973206e6f7420746865206f776e65726044820152606401610baf565b6130336000614ad2565b565b60c95460ff1661307e5760405162461bcd60e51b815260206004820152601460248201527314185d5cd8589b194e881b9bdd081c185d5cd95960621b6044820152606401610baf565b61012e546001600160a01b031633146130c55760405162461bcd60e51b81526020600482015260096024820152682737ba1030b236b4b760b91b6044820152606401610baf565b6103e88111156131175760405162461bcd60e51b815260206004820152601560248201527f54726561737572792066656520746f6f206869676800000000000000000000006044820152606401610baf565b610133819055610136546040518281527fb1c4ee38d35556741133da7ff9b6f7ab0fa88d0406133126ff128f635490a85790602001612ebe565b60c95460ff1661319a5760405162461bcd60e51b815260206004820152601460248201527314185d5cd8589b194e881b9bdd081c185d5cd95960621b6044820152606401610baf565b61012e546001600160a01b031633146131e15760405162461bcd60e51b81526020600482015260096024820152682737ba1030b236b4b760b91b6044820152606401610baf565b6001600160a01b0381166132375760405162461bcd60e51b815260206004820152601660248201527f43616e6e6f74206265207a65726f2061646472657373000000000000000000006044820152606401610baf565b60006101375561012d80546001600160a01b0319166001600160a01b0383169081179091556040519081527fb3eacd0e351fafdfefdec84e1cd19679b38dbcd63ea7c2c24da17fd2bc3b3c0e90602001612fc4565b60c95460ff16156132d25760405162461bcd60e51b815260206004820152601060248201526f14185d5cd8589b194e881c185d5cd95960821b6044820152606401610baf565b61012e546001600160a01b03163314806132f7575061012f546001600160a01b031633145b6133385760405162461bcd60e51b81526020600482015260126024820152712737ba1037b832b930ba37b917b0b236b4b760711b6044820152606401610baf565b61012d54600160a81b900460ff16801561335c575061012d54600160a01b900460ff165b6133f45760405162461bcd60e51b815260206004820152604660248201527f43616e206f6e6c792072756e2061667465722067656e6573697353746172745260448201527f6f756e6420616e642067656e657369734c6f636b526f756e642069732074726960648201527f6767657265640000000000000000000000000000000000000000000000000000608482015260a401610baf565b6000806133ff612197565b915091508169ffffffffffffffffffff1661013781905550613431610136548369ffffffffffffffffffff1683614b24565b6134576001610136546134449190615c05565b8369ffffffffffffffffffff1683614c82565b61346f60016101365461346a9190615c05565b614e06565b6101365461347e906001615bae565b61013681905561214390615073565b6000828152610139602090815260408083206001600160a01b03851684528252808320815160608082018452825482526001808401548387015260029384015460ff90811615158487015289885261013a875285882086516101a081018852815481529281015497830197909752938601549481019490945260038501549084015260048401546080840152600584015460a0840152600684015460c0840152600784015460e08401526008840154610100848101919091526009850154610120850152600a850154610140850152600b909401548083161515610160850152939093041615801561018083018190529061358a57508160400151155b80156135995750602082015115155b925050505b92915050565b60c95460ff16156135ea5760405162461bcd60e51b815260206004820152601060248201526f14185d5cd8589b194e881c185d5cd95960821b6044820152606401610baf565b61012e546001600160a01b031633148061360f575061012f546001600160a01b031633145b6136505760405162461bcd60e51b81526020600482015260126024820152712737ba1037b832b930ba37b917b0b236b4b760711b6044820152606401610baf565b61365861522b565b610136546040517f68b095021b1f40fe513109f513c66692f0b3219aee674a69f4efc57badb8201d90600090a2565b60c95460ff166136d05760405162461bcd60e51b815260206004820152601460248201527314185d5cd8589b194e881b9bdd081c185d5cd95960621b6044820152606401610baf565b61012e546001600160a01b031633146137175760405162461bcd60e51b81526020600482015260096024820152682737ba1030b236b4b760b91b6044820152606401610baf565b80821061378c5760405162461bcd60e51b815260206004820152603160248201527f6275666665725365636f6e6473206d75737420626520696e666572696f72207460448201527f6f20696e74657276616c5365636f6e64730000000000000000000000000000006064820152608401610baf565b61013082905561013181905560408051838152602081018390527fe60149e0431fec12df63dfab5fce2a9cefe9a4d3df5f41cb626f579ae1f2b91a910160405180910390a15050565b6001600160a01b038316600090815261013b6020526040812054606091829184908611156138455760405162461bcd60e51b815260206004820152601460248201527f437572736f72206f7574206f6620626f756e64730000000000000000000000006044820152606401610baf565b6001600160a01b038716600090815261013b602052604090205461386a908790615c05565b811115613899576001600160a01b038716600090815261013b6020526040902054613896908790615c05565b90505b60008167ffffffffffffffff8111156138c257634e487b7160e01b600052604160045260246000fd5b6040519080825280602002602001820160405280156138eb578160200160208202803683370190505b50905060008267ffffffffffffffff81111561391757634e487b7160e01b600052604160045260246000fd5b60405190808252806020026020018201604052801561396e57816020015b61395b604051806060016040528060008152602001600081526020016000151581525090565b8152602001906001900390816139355790505b50905060005b83811015613aae576001600160a01b038a16600090815261013b6020526040902061399f828b615bae565b815481106139bd57634e487b7160e01b600052603260045260246000fd5b90600052602060002001548382815181106139e857634e487b7160e01b600052603260045260246000fd5b6020026020010181815250506101396000848381518110613a1957634e487b7160e01b600052603260045260246000fd5b602090810291909101810151825281810192909252604090810160009081206001600160a01b038e16825283528190208151606081018352815481526001820154938101939093526002015460ff161515908201528251839083908110613a9057634e487b7160e01b600052603260045260246000fd5b60200260200101819052508080613aa690615c48565b915050613974565b508181613abb858b615bae565b95509550955050505093509350939050565b6000828152610139602090815260408083206001600160a01b03851684528252808320815160608082018452825482526001808401548387015260029384015460ff90811615158487015289885261013a875285882086516101a0810188528154815292810154978301979097529386015494810194909452600385015490840152600484015460808401819052600585015460a08501819052600686015460c0860152600786015460e08601526008860154610100868101919091526009870154610120870152600a870154610140870152600b909601548085161515610160870152959095049092161515610180840152921415613bd25760009250505061359e565b8061016001518015613be75750602082015115155b8015613bf557508160400151155b8015613599575080608001518160a00151138015613c1257508151155b80613599575080608001518160a00151128015613599575050516001149392505050565b6097546001600160a01b03163314613c905760405162461bcd60e51b815260206004820181905260248201527f4f776e61626c653a2063616c6c6572206973206e6f7420746865206f776e65726044820152606401610baf565b6040517fa9059cbb000000000000000000000000000000000000000000000000000000008152336004820152602481018290526001600160a01b0383169063a9059cbb90604401602060405180830381600087803b158015613cf157600080fd5b505af1158015613d05573d6000803e3d6000fd5b505050506040513d601f19601f82011682018060405250810190613d2991906159b2565b50816001600160a01b03167f14f11966a996e0629572e51064726d2057a80fbd34efc066682c06a71dbb6e9882604051613d6591815260200190565b60405180910390a25050565b61012e546001600160a01b03163314613db85760405162461bcd60e51b81526020600482015260096024820152682737ba1030b236b4b760b91b6044820152606401610baf565b6001600160a01b038116613e0e5760405162461bcd60e51b815260206004820152601660248201527f43616e6e6f74206265207a65726f2061646472657373000000000000000000006044820152606401610baf565b61012f80546001600160a01b0319166001600160a01b0383169081179091556040519081527fc47d127c07bdd56c5ccba00463ce3bd3c1bca71b4670eea6e5d0c02e4aa156e290602001612fc4565b60c95460ff16613ea65760405162461bcd60e51b815260206004820152601460248201527314185d5cd8589b194e881b9bdd081c185d5cd95960621b6044820152606401610baf565b61012e546001600160a01b03163314613eed5760405162461bcd60e51b81526020600482015260096024820152682737ba1030b236b4b760b91b6044820152606401610baf565b6101388190556040518181527f93ccaceac092ffb842c46b8718667a13a80e9058dcd0bd403d0b47215b30da0790602001612fc4565b60c95460ff1615613f695760405162461bcd60e51b815260206004820152601060248201526f14185d5cd8589b194e881c185d5cd95960821b6044820152606401610baf565b61012e546001600160a01b0316331480613f8e575061012f546001600160a01b031633145b613fcf5760405162461bcd60e51b81526020600482015260126024820152712737ba1037b832b930ba37b917b0b236b4b760711b6044820152606401610baf565b61012d54600160a81b900460ff1661404f5760405162461bcd60e51b815260206004820152603160248201527f43616e206f6e6c792072756e2061667465722067656e6573697353746172745260448201527f6f756e64206973207472696767657265640000000000000000000000000000006064820152608401610baf565b61012d54600160a01b900460ff16156140d05760405162461bcd60e51b815260206004820152602260248201527f43616e206f6e6c792072756e2067656e657369734c6f636b526f756e64206f6e60448201527f63650000000000000000000000000000000000000000000000000000000000006064820152608401610baf565b6000806140db612197565b915091508169ffffffffffffffffffff166101378190555061410d610136548369ffffffffffffffffffff1683614b24565b6101365461411c906001615bae565b61013681905561412b906149ad565b505061012d80547fffffffffffffffffffffff00ffffffffffffffffffffffffffffffffffffffff16600160a01b179055565b61013b602052816000526040600020818154811061417b57600080fd5b90600052602060002001600091509150505481565b6097546001600160a01b031633146141ea5760405162461bcd60e51b815260206004820181905260248201527f4f776e61626c653a2063616c6c6572206973206e6f7420746865206f776e65726044820152606401610baf565b6103e884111561423c5760405162461bcd60e51b815260206004820152601560248201527f54726561737572792066656520746f6f206869676800000000000000000000006044820152606401610baf565b61012d80546001600160a01b03199081166001600160a01b039d8e161790915561012e805482169b8d169b909b17909a5561012f80548b16998c1699909917909855610131969096556101309490945561013292909255610138556101335561013c8054851691861691909117905561013d8054909316931692909217905561013555565b6097546001600160a01b0316331461431b5760405162461bcd60e51b815260206004820181905260248201527f4f776e61626c653a2063616c6c6572206973206e6f7420746865206f776e65726044820152606401610baf565b6001600160a01b0381166143805760405162461bcd60e51b815260206004820152602660248201527f4f776e61626c653a206e6577206f776e657220697320746865207a65726f206160448201526564647265737360d01b6064820152608401610baf565b61179481614ad2565b6000826001600160a01b03168260405160006040518083038185875af1925050503d80600081146143d6576040519150601f19603f3d011682016040523d82523d6000602084013e6143db565b606091505b50509050806144525760405162461bcd60e51b815260206004820152602560248201527f5472616e7366657248656c7065723a204d415449435f5452414e534645525f4660448201527f41494c45440000000000000000000000000000000000000000000000000000006064820152608401610baf565b505050565b600081815261013a6020526040812060010154158015906144895750600082815261013a602052604090206002015415155b80156144a65750600082815261013a602052604090206001015442115b801561359e575050600090815261013a6020526040902060020154421090565b600054610100900460ff166145315760405162461bcd60e51b815260206004820152602b60248201527f496e697469616c697a61626c653a20636f6e7472616374206973206e6f74206960448201526a6e697469616c697a696e6760a81b6064820152608401610baf565b6130336152a6565b600054610100900460ff166130335760405162461bcd60e51b815260206004820152602b60248201527f496e697469616c697a61626c653a20636f6e7472616374206973206e6f74206960448201526a6e697469616c697a696e6760a81b6064820152608401610baf565b600054610100900460ff1661460f5760405162461bcd60e51b815260206004820152602b60248201527f496e697469616c697a61626c653a20636f6e7472616374206973206e6f74206960448201526a6e697469616c697a696e6760a81b6064820152608401610baf565b61303361531a565b600054610100900460ff166146825760405162461bcd60e51b815260206004820152602b60248201527f496e697469616c697a61626c653a20636f6e7472616374206973206e6f74206960448201526a6e697469616c697a696e6760a81b6064820152608401610baf565b61303361538c565b7f7e644d79422f17c01e4894b5f4f588d331ebfa28653d42ae832dc59e38c9798f6146b3615403565b604080516001600160a01b03928316815291841660208301520160405180910390a16117948161542b565b60007f360894a13ba1a3210667c828492db98dca3e2076cc3735a920a3ca505d382bbc5b546001600160a01b0316919050565b6097546001600160a01b031633146117945760405162461bcd60e51b815260206004820181905260248201527f4f776e61626c653a2063616c6c6572206973206e6f7420746865206f776e65726044820152606401610baf565b7f4910fdfa16fed3260ed0e7147f7cc6da11a60208b5b9406d12a635614ffd91435460ff161561479e57614452836154d4565b826001600160a01b03166352d1902d6040518163ffffffff1660e01b815260040160206040518083038186803b1580156147d757600080fd5b505afa925050508015614807575060408051601f3d908101601f19168201909252614804918101906159d2565b60015b6148795760405162461bcd60e51b815260206004820152602e60248201527f45524331393637557067726164653a206e657720696d706c656d656e7461746960448201527f6f6e206973206e6f7420555550530000000000000000000000000000000000006064820152608401610baf565b7f360894a13ba1a3210667c828492db98dca3e2076cc3735a920a3ca505d382bbc811461490e5760405162461bcd60e51b815260206004820152602960248201527f45524331393637557067726164653a20756e737570706f727465642070726f7860448201527f6961626c655555494400000000000000000000000000000000000000000000006064820152608401610baf565b50614452838383615578565b60c95460ff166149635760405162461bcd60e51b815260206004820152601460248201527314185d5cd8589b194e881b9bdd081c185d5cd95960621b6044820152606401610baf565b60c9805460ff191690557f5db9ee0a495bf2e6ff9c91a7834c1ba4fdd244a5e8aa4e537bd38aeae4b073aa335b6040516001600160a01b03909116815260200160405180910390a1565b600081815261013a602052604090204260018201819055610131546149d191615bae565b600280830191909155610131546149e791615be6565b6149f19042615bae565b600382015581815560006006820181905560405183917f939f42374aa9bf1d8d8cd56d8a9110cb040cd8dfeae44080c6fcf2645e51b45291a25050565b600081815261013a60205260409020600b81015460ff1615614a925760405162461bcd60e51b815260206004820152601a60248201527f526f756e642068617320636c6f73656420636f72726563746c790000000000006044820152606401610baf565b600b8101805461ff00191661010017905560405182907f0fe7cad4e9802ec3c47f750d248ecee315e4f165d036236829c770274c35430890600090a25050565b609780546001600160a01b038381166001600160a01b0319831681179093556040519116919082907f8be0079c531659141344cd1fd0a4f28419497f9722a3daafe3b4186f6b6457e090600090a35050565b600083815261013a6020526040902060010154614ba95760405162461bcd60e51b815260206004820152602b60248201527f43616e206f6e6c79206c6f636b20726f756e6420616674657220726f756e642060448201527f68617320737461727465640000000000000000000000000000000000000000006064820152608401610baf565b600083815261013a6020526040902060020154421015614c1b5760405162461bcd60e51b815260206004820152602760248201527f43616e206f6e6c79206c6f636b20726f756e64206166746572206c6f636b546960448201526606d657374616d760cc1b6064820152608401610baf565b600083815261013a6020526040902061013154614c389042615bae565b600382015560048101829055604051828152839085907f482e76a65b448a42deef26e99e58fb20c85e26f075defff8df6aa80459b39006906020015b60405180910390a350505050565b600083815261013a6020526040902060020154614d075760405162461bcd60e51b815260206004820152602960248201527f43616e206f6e6c7920656e6420726f756e6420616674657220726f756e64206860448201527f6173206c6f636b656400000000000000000000000000000000000000000000006064820152608401610baf565b600083815261013a6020526040902060030154421015614d795760405162461bcd60e51b815260206004820152602760248201527f43616e206f6e6c7920656e6420726f756e6420616674657220636c6f7365546960448201526606d657374616d760cc1b6064820152608401610baf565b61013054600084815261013a6020526040902060030154614d9a9190615bae565b421115614daa57614daa83614a2e565b600083815261013a60205260409081902060058101839055600b8101805460ff191660011790559051839085907fb6ff1fe915db84788cbbbc017f0d2bef9485fad9fd0bd8ce9340fde0d8410dd890614c749086815260200190565b600081815261013a6020526040902060090154158015614e365750600081815261013a60205260409020600a0154155b614e825760405162461bcd60e51b815260206004820152601260248201527f526577617264732063616c63756c6174656400000000000000000000000000006044820152606401610baf565b600081815261013a60205260408120600781015490919081908190614ee15783600801549250612710610133548560060154614ebe9190615be6565b614ec89190615bc6565b9150818460060154614eda9190615c05565b9050614f6e565b6008840154614f075783600701549250612710610133548560060154614ebe9190615be6565b836004015484600501541315614f345783600701549250612710610133548560060154614ebe9190615be6565b836004015484600501541215614f615783600801549250612710610133548560060154614ebe9190615be6565b5050506006810154600090815b60098401839055600a8401819055604080518481526020810183905290810183905285907f6dfdfcb09c8804d0058826cd2539f1acfbe3cb887c9be03d928035bce0f1a58d9060600160405180910390a26000846004015485600501541215614fd957506004614fed565b846004015485600501541315614fed575060055b61013d54610136546040516350ca72cd60e01b8152600b60048201523060248201523360448201526064810191909152608481018390526001600160a01b03909116906350ca72cd9060a401600060405180830381600087803b15801561505357600080fd5b505af1158015615067573d6000803e3d6000fd5b50505050505050505050565b61012d54600160a81b900460ff166150f35760405162461bcd60e51b815260206004820152603160248201527f43616e206f6e6c792072756e2061667465722067656e6573697353746172745260448201527f6f756e64206973207472696767657265640000000000000000000000000000006064820152608401610baf565b61013a6000615103600284615c05565b8152602001908152602001600020600301546000141561518b5760405162461bcd60e51b815260206004820152602e60248201527f43616e206f6e6c7920737461727420726f756e6420616674657220726f756e6460448201527f206e2d322068617320656e6465640000000000000000000000000000000000006064820152608401610baf565b61013a600061519b600284615c05565b8152602001908152602001600020600301544210156152225760405162461bcd60e51b815260206004820152603760248201527f43616e206f6e6c79207374617274206e657720726f756e64206166746572207260448201527f6f756e64206e2d3220636c6f736554696d657374616d700000000000000000006064820152608401610baf565b611794816149ad565b60c95460ff16156152715760405162461bcd60e51b815260206004820152601060248201526f14185d5cd8589b194e881c185d5cd95960821b6044820152606401610baf565b60c9805460ff191660011790557f62e78cea01bee320cd4e420270b5ea74000d11b0c9f74754ebdbfc544b05a2586149903390565b600054610100900460ff166153115760405162461bcd60e51b815260206004820152602b60248201527f496e697469616c697a61626c653a20636f6e7472616374206973206e6f74206960448201526a6e697469616c697a696e6760a81b6064820152608401610baf565b61303333614ad2565b600054610100900460ff166153855760405162461bcd60e51b815260206004820152602b60248201527f496e697469616c697a61626c653a20636f6e7472616374206973206e6f74206960448201526a6e697469616c697a696e6760a81b6064820152608401610baf565b600160fb55565b600054610100900460ff166153f75760405162461bcd60e51b815260206004820152602b60248201527f496e697469616c697a61626c653a20636f6e7472616374206973206e6f74206960448201526a6e697469616c697a696e6760a81b6064820152608401610baf565b60c9805460ff19169055565b60007fb53127684a568b3173ae13b9f8a6016e243e63b6e8ee1178d6a717850b5d6103614702565b6001600160a01b0381166154905760405162461bcd60e51b815260206004820152602660248201527f455243313936373a206e65772061646d696e20697320746865207a65726f206160448201526564647265737360d01b6064820152608401610baf565b807fb53127684a568b3173ae13b9f8a6016e243e63b6e8ee1178d6a717850b5d61035b80546001600160a01b0319166001600160a01b039290921691909117905550565b6001600160a01b0381163b6155515760405162461bcd60e51b815260206004820152602d60248201527f455243313936373a206e657720696d706c656d656e746174696f6e206973206e60448201527f6f74206120636f6e7472616374000000000000000000000000000000000000006064820152608401610baf565b807f360894a13ba1a3210667c828492db98dca3e2076cc3735a920a3ca505d382bbc6154b3565b615581836155a3565b60008251118061558e5750805b156144525761559d83836155e3565b50505050565b6155ac816154d4565b6040516001600160a01b038216907fbc7cd75a20ee27fd9adebab32041f755214dbc6bffa90cc0225b39da2e5c2d3b90600090a250565b60606001600160a01b0383163b6156625760405162461bcd60e51b815260206004820152602660248201527f416464726573733a2064656c65676174652063616c6c20746f206e6f6e2d636f60448201527f6e747261637400000000000000000000000000000000000000000000000000006064820152608401610baf565b600080846001600160a01b03168460405161567d9190615ac4565b600060405180830381855af49150503d80600081146156b8576040519150601f19603f3d011682016040523d82523d6000602084013e6156bd565b606091505b50915091506135998282604051806060016040528060278152602001615ca560279139606083156156ef575081615719565b8251156156ff5782518084602001fd5b8160405162461bcd60e51b8152600401610baf9190615b7b565b9392505050565b805169ffffffffffffffffffff8116811461573a57600080fd5b919050565b600060208284031215615750578081fd5b813561571981615c8f565b60006020828403121561576c578081fd5b815161571981615c8f565b60008060008060008060008060008060006101608c8e031215615798578687fd5b8b356157a381615c8f565b9a5060208c01356157b381615c8f565b995060408c01356157c381615c8f565b985060608c0135975060808c0135965060a08c0135955060c08c0135945060e08c013593506101008c01356157f781615c8f565b92506101208c013561580881615c8f565b809250506101408c013590509295989b509295989b9093969950565b60008060408385031215615836578182fd5b823561584181615c8f565b9150602083013567ffffffffffffffff8082111561585d578283fd5b818501915085601f830112615870578283fd5b81358181111561588257615882615c79565b604051601f8201601f19908116603f011681019083821181831017156158aa576158aa615c79565b816040528281528860208487010111156158c2578586fd5b82602086016020830137856020848301015280955050505050509250929050565b600080604083850312156158f5578182fd5b823561590081615c8f565b946020939093013593505050565b600080600060608486031215615922578283fd5b833561592d81615c8f565b95602085013595506040909401359392505050565b60008060208385031215615954578182fd5b823567ffffffffffffffff8082111561596b578384fd5b818501915085601f83011261597e578384fd5b81358181111561598c578485fd5b8660208260051b85010111156159a0578485fd5b60209290920196919550909350505050565b6000602082840312156159c3578081fd5b81518015158114615719578182fd5b6000602082840312156159e3578081fd5b5051919050565b6000602082840312156159fb578081fd5b5035919050565b60008060408385031215615a14578182fd5b823591506020830135615a2681615c8f565b809150509250929050565b60008060408385031215615a43578182fd5b50508035926020909101359150565b60008060408385031215615a64578182fd5b505080516020909101519092909150565b600080600080600060a08688031215615a8c578283fd5b615a9586615720565b9450602086015193506040860151925060608601519150615ab860808701615720565b90509295509295909350565b60008251615ad6818460208701615c1c565b9190910192915050565b60608082528451828201819052600091906020906080850190828901855b82811015615b1a57815184529284019290840190600101615afe565b50505084810382860152865180825287830191830190855b81811015615b645783518051845285810151868501526040908101511515908401529284019291850191600101615b32565b505080945050505050826040830152949350505050565b6020815260008251806020840152615b9a816040850160208701615c1c565b601f01601f19169190910160400192915050565b60008219821115615bc157615bc1615c63565b500190565b600082615be157634e487b7160e01b81526012600452602481fd5b500490565b6000816000190483118215151615615c0057615c00615c63565b500290565b600082821015615c1757615c17615c63565b500390565b60005b83811015615c37578181015183820152602001615c1f565b8381111561559d5750506000910152565b6000600019821415615c5c57615c5c615c63565b5060010190565b634e487b7160e01b600052601160045260246000fd5b634e487b7160e01b600052604160045260246000fd5b6001600160a01b038116811461179457600080fdfe416464726573733a206c6f772d6c6576656c2064656c65676174652063616c6c206661696c6564a264697066735822122020aea10fbb95707e3e55b639d61d1b7c2ca30baff41ff8e1be480ea4c4c3583d64736f6c63430008040033",
  "devdoc": {
    "kind": "dev",
    "methods": {
      "claimTreasury()": {
        "details": "Callable by admin"
      },
      "genesisLockRound()": {
        "details": "Callable by operator"
      },
      "genesisStartRound()": {
        "details": "Callable by admin or operator"
      },
      "getUserRounds(address,uint256,uint256)": {
        "params": {
          "cursor": ": cursor",
          "size": ": size",
          "user": ": user address"
        }
      },
      "getUserRoundsLength(address)": {
        "params": {
          "user": ": user address"
        }
      },
      "initialize(address,address,address,uint256,uint256,uint256,uint256,uint256,address,address,uint256)": {
        "params": {
          "_adminAddress": ": admin address",
          "_bufferSeconds": ": buffer of time for resolution of price or time between the rounds",
          "_feeAmount": "Fee paid to place a bet",
          "_intervalSeconds": ": number of time within an interval",
          "_minBetAmount": ": minimum bet amounts (in wei)",
          "_operatorAddress": ": operator address",
          "_oracleAddress": ": chainlink oracle address for getting WETH price",
          "_oracleUpdateAllowance": ": oracle update allowance",
          "_routerContract": ": treasury fee (1000 = 10%)",
          "_treasuryFee": ": treasury fee (1000 = 10%)"
        }
      },
      "makeRefundable(uint256)": {
        "details": "This functin is called to manually mark a round as refundable",
        "params": {
          "epoch": "round is g"
        }
      },
      "owner()": {
        "details": "Returns the address of the current owner."
      },
      "pause()": {
        "details": "Callable by admin or operator"
      },
      "paused()": {
        "details": "Returns true if the contract is paused, and false otherwise."
      },
      "proxiableUUID()": {
        "details": "Implementation of the ERC1822 {proxiableUUID} function. This returns the storage slot used by the implementation. It is used to validate that the this implementation remains valid after an upgrade. IMPORTANT: A proxy pointing at a proxiable contract should not be considered proxiable itself, because this risks bricking a proxy that upgrades to it, by delegating to itself until out of gas. Thus it is critical that this function revert if invoked through a proxy. This is guaranteed by the `notDelegated` modifier."
      },
      "recoverToken(address,uint256)": {
        "details": "Callable by owner",
        "params": {
          "_amount": ": token amount",
          "_token": ": token address"
        }
      },
      "refundable(uint256,address)": {
        "params": {
          "epoch": ": epoch",
          "user": ": user address"
        }
      },
      "renounceOwnership()": {
        "details": "Leaves the contract without owner. It will not be possible to call `onlyOwner` functions anymore. Can only be called by the current owner. NOTE: Renouncing ownership will leave the contract without an owner, thereby removing any functionality that is only available to the owner."
      },
      "setAdmin(address)": {
        "details": "Callable by owner"
      },
      "setBufferAndIntervalSeconds(uint256,uint256)": {
        "details": "Callable by admin"
      },
      "setFeeAmount(uint256)": {
        "details": "Callable by admin"
      },
      "setMinBetAmount(uint256)": {
        "details": "Callable by admin"
      },
      "setOperator(address)": {
        "details": "Callable by admin"
      },
      "setOracle(address)": {
        "details": "Callable by admin"
      },
      "setOracleUpdateAllowance(uint256)": {
        "details": "Callable by admin"
      },
      "setTreasuryFee(uint256)": {
        "details": "Callable by admin"
      },
      "transferOwnership(address)": {
        "details": "Transfers ownership of the contract to a new account (`newOwner`). Can only be called by the current owner."
      },
      "upgradeTo(address)": {
        "details": "Upgrade the implementation of the proxy to `newImplementation`. Calls {_authorizeUpgrade}. Emits an {Upgraded} event."
      },
      "upgradeToAndCall(address,bytes)": {
        "details": "Upgrade the implementation of the proxy to `newImplementation`, and subsequently execute the function call encoded in `data`. Calls {_authorizeUpgrade}. Emits an {Upgraded} event."
      }
    },
    "title": "OFPredictionsHouse",
    "version": 1
  },
  "userdoc": {
    "kind": "user",
    "methods": {
      "claimTreasury()": {
        "notice": "Claim all rewards in treasury"
      },
      "genesisLockRound()": {
        "notice": "Lock genesis round"
      },
      "genesisStartRound()": {
        "notice": "Start genesis round"
      },
      "getUserRounds(address,uint256,uint256)": {
        "notice": "Returns round epochs and bet information for a user that has participated"
      },
      "getUserRoundsLength(address)": {
        "notice": "Returns round epochs length"
      },
      "initialize(address,address,address,uint256,uint256,uint256,uint256,uint256,address,address,uint256)": {
        "notice": "Constructor"
      },
      "pause()": {
        "notice": "called by the admin to pause, triggers stopped state"
      },
      "recoverToken(address,uint256)": {
        "notice": "It allows the owner to recover tokens sent to the contract by mistake"
      },
      "refundable(uint256,address)": {
        "notice": "Get the refundable stats of specific epoch and user account"
      },
      "setAdmin(address)": {
        "notice": "Set admin address"
      },
      "setBufferAndIntervalSeconds(uint256,uint256)": {
        "notice": "Set buffer and interval (in seconds)"
      },
      "setFeeAmount(uint256)": {
        "notice": "Set fee amount"
      },
      "setMinBetAmount(uint256)": {
        "notice": "Set minBetAmount"
      },
      "setOperator(address)": {
        "notice": "Set operator address"
      },
      "setOracle(address)": {
        "notice": "Set Oracle address"
      },
      "setOracleUpdateAllowance(uint256)": {
        "notice": "Set oracle update allowance"
      },
      "setTreasuryFee(uint256)": {
        "notice": "Set treasury fee"
      },
      "unpause()": {
        "notice": "called by the admin to unpause, returns to normal state Reset genesis state. Once paused, the rounds would need to be kickstarted by genesis"
      }
    },
    "version": 1
  },
  "storageLayout": {
    "storage": [
      {
        "astId": 519,
        "contract": "contracts/OFPredictionsHouse.sol:OFPredictionsHouse",
        "label": "_initialized",
        "offset": 0,
        "slot": "0",
        "type": "t_bool"
      },
      {
        "astId": 522,
        "contract": "contracts/OFPredictionsHouse.sol:OFPredictionsHouse",
        "label": "_initializing",
        "offset": 1,
        "slot": "0",
        "type": "t_bool"
      },
      {
        "astId": 501,
        "contract": "contracts/OFPredictionsHouse.sol:OFPredictionsHouse",
        "label": "__gap",
        "offset": 0,
        "slot": "1",
        "type": "t_array(t_uint256)50_storage"
      },
      {
        "astId": 721,
        "contract": "contracts/OFPredictionsHouse.sol:OFPredictionsHouse",
        "label": "__gap",
        "offset": 0,
        "slot": "51",
        "type": "t_array(t_uint256)50_storage"
      },
      {
        "astId": 2116,
        "contract": "contracts/OFPredictionsHouse.sol:OFPredictionsHouse",
        "label": "__gap",
        "offset": 0,
        "slot": "101",
        "type": "t_array(t_uint256)50_storage"
      },
      {
        "astId": 10,
        "contract": "contracts/OFPredictionsHouse.sol:OFPredictionsHouse",
        "label": "_owner",
        "offset": 0,
        "slot": "151",
        "type": "t_address"
      },
      {
        "astId": 122,
        "contract": "contracts/OFPredictionsHouse.sol:OFPredictionsHouse",
        "label": "__gap",
        "offset": 0,
        "slot": "152",
        "type": "t_array(t_uint256)49_storage"
      },
      {
        "astId": 743,
        "contract": "contracts/OFPredictionsHouse.sol:OFPredictionsHouse",
        "label": "_paused",
        "offset": 0,
        "slot": "201",
        "type": "t_bool"
      },
      {
        "astId": 832,
        "contract": "contracts/OFPredictionsHouse.sol:OFPredictionsHouse",
        "label": "__gap",
        "offset": 0,
        "slot": "202",
        "type": "t_array(t_uint256)49_storage"
      },
      {
        "astId": 847,
        "contract": "contracts/OFPredictionsHouse.sol:OFPredictionsHouse",
        "label": "_status",
        "offset": 0,
        "slot": "251",
        "type": "t_uint256"
      },
      {
        "astId": 891,
        "contract": "contracts/OFPredictionsHouse.sol:OFPredictionsHouse",
        "label": "__gap",
        "offset": 0,
        "slot": "252",
        "type": "t_array(t_uint256)49_storage"
      },
      {
        "astId": 15247,
        "contract": "contracts/OFPredictionsHouse.sol:OFPredictionsHouse",
        "label": "oracle",
        "offset": 0,
        "slot": "301",
        "type": "t_address"
      },
      {
        "astId": 15249,
        "contract": "contracts/OFPredictionsHouse.sol:OFPredictionsHouse",
        "label": "genesisLockOnce",
        "offset": 20,
        "slot": "301",
        "type": "t_bool"
      },
      {
        "astId": 15251,
        "contract": "contracts/OFPredictionsHouse.sol:OFPredictionsHouse",
        "label": "genesisStartOnce",
        "offset": 21,
        "slot": "301",
        "type": "t_bool"
      },
      {
        "astId": 15253,
        "contract": "contracts/OFPredictionsHouse.sol:OFPredictionsHouse",
        "label": "adminAddress",
        "offset": 0,
        "slot": "302",
        "type": "t_address"
      },
      {
        "astId": 15255,
        "contract": "contracts/OFPredictionsHouse.sol:OFPredictionsHouse",
        "label": "operatorAddress",
        "offset": 0,
        "slot": "303",
        "type": "t_address"
      },
      {
        "astId": 15257,
        "contract": "contracts/OFPredictionsHouse.sol:OFPredictionsHouse",
        "label": "bufferSeconds",
        "offset": 0,
        "slot": "304",
        "type": "t_uint256"
      },
      {
        "astId": 15259,
        "contract": "contracts/OFPredictionsHouse.sol:OFPredictionsHouse",
        "label": "intervalSeconds",
        "offset": 0,
        "slot": "305",
        "type": "t_uint256"
      },
      {
        "astId": 15261,
        "contract": "contracts/OFPredictionsHouse.sol:OFPredictionsHouse",
        "label": "minBetAmount",
        "offset": 0,
        "slot": "306",
        "type": "t_uint256"
      },
      {
        "astId": 15263,
        "contract": "contracts/OFPredictionsHouse.sol:OFPredictionsHouse",
        "label": "treasuryFee",
        "offset": 0,
        "slot": "307",
        "type": "t_uint256"
      },
      {
        "astId": 15265,
        "contract": "contracts/OFPredictionsHouse.sol:OFPredictionsHouse",
        "label": "totalFeeAmount",
        "offset": 0,
        "slot": "308",
        "type": "t_uint256"
      },
      {
        "astId": 15267,
        "contract": "contracts/OFPredictionsHouse.sol:OFPredictionsHouse",
        "label": "feeAmount",
        "offset": 0,
        "slot": "309",
        "type": "t_uint256"
      },
      {
        "astId": 15269,
        "contract": "contracts/OFPredictionsHouse.sol:OFPredictionsHouse",
        "label": "currentEpoch",
        "offset": 0,
        "slot": "310",
        "type": "t_uint256"
      },
      {
        "astId": 15271,
        "contract": "contracts/OFPredictionsHouse.sol:OFPredictionsHouse",
        "label": "oracleLatestRoundId",
        "offset": 0,
        "slot": "311",
        "type": "t_uint256"
      },
      {
        "astId": 15273,
        "contract": "contracts/OFPredictionsHouse.sol:OFPredictionsHouse",
        "label": "oracleUpdateAllowance",
        "offset": 0,
        "slot": "312",
        "type": "t_uint256"
      },
      {
        "astId": 15283,
        "contract": "contracts/OFPredictionsHouse.sol:OFPredictionsHouse",
        "label": "ledger",
        "offset": 0,
        "slot": "313",
        "type": "t_mapping(t_uint256,t_mapping(t_address,t_struct(BetInfo)15331_storage))"
      },
      {
        "astId": 15288,
        "contract": "contracts/OFPredictionsHouse.sol:OFPredictionsHouse",
        "label": "rounds",
        "offset": 0,
        "slot": "314",
        "type": "t_mapping(t_uint256,t_struct(Round)15324_storage)"
      },
      {
        "astId": 15293,
        "contract": "contracts/OFPredictionsHouse.sol:OFPredictionsHouse",
        "label": "userRounds",
        "offset": 0,
        "slot": "315",
        "type": "t_mapping(t_address,t_array(t_uint256)dyn_storage)"
      },
      {
        "astId": 15295,
        "contract": "contracts/OFPredictionsHouse.sol:OFPredictionsHouse",
        "label": "tokenAddress",
        "offset": 0,
        "slot": "316",
        "type": "t_address"
      },
      {
        "astId": 15297,
        "contract": "contracts/OFPredictionsHouse.sol:OFPredictionsHouse",
        "label": "routerContract",
        "offset": 0,
        "slot": "317",
        "type": "t_address"
      }
    ],
    "types": {
      "t_address": {
        "encoding": "inplace",
        "label": "address",
        "numberOfBytes": "20"
      },
      "t_array(t_uint256)49_storage": {
        "base": "t_uint256",
        "encoding": "inplace",
        "label": "uint256[49]",
        "numberOfBytes": "1568"
      },
      "t_array(t_uint256)50_storage": {
        "base": "t_uint256",
        "encoding": "inplace",
        "label": "uint256[50]",
        "numberOfBytes": "1600"
      },
      "t_array(t_uint256)dyn_storage": {
        "base": "t_uint256",
        "encoding": "dynamic_array",
        "label": "uint256[]",
        "numberOfBytes": "32"
      },
      "t_bool": {
        "encoding": "inplace",
        "label": "bool",
        "numberOfBytes": "1"
      },
      "t_int256": {
        "encoding": "inplace",
        "label": "int256",
        "numberOfBytes": "32"
      },
      "t_mapping(t_address,t_array(t_uint256)dyn_storage)": {
        "encoding": "mapping",
        "key": "t_address",
        "label": "mapping(address => uint256[])",
        "numberOfBytes": "32",
        "value": "t_array(t_uint256)dyn_storage"
      },
      "t_mapping(t_address,t_struct(BetInfo)15331_storage)": {
        "encoding": "mapping",
        "key": "t_address",
        "label": "mapping(address => struct OFPredictionsHouseStorage.BetInfo)",
        "numberOfBytes": "32",
        "value": "t_struct(BetInfo)15331_storage"
      },
      "t_mapping(t_uint256,t_mapping(t_address,t_struct(BetInfo)15331_storage))": {
        "encoding": "mapping",
        "key": "t_uint256",
        "label": "mapping(uint256 => mapping(address => struct OFPredictionsHouseStorage.BetInfo))",
        "numberOfBytes": "32",
        "value": "t_mapping(t_address,t_struct(BetInfo)15331_storage)"
      },
      "t_mapping(t_uint256,t_struct(Round)15324_storage)": {
        "encoding": "mapping",
        "key": "t_uint256",
        "label": "mapping(uint256 => struct OFPredictionsHouseStorage.Round)",
        "numberOfBytes": "32",
        "value": "t_struct(Round)15324_storage"
      },
      "t_struct(BetInfo)15331_storage": {
        "encoding": "inplace",
        "label": "struct OFPredictionsHouseStorage.BetInfo",
        "members": [
          {
            "astId": 15326,
            "contract": "contracts/OFPredictionsHouse.sol:OFPredictionsHouse",
            "label": "position",
            "offset": 0,
            "slot": "0",
            "type": "t_uint256"
          },
          {
            "astId": 15328,
            "contract": "contracts/OFPredictionsHouse.sol:OFPredictionsHouse",
            "label": "amount",
            "offset": 0,
            "slot": "1",
            "type": "t_uint256"
          },
          {
            "astId": 15330,
            "contract": "contracts/OFPredictionsHouse.sol:OFPredictionsHouse",
            "label": "claimed",
            "offset": 0,
            "slot": "2",
            "type": "t_bool"
          }
        ],
        "numberOfBytes": "96"
      },
      "t_struct(Round)15324_storage": {
        "encoding": "inplace",
        "label": "struct OFPredictionsHouseStorage.Round",
        "members": [
          {
            "astId": 15299,
            "contract": "contracts/OFPredictionsHouse.sol:OFPredictionsHouse",
            "label": "epoch",
            "offset": 0,
            "slot": "0",
            "type": "t_uint256"
          },
          {
            "astId": 15301,
            "contract": "contracts/OFPredictionsHouse.sol:OFPredictionsHouse",
            "label": "startTimestamp",
            "offset": 0,
            "slot": "1",
            "type": "t_uint256"
          },
          {
            "astId": 15303,
            "contract": "contracts/OFPredictionsHouse.sol:OFPredictionsHouse",
            "label": "lockTimestamp",
            "offset": 0,
            "slot": "2",
            "type": "t_uint256"
          },
          {
            "astId": 15305,
            "contract": "contracts/OFPredictionsHouse.sol:OFPredictionsHouse",
            "label": "closeTimestamp",
            "offset": 0,
            "slot": "3",
            "type": "t_uint256"
          },
          {
            "astId": 15307,
            "contract": "contracts/OFPredictionsHouse.sol:OFPredictionsHouse",
            "label": "lockPrice",
            "offset": 0,
            "slot": "4",
            "type": "t_int256"
          },
          {
            "astId": 15309,
            "contract": "contracts/OFPredictionsHouse.sol:OFPredictionsHouse",
            "label": "closePrice",
            "offset": 0,
            "slot": "5",
            "type": "t_int256"
          },
          {
            "astId": 15311,
            "contract": "contracts/OFPredictionsHouse.sol:OFPredictionsHouse",
            "label": "totalAmount",
            "offset": 0,
            "slot": "6",
            "type": "t_uint256"
          },
          {
            "astId": 15313,
            "contract": "contracts/OFPredictionsHouse.sol:OFPredictionsHouse",
            "label": "bullAmount",
            "offset": 0,
            "slot": "7",
            "type": "t_uint256"
          },
          {
            "astId": 15315,
            "contract": "contracts/OFPredictionsHouse.sol:OFPredictionsHouse",
            "label": "bearAmount",
            "offset": 0,
            "slot": "8",
            "type": "t_uint256"
          },
          {
            "astId": 15317,
            "contract": "contracts/OFPredictionsHouse.sol:OFPredictionsHouse",
            "label": "rewardBaseCalAmount",
            "offset": 0,
            "slot": "9",
            "type": "t_uint256"
          },
          {
            "astId": 15319,
            "contract": "contracts/OFPredictionsHouse.sol:OFPredictionsHouse",
            "label": "rewardAmount",
            "offset": 0,
            "slot": "10",
            "type": "t_uint256"
          },
          {
            "astId": 15321,
            "contract": "contracts/OFPredictionsHouse.sol:OFPredictionsHouse",
            "label": "oracleCalled",
            "offset": 0,
            "slot": "11",
            "type": "t_bool"
          },
          {
            "astId": 15323,
            "contract": "contracts/OFPredictionsHouse.sol:OFPredictionsHouse",
            "label": "ifRefundable",
            "offset": 1,
            "slot": "11",
            "type": "t_bool"
          }
        ],
        "numberOfBytes": "384"
      },
      "t_uint256": {
        "encoding": "inplace",
        "label": "uint256",
        "numberOfBytes": "32"
      }
    }
  }
}