{
  "address": "0x2ed5934420978fF9b47938DD0dD898dC9e2f6c56",
  "abi": [
    {
      "anonymous": false,
      "inputs": [
        {
          "indexed": false,
          "internalType": "address",
          "name": "previousAdmin",
          "type": "address"
        },
        {
          "indexed": false,
          "internalType": "address",
          "name": "newAdmin",
          "type": "address"
        }
      ],
      "name": "AdminChanged",
      "type": "event"
    },
    {
      "anonymous": false,
      "inputs": [
        {
          "indexed": false,
          "internalType": "address",
          "name": "_admin",
          "type": "address"
        }
      ],
      "name": "AdminUpdated",
      "type": "event"
    },
    {
      "anonymous": false,
      "inputs": [
        {
          "indexed": true,
          "internalType": "address",
          "name": "owner",
          "type": "address"
        },
        {
          "indexed": true,
          "internalType": "address",
          "name": "spender",
          "type": "address"
        },
        {
          "indexed": false,
          "internalType": "uint256",
          "name": "value",
          "type": "uint256"
        }
      ],
      "name": "Approval",
      "type": "event"
    },
    {
      "anonymous": false,
      "inputs": [
        {
          "indexed": true,
          "internalType": "address",
          "name": "beacon",
          "type": "address"
        }
      ],
      "name": "BeaconUpgraded",
      "type": "event"
    },
    {
      "anonymous": false,
      "inputs": [
        {
          "indexed": true,
          "internalType": "address",
          "name": "previousOwner",
          "type": "address"
        },
        {
          "indexed": true,
          "internalType": "address",
          "name": "newOwner",
          "type": "address"
        }
      ],
      "name": "OwnershipTransferred",
      "type": "event"
    },
    {
      "anonymous": false,
      "inputs": [
        {
          "indexed": true,
          "internalType": "address",
          "name": "from",
          "type": "address"
        },
        {
          "indexed": true,
          "internalType": "address",
          "name": "to",
          "type": "address"
        },
        {
          "indexed": false,
          "internalType": "uint256",
          "name": "value",
          "type": "uint256"
        }
      ],
      "name": "Transfer",
      "type": "event"
    },
    {
      "anonymous": false,
      "inputs": [
        {
          "indexed": true,
          "internalType": "address",
          "name": "implementation",
          "type": "address"
        }
      ],
      "name": "Upgraded",
      "type": "event"
    },
    {
      "inputs": [
        {
          "internalType": "address",
          "name": "_contract",
          "type": "address"
        }
      ],
      "name": "allowContract",
      "outputs": [],
      "stateMutability": "nonpayable",
      "type": "function"
    },
    {
      "inputs": [
        {
          "internalType": "address",
          "name": "owner",
          "type": "address"
        },
        {
          "internalType": "address",
          "name": "spender",
          "type": "address"
        }
      ],
      "name": "allowance",
      "outputs": [
        {
          "internalType": "uint256",
          "name": "",
          "type": "uint256"
        }
      ],
      "stateMutability": "view",
      "type": "function"
    },
    {
      "inputs": [
        {
          "internalType": "address",
          "name": "spender",
          "type": "address"
        },
        {
          "internalType": "uint256",
          "name": "amount",
          "type": "uint256"
        }
      ],
      "name": "approve",
      "outputs": [
        {
          "internalType": "bool",
          "name": "",
          "type": "bool"
        }
      ],
      "stateMutability": "nonpayable",
      "type": "function"
    },
    {
      "inputs": [
        {
          "internalType": "address",
          "name": "account",
          "type": "address"
        }
      ],
      "name": "balanceOf",
      "outputs": [
        {
          "internalType": "uint256",
          "name": "",
          "type": "uint256"
        }
      ],
      "stateMutability": "view",
      "type": "function"
    },
    {
      "inputs": [
        {
          "internalType": "address",
          "name": "owner",
          "type": "address"
        },
        {
          "internalType": "uint256",
          "name": "amount",
          "type": "uint256"
        }
      ],
      "name": "burn",
      "outputs": [],
      "stateMutability": "nonpayable",
      "type": "function"
    },
    {
      "inputs": [],
      "name": "decimals",
      "outputs": [
        {
          "internalType": "uint8",
          "name": "",
          "type": "uint8"
        }
      ],
      "stateMutability": "view",
      "type": "function"
    },
    {
      "inputs": [
        {
          "internalType": "address",
          "name": "spender",
          "type": "address"
        },
        {
          "internalType": "uint256",
          "name": "subtractedValue",
          "type": "uint256"
        }
      ],
      "name": "decreaseAllowance",
      "outputs": [
        {
          "internalType": "bool",
          "name": "",
          "type": "bool"
        }
      ],
      "stateMutability": "nonpayable",
      "type": "function"
    },
    {
      "inputs": [
        {
          "internalType": "address",
          "name": "_contract",
          "type": "address"
        }
      ],
      "name": "disAllowContract",
      "outputs": [],
      "stateMutability": "nonpayable",
      "type": "function"
    },
    {
      "inputs": [
        {
          "internalType": "address",
          "name": "spender",
          "type": "address"
        },
        {
          "internalType": "uint256",
          "name": "addedValue",
          "type": "uint256"
        }
      ],
      "name": "increaseAllowance",
      "outputs": [
        {
          "internalType": "bool",
          "name": "",
          "type": "bool"
        }
      ],
      "stateMutability": "nonpayable",
      "type": "function"
    },
    {
      "inputs": [],
      "name": "initialize",
      "outputs": [],
      "stateMutability": "nonpayable",
      "type": "function"
    },
    {
      "inputs": [
        {
          "internalType": "address",
          "name": "_contract",
          "type": "address"
        }
      ],
      "name": "isAllowedContract",
      "outputs": [
        {
          "internalType": "bool",
          "name": "",
          "type": "bool"
        }
      ],
      "stateMutability": "view",
      "type": "function"
    },
    {
      "inputs": [
        {
          "internalType": "address",
          "name": "to",
          "type": "address"
        },
        {
          "internalType": "uint256",
          "name": "amount",
          "type": "uint256"
        }
      ],
      "name": "mint",
      "outputs": [],
      "stateMutability": "nonpayable",
      "type": "function"
    },
    {
      "inputs": [],
      "name": "name",
      "outputs": [
        {
          "internalType": "string",
          "name": "",
          "type": "string"
        }
      ],
      "stateMutability": "view",
      "type": "function"
    },
    {
      "inputs": [],
      "name": "owner",
      "outputs": [
        {
          "internalType": "address",
          "name": "",
          "type": "address"
        }
      ],
      "stateMutability": "view",
      "type": "function"
    },
    {
      "inputs": [],
      "name": "proxiableUUID",
      "outputs": [
        {
          "internalType": "bytes32",
          "name": "",
          "type": "bytes32"
        }
      ],
      "stateMutability": "view",
      "type": "function"
    },
    {
      "inputs": [],
      "name": "renounceOwnership",
      "outputs": [],
      "stateMutability": "nonpayable",
      "type": "function"
    },
    {
      "inputs": [],
      "name": "symbol",
      "outputs": [
        {
          "internalType": "string",
          "name": "",
          "type": "string"
        }
      ],
      "stateMutability": "view",
      "type": "function"
    },
    {
      "inputs": [],
      "name": "totalSupply",
      "outputs": [
        {
          "internalType": "uint256",
          "name": "",
          "type": "uint256"
        }
      ],
      "stateMutability": "view",
      "type": "function"
    },
    {
      "inputs": [
        {
          "internalType": "address",
          "name": "to",
          "type": "address"
        },
        {
          "internalType": "uint256",
          "name": "amount",
          "type": "uint256"
        }
      ],
      "name": "transfer",
      "outputs": [
        {
          "internalType": "bool",
          "name": "",
          "type": "bool"
        }
      ],
      "stateMutability": "nonpayable",
      "type": "function"
    },
    {
      "inputs": [
        {
          "internalType": "address",
          "name": "from",
          "type": "address"
        },
        {
          "internalType": "address",
          "name": "to",
          "type": "address"
        },
        {
          "internalType": "uint256",
          "name": "amount",
          "type": "uint256"
        }
      ],
      "name": "transferFrom",
      "outputs": [
        {
          "internalType": "bool",
          "name": "",
          "type": "bool"
        }
      ],
      "stateMutability": "nonpayable",
      "type": "function"
    },
    {
      "inputs": [
        {
          "internalType": "address",
          "name": "newOwner",
          "type": "address"
        }
      ],
      "name": "transferOwnership",
      "outputs": [],
      "stateMutability": "nonpayable",
      "type": "function"
    },
    {
      "inputs": [
        {
          "internalType": "address",
          "name": "newAdmin",
          "type": "address"
        }
      ],
      "name": "updateAdmin",
      "outputs": [],
      "stateMutability": "nonpayable",
      "type": "function"
    },
    {
      "inputs": [
        {
          "internalType": "address",
          "name": "newImplementation",
          "type": "address"
        }
      ],
      "name": "upgradeTo",
      "outputs": [],
      "stateMutability": "nonpayable",
      "type": "function"
    },
    {
      "inputs": [
        {
          "internalType": "address",
          "name": "newImplementation",
          "type": "address"
        },
        {
          "internalType": "bytes",
          "name": "data",
          "type": "bytes"
        }
      ],
      "name": "upgradeToAndCall",
      "outputs": [],
      "stateMutability": "payable",
      "type": "function"
    }
  ],
  "transactionHash": "0x015c9ead1ed3b3bb2c26834b951aaf57a94ffd9408003178fd566e3ebae45cf8",
  "args": [],
  "numDeployments": 1,
  "solcInputHash": "ab20f7579c850e0fbcbcfcb1ce50b5a1",
  "bytecode": "0x60a06040523060601b60805234801561001757600080fd5b5060805160601c6121806100526000396000818161058e01528181610618015281816107980152818161081d01526108da01526121806000f3fe60806040526004361061018b5760003560e01c80638129fc1c116100d6578063c3553d871161007f578063f2fde38b11610059578063f2fde38b14610453578063f43b855514610473578063f6bd02fa1461049357600080fd5b8063c3553d87146103cd578063dd62ed3e146103ed578063e2f273bd1461043357600080fd5b80639dc29fac116100b05780639dc29fac1461036d578063a457c2d71461038d578063a9059cbb146103ad57600080fd5b80638129fc1c1461031b5780638da5cb5b1461033057806395d89b411461035857600080fd5b8063395093511161013857806352d1902d1161011257806352d1902d146102bb57806370a08231146102d0578063715018a61461030657600080fd5b8063395093511461026857806340c10f19146102885780634f1ef286146102a857600080fd5b806323b872dd1161016957806323b872dd1461020a578063313ce5671461022a5780633659cfe61461024657600080fd5b806306fdde0314610190578063095ea7b3146101bb57806318160ddd146101eb575b600080fd5b34801561019c57600080fd5b506101a56104b3565b6040516101b2919061202e565b60405180910390f35b3480156101c757600080fd5b506101db6101d6366004611fd1565b610545565b60405190151581526020016101b2565b3480156101f757600080fd5b506099545b6040519081526020016101b2565b34801561021657600080fd5b506101db610225366004611ed9565b61055d565b34801561023657600080fd5b50604051601281526020016101b2565b34801561025257600080fd5b50610266610261366004611e8d565b610583565b005b34801561027457600080fd5b506101db610283366004611fd1565b6106db565b34801561029457600080fd5b506102666102a3366004611fd1565b61071a565b6102666102b6366004611f14565b61078d565b3480156102c757600080fd5b506101fc6108cd565b3480156102dc57600080fd5b506101fc6102eb366004611e8d565b6001600160a01b031660009081526097602052604090205490565b34801561031257600080fd5b50610266610992565b34801561032757600080fd5b506102666109f8565b34801561033c57600080fd5b5060c9546040516001600160a01b0390911681526020016101b2565b34801561036457600080fd5b506101a5610b64565b34801561037957600080fd5b50610266610388366004611fd1565b610b73565b34801561039957600080fd5b506101db6103a8366004611fd1565b610be2565b3480156103b957600080fd5b506101db6103c8366004611fd1565b610c97565b3480156103d957600080fd5b506102666103e8366004611e8d565b610ca5565b3480156103f957600080fd5b506101fc610408366004611ea7565b6001600160a01b03918216600090815260986020908152604080832093909416825291909152205490565b34801561043f57600080fd5b5061026661044e366004611e8d565b610d20565b34801561045f57600080fd5b5061026661046e366004611e8d565b610d7f565b34801561047f57600080fd5b506101db61048e366004611e8d565b610e47565b34801561049f57600080fd5b506102666104ae366004611e8d565b610e7d565b6060609a80546104c2906120bc565b80601f01602080910402602001604051908101604052809291908181526020018280546104ee906120bc565b801561053b5780601f106105105761010080835404028352916020019161053b565b820191906000526020600020905b81548152906001019060200180831161051e57829003601f168201915b5050505050905090565b600033610553818585610efb565b5060019392505050565b60003361056b858285611053565b6105768585856110e5565b60019150505b9392505050565b306001600160a01b037f00000000000000000000000000000000000000000000000000000000000000001614156106165760405162461bcd60e51b815260206004820152602c60248201527f46756e6374696f6e206d7573742062652063616c6c6564207468726f7567682060448201526b19195b1959d85d1958d85b1b60a21b60648201526084015b60405180910390fd5b7f00000000000000000000000000000000000000000000000000000000000000006001600160a01b03166106486112fc565b6001600160a01b0316146106b35760405162461bcd60e51b815260206004820152602c60248201527f46756e6374696f6e206d7573742062652063616c6c6564207468726f7567682060448201526b6163746976652070726f787960a01b606482015260840161060d565b6106bc8161132f565b604080516000808252602082019092526106d891839190611389565b50565b3360008181526098602090815260408083206001600160a01b03871684529091528120549091906105539082908690610715908790612061565b610efb565b61072333610e47565b61077f5760405162461bcd60e51b815260206004820152602760248201527f426f6c64546f6b656e202d20546869732061646472657373206973206e6f7420604482015266185b1b1bddd95960ca1b606482015260840161060d565b610789828261153d565b5050565b306001600160a01b037f000000000000000000000000000000000000000000000000000000000000000016141561081b5760405162461bcd60e51b815260206004820152602c60248201527f46756e6374696f6e206d7573742062652063616c6c6564207468726f7567682060448201526b19195b1959d85d1958d85b1b60a21b606482015260840161060d565b7f00000000000000000000000000000000000000000000000000000000000000006001600160a01b031661084d6112fc565b6001600160a01b0316146108b85760405162461bcd60e51b815260206004820152602c60248201527f46756e6374696f6e206d7573742062652063616c6c6564207468726f7567682060448201526b6163746976652070726f787960a01b606482015260840161060d565b6108c18261132f565b61078982826001611389565b6000306001600160a01b037f0000000000000000000000000000000000000000000000000000000000000000161461096d5760405162461bcd60e51b815260206004820152603860248201527f555550535570677261646561626c653a206d757374206e6f742062652063616c60448201527f6c6564207468726f7567682064656c656761746563616c6c0000000000000000606482015260840161060d565b507f360894a13ba1a3210667c828492db98dca3e2076cc3735a920a3ca505d382bbc90565b60c9546001600160a01b031633146109ec5760405162461bcd60e51b815260206004820181905260248201527f4f776e61626c653a2063616c6c6572206973206e6f7420746865206f776e6572604482015260640161060d565b6109f6600061161c565b565b600054610100900460ff16610a135760005460ff1615610a17565b303b155b610a895760405162461bcd60e51b815260206004820152602e60248201527f496e697469616c697a61626c653a20636f6e747261637420697320616c72656160448201527f647920696e697469616c697a6564000000000000000000000000000000000000606482015260840161060d565b600054610100900460ff16158015610aab576000805461ffff19166101011790555b610ab361167b565b610abb6116ee565b610b2f6040518060400160405280600a81526020017f424f4c4420544f4b454e000000000000000000000000000000000000000000008152506040518060400160405280600481526020017f424f4c4400000000000000000000000000000000000000000000000000000000815250611759565b610b38336117ce565b610b50336d04ee2d6d415b85acef810000000061153d565b80156106d8576000805461ff001916905550565b6060609b80546104c2906120bc565b610b7c33610e47565b610bd85760405162461bcd60e51b815260206004820152602760248201527f426f6c64546f6b656e202d20546869732061646472657373206973206e6f7420604482015266185b1b1bddd95960ca1b606482015260840161060d565b6107898282611822565b3360008181526098602090815260408083206001600160a01b038716845290915281205490919083811015610c7f5760405162461bcd60e51b815260206004820152602560248201527f45524332303a2064656372656173656420616c6c6f77616e63652062656c6f7760448201527f207a65726f000000000000000000000000000000000000000000000000000000606482015260840161060d565b610c8c8286868403610efb565b506001949350505050565b6000336105538185856110e5565b60c9546001600160a01b03163314610cff5760405162461bcd60e51b815260206004820181905260248201527f4f776e61626c653a2063616c6c6572206973206e6f7420746865206f776e6572604482015260640161060d565b6001600160a01b0316600090815260fb60205260409020805460ff19169055565b60c9546001600160a01b03163314610d7a5760405162461bcd60e51b815260206004820181905260248201527f4f776e61626c653a2063616c6c6572206973206e6f7420746865206f776e6572604482015260640161060d565b6106d8815b60c9546001600160a01b03163314610dd95760405162461bcd60e51b815260206004820181905260248201527f4f776e61626c653a2063616c6c6572206973206e6f7420746865206f776e6572604482015260640161060d565b6001600160a01b038116610e3e5760405162461bcd60e51b815260206004820152602660248201527f4f776e61626c653a206e6577206f776e657220697320746865207a65726f206160448201526564647265737360d01b606482015260840161060d565b6106d88161161c565b6001600160a01b038116600090815260fb602052604081205460ff16151560011415610e7557506001919050565b506000919050565b60c9546001600160a01b03163314610ed75760405162461bcd60e51b815260206004820181905260248201527f4f776e61626c653a2063616c6c6572206973206e6f7420746865206f776e6572604482015260640161060d565b6001600160a01b0316600090815260fb60205260409020805460ff19166001179055565b6001600160a01b038316610f765760405162461bcd60e51b8152602060048201526024808201527f45524332303a20617070726f76652066726f6d20746865207a65726f2061646460448201527f7265737300000000000000000000000000000000000000000000000000000000606482015260840161060d565b6001600160a01b038216610ff25760405162461bcd60e51b815260206004820152602260248201527f45524332303a20617070726f766520746f20746865207a65726f20616464726560448201527f7373000000000000000000000000000000000000000000000000000000000000606482015260840161060d565b6001600160a01b0383811660008181526098602090815260408083209487168084529482529182902085905590518481527f8c5be1e5ebec7d5bd14f71427d1e84f3dd0314c0f7b2291e5b200ac8c7c3b925910160405180910390a3505050565b6001600160a01b0383811660009081526098602090815260408083209386168352929052205460001981146110df57818110156110d25760405162461bcd60e51b815260206004820152601d60248201527f45524332303a20696e73756666696369656e7420616c6c6f77616e6365000000604482015260640161060d565b6110df8484848403610efb565b50505050565b6001600160a01b0383166111615760405162461bcd60e51b815260206004820152602560248201527f45524332303a207472616e736665722066726f6d20746865207a65726f20616460448201527f6472657373000000000000000000000000000000000000000000000000000000606482015260840161060d565b6001600160a01b0382166111dd5760405162461bcd60e51b815260206004820152602360248201527f45524332303a207472616e7366657220746f20746865207a65726f206164647260448201527f6573730000000000000000000000000000000000000000000000000000000000606482015260840161060d565b6001600160a01b0383166000908152609760205260409020548181101561126c5760405162461bcd60e51b815260206004820152602660248201527f45524332303a207472616e7366657220616d6f756e742065786365656473206260448201527f616c616e63650000000000000000000000000000000000000000000000000000606482015260840161060d565b6001600160a01b038085166000908152609760205260408082208585039055918516815290812080548492906112a3908490612061565b92505081905550826001600160a01b0316846001600160a01b03167fddf252ad1be2c89b69c2b068fc378daa952ba7f163c4a11628f55a4df523b3ef846040516112ef91815260200190565b60405180910390a36110df565b60007f360894a13ba1a3210667c828492db98dca3e2076cc3735a920a3ca505d382bbc5b546001600160a01b0316919050565b60c9546001600160a01b031633146106d85760405162461bcd60e51b815260206004820181905260248201527f4f776e61626c653a2063616c6c6572206973206e6f7420746865206f776e6572604482015260640161060d565b7f4910fdfa16fed3260ed0e7147f7cc6da11a60208b5b9406d12a635614ffd91435460ff16156113c1576113bc836119a7565b505050565b826001600160a01b03166352d1902d6040518163ffffffff1660e01b815260040160206040518083038186803b1580156113fa57600080fd5b505afa92505050801561142a575060408051601f3d908101601f1916820190925261142791810190611ffa565b60015b61149c5760405162461bcd60e51b815260206004820152602e60248201527f45524331393637557067726164653a206e657720696d706c656d656e7461746960448201527f6f6e206973206e6f742055555053000000000000000000000000000000000000606482015260840161060d565b7f360894a13ba1a3210667c828492db98dca3e2076cc3735a920a3ca505d382bbc81146115315760405162461bcd60e51b815260206004820152602960248201527f45524331393637557067726164653a20756e737570706f727465642070726f7860448201527f6961626c65555549440000000000000000000000000000000000000000000000606482015260840161060d565b506113bc838383611a75565b6001600160a01b0382166115935760405162461bcd60e51b815260206004820152601f60248201527f45524332303a206d696e7420746f20746865207a65726f206164647265737300604482015260640161060d565b80609960008282546115a59190612061565b90915550506001600160a01b038216600090815260976020526040812080548392906115d2908490612061565b90915550506040518181526001600160a01b038316906000907fddf252ad1be2c89b69c2b068fc378daa952ba7f163c4a11628f55a4df523b3ef9060200160405180910390a35050565b60c980546001600160a01b0383811673ffffffffffffffffffffffffffffffffffffffff19831681179093556040519116919082907f8be0079c531659141344cd1fd0a4f28419497f9722a3daafe3b4186f6b6457e090600090a35050565b600054610100900460ff166116e65760405162461bcd60e51b815260206004820152602b60248201527f496e697469616c697a61626c653a20636f6e7472616374206973206e6f74206960448201526a6e697469616c697a696e6760a81b606482015260840161060d565b6109f6611a9a565b600054610100900460ff166109f65760405162461bcd60e51b815260206004820152602b60248201527f496e697469616c697a61626c653a20636f6e7472616374206973206e6f74206960448201526a6e697469616c697a696e6760a81b606482015260840161060d565b600054610100900460ff166117c45760405162461bcd60e51b815260206004820152602b60248201527f496e697469616c697a61626c653a20636f6e7472616374206973206e6f74206960448201526a6e697469616c697a696e6760a81b606482015260840161060d565b6107898282611b0e565b7f7e644d79422f17c01e4894b5f4f588d331ebfa28653d42ae832dc59e38c9798f6117f7611ba0565b604080516001600160a01b03928316815291841660208301520160405180910390a16106d881611bc8565b6001600160a01b03821661189e5760405162461bcd60e51b815260206004820152602160248201527f45524332303a206275726e2066726f6d20746865207a65726f2061646472657360448201527f7300000000000000000000000000000000000000000000000000000000000000606482015260840161060d565b6001600160a01b0382166000908152609760205260409020548181101561192d5760405162461bcd60e51b815260206004820152602260248201527f45524332303a206275726e20616d6f756e7420657863656564732062616c616e60448201527f6365000000000000000000000000000000000000000000000000000000000000606482015260840161060d565b6001600160a01b038316600090815260976020526040812083830390556099805484929061195c908490612079565b90915550506040518281526000906001600160a01b038516907fddf252ad1be2c89b69c2b068fc378daa952ba7f163c4a11628f55a4df523b3ef9060200160405180910390a3505050565b6001600160a01b0381163b611a245760405162461bcd60e51b815260206004820152602d60248201527f455243313936373a206e657720696d706c656d656e746174696f6e206973206e60448201527f6f74206120636f6e747261637400000000000000000000000000000000000000606482015260840161060d565b807f360894a13ba1a3210667c828492db98dca3e2076cc3735a920a3ca505d382bbc5b805473ffffffffffffffffffffffffffffffffffffffff19166001600160a01b039290921691909117905550565b611a7e83611c54565b600082511180611a8b5750805b156113bc576110df8383611c94565b600054610100900460ff16611b055760405162461bcd60e51b815260206004820152602b60248201527f496e697469616c697a61626c653a20636f6e7472616374206973206e6f74206960448201526a6e697469616c697a696e6760a81b606482015260840161060d565b6109f63361161c565b600054610100900460ff16611b795760405162461bcd60e51b815260206004820152602b60248201527f496e697469616c697a61626c653a20636f6e7472616374206973206e6f74206960448201526a6e697469616c697a696e6760a81b606482015260840161060d565b8151611b8c90609a906020850190611dd8565b5080516113bc90609b906020840190611dd8565b60007fb53127684a568b3173ae13b9f8a6016e243e63b6e8ee1178d6a717850b5d6103611320565b6001600160a01b038116611c2d5760405162461bcd60e51b815260206004820152602660248201527f455243313936373a206e65772061646d696e20697320746865207a65726f206160448201526564647265737360d01b606482015260840161060d565b807fb53127684a568b3173ae13b9f8a6016e243e63b6e8ee1178d6a717850b5d6103611a47565b611c5d816119a7565b6040516001600160a01b038216907fbc7cd75a20ee27fd9adebab32041f755214dbc6bffa90cc0225b39da2e5c2d3b90600090a250565b60606001600160a01b0383163b611d135760405162461bcd60e51b815260206004820152602660248201527f416464726573733a2064656c65676174652063616c6c20746f206e6f6e2d636f60448201527f6e74726163740000000000000000000000000000000000000000000000000000606482015260840161060d565b600080846001600160a01b031684604051611d2e9190612012565b600060405180830381855af49150503d8060008114611d69576040519150601f19603f3d011682016040523d82523d6000602084013e611d6e565b606091505b5091509150611d96828260405180606001604052806027815260200161212460279139611d9f565b95945050505050565b60608315611dae57508161057c565b825115611dbe5782518084602001fd5b8160405162461bcd60e51b815260040161060d919061202e565b828054611de4906120bc565b90600052602060002090601f016020900481019282611e065760008555611e4c565b82601f10611e1f57805160ff1916838001178555611e4c565b82800160010185558215611e4c579182015b82811115611e4c578251825591602001919060010190611e31565b50611e58929150611e5c565b5090565b5b80821115611e585760008155600101611e5d565b80356001600160a01b0381168114611e8857600080fd5b919050565b600060208284031215611e9e578081fd5b61057c82611e71565b60008060408385031215611eb9578081fd5b611ec283611e71565b9150611ed060208401611e71565b90509250929050565b600080600060608486031215611eed578081fd5b611ef684611e71565b9250611f0460208501611e71565b9150604084013590509250925092565b60008060408385031215611f26578182fd5b611f2f83611e71565b9150602083013567ffffffffffffffff80821115611f4b578283fd5b818501915085601f830112611f5e578283fd5b813581811115611f7057611f7061210d565b604051601f8201601f19908116603f01168101908382118183101715611f9857611f9861210d565b81604052828152886020848701011115611fb0578586fd5b82602086016020830137856020848301015280955050505050509250929050565b60008060408385031215611fe3578182fd5b611fec83611e71565b946020939093013593505050565b60006020828403121561200b578081fd5b5051919050565b60008251612024818460208701612090565b9190910192915050565b602081526000825180602084015261204d816040850160208701612090565b601f01601f19169190910160400192915050565b60008219821115612074576120746120f7565b500190565b60008282101561208b5761208b6120f7565b500390565b60005b838110156120ab578181015183820152602001612093565b838111156110df5750506000910152565b600181811c908216806120d057607f821691505b602082108114156120f157634e487b7160e01b600052602260045260246000fd5b50919050565b634e487b7160e01b600052601160045260246000fd5b634e487b7160e01b600052604160045260246000fdfe416464726573733a206c6f772d6c6576656c2064656c65676174652063616c6c206661696c6564a2646970667358221220145e28950dacbb1db976bed5802c4f7bc44c9903eec3e0fc4975084f2ef25e5d64736f6c63430008040033",
  "devdoc": {
    "kind": "dev",
    "methods": {
      "allowance(address,address)": {
        "details": "See {IERC20-allowance}."
      },
      "approve(address,uint256)": {
        "details": "See {IERC20-approve}. NOTE: If `amount` is the maximum `uint256`, the allowance is not updated on `transferFrom`. This is semantically equivalent to an infinite approval. Requirements: - `spender` cannot be the zero address."
      },
      "balanceOf(address)": {
        "details": "See {IERC20-balanceOf}."
      },
      "decimals()": {
        "details": "Returns the number of decimals used to get its user representation. For example, if `decimals` equals `2`, a balance of `505` tokens should be displayed to a user as `5.05` (`505 / 10 ** 2`). Tokens usually opt for a value of 18, imitating the relationship between Ether and Wei. This is the value {ERC20} uses, unless this function is overridden; NOTE: This information is only used for _display_ purposes: it in no way affects any of the arithmetic of the contract, including {IERC20-balanceOf} and {IERC20-transfer}."
      },
      "decreaseAllowance(address,uint256)": {
        "details": "Atomically decreases the allowance granted to `spender` by the caller. This is an alternative to {approve} that can be used as a mitigation for problems described in {IERC20-approve}. Emits an {Approval} event indicating the updated allowance. Requirements: - `spender` cannot be the zero address. - `spender` must have allowance for the caller of at least `subtractedValue`."
      },
      "increaseAllowance(address,uint256)": {
        "details": "Atomically increases the allowance granted to `spender` by the caller. This is an alternative to {approve} that can be used as a mitigation for problems described in {IERC20-approve}. Emits an {Approval} event indicating the updated allowance. Requirements: - `spender` cannot be the zero address."
      },
      "initialize()": {
        "details": "initialize proxied contract."
      },
      "name()": {
        "details": "Returns the name of the token."
      },
      "owner()": {
        "details": "Returns the address of the current owner."
      },
      "proxiableUUID()": {
        "details": "Implementation of the ERC1822 {proxiableUUID} function. This returns the storage slot used by the implementation. It is used to validate that the this implementation remains valid after an upgrade. IMPORTANT: A proxy pointing at a proxiable contract should not be considered proxiable itself, because this risks bricking a proxy that upgrades to it, by delegating to itself until out of gas. Thus it is critical that this function revert if invoked through a proxy. This is guaranteed by the `notDelegated` modifier."
      },
      "renounceOwnership()": {
        "details": "Leaves the contract without owner. It will not be possible to call `onlyOwner` functions anymore. Can only be called by the current owner. NOTE: Renouncing ownership will leave the contract without an owner, thereby removing any functionality that is only available to the owner."
      },
      "symbol()": {
        "details": "Returns the symbol of the token, usually a shorter version of the name."
      },
      "totalSupply()": {
        "details": "See {IERC20-totalSupply}."
      },
      "transfer(address,uint256)": {
        "details": "See {IERC20-transfer}. Requirements: - `to` cannot be the zero address. - the caller must have a balance of at least `amount`."
      },
      "transferFrom(address,address,uint256)": {
        "details": "See {IERC20-transferFrom}. Emits an {Approval} event indicating the updated allowance. This is not required by the EIP. See the note at the beginning of {ERC20}. NOTE: Does not update the allowance if the current allowance is the maximum `uint256`. Requirements: - `from` and `to` cannot be the zero address. - `from` must have a balance of at least `amount`. - the caller must have allowance for ``from``'s tokens of at least `amount`."
      },
      "transferOwnership(address)": {
        "details": "Transfers ownership of the contract to a new account (`newOwner`). Can only be called by the current owner."
      },
      "upgradeTo(address)": {
        "details": "Upgrade the implementation of the proxy to `newImplementation`. Calls {_authorizeUpgrade}. Emits an {Upgraded} event."
      },
      "upgradeToAndCall(address,bytes)": {
        "details": "Upgrade the implementation of the proxy to `newImplementation`, and subsequently execute the function call encoded in `data`. Calls {_authorizeUpgrade}. Emits an {Upgraded} event."
      }
    },
    "version": 1
  },
  "userdoc": {
    "kind": "user",
    "methods": {},
    "version": 1
  },
  "storageLayout": {
    "storage": [
      {
        "astId": 519,
        "contract": "contracts/BoldToken.sol:BoldToken",
        "label": "_initialized",
        "offset": 0,
        "slot": "0",
        "type": "t_bool"
      },
      {
        "astId": 522,
        "contract": "contracts/BoldToken.sol:BoldToken",
        "label": "_initializing",
        "offset": 1,
        "slot": "0",
        "type": "t_bool"
      },
      {
        "astId": 501,
        "contract": "contracts/BoldToken.sol:BoldToken",
        "label": "__gap",
        "offset": 0,
        "slot": "1",
        "type": "t_array(t_uint256)50_storage"
      },
      {
        "astId": 721,
        "contract": "contracts/BoldToken.sol:BoldToken",
        "label": "__gap",
        "offset": 0,
        "slot": "51",
        "type": "t_array(t_uint256)50_storage"
      },
      {
        "astId": 2116,
        "contract": "contracts/BoldToken.sol:BoldToken",
        "label": "__gap",
        "offset": 0,
        "slot": "101",
        "type": "t_array(t_uint256)50_storage"
      },
      {
        "astId": 911,
        "contract": "contracts/BoldToken.sol:BoldToken",
        "label": "_balances",
        "offset": 0,
        "slot": "151",
        "type": "t_mapping(t_address,t_uint256)"
      },
      {
        "astId": 917,
        "contract": "contracts/BoldToken.sol:BoldToken",
        "label": "_allowances",
        "offset": 0,
        "slot": "152",
        "type": "t_mapping(t_address,t_mapping(t_address,t_uint256))"
      },
      {
        "astId": 919,
        "contract": "contracts/BoldToken.sol:BoldToken",
        "label": "_totalSupply",
        "offset": 0,
        "slot": "153",
        "type": "t_uint256"
      },
      {
        "astId": 921,
        "contract": "contracts/BoldToken.sol:BoldToken",
        "label": "_name",
        "offset": 0,
        "slot": "154",
        "type": "t_string_storage"
      },
      {
        "astId": 923,
        "contract": "contracts/BoldToken.sol:BoldToken",
        "label": "_symbol",
        "offset": 0,
        "slot": "155",
        "type": "t_string_storage"
      },
      {
        "astId": 1504,
        "contract": "contracts/BoldToken.sol:BoldToken",
        "label": "__gap",
        "offset": 0,
        "slot": "156",
        "type": "t_array(t_uint256)45_storage"
      },
      {
        "astId": 10,
        "contract": "contracts/BoldToken.sol:BoldToken",
        "label": "_owner",
        "offset": 0,
        "slot": "201",
        "type": "t_address"
      },
      {
        "astId": 122,
        "contract": "contracts/BoldToken.sol:BoldToken",
        "label": "__gap",
        "offset": 0,
        "slot": "202",
        "type": "t_array(t_uint256)49_storage"
      },
      {
        "astId": 4296,
        "contract": "contracts/BoldToken.sol:BoldToken",
        "label": "allowedcontracts",
        "offset": 0,
        "slot": "251",
        "type": "t_mapping(t_address,t_bool)"
      }
    ],
    "types": {
      "t_address": {
        "encoding": "inplace",
        "label": "address",
        "numberOfBytes": "20"
      },
      "t_array(t_uint256)45_storage": {
        "base": "t_uint256",
        "encoding": "inplace",
        "label": "uint256[45]",
        "numberOfBytes": "1440"
      },
      "t_array(t_uint256)49_storage": {
        "base": "t_uint256",
        "encoding": "inplace",
        "label": "uint256[49]",
        "numberOfBytes": "1568"
      },
      "t_array(t_uint256)50_storage": {
        "base": "t_uint256",
        "encoding": "inplace",
        "label": "uint256[50]",
        "numberOfBytes": "1600"
      },
      "t_bool": {
        "encoding": "inplace",
        "label": "bool",
        "numberOfBytes": "1"
      },
      "t_mapping(t_address,t_bool)": {
        "encoding": "mapping",
        "key": "t_address",
        "label": "mapping(address => bool)",
        "numberOfBytes": "32",
        "value": "t_bool"
      },
      "t_mapping(t_address,t_mapping(t_address,t_uint256))": {
        "encoding": "mapping",
        "key": "t_address",
        "label": "mapping(address => mapping(address => uint256))",
        "numberOfBytes": "32",
        "value": "t_mapping(t_address,t_uint256)"
      },
      "t_mapping(t_address,t_uint256)": {
        "encoding": "mapping",
        "key": "t_address",
        "label": "mapping(address => uint256)",
        "numberOfBytes": "32",
        "value": "t_uint256"
      },
      "t_string_storage": {
        "encoding": "bytes",
        "label": "string",
        "numberOfBytes": "32"
      },
      "t_uint256": {
        "encoding": "inplace",
        "label": "uint256",
        "numberOfBytes": "32"
      }
    }
  }
}