{
  "address": "0x56Ac0f2633386e31Ca3042cD361604539c4Bf781",
  "abi": [
    {
      "anonymous": false,
      "inputs": [
        {
          "indexed": false,
          "internalType": "address",
          "name": "previousAdmin",
          "type": "address"
        },
        {
          "indexed": false,
          "internalType": "address",
          "name": "newAdmin",
          "type": "address"
        }
      ],
      "name": "AdminChanged",
      "type": "event"
    },
    {
      "anonymous": false,
      "inputs": [
        {
          "indexed": true,
          "internalType": "address",
          "name": "beacon",
          "type": "address"
        }
      ],
      "name": "BeaconUpgraded",
      "type": "event"
    },
    {
      "anonymous": false,
      "inputs": [
        {
          "indexed": true,
          "internalType": "address",
          "name": "previousOwner",
          "type": "address"
        },
        {
          "indexed": true,
          "internalType": "address",
          "name": "newOwner",
          "type": "address"
        }
      ],
      "name": "OwnershipTransferred",
      "type": "event"
    },
    {
      "anonymous": false,
      "inputs": [
        {
          "indexed": true,
          "internalType": "address",
          "name": "implementation",
          "type": "address"
        }
      ],
      "name": "Upgraded",
      "type": "event"
    },
    {
      "inputs": [],
      "name": "A1",
      "outputs": [
        {
          "internalType": "uint256",
          "name": "",
          "type": "uint256"
        }
      ],
      "stateMutability": "view",
      "type": "function"
    },
    {
      "inputs": [],
      "name": "A2",
      "outputs": [
        {
          "internalType": "uint256",
          "name": "",
          "type": "uint256"
        }
      ],
      "stateMutability": "view",
      "type": "function"
    },
    {
      "inputs": [],
      "name": "C1",
      "outputs": [
        {
          "internalType": "uint256",
          "name": "",
          "type": "uint256"
        }
      ],
      "stateMutability": "view",
      "type": "function"
    },
    {
      "inputs": [],
      "name": "C2",
      "outputs": [
        {
          "internalType": "uint256",
          "name": "",
          "type": "uint256"
        }
      ],
      "stateMutability": "view",
      "type": "function"
    },
    {
      "inputs": [
        {
          "internalType": "uint256",
          "name": "amount",
          "type": "uint256"
        },
        {
          "internalType": "uint256",
          "name": "ratio",
          "type": "uint256"
        }
      ],
      "name": "F0",
      "outputs": [
        {
          "internalType": "uint256",
          "name": "",
          "type": "uint256"
        }
      ],
      "stateMutability": "view",
      "type": "function"
    },
    {
      "inputs": [
        {
          "internalType": "uint256",
          "name": "amount",
          "type": "uint256"
        },
        {
          "internalType": "uint256",
          "name": "ratio",
          "type": "uint256"
        },
        {
          "internalType": "uint256",
          "name": "A",
          "type": "uint256"
        },
        {
          "internalType": "uint256",
          "name": "C",
          "type": "uint256"
        }
      ],
      "name": "F1",
      "outputs": [
        {
          "internalType": "uint256",
          "name": "",
          "type": "uint256"
        }
      ],
      "stateMutability": "view",
      "type": "function"
    },
    {
      "inputs": [
        {
          "internalType": "address",
          "name": "_token",
          "type": "address"
        },
        {
          "internalType": "address",
          "name": "_to",
          "type": "address"
        },
        {
          "internalType": "uint256",
          "name": "_amount",
          "type": "uint256"
        }
      ],
      "name": "calculateFromBold",
      "outputs": [
        {
          "internalType": "uint256",
          "name": "",
          "type": "uint256"
        }
      ],
      "stateMutability": "view",
      "type": "function"
    },
    {
      "inputs": [
        {
          "internalType": "address",
          "name": "_token",
          "type": "address"
        },
        {
          "internalType": "address",
          "name": "_to",
          "type": "address"
        },
        {
          "internalType": "uint256",
          "name": "_amount",
          "type": "uint256"
        }
      ],
      "name": "calculateToBold",
      "outputs": [
        {
          "internalType": "uint256",
          "name": "",
          "type": "uint256"
        }
      ],
      "stateMutability": "view",
      "type": "function"
    },
    {
      "inputs": [],
      "name": "decimals",
      "outputs": [
        {
          "internalType": "uint256",
          "name": "",
          "type": "uint256"
        }
      ],
      "stateMutability": "view",
      "type": "function"
    },
    {
      "inputs": [
        {
          "internalType": "uint256",
          "name": "_priceRatio",
          "type": "uint256"
        },
        {
          "internalType": "uint256",
          "name": "_ratio",
          "type": "uint256"
        },
        {
          "internalType": "uint256",
          "name": "_decimals",
          "type": "uint256"
        },
        {
          "internalType": "uint256",
          "name": "_kink1",
          "type": "uint256"
        },
        {
          "internalType": "uint256",
          "name": "_A1",
          "type": "uint256"
        },
        {
          "internalType": "uint256",
          "name": "_C1",
          "type": "uint256"
        },
        {
          "internalType": "uint256",
          "name": "_kink2",
          "type": "uint256"
        },
        {
          "internalType": "uint256",
          "name": "_A2",
          "type": "uint256"
        },
        {
          "internalType": "uint256",
          "name": "_C2",
          "type": "uint256"
        }
      ],
      "name": "initialize",
      "outputs": [],
      "stateMutability": "nonpayable",
      "type": "function"
    },
    {
      "inputs": [],
      "name": "kink1",
      "outputs": [
        {
          "internalType": "uint256",
          "name": "",
          "type": "uint256"
        }
      ],
      "stateMutability": "view",
      "type": "function"
    },
    {
      "inputs": [],
      "name": "kink2",
      "outputs": [
        {
          "internalType": "uint256",
          "name": "",
          "type": "uint256"
        }
      ],
      "stateMutability": "view",
      "type": "function"
    },
    {
      "inputs": [],
      "name": "owner",
      "outputs": [
        {
          "internalType": "address",
          "name": "",
          "type": "address"
        }
      ],
      "stateMutability": "view",
      "type": "function"
    },
    {
      "inputs": [],
      "name": "priceRatio",
      "outputs": [
        {
          "internalType": "uint256",
          "name": "",
          "type": "uint256"
        }
      ],
      "stateMutability": "view",
      "type": "function"
    },
    {
      "inputs": [],
      "name": "proxiableUUID",
      "outputs": [
        {
          "internalType": "bytes32",
          "name": "",
          "type": "bytes32"
        }
      ],
      "stateMutability": "view",
      "type": "function"
    },
    {
      "inputs": [],
      "name": "ratio",
      "outputs": [
        {
          "internalType": "uint256",
          "name": "",
          "type": "uint256"
        }
      ],
      "stateMutability": "view",
      "type": "function"
    },
    {
      "inputs": [],
      "name": "renounceOwnership",
      "outputs": [],
      "stateMutability": "nonpayable",
      "type": "function"
    },
    {
      "inputs": [
        {
          "internalType": "uint256",
          "name": "_value",
          "type": "uint256"
        }
      ],
      "name": "setA1",
      "outputs": [],
      "stateMutability": "nonpayable",
      "type": "function"
    },
    {
      "inputs": [
        {
          "internalType": "uint256",
          "name": "_value",
          "type": "uint256"
        }
      ],
      "name": "setA2",
      "outputs": [],
      "stateMutability": "nonpayable",
      "type": "function"
    },
    {
      "inputs": [
        {
          "internalType": "uint256",
          "name": "_value",
          "type": "uint256"
        }
      ],
      "name": "setC1",
      "outputs": [],
      "stateMutability": "nonpayable",
      "type": "function"
    },
    {
      "inputs": [
        {
          "internalType": "uint256",
          "name": "_value",
          "type": "uint256"
        }
      ],
      "name": "setC2",
      "outputs": [],
      "stateMutability": "nonpayable",
      "type": "function"
    },
    {
      "inputs": [
        {
          "internalType": "uint256",
          "name": "_value",
          "type": "uint256"
        }
      ],
      "name": "setDecimals",
      "outputs": [],
      "stateMutability": "nonpayable",
      "type": "function"
    },
    {
      "inputs": [
        {
          "internalType": "uint256",
          "name": "_value",
          "type": "uint256"
        }
      ],
      "name": "setKink1",
      "outputs": [],
      "stateMutability": "nonpayable",
      "type": "function"
    },
    {
      "inputs": [
        {
          "internalType": "uint256",
          "name": "_value",
          "type": "uint256"
        }
      ],
      "name": "setKink2",
      "outputs": [],
      "stateMutability": "nonpayable",
      "type": "function"
    },
    {
      "inputs": [
        {
          "internalType": "uint256",
          "name": "_value",
          "type": "uint256"
        }
      ],
      "name": "setPriceRatio",
      "outputs": [],
      "stateMutability": "nonpayable",
      "type": "function"
    },
    {
      "inputs": [
        {
          "internalType": "uint256",
          "name": "_value",
          "type": "uint256"
        }
      ],
      "name": "setRatio",
      "outputs": [],
      "stateMutability": "nonpayable",
      "type": "function"
    },
    {
      "inputs": [
        {
          "internalType": "address",
          "name": "newOwner",
          "type": "address"
        }
      ],
      "name": "transferOwnership",
      "outputs": [],
      "stateMutability": "nonpayable",
      "type": "function"
    },
    {
      "inputs": [
        {
          "internalType": "address",
          "name": "newImplementation",
          "type": "address"
        }
      ],
      "name": "upgradeTo",
      "outputs": [],
      "stateMutability": "nonpayable",
      "type": "function"
    },
    {
      "inputs": [
        {
          "internalType": "address",
          "name": "newImplementation",
          "type": "address"
        },
        {
          "internalType": "bytes",
          "name": "data",
          "type": "bytes"
        }
      ],
      "name": "upgradeToAndCall",
      "outputs": [],
      "stateMutability": "payable",
      "type": "function"
    }
  ],
  "transactionHash": "0x1cd816335d9514f3392eac8b057383f9bc0337a162479669e491572c05f728b6",
  "args": [],
  "numDeployments": 1,
  "solcInputHash": "ab20f7579c850e0fbcbcfcb1ce50b5a1",
  "bytecode": "0x60a06040523060601b60805234801561001757600080fd5b5060805160601c611a3f610052600039600081816105da0152818161065f01528181610891015281816109160152610a240152611a3f6000f3fe6080604052600436106101c25760003560e01c806352d1902d116100f75780638da5cb5b11610095578063d6c95d2011610064578063d6c95d2014610492578063f2fde38b146104b2578063f8341309146104d2578063f942132e146104e857600080fd5b80638da5cb5b14610414578063a66bf2e41461043c578063b2237ba31461045c578063d34f61141461047c57600080fd5b806365f57246116100d157806365f57246146103a8578063715018a6146103c957806371ca337d146103de5780638c8885c8146103f457600080fd5b806352d1902d1461035d5780635902c17a1461037257806364b3d6201461038857600080fd5b80633696586c1161016457806344b7795d1161013e57806344b7795d146102f45780634f1ef2861461031457806350af8cd61461032757806350d949661461033d57600080fd5b80633696586c146102945780633ce42070146102b457806344000a7e146102d457600080fd5b80631fc2044c116101a05780631fc2044c146102265780632231742e1461023c578063313ce5671461025e5780633659cfe61461027457600080fd5b80630aa2f420146101c75780630f354d16146101f05780631a8f193214610206575b600080fd5b3480156101d357600080fd5b506101dd60c95481565b6040519081526020015b60405180910390f35b3480156101fc57600080fd5b506101dd60ce5481565b34801561021257600080fd5b506101dd61022136600461173a565b610508565b34801561023257600080fd5b506101dd60d15481565b34801561024857600080fd5b5061025c610257366004611701565b61057d565b005b34801561026a57600080fd5b506101dd60cb5481565b34801561028057600080fd5b5061025c61028f3660046115d7565b6105cf565b3480156102a057600080fd5b5061025c6102af366004611701565b610722565b3480156102c057600080fd5b5061025c6102cf366004611701565b61076f565b3480156102e057600080fd5b5061025c6102ef366004611701565b6107bc565b34801561030057600080fd5b506101dd61030f3660046115f1565b610809565b61025c61032236600461162c565b610886565b34801561033357600080fd5b506101dd60cf5481565b34801561034957600080fd5b5061025c610358366004611701565b6109ca565b34801561036957600080fd5b506101dd610a17565b34801561037e57600080fd5b506101dd60d05481565b34801561039457600080fd5b506101dd6103a3366004611719565b610adc565b3480156103b457600080fd5b506101dd6103c33660046115f1565b92915050565b3480156103d557600080fd5b5061025c610b01565b3480156103ea57600080fd5b506101dd60ca5481565b34801561040057600080fd5b5061025c61040f366004611701565b610b55565b34801561042057600080fd5b506097546040516001600160a01b0390911681526020016101e7565b34801561044857600080fd5b5061025c610457366004611701565b610ba2565b34801561046857600080fd5b5061025c610477366004611701565b610bef565b34801561048857600080fd5b506101dd60cc5481565b34801561049e57600080fd5b5061025c6104ad36600461176b565b610c3c565b3480156104be57600080fd5b5061025c6104cd3660046115d7565b610d53565b3480156104de57600080fd5b506101dd60cd5481565b3480156104f457600080fd5b5061025c610503366004611701565b610e09565b600080600260cb54600a61051c9190611893565b610526919061189f565b84610531878961194b565b61053b919061194b565b6105459190611830565b905060006103e861055e85670de0b6b3a764000061194b565b6105689190611830565b6105729083611818565b979650505050505050565b6097546001600160a01b031633146105ca5760405162461bcd60e51b815260206004820181905260248201526000805160206119c383398151915260448201526064015b60405180910390fd5b60d155565b306001600160a01b037f000000000000000000000000000000000000000000000000000000000000000016141561065d5760405162461bcd60e51b815260206004820152602c60248201527f46756e6374696f6e206d7573742062652063616c6c6564207468726f7567682060448201526b19195b1959d85d1958d85b1b60a21b60648201526084016105c1565b7f00000000000000000000000000000000000000000000000000000000000000006001600160a01b031661068f610e56565b6001600160a01b0316146106fa5760405162461bcd60e51b815260206004820152602c60248201527f46756e6374696f6e206d7573742062652063616c6c6564207468726f7567682060448201526b6163746976652070726f787960a01b60648201526084016105c1565b61070381610e89565b6040805160008082526020820190925261071f91839190610ed1565b50565b6097546001600160a01b0316331461076a5760405162461bcd60e51b815260206004820181905260248201526000805160206119c383398151915260448201526064016105c1565b60cd55565b6097546001600160a01b031633146107b75760405162461bcd60e51b815260206004820181905260248201526000805160206119c383398151915260448201526064016105c1565b60cc55565b6097546001600160a01b031633146108045760405162461bcd60e51b815260206004820181905260248201526000805160206119c383398151915260448201526064016105c1565b60d055565b60008060c95460cb54600a61081e9190611893565b610828908561194b565b6108329190611830565b905060cc548111610851576108498160ca54610adc565b91505061087f565b60cf5481101561086d576108498160ca5460cd5460ce54610508565b6108498160ca5460d05460d154610508565b9392505050565b306001600160a01b037f00000000000000000000000000000000000000000000000000000000000000001614156109145760405162461bcd60e51b815260206004820152602c60248201527f46756e6374696f6e206d7573742062652063616c6c6564207468726f7567682060448201526b19195b1959d85d1958d85b1b60a21b60648201526084016105c1565b7f00000000000000000000000000000000000000000000000000000000000000006001600160a01b0316610946610e56565b6001600160a01b0316146109b15760405162461bcd60e51b815260206004820152602c60248201527f46756e6374696f6e206d7573742062652063616c6c6564207468726f7567682060448201526b6163746976652070726f787960a01b60648201526084016105c1565b6109ba82610e89565b6109c682826001610ed1565b5050565b6097546001600160a01b03163314610a125760405162461bcd60e51b815260206004820181905260248201526000805160206119c383398151915260448201526064016105c1565b60ce55565b6000306001600160a01b037f00000000000000000000000000000000000000000000000000000000000000001614610ab75760405162461bcd60e51b815260206004820152603860248201527f555550535570677261646561626c653a206d757374206e6f742062652063616c60448201527f6c6564207468726f7567682064656c656761746563616c6c000000000000000060648201526084016105c1565b507f360894a13ba1a3210667c828492db98dca3e2076cc3735a920a3ca505d382bbc90565b600060cb54600a610aed9190611893565b610af7838561194b565b61087f9190611830565b6097546001600160a01b03163314610b495760405162461bcd60e51b815260206004820181905260248201526000805160206119c383398151915260448201526064016105c1565b610b536000611085565b565b6097546001600160a01b03163314610b9d5760405162461bcd60e51b815260206004820181905260248201526000805160206119c383398151915260448201526064016105c1565b60cb55565b6097546001600160a01b03163314610bea5760405162461bcd60e51b815260206004820181905260248201526000805160206119c383398151915260448201526064016105c1565b60c955565b6097546001600160a01b03163314610c375760405162461bcd60e51b815260206004820181905260248201526000805160206119c383398151915260448201526064016105c1565b60ca55565b600054610100900460ff16610c575760005460ff1615610c5b565b303b155b610ccd5760405162461bcd60e51b815260206004820152602e60248201527f496e697469616c697a61626c653a20636f6e747261637420697320616c72656160448201527f647920696e697469616c697a656400000000000000000000000000000000000060648201526084016105c1565b600054610100900460ff16158015610cef576000805461ffff19166101011790555b610cf76110e4565b610cff611157565b610d08336111c2565b60c98a905560ca89905560cb88905560cc87905560cd86905560ce85905560cf84905560d083905560d18290558015610d47576000805461ff00191690555b50505050505050505050565b6097546001600160a01b03163314610d9b5760405162461bcd60e51b815260206004820181905260248201526000805160206119c383398151915260448201526064016105c1565b6001600160a01b038116610e005760405162461bcd60e51b815260206004820152602660248201527f4f776e61626c653a206e6577206f776e657220697320746865207a65726f206160448201526564647265737360d01b60648201526084016105c1565b61071f81611085565b6097546001600160a01b03163314610e515760405162461bcd60e51b815260206004820181905260248201526000805160206119c383398151915260448201526064016105c1565b60cf55565b60007f360894a13ba1a3210667c828492db98dca3e2076cc3735a920a3ca505d382bbc5b546001600160a01b0316919050565b6097546001600160a01b0316331461071f5760405162461bcd60e51b815260206004820181905260248201526000805160206119c383398151915260448201526064016105c1565b7f4910fdfa16fed3260ed0e7147f7cc6da11a60208b5b9406d12a635614ffd91435460ff1615610f0957610f0483611216565b505050565b826001600160a01b03166352d1902d6040518163ffffffff1660e01b815260040160206040518083038186803b158015610f4257600080fd5b505afa925050508015610f72575060408051601f3d908101601f19168201909252610f6f918101906116e9565b60015b610fe45760405162461bcd60e51b815260206004820152602e60248201527f45524331393637557067726164653a206e657720696d706c656d656e7461746960448201527f6f6e206973206e6f74205555505300000000000000000000000000000000000060648201526084016105c1565b7f360894a13ba1a3210667c828492db98dca3e2076cc3735a920a3ca505d382bbc81146110795760405162461bcd60e51b815260206004820152602960248201527f45524331393637557067726164653a20756e737570706f727465642070726f7860448201527f6961626c6555554944000000000000000000000000000000000000000000000060648201526084016105c1565b50610f048383836112e4565b609780546001600160a01b0383811673ffffffffffffffffffffffffffffffffffffffff19831681179093556040519116919082907f8be0079c531659141344cd1fd0a4f28419497f9722a3daafe3b4186f6b6457e090600090a35050565b600054610100900460ff1661114f5760405162461bcd60e51b815260206004820152602b60248201527f496e697469616c697a61626c653a20636f6e7472616374206973206e6f74206960448201526a6e697469616c697a696e6760a81b60648201526084016105c1565b610b5361130f565b600054610100900460ff16610b535760405162461bcd60e51b815260206004820152602b60248201527f496e697469616c697a61626c653a20636f6e7472616374206973206e6f74206960448201526a6e697469616c697a696e6760a81b60648201526084016105c1565b7f7e644d79422f17c01e4894b5f4f588d331ebfa28653d42ae832dc59e38c9798f6111eb611383565b604080516001600160a01b03928316815291841660208301520160405180910390a161071f816113ab565b6001600160a01b0381163b6112935760405162461bcd60e51b815260206004820152602d60248201527f455243313936373a206e657720696d706c656d656e746174696f6e206973206e60448201527f6f74206120636f6e74726163740000000000000000000000000000000000000060648201526084016105c1565b807f360894a13ba1a3210667c828492db98dca3e2076cc3735a920a3ca505d382bbc5b805473ffffffffffffffffffffffffffffffffffffffff19166001600160a01b039290921691909117905550565b6112ed83611437565b6000825111806112fa5750805b15610f04576113098383611477565b50505050565b600054610100900460ff1661137a5760405162461bcd60e51b815260206004820152602b60248201527f496e697469616c697a61626c653a20636f6e7472616374206973206e6f74206960448201526a6e697469616c697a696e6760a81b60648201526084016105c1565b610b5333611085565b60007fb53127684a568b3173ae13b9f8a6016e243e63b6e8ee1178d6a717850b5d6103610e7a565b6001600160a01b0381166114105760405162461bcd60e51b815260206004820152602660248201527f455243313936373a206e65772061646d696e20697320746865207a65726f206160448201526564647265737360d01b60648201526084016105c1565b807fb53127684a568b3173ae13b9f8a6016e243e63b6e8ee1178d6a717850b5d61036112b6565b61144081611216565b6040516001600160a01b038216907fbc7cd75a20ee27fd9adebab32041f755214dbc6bffa90cc0225b39da2e5c2d3b90600090a250565b60606001600160a01b0383163b6114f65760405162461bcd60e51b815260206004820152602660248201527f416464726573733a2064656c65676174652063616c6c20746f206e6f6e2d636f60448201527f6e7472616374000000000000000000000000000000000000000000000000000060648201526084016105c1565b600080846001600160a01b03168460405161151191906117c9565b600060405180830381855af49150503d806000811461154c576040519150601f19603f3d011682016040523d82523d6000602084013e611551565b606091505b509150915061157982826040518060600160405280602781526020016119e360279139611582565b95945050505050565b6060831561159157508161087f565b8251156115a15782518084602001fd5b8160405162461bcd60e51b81526004016105c191906117e5565b80356001600160a01b03811681146115d257600080fd5b919050565b6000602082840312156115e8578081fd5b61087f826115bb565b600080600060608486031215611605578182fd5b61160e846115bb565b925061161c602085016115bb565b9150604084013590509250925092565b6000806040838503121561163e578182fd5b611647836115bb565b9150602083013567ffffffffffffffff80821115611663578283fd5b818501915085601f830112611676578283fd5b813581811115611688576116886119ac565b604051601f8201601f19908116603f011681019083821181831017156116b0576116b06119ac565b816040528281528860208487010111156116c8578586fd5b82602086016020830137856020848301015280955050505050509250929050565b6000602082840312156116fa578081fd5b5051919050565b600060208284031215611712578081fd5b5035919050565b6000806040838503121561172b578182fd5b50508035926020909101359150565b6000806000806080858703121561174f578081fd5b5050823594602084013594506040840135936060013592509050565b60008060008060008060008060006101208a8c031215611789578485fd5b505087359960208901359950604089013598606081013598506080810135975060a0810135965060c0810135955060e08101359450610100013592509050565b600082516117db81846020870161196a565b9190910192915050565b602081526000825180602084015261180481604085016020870161196a565b601f01601f19169190910160400192915050565b6000821982111561182b5761182b611996565b500190565b60008261184b57634e487b7160e01b81526012600452602481fd5b500490565b600181815b8085111561188b57816000190482111561187157611871611996565b8085161561187e57918102915b93841c9390800290611855565b509250929050565b600061087f83836118aa565b600061087f60ff8416835b6000826118b9575060016103c3565b816118c6575060006103c3565b81600181146118dc57600281146118e657611902565b60019150506103c3565b60ff8411156118f7576118f7611996565b50506001821b6103c3565b5060208310610133831016604e8410600b8410161715611925575081810a6103c3565b61192f8383611850565b806000190482111561194357611943611996565b029392505050565b600081600019048311821515161561196557611965611996565b500290565b60005b8381101561198557818101518382015260200161196d565b838111156113095750506000910152565b634e487b7160e01b600052601160045260246000fd5b634e487b7160e01b600052604160045260246000fdfe4f776e61626c653a2063616c6c6572206973206e6f7420746865206f776e6572416464726573733a206c6f772d6c6576656c2064656c65676174652063616c6c206661696c6564a2646970667358221220ddb6cb506b58392ba41fa98cb21137a594fa249eba575bdc1c996afd54f1725964736f6c63430008040033",
  "devdoc": {
    "kind": "dev",
    "methods": {
      "calculateFromBold(address,address,uint256)": {
        "params": {
          "_amount": "Amount to be transformed in the amount equivalent in _token",
          "_to": "User that executes the transaction. Currently not used but allow to have different formulas for each used",
          "_token": "address of the token. Currently not used but allows to have different formulas for each token type"
        },
        "returns": {
          "_0": "amount in bold"
        }
      },
      "calculateToBold(address,address,uint256)": {
        "params": {
          "_amount": "Amount to be transformed in the amount equivalent in BOLD",
          "_to": "User that executes the transaction. Currently not used but allow to have different formulas for each used",
          "_token": "address of the toke. Currently not used but allows to have different formulas for each token type"
        },
        "returns": {
          "_0": "amount in bold"
        }
      },
      "owner()": {
        "details": "Returns the address of the current owner."
      },
      "proxiableUUID()": {
        "details": "Implementation of the ERC1822 {proxiableUUID} function. This returns the storage slot used by the implementation. It is used to validate that the this implementation remains valid after an upgrade. IMPORTANT: A proxy pointing at a proxiable contract should not be considered proxiable itself, because this risks bricking a proxy that upgrades to it, by delegating to itself until out of gas. Thus it is critical that this function revert if invoked through a proxy. This is guaranteed by the `notDelegated` modifier."
      },
      "renounceOwnership()": {
        "details": "Leaves the contract without owner. It will not be possible to call `onlyOwner` functions anymore. Can only be called by the current owner. NOTE: Renouncing ownership will leave the contract without an owner, thereby removing any functionality that is only available to the owner."
      },
      "setDecimals(uint256)": {
        "params": {
          "_value": "Ratio used to transform a Token to BOLD"
        }
      },
      "setPriceRatio(uint256)": {
        "params": {
          "_value": "Ratio used to transform a Token to BOLD"
        }
      },
      "setRatio(uint256)": {
        "params": {
          "_value": "Ratio used to transform a Token to BOLD"
        }
      },
      "transferOwnership(address)": {
        "details": "Transfers ownership of the contract to a new account (`newOwner`). Can only be called by the current owner."
      },
      "upgradeTo(address)": {
        "details": "Upgrade the implementation of the proxy to `newImplementation`. Calls {_authorizeUpgrade}. Emits an {Upgraded} event."
      },
      "upgradeToAndCall(address,bytes)": {
        "details": "Upgrade the implementation of the proxy to `newImplementation`, and subsequently execute the function call encoded in `data`. Calls {_authorizeUpgrade}. Emits an {Upgraded} event."
      }
    },
    "title": "Equvalence contract: Calculates equivalence between a token and BOLD ",
    "version": 1
  },
  "userdoc": {
    "kind": "user",
    "methods": {
      "calculateFromBold(address,address,uint256)": {
        "notice": "Carries out the calculations"
      },
      "calculateToBold(address,address,uint256)": {
        "notice": "Carries out the calculations"
      },
      "setDecimals(uint256)": {
        "notice": "Set decimals for parameters kink1, kink2, A1, A2, C1, C2"
      },
      "setPriceRatio(uint256)": {
        "notice": "Set Price conversion ratio from weth to USD"
      },
      "setRatio(uint256)": {
        "notice": "Set conversion ratio"
      }
    },
    "version": 1
  },
  "storageLayout": {
    "storage": [
      {
        "astId": 519,
        "contract": "contracts/EquivalenceFormula.sol:EquivalenceFormula",
        "label": "_initialized",
        "offset": 0,
        "slot": "0",
        "type": "t_bool"
      },
      {
        "astId": 522,
        "contract": "contracts/EquivalenceFormula.sol:EquivalenceFormula",
        "label": "_initializing",
        "offset": 1,
        "slot": "0",
        "type": "t_bool"
      },
      {
        "astId": 501,
        "contract": "contracts/EquivalenceFormula.sol:EquivalenceFormula",
        "label": "__gap",
        "offset": 0,
        "slot": "1",
        "type": "t_array(t_uint256)50_storage"
      },
      {
        "astId": 721,
        "contract": "contracts/EquivalenceFormula.sol:EquivalenceFormula",
        "label": "__gap",
        "offset": 0,
        "slot": "51",
        "type": "t_array(t_uint256)50_storage"
      },
      {
        "astId": 2116,
        "contract": "contracts/EquivalenceFormula.sol:EquivalenceFormula",
        "label": "__gap",
        "offset": 0,
        "slot": "101",
        "type": "t_array(t_uint256)50_storage"
      },
      {
        "astId": 10,
        "contract": "contracts/EquivalenceFormula.sol:EquivalenceFormula",
        "label": "_owner",
        "offset": 0,
        "slot": "151",
        "type": "t_address"
      },
      {
        "astId": 122,
        "contract": "contracts/EquivalenceFormula.sol:EquivalenceFormula",
        "label": "__gap",
        "offset": 0,
        "slot": "152",
        "type": "t_array(t_uint256)49_storage"
      },
      {
        "astId": 4753,
        "contract": "contracts/EquivalenceFormula.sol:EquivalenceFormula",
        "label": "priceRatio",
        "offset": 0,
        "slot": "201",
        "type": "t_uint256"
      },
      {
        "astId": 4755,
        "contract": "contracts/EquivalenceFormula.sol:EquivalenceFormula",
        "label": "ratio",
        "offset": 0,
        "slot": "202",
        "type": "t_uint256"
      },
      {
        "astId": 4757,
        "contract": "contracts/EquivalenceFormula.sol:EquivalenceFormula",
        "label": "decimals",
        "offset": 0,
        "slot": "203",
        "type": "t_uint256"
      },
      {
        "astId": 4759,
        "contract": "contracts/EquivalenceFormula.sol:EquivalenceFormula",
        "label": "kink1",
        "offset": 0,
        "slot": "204",
        "type": "t_uint256"
      },
      {
        "astId": 4761,
        "contract": "contracts/EquivalenceFormula.sol:EquivalenceFormula",
        "label": "A1",
        "offset": 0,
        "slot": "205",
        "type": "t_uint256"
      },
      {
        "astId": 4763,
        "contract": "contracts/EquivalenceFormula.sol:EquivalenceFormula",
        "label": "C1",
        "offset": 0,
        "slot": "206",
        "type": "t_uint256"
      },
      {
        "astId": 4765,
        "contract": "contracts/EquivalenceFormula.sol:EquivalenceFormula",
        "label": "kink2",
        "offset": 0,
        "slot": "207",
        "type": "t_uint256"
      },
      {
        "astId": 4767,
        "contract": "contracts/EquivalenceFormula.sol:EquivalenceFormula",
        "label": "A2",
        "offset": 0,
        "slot": "208",
        "type": "t_uint256"
      },
      {
        "astId": 4769,
        "contract": "contracts/EquivalenceFormula.sol:EquivalenceFormula",
        "label": "C2",
        "offset": 0,
        "slot": "209",
        "type": "t_uint256"
      }
    ],
    "types": {
      "t_address": {
        "encoding": "inplace",
        "label": "address",
        "numberOfBytes": "20"
      },
      "t_array(t_uint256)49_storage": {
        "base": "t_uint256",
        "encoding": "inplace",
        "label": "uint256[49]",
        "numberOfBytes": "1568"
      },
      "t_array(t_uint256)50_storage": {
        "base": "t_uint256",
        "encoding": "inplace",
        "label": "uint256[50]",
        "numberOfBytes": "1600"
      },
      "t_bool": {
        "encoding": "inplace",
        "label": "bool",
        "numberOfBytes": "1"
      },
      "t_uint256": {
        "encoding": "inplace",
        "label": "uint256",
        "numberOfBytes": "32"
      }
    }
  }
}