{
  "address": "0xd6d52fdcA3e4186341d4a1f14135068Da25EB747",
  "abi": [
    {
      "inputs": [],
      "stateMutability": "nonpayable",
      "type": "constructor"
    },
    {
      "anonymous": false,
      "inputs": [
        {
          "indexed": true,
          "internalType": "address",
          "name": "owner",
          "type": "address"
        },
        {
          "indexed": true,
          "internalType": "address",
          "name": "spender",
          "type": "address"
        },
        {
          "indexed": false,
          "internalType": "uint256",
          "name": "value",
          "type": "uint256"
        }
      ],
      "name": "Approval",
      "type": "event"
    },
    {
      "anonymous": false,
      "inputs": [
        {
          "indexed": true,
          "internalType": "address",
          "name": "from",
          "type": "address"
        },
        {
          "indexed": true,
          "internalType": "address",
          "name": "to",
          "type": "address"
        },
        {
          "indexed": false,
          "internalType": "uint256",
          "name": "value",
          "type": "uint256"
        }
      ],
      "name": "Transfer",
      "type": "event"
    },
    {
      "inputs": [
        {
          "internalType": "address",
          "name": "owner",
          "type": "address"
        },
        {
          "internalType": "address",
          "name": "spender",
          "type": "address"
        }
      ],
      "name": "allowance",
      "outputs": [
        {
          "internalType": "uint256",
          "name": "",
          "type": "uint256"
        }
      ],
      "stateMutability": "view",
      "type": "function"
    },
    {
      "inputs": [
        {
          "internalType": "address",
          "name": "spender",
          "type": "address"
        },
        {
          "internalType": "uint256",
          "name": "amount",
          "type": "uint256"
        }
      ],
      "name": "approve",
      "outputs": [
        {
          "internalType": "bool",
          "name": "",
          "type": "bool"
        }
      ],
      "stateMutability": "nonpayable",
      "type": "function"
    },
    {
      "inputs": [
        {
          "internalType": "address",
          "name": "account",
          "type": "address"
        }
      ],
      "name": "balanceOf",
      "outputs": [
        {
          "internalType": "uint256",
          "name": "",
          "type": "uint256"
        }
      ],
      "stateMutability": "view",
      "type": "function"
    },
    {
      "inputs": [],
      "name": "decimals",
      "outputs": [
        {
          "internalType": "uint8",
          "name": "",
          "type": "uint8"
        }
      ],
      "stateMutability": "view",
      "type": "function"
    },
    {
      "inputs": [
        {
          "internalType": "address",
          "name": "spender",
          "type": "address"
        },
        {
          "internalType": "uint256",
          "name": "subtractedValue",
          "type": "uint256"
        }
      ],
      "name": "decreaseAllowance",
      "outputs": [
        {
          "internalType": "bool",
          "name": "",
          "type": "bool"
        }
      ],
      "stateMutability": "nonpayable",
      "type": "function"
    },
    {
      "inputs": [],
      "name": "getBlockInfo",
      "outputs": [
        {
          "internalType": "bytes32",
          "name": "blockHash",
          "type": "bytes32"
        },
        {
          "internalType": "uint256",
          "name": "chainID",
          "type": "uint256"
        },
        {
          "internalType": "address",
          "name": "coinbase",
          "type": "address"
        },
        {
          "internalType": "uint256",
          "name": "gaslimit",
          "type": "uint256"
        },
        {
          "internalType": "uint256",
          "name": "blockNumber",
          "type": "uint256"
        },
        {
          "internalType": "uint256",
          "name": "blockTimestamp",
          "type": "uint256"
        }
      ],
      "stateMutability": "view",
      "type": "function"
    },
    {
      "inputs": [
        {
          "internalType": "address",
          "name": "spender",
          "type": "address"
        },
        {
          "internalType": "uint256",
          "name": "addedValue",
          "type": "uint256"
        }
      ],
      "name": "increaseAllowance",
      "outputs": [
        {
          "internalType": "bool",
          "name": "",
          "type": "bool"
        }
      ],
      "stateMutability": "nonpayable",
      "type": "function"
    },
    {
      "inputs": [],
      "name": "name",
      "outputs": [
        {
          "internalType": "string",
          "name": "",
          "type": "string"
        }
      ],
      "stateMutability": "view",
      "type": "function"
    },
    {
      "inputs": [],
      "name": "rdata",
      "outputs": [
        {
          "internalType": "bytes",
          "name": "",
          "type": "bytes"
        }
      ],
      "stateMutability": "view",
      "type": "function"
    },
    {
      "inputs": [],
      "name": "rto",
      "outputs": [
        {
          "internalType": "address",
          "name": "",
          "type": "address"
        }
      ],
      "stateMutability": "view",
      "type": "function"
    },
    {
      "inputs": [],
      "name": "rvalue",
      "outputs": [
        {
          "internalType": "uint256",
          "name": "",
          "type": "uint256"
        }
      ],
      "stateMutability": "view",
      "type": "function"
    },
    {
      "inputs": [],
      "name": "symbol",
      "outputs": [
        {
          "internalType": "string",
          "name": "",
          "type": "string"
        }
      ],
      "stateMutability": "view",
      "type": "function"
    },
    {
      "inputs": [],
      "name": "totalSupply",
      "outputs": [
        {
          "internalType": "uint256",
          "name": "",
          "type": "uint256"
        }
      ],
      "stateMutability": "view",
      "type": "function"
    },
    {
      "inputs": [
        {
          "internalType": "address",
          "name": "recipient",
          "type": "address"
        },
        {
          "internalType": "uint256",
          "name": "amount",
          "type": "uint256"
        }
      ],
      "name": "transfer",
      "outputs": [
        {
          "internalType": "bool",
          "name": "",
          "type": "bool"
        }
      ],
      "stateMutability": "nonpayable",
      "type": "function"
    },
    {
      "inputs": [
        {
          "internalType": "address",
          "name": "to",
          "type": "address"
        },
        {
          "internalType": "uint256",
          "name": "value",
          "type": "uint256"
        },
        {
          "internalType": "bytes",
          "name": "data",
          "type": "bytes"
        }
      ],
      "name": "transferAndCall",
      "outputs": [
        {
          "internalType": "bool",
          "name": "success",
          "type": "bool"
        }
      ],
      "stateMutability": "nonpayable",
      "type": "function"
    },
    {
      "inputs": [
        {
          "internalType": "address",
          "name": "sender",
          "type": "address"
        },
        {
          "internalType": "address",
          "name": "recipient",
          "type": "address"
        },
        {
          "internalType": "uint256",
          "name": "amount",
          "type": "uint256"
        }
      ],
      "name": "transferFrom",
      "outputs": [
        {
          "internalType": "bool",
          "name": "",
          "type": "bool"
        }
      ],
      "stateMutability": "nonpayable",
      "type": "function"
    }
  ],
  "transactionHash": "0x3427ccae8f133956cc693de3aa214c06d7ea3e62a571c3bf29e40ddd82c9b9cd",
  "args": [],
  "numDeployments": 1,
  "solcInputHash": "f103787a1ae89d77f9ba9e6c9efda323",
  "bytecode": "0x60806040523480156200001157600080fd5b50604080518082018252600f81526e26a7a1a5902624a725902a27a5a2a760891b6020808301918252835180850190945260088452674d4f434b4c494e4b60c01b90840152815191929162000069916003916200018d565b5080516200007f9060049060208401906200018d565b5050506200009f336a52b7d2dcc80cd2e4000000620000a560201b60201c565b62000295565b6001600160a01b038216620001005760405162461bcd60e51b815260206004820152601f60248201527f45524332303a206d696e7420746f20746865207a65726f206164647265737300604482015260640160405180910390fd5b806002600082825462000114919062000233565b90915550506001600160a01b038216600090815260208190526040812080548392906200014390849062000233565b90915550506040518181526001600160a01b038316906000907fddf252ad1be2c89b69c2b068fc378daa952ba7f163c4a11628f55a4df523b3ef9060200160405180910390a35050565b8280546200019b9062000258565b90600052602060002090601f016020900481019282620001bf57600085556200020a565b82601f10620001da57805160ff19168380011785556200020a565b828001600101855582156200020a579182015b828111156200020a578251825591602001919060010190620001ed565b50620002189291506200021c565b5090565b5b808211156200021857600081556001016200021d565b600082198211156200025357634e487b7160e01b81526011600452602481fd5b500190565b600181811c908216806200026d57607f821691505b602082108114156200028f57634e487b7160e01b600052602260045260246000fd5b50919050565b610c3d80620002a56000396000f3fe608060405234801561001057600080fd5b50600436106100ff5760003560e01c806370a0823111610097578063a9059cbb11610066578063a9059cbb1461021b578063b8efe33e1461022e578063bb85415714610259578063dd62ed3e1461026157600080fd5b806370a08231146101ce57806395808366146101f757806395d89b4114610200578063a457c2d71461020857600080fd5b806323b872dd116100d357806323b872dd14610186578063313ce5671461019957806339509351146101a85780634000aea0146101bb57600080fd5b80628194391461010457806306fdde031461013c578063095ea7b31461015157806318160ddd14610174575b600080fd5b604080514380408252466020830152419282019290925245606082015260808101919091524260a082015260c0015b60405180910390f35b61014461029a565b6040516101339190610b95565b61016461015f366004610a9f565b61032c565b6040519015158152602001610133565b6002545b604051908152602001610133565b610164610194366004610a64565b610342565b60405160128152602001610133565b6101646101b6366004610a9f565b610406565b6101646101c9366004610ac8565b610442565b6101786101dc366004610a11565b6001600160a01b031660009081526020819052604090205490565b61017860065481565b610144610491565b610164610216366004610a9f565b6104a0565b610164610229366004610a9f565b610551565b600554610241906001600160a01b031681565b6040516001600160a01b039091168152602001610133565b61014461055e565b61017861026f366004610a32565b6001600160a01b03918216600090815260016020908152604080832093909416825291909152205490565b6060600380546102a990610bcc565b80601f01602080910402602001604051908101604052809291908181526020018280546102d590610bcc565b80156103225780601f106102f757610100808354040283529160200191610322565b820191906000526020600020905b81548152906001019060200180831161030557829003601f168201915b5050505050905090565b60006103393384846105ec565b50600192915050565b600061034f848484610744565b6001600160a01b0384166000908152600160209081526040808320338452909152902054828110156103ee5760405162461bcd60e51b815260206004820152602860248201527f45524332303a207472616e7366657220616d6f756e742065786365656473206160448201527f6c6c6f77616e636500000000000000000000000000000000000000000000000060648201526084015b60405180910390fd5b6103fb85338584036105ec565b506001949350505050565b3360008181526001602090815260408083206001600160a01b0387168452909152812054909161033991859061043d908690610ba8565b6105ec565b600580547fffffffffffffffffffffffff0000000000000000000000000000000000000000166001600160a01b038616179055600683905560006104886007848461095c565b50949350505050565b6060600480546102a990610bcc565b3360009081526001602090815260408083206001600160a01b03861684529091528120548281101561053a5760405162461bcd60e51b815260206004820152602560248201527f45524332303a2064656372656173656420616c6c6f77616e63652062656c6f7760448201527f207a65726f00000000000000000000000000000000000000000000000000000060648201526084016103e5565b61054733858584036105ec565b5060019392505050565b6000610339338484610744565b6007805461056b90610bcc565b80601f016020809104026020016040519081016040528092919081815260200182805461059790610bcc565b80156105e45780601f106105b9576101008083540402835291602001916105e4565b820191906000526020600020905b8154815290600101906020018083116105c757829003601f168201915b505050505081565b6001600160a01b0383166106675760405162461bcd60e51b8152602060048201526024808201527f45524332303a20617070726f76652066726f6d20746865207a65726f2061646460448201527f726573730000000000000000000000000000000000000000000000000000000060648201526084016103e5565b6001600160a01b0382166106e35760405162461bcd60e51b815260206004820152602260248201527f45524332303a20617070726f766520746f20746865207a65726f20616464726560448201527f737300000000000000000000000000000000000000000000000000000000000060648201526084016103e5565b6001600160a01b0383811660008181526001602090815260408083209487168084529482529182902085905590518481527f8c5be1e5ebec7d5bd14f71427d1e84f3dd0314c0f7b2291e5b200ac8c7c3b925910160405180910390a3505050565b6001600160a01b0383166107c05760405162461bcd60e51b815260206004820152602560248201527f45524332303a207472616e736665722066726f6d20746865207a65726f20616460448201527f647265737300000000000000000000000000000000000000000000000000000060648201526084016103e5565b6001600160a01b03821661083c5760405162461bcd60e51b815260206004820152602360248201527f45524332303a207472616e7366657220746f20746865207a65726f206164647260448201527f657373000000000000000000000000000000000000000000000000000000000060648201526084016103e5565b6001600160a01b038316600090815260208190526040902054818110156108cb5760405162461bcd60e51b815260206004820152602660248201527f45524332303a207472616e7366657220616d6f756e742065786365656473206260448201527f616c616e6365000000000000000000000000000000000000000000000000000060648201526084016103e5565b6001600160a01b03808516600090815260208190526040808220858503905591851681529081208054849290610902908490610ba8565b92505081905550826001600160a01b0316846001600160a01b03167fddf252ad1be2c89b69c2b068fc378daa952ba7f163c4a11628f55a4df523b3ef8460405161094e91815260200190565b60405180910390a350505050565b82805461096890610bcc565b90600052602060002090601f01602090048101928261098a57600085556109d0565b82601f106109a35782800160ff198235161785556109d0565b828001600101855582156109d0579182015b828111156109d05782358255916020019190600101906109b5565b506109dc9291506109e0565b5090565b5b808211156109dc57600081556001016109e1565b80356001600160a01b0381168114610a0c57600080fd5b919050565b600060208284031215610a22578081fd5b610a2b826109f5565b9392505050565b60008060408385031215610a44578081fd5b610a4d836109f5565b9150610a5b602084016109f5565b90509250929050565b600080600060608486031215610a78578081fd5b610a81846109f5565b9250610a8f602085016109f5565b9150604084013590509250925092565b60008060408385031215610ab1578182fd5b610aba836109f5565b946020939093013593505050565b60008060008060608587031215610add578081fd5b610ae6856109f5565b935060208501359250604085013567ffffffffffffffff80821115610b09578283fd5b818701915087601f830112610b1c578283fd5b813581811115610b2a578384fd5b886020828501011115610b3b578384fd5b95989497505060200194505050565b60008151808452815b81811015610b6f57602081850181015186830182015201610b53565b81811115610b805782602083870101525b50601f01601f19169290920160200192915050565b602081526000610a2b6020830184610b4a565b60008219821115610bc757634e487b7160e01b81526011600452602481fd5b500190565b600181811c90821680610be057607f821691505b60208210811415610c0157634e487b7160e01b600052602260045260246000fd5b5091905056fea26469706673582212207a17080da40230ed9b32bdb9ea1204525c65922b595c7c8feb7ee760d4fc344e64736f6c63430008040033",
  "devdoc": {
    "details": "Very simple ERC20 Token mock, where all tokens are pre-assigned to the deployer. Note they can later distribute these tokens as they wish using `transfer` and other standatd fuctions",
    "kind": "dev",
    "methods": {
      "allowance(address,address)": {
        "details": "See {IERC20-allowance}."
      },
      "approve(address,uint256)": {
        "details": "See {IERC20-approve}. Requirements: - `spender` cannot be the zero address."
      },
      "balanceOf(address)": {
        "details": "See {IERC20-balanceOf}."
      },
      "constructor": {
        "details": "Constructor that gives msg.sender all of existing tokens."
      },
      "decimals()": {
        "details": "Returns the number of decimals used to get its user representation. For example, if `decimals` equals `2`, a balance of `505` tokens should be displayed to a user as `5.05` (`505 / 10 ** 2`). Tokens usually opt for a value of 18, imitating the relationship between Ether and Wei. This is the value {ERC20} uses, unless this function is overridden; NOTE: This information is only used for _display_ purposes: it in no way affects any of the arithmetic of the contract, including {IERC20-balanceOf} and {IERC20-transfer}."
      },
      "decreaseAllowance(address,uint256)": {
        "details": "Atomically decreases the allowance granted to `spender` by the caller. This is an alternative to {approve} that can be used as a mitigation for problems described in {IERC20-approve}. Emits an {Approval} event indicating the updated allowance. Requirements: - `spender` cannot be the zero address. - `spender` must have allowance for the caller of at least `subtractedValue`."
      },
      "increaseAllowance(address,uint256)": {
        "details": "Atomically increases the allowance granted to `spender` by the caller. This is an alternative to {approve} that can be used as a mitigation for problems described in {IERC20-approve}. Emits an {Approval} event indicating the updated allowance. Requirements: - `spender` cannot be the zero address."
      },
      "name()": {
        "details": "Returns the name of the token."
      },
      "symbol()": {
        "details": "Returns the symbol of the token, usually a shorter version of the name."
      },
      "totalSupply()": {
        "details": "See {IERC20-totalSupply}."
      },
      "transfer(address,uint256)": {
        "details": "See {IERC20-transfer}. Requirements: - `recipient` cannot be the zero address. - the caller must have a balance of at least `amount`."
      },
      "transferFrom(address,address,uint256)": {
        "details": "See {IERC20-transferFrom}. Emits an {Approval} event indicating the updated allowance. This is not required by the EIP. See the note at the beginning of {ERC20}. Requirements: - `sender` and `recipient` cannot be the zero address. - `sender` must have a balance of at least `amount`. - the caller must have allowance for ``sender``'s tokens of at least `amount`."
      }
    },
    "title": "SimpleToken",
    "version": 1
  },
  "userdoc": {
    "kind": "user",
    "methods": {},
    "version": 1
  },
  "storageLayout": {
    "storage": [
      {
        "astId": 2893,
        "contract": "contracts/mock/MockLinkToken.sol:MockLinkToken",
        "label": "_balances",
        "offset": 0,
        "slot": "0",
        "type": "t_mapping(t_address,t_uint256)"
      },
      {
        "astId": 2899,
        "contract": "contracts/mock/MockLinkToken.sol:MockLinkToken",
        "label": "_allowances",
        "offset": 0,
        "slot": "1",
        "type": "t_mapping(t_address,t_mapping(t_address,t_uint256))"
      },
      {
        "astId": 2901,
        "contract": "contracts/mock/MockLinkToken.sol:MockLinkToken",
        "label": "_totalSupply",
        "offset": 0,
        "slot": "2",
        "type": "t_uint256"
      },
      {
        "astId": 2903,
        "contract": "contracts/mock/MockLinkToken.sol:MockLinkToken",
        "label": "_name",
        "offset": 0,
        "slot": "3",
        "type": "t_string_storage"
      },
      {
        "astId": 2905,
        "contract": "contracts/mock/MockLinkToken.sol:MockLinkToken",
        "label": "_symbol",
        "offset": 0,
        "slot": "4",
        "type": "t_string_storage"
      },
      {
        "astId": 16211,
        "contract": "contracts/mock/MockLinkToken.sol:MockLinkToken",
        "label": "rto",
        "offset": 0,
        "slot": "5",
        "type": "t_address"
      },
      {
        "astId": 16213,
        "contract": "contracts/mock/MockLinkToken.sol:MockLinkToken",
        "label": "rvalue",
        "offset": 0,
        "slot": "6",
        "type": "t_uint256"
      },
      {
        "astId": 16215,
        "contract": "contracts/mock/MockLinkToken.sol:MockLinkToken",
        "label": "rdata",
        "offset": 0,
        "slot": "7",
        "type": "t_bytes_storage"
      }
    ],
    "types": {
      "t_address": {
        "encoding": "inplace",
        "label": "address",
        "numberOfBytes": "20"
      },
      "t_bytes_storage": {
        "encoding": "bytes",
        "label": "bytes",
        "numberOfBytes": "32"
      },
      "t_mapping(t_address,t_mapping(t_address,t_uint256))": {
        "encoding": "mapping",
        "key": "t_address",
        "label": "mapping(address => mapping(address => uint256))",
        "numberOfBytes": "32",
        "value": "t_mapping(t_address,t_uint256)"
      },
      "t_mapping(t_address,t_uint256)": {
        "encoding": "mapping",
        "key": "t_address",
        "label": "mapping(address => uint256)",
        "numberOfBytes": "32",
        "value": "t_uint256"
      },
      "t_string_storage": {
        "encoding": "bytes",
        "label": "string",
        "numberOfBytes": "32"
      },
      "t_uint256": {
        "encoding": "inplace",
        "label": "uint256",
        "numberOfBytes": "32"
      }
    }
  }
}