{
  "address": "0xf5031A0C5c4F29E560f9884bc18C3377cE1fA9c3",
  "abi": [
    {
      "anonymous": false,
      "inputs": [
        {
          "indexed": false,
          "internalType": "address",
          "name": "previousAdmin",
          "type": "address"
        },
        {
          "indexed": false,
          "internalType": "address",
          "name": "newAdmin",
          "type": "address"
        }
      ],
      "name": "AdminChanged",
      "type": "event"
    },
    {
      "anonymous": false,
      "inputs": [
        {
          "indexed": true,
          "internalType": "address",
          "name": "beacon",
          "type": "address"
        }
      ],
      "name": "BeaconUpgraded",
      "type": "event"
    },
    {
      "anonymous": false,
      "inputs": [
        {
          "indexed": true,
          "internalType": "address",
          "name": "sender",
          "type": "address"
        },
        {
          "indexed": true,
          "internalType": "uint256",
          "name": "epoch",
          "type": "uint256"
        },
        {
          "indexed": false,
          "internalType": "uint256",
          "name": "amount",
          "type": "uint256"
        }
      ],
      "name": "BetHeads",
      "type": "event"
    },
    {
      "anonymous": false,
      "inputs": [
        {
          "indexed": true,
          "internalType": "address",
          "name": "sender",
          "type": "address"
        },
        {
          "indexed": true,
          "internalType": "uint256",
          "name": "epoch",
          "type": "uint256"
        },
        {
          "indexed": false,
          "internalType": "uint256",
          "name": "amount",
          "type": "uint256"
        }
      ],
      "name": "BetTails",
      "type": "event"
    },
    {
      "anonymous": false,
      "inputs": [
        {
          "indexed": true,
          "internalType": "address",
          "name": "sender",
          "type": "address"
        },
        {
          "indexed": true,
          "internalType": "uint256",
          "name": "epoch",
          "type": "uint256"
        },
        {
          "indexed": false,
          "internalType": "uint256",
          "name": "amount",
          "type": "uint256"
        }
      ],
      "name": "Claim",
      "type": "event"
    },
    {
      "anonymous": false,
      "inputs": [
        {
          "indexed": true,
          "internalType": "uint256",
          "name": "epoch",
          "type": "uint256"
        },
        {
          "indexed": true,
          "internalType": "uint256",
          "name": "roundId",
          "type": "uint256"
        }
      ],
      "name": "EndRound",
      "type": "event"
    },
    {
      "anonymous": false,
      "inputs": [
        {
          "indexed": true,
          "internalType": "uint256",
          "name": "epoch",
          "type": "uint256"
        },
        {
          "indexed": true,
          "internalType": "uint256",
          "name": "roundId",
          "type": "uint256"
        }
      ],
      "name": "LockRound",
      "type": "event"
    },
    {
      "anonymous": false,
      "inputs": [
        {
          "indexed": false,
          "internalType": "address",
          "name": "admin",
          "type": "address"
        }
      ],
      "name": "NewAdminAddress",
      "type": "event"
    },
    {
      "anonymous": false,
      "inputs": [
        {
          "indexed": false,
          "internalType": "uint256",
          "name": "secs",
          "type": "uint256"
        }
      ],
      "name": "NewIntervalPeriod",
      "type": "event"
    },
    {
      "anonymous": false,
      "inputs": [
        {
          "indexed": true,
          "internalType": "uint256",
          "name": "epoch",
          "type": "uint256"
        },
        {
          "indexed": false,
          "internalType": "uint256",
          "name": "minBetAmount",
          "type": "uint256"
        }
      ],
      "name": "NewMinBetAmount",
      "type": "event"
    },
    {
      "anonymous": false,
      "inputs": [
        {
          "indexed": false,
          "internalType": "address",
          "name": "operator",
          "type": "address"
        }
      ],
      "name": "NewOperatorAddress",
      "type": "event"
    },
    {
      "anonymous": false,
      "inputs": [
        {
          "indexed": false,
          "internalType": "uint256",
          "name": "oracleUpdateAllowance",
          "type": "uint256"
        }
      ],
      "name": "NewOracleUpdateAllowance",
      "type": "event"
    },
    {
      "anonymous": false,
      "inputs": [
        {
          "indexed": true,
          "internalType": "uint256",
          "name": "epoch",
          "type": "uint256"
        },
        {
          "indexed": false,
          "internalType": "uint256",
          "name": "treasuryFee",
          "type": "uint256"
        }
      ],
      "name": "NewTreasuryFee",
      "type": "event"
    },
    {
      "anonymous": false,
      "inputs": [
        {
          "indexed": true,
          "internalType": "address",
          "name": "previousOwner",
          "type": "address"
        },
        {
          "indexed": true,
          "internalType": "address",
          "name": "newOwner",
          "type": "address"
        }
      ],
      "name": "OwnershipTransferred",
      "type": "event"
    },
    {
      "anonymous": false,
      "inputs": [
        {
          "indexed": true,
          "internalType": "uint256",
          "name": "epoch",
          "type": "uint256"
        }
      ],
      "name": "Pause",
      "type": "event"
    },
    {
      "anonymous": false,
      "inputs": [
        {
          "indexed": false,
          "internalType": "address",
          "name": "account",
          "type": "address"
        }
      ],
      "name": "Paused",
      "type": "event"
    },
    {
      "anonymous": false,
      "inputs": [
        {
          "indexed": true,
          "internalType": "uint256",
          "name": "epoch",
          "type": "uint256"
        },
        {
          "indexed": false,
          "internalType": "uint256",
          "name": "rewardBaseCalAmount",
          "type": "uint256"
        },
        {
          "indexed": false,
          "internalType": "uint256",
          "name": "rewardAmount",
          "type": "uint256"
        },
        {
          "indexed": false,
          "internalType": "uint256",
          "name": "treasuryAmount",
          "type": "uint256"
        }
      ],
      "name": "RewardsCalculated",
      "type": "event"
    },
    {
      "anonymous": false,
      "inputs": [
        {
          "indexed": true,
          "internalType": "uint256",
          "name": "epoch",
          "type": "uint256"
        }
      ],
      "name": "StartRound",
      "type": "event"
    },
    {
      "anonymous": false,
      "inputs": [
        {
          "indexed": true,
          "internalType": "address",
          "name": "token",
          "type": "address"
        },
        {
          "indexed": false,
          "internalType": "uint256",
          "name": "amount",
          "type": "uint256"
        }
      ],
      "name": "TokenRecovery",
      "type": "event"
    },
    {
      "anonymous": false,
      "inputs": [
        {
          "indexed": false,
          "internalType": "uint256",
          "name": "amount",
          "type": "uint256"
        }
      ],
      "name": "TreasuryClaim",
      "type": "event"
    },
    {
      "anonymous": false,
      "inputs": [
        {
          "indexed": true,
          "internalType": "uint256",
          "name": "epoch",
          "type": "uint256"
        }
      ],
      "name": "Unpause",
      "type": "event"
    },
    {
      "anonymous": false,
      "inputs": [
        {
          "indexed": false,
          "internalType": "address",
          "name": "account",
          "type": "address"
        }
      ],
      "name": "Unpaused",
      "type": "event"
    },
    {
      "anonymous": false,
      "inputs": [
        {
          "indexed": true,
          "internalType": "address",
          "name": "implementation",
          "type": "address"
        }
      ],
      "name": "Upgraded",
      "type": "event"
    },
    {
      "anonymous": false,
      "inputs": [
        {
          "indexed": false,
          "internalType": "uint256",
          "name": "randomness",
          "type": "uint256"
        },
        {
          "indexed": false,
          "internalType": "address",
          "name": "sender",
          "type": "address"
        }
      ],
      "name": "receivedRandom",
      "type": "event"
    },
    {
      "anonymous": false,
      "inputs": [
        {
          "indexed": false,
          "internalType": "bytes32",
          "name": "requestId",
          "type": "bytes32"
        }
      ],
      "name": "requestRandom",
      "type": "event"
    },
    {
      "inputs": [],
      "name": "EV_CLAIM",
      "outputs": [
        {
          "internalType": "uint256",
          "name": "",
          "type": "uint256"
        }
      ],
      "stateMutability": "view",
      "type": "function"
    },
    {
      "inputs": [],
      "name": "EV_CLAIM_BONUS",
      "outputs": [
        {
          "internalType": "uint256",
          "name": "",
          "type": "uint256"
        }
      ],
      "stateMutability": "view",
      "type": "function"
    },
    {
      "inputs": [],
      "name": "EV_HEADS",
      "outputs": [
        {
          "internalType": "uint256",
          "name": "",
          "type": "uint256"
        }
      ],
      "stateMutability": "view",
      "type": "function"
    },
    {
      "inputs": [],
      "name": "EV_RESULT",
      "outputs": [
        {
          "internalType": "uint256",
          "name": "",
          "type": "uint256"
        }
      ],
      "stateMutability": "view",
      "type": "function"
    },
    {
      "inputs": [],
      "name": "EV_TAILS",
      "outputs": [
        {
          "internalType": "uint256",
          "name": "",
          "type": "uint256"
        }
      ],
      "stateMutability": "view",
      "type": "function"
    },
    {
      "inputs": [],
      "name": "MAX_TREASURY_FEE",
      "outputs": [
        {
          "internalType": "uint256",
          "name": "",
          "type": "uint256"
        }
      ],
      "stateMutability": "view",
      "type": "function"
    },
    {
      "inputs": [],
      "name": "Position_Heads",
      "outputs": [
        {
          "internalType": "uint256",
          "name": "",
          "type": "uint256"
        }
      ],
      "stateMutability": "view",
      "type": "function"
    },
    {
      "inputs": [],
      "name": "Position_Tails",
      "outputs": [
        {
          "internalType": "uint256",
          "name": "",
          "type": "uint256"
        }
      ],
      "stateMutability": "view",
      "type": "function"
    },
    {
      "inputs": [],
      "name": "adminAddress",
      "outputs": [
        {
          "internalType": "address",
          "name": "",
          "type": "address"
        }
      ],
      "stateMutability": "view",
      "type": "function"
    },
    {
      "inputs": [
        {
          "internalType": "uint256",
          "name": "epoch",
          "type": "uint256"
        },
        {
          "internalType": "uint256",
          "name": "amount",
          "type": "uint256"
        }
      ],
      "name": "betHeads",
      "outputs": [],
      "stateMutability": "payable",
      "type": "function"
    },
    {
      "inputs": [
        {
          "internalType": "uint256",
          "name": "epoch",
          "type": "uint256"
        },
        {
          "internalType": "uint256",
          "name": "amount",
          "type": "uint256"
        }
      ],
      "name": "betTails",
      "outputs": [],
      "stateMutability": "payable",
      "type": "function"
    },
    {
      "inputs": [
        {
          "internalType": "uint256[]",
          "name": "epochs",
          "type": "uint256[]"
        }
      ],
      "name": "claim",
      "outputs": [],
      "stateMutability": "nonpayable",
      "type": "function"
    },
    {
      "inputs": [],
      "name": "claimTreasury",
      "outputs": [],
      "stateMutability": "nonpayable",
      "type": "function"
    },
    {
      "inputs": [
        {
          "internalType": "uint256",
          "name": "epoch",
          "type": "uint256"
        },
        {
          "internalType": "address",
          "name": "user",
          "type": "address"
        }
      ],
      "name": "claimable",
      "outputs": [
        {
          "internalType": "bool",
          "name": "",
          "type": "bool"
        }
      ],
      "stateMutability": "view",
      "type": "function"
    },
    {
      "inputs": [],
      "name": "count",
      "outputs": [
        {
          "internalType": "uint256",
          "name": "",
          "type": "uint256"
        }
      ],
      "stateMutability": "view",
      "type": "function"
    },
    {
      "inputs": [],
      "name": "currentEpoch",
      "outputs": [
        {
          "internalType": "uint256",
          "name": "",
          "type": "uint256"
        }
      ],
      "stateMutability": "view",
      "type": "function"
    },
    {
      "inputs": [],
      "name": "feeAmount",
      "outputs": [
        {
          "internalType": "uint256",
          "name": "",
          "type": "uint256"
        }
      ],
      "stateMutability": "view",
      "type": "function"
    },
    {
      "inputs": [],
      "name": "feeToken",
      "outputs": [
        {
          "internalType": "address",
          "name": "",
          "type": "address"
        }
      ],
      "stateMutability": "view",
      "type": "function"
    },
    {
      "inputs": [
        {
          "internalType": "uint256",
          "name": "randomness",
          "type": "uint256"
        }
      ],
      "name": "fulfillRandomness",
      "outputs": [],
      "stateMutability": "nonpayable",
      "type": "function"
    },
    {
      "inputs": [],
      "name": "genesisStartOnce",
      "outputs": [
        {
          "internalType": "bool",
          "name": "",
          "type": "bool"
        }
      ],
      "stateMutability": "view",
      "type": "function"
    },
    {
      "inputs": [],
      "name": "genesisStartRound",
      "outputs": [],
      "stateMutability": "nonpayable",
      "type": "function"
    },
    {
      "inputs": [
        {
          "internalType": "address",
          "name": "user",
          "type": "address"
        },
        {
          "internalType": "uint256",
          "name": "cursor",
          "type": "uint256"
        },
        {
          "internalType": "uint256",
          "name": "size",
          "type": "uint256"
        }
      ],
      "name": "getUserRounds",
      "outputs": [
        {
          "internalType": "uint256[]",
          "name": "",
          "type": "uint256[]"
        },
        {
          "components": [
            {
              "internalType": "uint256",
              "name": "position",
              "type": "uint256"
            },
            {
              "internalType": "uint256",
              "name": "amount",
              "type": "uint256"
            },
            {
              "internalType": "bool",
              "name": "claimed",
              "type": "bool"
            }
          ],
          "internalType": "struct OFCointossHouseStorage.BetInfo[]",
          "name": "",
          "type": "tuple[]"
        },
        {
          "internalType": "uint256",
          "name": "",
          "type": "uint256"
        }
      ],
      "stateMutability": "view",
      "type": "function"
    },
    {
      "inputs": [
        {
          "internalType": "address",
          "name": "user",
          "type": "address"
        }
      ],
      "name": "getUserRoundsLength",
      "outputs": [
        {
          "internalType": "uint256",
          "name": "",
          "type": "uint256"
        }
      ],
      "stateMutability": "view",
      "type": "function"
    },
    {
      "inputs": [
        {
          "internalType": "address",
          "name": "_adminAddress",
          "type": "address"
        },
        {
          "internalType": "address",
          "name": "_operatorAddress",
          "type": "address"
        },
        {
          "internalType": "uint256",
          "name": "_intervalSeconds",
          "type": "uint256"
        },
        {
          "internalType": "uint256",
          "name": "_minBetAmount",
          "type": "uint256"
        },
        {
          "internalType": "uint256",
          "name": "_oracleUpdateAllowance",
          "type": "uint256"
        },
        {
          "internalType": "uint256",
          "name": "_treasuryFee",
          "type": "uint256"
        },
        {
          "internalType": "address",
          "name": "_tokenAddress",
          "type": "address"
        },
        {
          "internalType": "address",
          "name": "_routerContract",
          "type": "address"
        },
        {
          "internalType": "address",
          "name": "_feeToken",
          "type": "address"
        },
        {
          "internalType": "uint256",
          "name": "_feeAmount",
          "type": "uint256"
        }
      ],
      "name": "initialize",
      "outputs": [],
      "stateMutability": "nonpayable",
      "type": "function"
    },
    {
      "inputs": [],
      "name": "intervalSeconds",
      "outputs": [
        {
          "internalType": "uint256",
          "name": "",
          "type": "uint256"
        }
      ],
      "stateMutability": "view",
      "type": "function"
    },
    {
      "inputs": [
        {
          "internalType": "uint256",
          "name": "",
          "type": "uint256"
        },
        {
          "internalType": "address",
          "name": "",
          "type": "address"
        }
      ],
      "name": "ledger",
      "outputs": [
        {
          "internalType": "uint256",
          "name": "position",
          "type": "uint256"
        },
        {
          "internalType": "uint256",
          "name": "amount",
          "type": "uint256"
        },
        {
          "internalType": "bool",
          "name": "claimed",
          "type": "bool"
        }
      ],
      "stateMutability": "view",
      "type": "function"
    },
    {
      "inputs": [
        {
          "internalType": "uint256",
          "name": "epoch",
          "type": "uint256"
        }
      ],
      "name": "makeRefundable",
      "outputs": [],
      "stateMutability": "nonpayable",
      "type": "function"
    },
    {
      "inputs": [],
      "name": "minBetAmount",
      "outputs": [
        {
          "internalType": "uint256",
          "name": "",
          "type": "uint256"
        }
      ],
      "stateMutability": "view",
      "type": "function"
    },
    {
      "inputs": [],
      "name": "operatorAddress",
      "outputs": [
        {
          "internalType": "address",
          "name": "",
          "type": "address"
        }
      ],
      "stateMutability": "view",
      "type": "function"
    },
    {
      "inputs": [],
      "name": "oracleLatestRoundId",
      "outputs": [
        {
          "internalType": "uint256",
          "name": "",
          "type": "uint256"
        }
      ],
      "stateMutability": "view",
      "type": "function"
    },
    {
      "inputs": [],
      "name": "oracleUpdateAllowance",
      "outputs": [
        {
          "internalType": "uint256",
          "name": "",
          "type": "uint256"
        }
      ],
      "stateMutability": "view",
      "type": "function"
    },
    {
      "inputs": [],
      "name": "owner",
      "outputs": [
        {
          "internalType": "address",
          "name": "",
          "type": "address"
        }
      ],
      "stateMutability": "view",
      "type": "function"
    },
    {
      "inputs": [],
      "name": "pause",
      "outputs": [],
      "stateMutability": "nonpayable",
      "type": "function"
    },
    {
      "inputs": [],
      "name": "paused",
      "outputs": [
        {
          "internalType": "bool",
          "name": "",
          "type": "bool"
        }
      ],
      "stateMutability": "view",
      "type": "function"
    },
    {
      "inputs": [],
      "name": "proxiableUUID",
      "outputs": [
        {
          "internalType": "bytes32",
          "name": "",
          "type": "bytes32"
        }
      ],
      "stateMutability": "view",
      "type": "function"
    },
    {
      "inputs": [],
      "name": "randomResult",
      "outputs": [
        {
          "internalType": "uint256",
          "name": "",
          "type": "uint256"
        }
      ],
      "stateMutability": "view",
      "type": "function"
    },
    {
      "inputs": [
        {
          "internalType": "address",
          "name": "_token",
          "type": "address"
        },
        {
          "internalType": "uint256",
          "name": "_amount",
          "type": "uint256"
        }
      ],
      "name": "recoverToken",
      "outputs": [],
      "stateMutability": "nonpayable",
      "type": "function"
    },
    {
      "inputs": [
        {
          "internalType": "uint256",
          "name": "epoch",
          "type": "uint256"
        },
        {
          "internalType": "address",
          "name": "user",
          "type": "address"
        }
      ],
      "name": "refundable",
      "outputs": [
        {
          "internalType": "bool",
          "name": "",
          "type": "bool"
        }
      ],
      "stateMutability": "view",
      "type": "function"
    },
    {
      "inputs": [],
      "name": "renounceOwnership",
      "outputs": [],
      "stateMutability": "nonpayable",
      "type": "function"
    },
    {
      "inputs": [
        {
          "internalType": "uint256",
          "name": "",
          "type": "uint256"
        }
      ],
      "name": "rounds",
      "outputs": [
        {
          "internalType": "uint256",
          "name": "epoch",
          "type": "uint256"
        },
        {
          "internalType": "uint256",
          "name": "startTimestamp",
          "type": "uint256"
        },
        {
          "internalType": "uint256",
          "name": "closeTimestamp",
          "type": "uint256"
        },
        {
          "internalType": "int256",
          "name": "tossResult",
          "type": "int256"
        },
        {
          "internalType": "uint256",
          "name": "closeOracleId",
          "type": "uint256"
        },
        {
          "internalType": "uint256",
          "name": "totalAmount",
          "type": "uint256"
        },
        {
          "internalType": "uint256",
          "name": "headsAmount",
          "type": "uint256"
        },
        {
          "internalType": "uint256",
          "name": "tailsAmount",
          "type": "uint256"
        },
        {
          "internalType": "uint256",
          "name": "rewardBaseCalAmount",
          "type": "uint256"
        },
        {
          "internalType": "uint256",
          "name": "rewardAmount",
          "type": "uint256"
        },
        {
          "internalType": "bool",
          "name": "oracleCalled",
          "type": "bool"
        },
        {
          "internalType": "bool",
          "name": "ifRefundable",
          "type": "bool"
        }
      ],
      "stateMutability": "view",
      "type": "function"
    },
    {
      "inputs": [],
      "name": "routerContract",
      "outputs": [
        {
          "internalType": "address",
          "name": "",
          "type": "address"
        }
      ],
      "stateMutability": "view",
      "type": "function"
    },
    {
      "inputs": [
        {
          "internalType": "address",
          "name": "_adminAddress",
          "type": "address"
        }
      ],
      "name": "setAdmin",
      "outputs": [],
      "stateMutability": "nonpayable",
      "type": "function"
    },
    {
      "inputs": [
        {
          "internalType": "uint256",
          "name": "_amount",
          "type": "uint256"
        }
      ],
      "name": "setFeeAmount",
      "outputs": [],
      "stateMutability": "nonpayable",
      "type": "function"
    },
    {
      "inputs": [
        {
          "internalType": "address",
          "name": "_token",
          "type": "address"
        }
      ],
      "name": "setFeeToken",
      "outputs": [],
      "stateMutability": "nonpayable",
      "type": "function"
    },
    {
      "inputs": [
        {
          "internalType": "uint256",
          "name": "_intervalSeconds",
          "type": "uint256"
        }
      ],
      "name": "setIntervalSeconds",
      "outputs": [],
      "stateMutability": "nonpayable",
      "type": "function"
    },
    {
      "inputs": [
        {
          "internalType": "uint256",
          "name": "_minBetAmount",
          "type": "uint256"
        }
      ],
      "name": "setMinBetAmount",
      "outputs": [],
      "stateMutability": "nonpayable",
      "type": "function"
    },
    {
      "inputs": [
        {
          "internalType": "address",
          "name": "_operatorAddress",
          "type": "address"
        }
      ],
      "name": "setOperator",
      "outputs": [],
      "stateMutability": "nonpayable",
      "type": "function"
    },
    {
      "inputs": [
        {
          "internalType": "uint256",
          "name": "_oracleUpdateAllowance",
          "type": "uint256"
        }
      ],
      "name": "setOracleUpdateAllowance",
      "outputs": [],
      "stateMutability": "nonpayable",
      "type": "function"
    },
    {
      "inputs": [
        {
          "internalType": "uint256",
          "name": "_treasuryFee",
          "type": "uint256"
        }
      ],
      "name": "setTreasuryFee",
      "outputs": [],
      "stateMutability": "nonpayable",
      "type": "function"
    },
    {
      "inputs": [],
      "name": "tokenAddress",
      "outputs": [
        {
          "internalType": "address",
          "name": "",
          "type": "address"
        }
      ],
      "stateMutability": "view",
      "type": "function"
    },
    {
      "inputs": [],
      "name": "totalFeeAmount",
      "outputs": [
        {
          "internalType": "uint256",
          "name": "",
          "type": "uint256"
        }
      ],
      "stateMutability": "view",
      "type": "function"
    },
    {
      "inputs": [
        {
          "internalType": "address",
          "name": "newOwner",
          "type": "address"
        }
      ],
      "name": "transferOwnership",
      "outputs": [],
      "stateMutability": "nonpayable",
      "type": "function"
    },
    {
      "inputs": [],
      "name": "treasuryAmount",
      "outputs": [
        {
          "internalType": "uint256",
          "name": "",
          "type": "uint256"
        }
      ],
      "stateMutability": "view",
      "type": "function"
    },
    {
      "inputs": [],
      "name": "treasuryFee",
      "outputs": [
        {
          "internalType": "uint256",
          "name": "",
          "type": "uint256"
        }
      ],
      "stateMutability": "view",
      "type": "function"
    },
    {
      "inputs": [],
      "name": "unpause",
      "outputs": [],
      "stateMutability": "nonpayable",
      "type": "function"
    },
    {
      "inputs": [
        {
          "internalType": "address",
          "name": "newImplementation",
          "type": "address"
        }
      ],
      "name": "upgradeTo",
      "outputs": [],
      "stateMutability": "nonpayable",
      "type": "function"
    },
    {
      "inputs": [
        {
          "internalType": "address",
          "name": "newImplementation",
          "type": "address"
        },
        {
          "internalType": "bytes",
          "name": "data",
          "type": "bytes"
        }
      ],
      "name": "upgradeToAndCall",
      "outputs": [],
      "stateMutability": "payable",
      "type": "function"
    },
    {
      "inputs": [
        {
          "internalType": "address",
          "name": "",
          "type": "address"
        },
        {
          "internalType": "uint256",
          "name": "",
          "type": "uint256"
        }
      ],
      "name": "userRounds",
      "outputs": [
        {
          "internalType": "uint256",
          "name": "",
          "type": "uint256"
        }
      ],
      "stateMutability": "view",
      "type": "function"
    }
  ],
  "transactionHash": "0xf0bd4d9950fb9aeacd0b8cc7962742f99147d6cabfb2d29e0b16e7e798ac5304",
  "args": [],
  "numDeployments": 1,
  "solcInputHash": "ab20f7579c850e0fbcbcfcb1ce50b5a1",
  "bytecode": "0x60a06040523060601b60805234801561001757600080fd5b5060805160601c615398610052600039600081816116d80152818161175d01528181611c4501528181611cca0152611e4101526153986000f3fe6080604052600436106103805760003560e01c8063715018a6116101d1578063a0c7f71c11610102578063dd1f7596116100a0578063f7fdec281161006f578063f7fdec2814610a80578063fa968eea14610a9b578063faf147e014610ab2578063fc6f946814610ac757600080fd5b8063dd1f759614610a13578063ec32470314610a33578063f2b3c80914610a4a578063f2fde38b14610a6057600080fd5b8063b29a8140116100dc578063b29a81401461099c578063b3ab15fb146109bc578063cc32d176146109dc578063cf2f5039146109f357600080fd5b8063a0c7f71c1461095c578063a890075f14610913578063ae5a7e661461097c57600080fd5b80638c65c81f1161016f578063965217161161014957806396521716146108fc5780639d5f79f7146109135780639d76ea58146109285780639e265fad1461094957600080fd5b80638c65c81f146107d15780638da5cb5b146108af578063951fd600146108cd57600080fd5b806377e741c7116101ab57806377e741c7146107655780637bf41254146107855780637d1cd04f146107a55780638456cb59146107bc57600080fd5b8063715018a6146106d15780637285c58b146106e6578063766718081461074e57600080fd5b80634674b31d116102b657806360554011116102545780636ba4c138116102235780636ba4c1381461065c5780636c1885931461067c5780636c3bed851461069c578063704b6c02146106b157600080fd5b806360554011146105ed578063647846a51461060457806369e15404146106255780636b3926801461063c57600080fd5b80634f72d846116102905780634f72d846146105735780634f7cf35b1461059457806352d1902d146105b45780635c975abb146105c957600080fd5b80634674b31d1461052b578063495bd94e146105405780634f1ef2861461056057600080fd5b8063205aa9cd11610323578063368acb09116102fd578063368acb09146104d35780633f4ba83a146104ea57806342619f66146104ff578063452fd75a1461051657600080fd5b8063205aa9cd14610469578063273867d41461047c5780633659cfe6146104b357600080fd5b80630fcbf4631161035f5780630fcbf463146103e6578063127effb2146103fb57806315cce22414610434578063205083ba1461045457600080fd5b80623bdc741461038557806306661abd1461039c5780630ed201a8146103c6575b600080fd5b34801561039157600080fd5b5061039a610aed565b005b3480156103a857600080fd5b506103b36101395481565b6040519081526020015b60405180910390f35b3480156103d257600080fd5b5061039a6103e1366004614e68565b610daf565b3480156103f257600080fd5b506103b3600081565b34801561040757600080fd5b5061012e5461041c906001600160a01b031681565b6040516001600160a01b0390911681526020016103bd565b34801561044057600080fd5b5061039a61044f366004614e30565b610f9d565b34801561046057600080fd5b506103b3600a81565b61039a610477366004615117565b6110ab565b34801561048857600080fd5b506103b3610497366004614e30565b6001600160a01b03166000908152610141602052604090205490565b3480156104bf57600080fd5b5061039a6104ce366004614e30565b6116cd565b3480156104df57600080fd5b506103b36101325481565b3480156104f657600080fd5b5061039a611820565b34801561050b57600080fd5b506103b36101385481565b34801561052257600080fd5b5061039a6118f7565b34801561053757600080fd5b506103b3600281565b34801561054c57600080fd5b5061039a61055b3660046150d0565b611a50565b61039a61056e366004614f0a565b611c3a565b34801561057f57600080fd5b5061013b5461041c906001600160a01b031681565b3480156105a057600080fd5b5061039a6105af3660046150d0565b611d7e565b3480156105c057600080fd5b506103b3611e34565b3480156105d557600080fd5b5060c95460ff165b60405190151581526020016103bd565b3480156105f957600080fd5b506103b36101355481565b34801561061057600080fd5b5061013e5461041c906001600160a01b031681565b34801561063157600080fd5b506103b361013d5481565b34801561064857600080fd5b5061039a6106573660046150d0565b611ef9565b34801561066857600080fd5b5061039a610677366004615028565b611f94565b34801561068857600080fd5b5061039a6106973660046150d0565b612892565b3480156106a857600080fd5b506103b3600381565b3480156106bd57600080fd5b5061039a6106cc366004614e30565b6129b5565b3480156106dd57600080fd5b5061039a612ada565b3480156106f257600080fd5b506107316107013660046150e8565b61013f60209081526000928352604080842090915290825290208054600182015460029092015490919060ff1683565b6040805193845260208401929092521515908201526060016103bd565b34801561075a57600080fd5b506103b36101335481565b34801561077157600080fd5b5061039a6107803660046150d0565b612b40565b34801561079157600080fd5b506105dd6107a03660046150e8565b612c61565b3480156107b157600080fd5b506103b361012f5481565b3480156107c857600080fd5b5061039a612d84565b3480156107dd57600080fd5b506108526107ec3660046150d0565b61014060205260009081526040902080546001820154600283015460038401546004850154600586015460068701546007880154600889015460098a0154600a909a01549899979896979596949593949293919290919060ff808216916101009004168c565b604080519c8d5260208d019b909b52998b019890985260608a0196909652608089019490945260a088019290925260c087015260e086015261010085015261012084015215156101408301521515610160820152610180016103bd565b3480156108bb57600080fd5b506097546001600160a01b031661041c565b3480156108d957600080fd5b506108ed6108e8366004614ff4565b612e6c565b6040516103bd93929190615177565b34801561090857600080fd5b506103b361013c5481565b34801561091f57600080fd5b506103b3600181565b34801561093457600080fd5b5061013a5461041c906001600160a01b031681565b61039a610957366004615117565b613164565b34801561096857600080fd5b506105dd6109773660046150e8565b61374c565b34801561098857600080fd5b5061039a6109973660046150d0565b613889565b3480156109a857600080fd5b5061039a6109b7366004614fc9565b6139a4565b3480156109c857600080fd5b5061039a6109d7366004614e30565b613adf565b3480156109e857600080fd5b506103b36101315481565b3480156109ff57600080fd5b5061039a610a0e3660046150d0565b613bd0565b348015610a1f57600080fd5b506103b3610a2e366004614fc9565b613c9b565b348015610a3f57600080fd5b506103b36101345481565b348015610a5657600080fd5b506103b36103e881565b348015610a6c57600080fd5b5061039a610a7b366004614e30565b613ccd565b348015610a8c57600080fd5b5061012d546105dd9060ff1681565b348015610aa757600080fd5b506103b36101305481565b348015610abe57600080fd5b506103b3600b81565b348015610ad357600080fd5b5061012d5461041c9061010090046001600160a01b031681565b600260fb541415610b455760405162461bcd60e51b815260206004820152601f60248201527f5265656e7472616e637947756172643a207265656e7472616e742063616c6c0060448201526064015b60405180910390fd5b600260fb5561012d5461010090046001600160a01b03163314610b965760405162461bcd60e51b81526020600482015260096024820152682737ba1030b236b4b760b91b6044820152606401610b3c565b61013b54604080517f2c035b74000000000000000000000000000000000000000000000000000000008152905147926000926001600160a01b0390911691632c035b7491600480820192602092909190829003018186803b158015610bfa57600080fd5b505afa158015610c0e573d6000803e3d6000fd5b505050506040513d601f19601f82011682018060405250810190610c329190614e4c565b9050600061013b60009054906101000a90046001600160a01b03166001600160a01b0316631c578fde6040518163ffffffff1660e01b815260040160206040518083038186803b158015610c8557600080fd5b505afa158015610c99573d6000803e3d6000fd5b505050506040513d601f19601f82011682018060405250810190610cbd9190614e4c565b61013b546040517f75ecb9f90000000000000000000000000000000000000000000000000000000081526004810186905291925060009182916001600160a01b0316906375ecb9f990602401604080518083038186803b158015610d2057600080fd5b505afa158015610d34573d6000803e3d6000fd5b505050506040513d601f19601f82011682018060405250810190610d589190615138565b91509150610d668483613d95565b610d708382613d95565b6040518581527fb9197c6b8e21274bd1e2d9c956a88af5cfee510f630fab3f046300f88b4223619060200160405180910390a15050600160fb55505050565b600054610100900460ff16610dca5760005460ff1615610dce565b303b155b610e405760405162461bcd60e51b815260206004820152602e60248201527f496e697469616c697a61626c653a20636f6e747261637420697320616c72656160448201527f647920696e697469616c697a65640000000000000000000000000000000000006064820152608401610b3c565b600054610100900460ff16158015610e62576000805461ffff19166101011790555b610e6a613e63565b610e72613ed6565b610e7a613f41565b610e82613fb4565b610e8b33614027565b6103e8861115610edd5760405162461bcd60e51b815260206004820152601560248201527f54726561737572792066656520746f6f206869676800000000000000000000006044820152606401610b3c565b61012d805461012e80546001600160a01b038e81166001600160a01b03199283161790925561012f8d90556101308c90556101358b90556101318a905561013a80548a841690831617905561013b805489841690831617905561013e8054888416921691909117905561013d85905560ff19908e1661010002167fffffffffffffffffffffff0000000000000000000000000000000000000000009091161790558015610f90576000805461ff00191690555b5050505050505050505050565b60c95460ff16610fe65760405162461bcd60e51b815260206004820152601460248201527314185d5cd8589b194e881b9bdd081c185d5cd95960621b6044820152606401610b3c565b61012d5461010090046001600160a01b031633146110325760405162461bcd60e51b81526020600482015260096024820152682737ba1030b236b4b760b91b6044820152606401610b3c565b6001600160a01b0381166110885760405162461bcd60e51b815260206004820152601660248201527f43616e6e6f74206265207a65726f2061646472657373000000000000000000006044820152606401610b3c565b61013e80546001600160a01b0319166001600160a01b0392909216919091179055565b60c95460ff16156110f15760405162461bcd60e51b815260206004820152601060248201526f14185d5cd8589b194e881c185d5cd95960821b6044820152606401610b3c565b600260fb5414156111445760405162461bcd60e51b815260206004820152601f60248201527f5265656e7472616e637947756172643a207265656e7472616e742063616c6c006044820152606401610b3c565b600260fb55333b156111985760405162461bcd60e51b815260206004820152601460248201527f436f6e7472616374206e6f7420616c6c6f7765640000000000000000000000006044820152606401610b3c565b3332146111e75760405162461bcd60e51b815260206004820152601a60248201527f50726f787920636f6e7472616374206e6f7420616c6c6f7765640000000000006044820152606401610b3c565b6101335482146112395760405162461bcd60e51b815260206004820152601560248201527f42657420697320746f6f206561726c792f6c61746500000000000000000000006044820152606401610b3c565b6112428261407b565b61128e5760405162461bcd60e51b815260206004820152601260248201527f526f756e64206e6f74206265747461626c6500000000000000000000000000006044820152606401610b3c565b610130548110156112f65760405162461bcd60e51b815260206004820152602c60248201527f42657420616d6f756e74206d7573742062652067726561746572207468616e2060448201526b1b5a5b90995d105b5bdd5b9d60a21b6064820152608401610b3c565b61013d5434101561136f5760405162461bcd60e51b815260206004820152602f60248201527f5573657220646f6573206e6f74206861766520656e6f7567682066756e64732060448201527f746f2070617920746865206665657300000000000000000000000000000000006064820152608401610b3c565b61013a546040516370a0823160e01b815233600482015282916001600160a01b0316906370a082319060240160206040518083038186803b1580156113b357600080fd5b505afa1580156113c7573d6000803e3d6000fd5b505050506040513d601f19601f820116820180604052508101906113eb91906150b8565b10156114395760405162461bcd60e51b815260206004820152601a60248201527f5573657220686173206e6f7420656e6f756768742066756e64730000000000006044820152606401610b3c565b600082815261013f60209081526040808320338452909152902060010154156114c657600082815261013f602090815260408083203384529091529020546001146114c65760405162461bcd60e51b815260206004820152601d60248201527f43616e206f6e6c7920626574206f6e207468652073616d6520736964650000006044820152606401610b3c565b61013b5461013a5461013154604051630453f59960e21b81526001600160a01b03928316600482015233602482015260448101859052606481019190915291169063114fd66490608401602060405180830381600087803b15801561152a57600080fd5b505af115801561153e573d6000803e3d6000fd5b505050506040513d601f19601f8201168201806040525081019061156291906150b8565b5061013d5461013c546115759190615245565b61013c556000828152610140602052604090206005810154611598908390615245565b600582015560068101546115ad908390615245565b6006820155600083815261013f60209081526040808320338452909152902060018101546115f95733600090815261014160209081526040822080546001810182559083529120018490555b600180825581015461160c908490615245565b6001820155604051838152849033907fb6d8e7d6ffd9d5a3a37fec9f3e7ae19b4252138e5d2b7a4faf8022f7f09969ed9060200160405180910390a361013b546040516350ca72cd60e01b81526003600482015230602482015233604482015260648101869052608481018590526001600160a01b03909116906350ca72cd9060a4015b600060405180830381600087803b1580156116aa57600080fd5b505af11580156116be573d6000803e3d6000fd5b5050600160fb55505050505050565b306001600160a01b037f000000000000000000000000000000000000000000000000000000000000000016141561175b5760405162461bcd60e51b815260206004820152602c60248201527f46756e6374696f6e206d7573742062652063616c6c6564207468726f7567682060448201526b19195b1959d85d1958d85b1b60a21b6064820152608401610b3c565b7f00000000000000000000000000000000000000000000000000000000000000006001600160a01b031661178d6140ed565b6001600160a01b0316146117f85760405162461bcd60e51b815260206004820152602c60248201527f46756e6374696f6e206d7573742062652063616c6c6564207468726f7567682060448201526b6163746976652070726f787960a01b6064820152608401610b3c565b61180181614120565b6040805160008082526020820190925261181d9183919061417a565b50565b60c95460ff166118695760405162461bcd60e51b815260206004820152601460248201527314185d5cd8589b194e881b9bdd081c185d5cd95960621b6044820152606401610b3c565b61012d5461010090046001600160a01b031633146118b55760405162461bcd60e51b81526020600482015260096024820152682737ba1030b236b4b760b91b6044820152606401610b3c565b61012d805460ff191690556118c8614329565b610133546040517faaa520fdd7d2c83061d632fa017b0432407e798818af63ea908589fceda39ab790600090a2565b60c95460ff161561193d5760405162461bcd60e51b815260206004820152601060248201526f14185d5cd8589b194e881c185d5cd95960821b6044820152606401610b3c565b61012d5461010090046001600160a01b0316331480611967575061012e546001600160a01b031633145b6119a85760405162461bcd60e51b81526020600482015260126024820152712737ba1037b832b930ba37b917b0b236b4b760711b6044820152606401610b3c565b61012d5460ff1615611a225760405162461bcd60e51b815260206004820152602360248201527f43616e206f6e6c792072756e2067656e657369735374617274526f756e64206f60448201527f6e636500000000000000000000000000000000000000000000000000000000006064820152608401610b3c565b61013354611a31906001615245565b610133819055611a40906143bc565b61012d805460ff19166001179055565b60c95460ff1615611a965760405162461bcd60e51b815260206004820152601060248201526f14185d5cd8589b194e881c185d5cd95960821b6044820152606401610b3c565b61012d5461010090046001600160a01b0316331480611ac0575061012e546001600160a01b031633145b611b015760405162461bcd60e51b81526020600482015260126024820152712737ba1037b832b930ba37b917b0b236b4b760711b6044820152606401610b3c565b6101388190556101398054906000611b18836152df565b9091555050604080518281523360208201527f3626e2f97953198c54f39d281ba2d6af75e90b8b81e9de0a62d4a4ec31dcb7c2910160405180910390a1610139546101348190556001821660026000821315611b72575060035b61013b54610133546040516350ca72cd60e01b8152600b60048201523060248201523360448201526064810191909152608481018390526001600160a01b03909116906350ca72cd9060a401600060405180830381600087803b158015611bd857600080fd5b505af1158015611bec573d6000803e3d6000fd5b50505050611c0a610133548469ffffffffffffffffffff168461441d565b611c1661013354614588565b61013354611c25906001615245565b610133819055611c349061473e565b50505050565b306001600160a01b037f0000000000000000000000000000000000000000000000000000000000000000161415611cc85760405162461bcd60e51b815260206004820152602c60248201527f46756e6374696f6e206d7573742062652063616c6c6564207468726f7567682060448201526b19195b1959d85d1958d85b1b60a21b6064820152608401610b3c565b7f00000000000000000000000000000000000000000000000000000000000000006001600160a01b0316611cfa6140ed565b6001600160a01b031614611d655760405162461bcd60e51b815260206004820152602c60248201527f46756e6374696f6e206d7573742062652063616c6c6564207468726f7567682060448201526b6163746976652070726f787960a01b6064820152608401610b3c565b611d6e82614120565b611d7a8282600161417a565b5050565b60c95460ff16611dc75760405162461bcd60e51b815260206004820152601460248201527314185d5cd8589b194e881b9bdd081c185d5cd95960621b6044820152606401610b3c565b61012d5461010090046001600160a01b03163314611e135760405162461bcd60e51b81526020600482015260096024820152682737ba1030b236b4b760b91b6044820152606401610b3c565b600090815261014060205260409020600a01805461ff001916610100179055565b6000306001600160a01b037f00000000000000000000000000000000000000000000000000000000000000001614611ed45760405162461bcd60e51b815260206004820152603860248201527f555550535570677261646561626c653a206d757374206e6f742062652063616c60448201527f6c6564207468726f7567682064656c656761746563616c6c00000000000000006064820152608401610b3c565b507f360894a13ba1a3210667c828492db98dca3e2076cc3735a920a3ca505d382bbc90565b60c95460ff16611f425760405162461bcd60e51b815260206004820152601460248201527314185d5cd8589b194e881b9bdd081c185d5cd95960621b6044820152606401610b3c565b61012d5461010090046001600160a01b03163314611f8e5760405162461bcd60e51b81526020600482015260096024820152682737ba1030b236b4b760b91b6044820152606401610b3c565b61013d55565b600260fb541415611fe75760405162461bcd60e51b815260206004820152601f60248201527f5265656e7472616e637947756172643a207265656e7472616e742063616c6c006044820152606401610b3c565b600260fb55333b1561203b5760405162461bcd60e51b815260206004820152601460248201527f436f6e7472616374206e6f7420616c6c6f7765640000000000000000000000006044820152606401610b3c565b33321461208a5760405162461bcd60e51b815260206004820152601a60248201527f50726f787920636f6e7472616374206e6f7420616c6c6f7765640000000000006044820152606401610b3c565b6000805b828110156127d65761014060008585848181106120bb57634e487b7160e01b600052603260045260246000fd5b90506020020135815260200190815260200160002060010154600014156121245760405162461bcd60e51b815260206004820152601560248201527f526f756e6420686173206e6f74207374617274656400000000000000000000006044820152606401610b3c565b610140600085858481811061214957634e487b7160e01b600052603260045260246000fd5b905060200201358152602001908152602001600020600201544211806121b65750610140600085858481811061218f57634e487b7160e01b600052603260045260246000fd5b905060200201358152602001908152602001600020600a0160019054906101000a900460ff165b6122025760405162461bcd60e51b815260206004820152601360248201527f526f756e6420686173206e6f7420656e646564000000000000000000000000006044820152606401610b3c565b6000610140600086868581811061222957634e487b7160e01b600052603260045260246000fd5b60209081029290920135835250810191909152604001600020600a015460ff16156124b55761227e85858481811061227157634e487b7160e01b600052603260045260246000fd5b905060200201353361374c565b6122ca5760405162461bcd60e51b815260206004820152601660248201527f4e6f7420656c696769626c6520666f7220636c61696d000000000000000000006044820152606401610b3c565b600061014060008787868181106122f157634e487b7160e01b600052603260045260246000fd5b9050602002013581526020019081526020016000206040518061018001604052908160008201548152602001600182015481526020016002820154815260200160038201548152602001600482015481526020016005820154815260200160068201548152602001600782015481526020016008820154815260200160098201548152602001600a820160009054906101000a900460ff16151515158152602001600a820160019054906101000a900460ff16151515158152505090506127106101315461013f60008989888181106123da57634e487b7160e01b600052603260045260246000fd5b9050602002013581526020019081526020016000206000336001600160a01b03166001600160a01b03168152602001908152602001600020600101546002612422919061527d565b61242c919061527d565b612436919061525d565b61013f600088888781811061245b57634e487b7160e01b600052603260045260246000fd5b9050602002013581526020019081526020016000206000336001600160a01b03166001600160a01b031681526020019081526020016000206001015460026124a3919061527d565b6124ad919061529c565b915050612621565b6124e58585848181106124d857634e487b7160e01b600052603260045260246000fd5b9050602002013533612c61565b6125315760405162461bcd60e51b815260206004820152601760248201527f4e6f7420656c696769626c6520666f7220726566756e640000000000000000006044820152606401610b3c565b60006127106101315461013f600089898881811061255f57634e487b7160e01b600052603260045260246000fd5b9050602002013581526020019081526020016000206000336001600160a01b03166001600160a01b03168152602001908152602001600020600101546125a5919061527d565b6125af919061525d565b90508061013f60008888878181106125d757634e487b7160e01b600052603260045260246000fd5b9050602002013581526020019081526020016000206000336001600160a01b03166001600160a01b031681526020019081526020016000206001015461261d919061529c565b9150505b600161013f600087878681811061264857634e487b7160e01b600052603260045260246000fd5b6020908102929092013583525081810192909252604090810160009081203382529092529020600201805460ff191691151591909117905561268a8184615245565b92508484838181106126ac57634e487b7160e01b600052603260045260246000fd5b90506020020135336001600160a01b03167f34fcbac0073d7c3d388e51312faf357774904998eeb8fca628b9e6f65ee1cbf7836040516126ee91815260200190565b60405180910390a361013b546001600160a01b03166350ca72cd6001303389898881811061272c57634e487b7160e01b600052603260045260246000fd5b60405160e088901b7fffffffff0000000000000000000000000000000000000000000000000000000016815260048101969096526001600160a01b039485166024870152929093166044850152602090910201356064830152506084810184905260a401600060405180830381600087803b1580156127aa57600080fd5b505af11580156127be573d6000803e3d6000fd5b505050505080806127ce906152df565b91505061208e565b5080156128885761013b5461013a546040517fc6c3bbe60000000000000000000000000000000000000000000000000000000081526001600160a01b0391821660048201523360248201526044810184905291169063c6c3bbe690606401602060405180830381600087803b15801561284e57600080fd5b505af1158015612862573d6000803e3d6000fd5b505050506040513d601f19601f8201168201806040525081019061288691906150b8565b505b5050600160fb5550565b60c95460ff166128db5760405162461bcd60e51b815260206004820152601460248201527314185d5cd8589b194e881b9bdd081c185d5cd95960621b6044820152606401610b3c565b61012d5461010090046001600160a01b031633146129275760405162461bcd60e51b81526020600482015260096024820152682737ba1030b236b4b760b91b6044820152606401610b3c565b806129745760405162461bcd60e51b815260206004820152601560248201527f4d757374206265207375706572696f7220746f203000000000000000000000006044820152606401610b3c565b610130819055610133546040518281527f90eb87c560a0213754ceb3a7fa3012f01acab0a35602c1e1995adf69dabc9d50906020015b60405180910390a250565b6097546001600160a01b03163314612a0f5760405162461bcd60e51b815260206004820181905260248201527f4f776e61626c653a2063616c6c6572206973206e6f7420746865206f776e65726044820152606401610b3c565b6001600160a01b038116612a655760405162461bcd60e51b815260206004820152601660248201527f43616e6e6f74206265207a65726f2061646472657373000000000000000000006044820152606401610b3c565b61012d80547fffffffffffffffffffffff0000000000000000000000000000000000000000ff166101006001600160a01b038416908102919091179091556040519081527f137b621413925496477d46e5055ac0d56178bdd724ba8bf843afceef18268ba3906020015b60405180910390a150565b6097546001600160a01b03163314612b345760405162461bcd60e51b815260206004820181905260248201527f4f776e61626c653a2063616c6c6572206973206e6f7420746865206f776e65726044820152606401610b3c565b612b3e60006148ef565b565b60c95460ff16612b895760405162461bcd60e51b815260206004820152601460248201527314185d5cd8589b194e881b9bdd081c185d5cd95960621b6044820152606401610b3c565b61012d5461010090046001600160a01b03163314612bd55760405162461bcd60e51b81526020600482015260096024820152682737ba1030b236b4b760b91b6044820152606401610b3c565b6103e8811115612c275760405162461bcd60e51b815260206004820152601560248201527f54726561737572792066656520746f6f206869676800000000000000000000006044820152606401610b3c565b610131819055610133546040518281527fb1c4ee38d35556741133da7ff9b6f7ab0fa88d0406133126ff128f635490a857906020016129aa565b600082815261013f602090815260408083206001600160a01b03851684528252808320815160608082018452825482526001808401548387015260029384015460ff908116151584870152898852610140808852868920875161018081018952815481529381015498840198909852948701549582019590955260038601549181019190915260048501546080820152600585015460a0820152600685015460c0820152600785015460e08201526008850154610100828101919091526009860154610120830152600a9095015480851615159382019390935293909104909116158015610160840181905291929190612d5d57508160400151155b8015612d6c5750806040015142115b8015612d7b5750602082015115155b95945050505050565b60c95460ff1615612dca5760405162461bcd60e51b815260206004820152601060248201526f14185d5cd8589b194e881c185d5cd95960821b6044820152606401610b3c565b61012d5461010090046001600160a01b0316331480612df4575061012e546001600160a01b031633145b612e355760405162461bcd60e51b81526020600482015260126024820152712737ba1037b832b930ba37b917b0b236b4b760711b6044820152606401610b3c565b612e3d614941565b610133546040517f68b095021b1f40fe513109f513c66692f0b3219aee674a69f4efc57badb8201d90600090a2565b6001600160a01b0383166000908152610141602052604081205460609182918490861115612edc5760405162461bcd60e51b815260206004820152601460248201527f437572736f72206f7574206f6620626f756e64730000000000000000000000006044820152606401610b3c565b6001600160a01b03871660009081526101416020526040902054612f0190879061529c565b811115612f30576001600160a01b03871660009081526101416020526040902054612f2d90879061529c565b90505b60008167ffffffffffffffff811115612f5957634e487b7160e01b600052604160045260246000fd5b604051908082528060200260200182016040528015612f82578160200160208202803683370190505b50905060008267ffffffffffffffff811115612fae57634e487b7160e01b600052604160045260246000fd5b60405190808252806020026020018201604052801561300557816020015b612ff2604051806060016040528060008152602001600081526020016000151581525090565b815260200190600190039081612fcc5790505b50905060005b83811015613145576001600160a01b038a16600090815261014160205260409020613036828b615245565b8154811061305457634e487b7160e01b600052603260045260246000fd5b906000526020600020015483828151811061307f57634e487b7160e01b600052603260045260246000fd5b60200260200101818152505061013f60008483815181106130b057634e487b7160e01b600052603260045260246000fd5b602090810291909101810151825281810192909252604090810160009081206001600160a01b038e16825283528190208151606081018352815481526001820154938101939093526002015460ff16151590820152825183908390811061312757634e487b7160e01b600052603260045260246000fd5b6020026020010181905250808061313d906152df565b91505061300b565b508181613152858b615245565b95509550955050505093509350939050565b60c95460ff16156131aa5760405162461bcd60e51b815260206004820152601060248201526f14185d5cd8589b194e881c185d5cd95960821b6044820152606401610b3c565b600260fb5414156131fd5760405162461bcd60e51b815260206004820152601f60248201527f5265656e7472616e637947756172643a207265656e7472616e742063616c6c006044820152606401610b3c565b600260fb55333b156132515760405162461bcd60e51b815260206004820152601460248201527f436f6e7472616374206e6f7420616c6c6f7765640000000000000000000000006044820152606401610b3c565b3332146132a05760405162461bcd60e51b815260206004820152601a60248201527f50726f787920636f6e7472616374206e6f7420616c6c6f7765640000000000006044820152606401610b3c565b6101335482146132f25760405162461bcd60e51b815260206004820152601560248201527f42657420697320746f6f206561726c792f6c61746500000000000000000000006044820152606401610b3c565b6132fb8261407b565b6133475760405162461bcd60e51b815260206004820152601260248201527f526f756e64206e6f74206265747461626c6500000000000000000000000000006044820152606401610b3c565b610130548110156133af5760405162461bcd60e51b815260206004820152602c60248201527f42657420616d6f756e74206d7573742062652067726561746572207468616e2060448201526b1b5a5b90995d105b5bdd5b9d60a21b6064820152608401610b3c565b61013d543410156134285760405162461bcd60e51b815260206004820152602f60248201527f5573657220646f6573206e6f74206861766520656e6f7567682066756e64732060448201527f746f2070617920746865206665657300000000000000000000000000000000006064820152608401610b3c565b61013a546040516370a0823160e01b815233600482015282916001600160a01b0316906370a082319060240160206040518083038186803b15801561346c57600080fd5b505afa158015613480573d6000803e3d6000fd5b505050506040513d601f19601f820116820180604052508101906134a491906150b8565b10156134f25760405162461bcd60e51b815260206004820152601a60248201527f5573657220686173206e6f7420656e6f756768742066756e64730000000000006044820152606401610b3c565b600082815261013f602090815260408083203384529091529020600101541561357d57600082815261013f602090815260408083203384529091529020541561357d5760405162461bcd60e51b815260206004820152601d60248201527f43616e206f6e6c7920626574206f6e207468652073616d6520736964650000006044820152606401610b3c565b61013b5461013a5461013154604051630453f59960e21b81526001600160a01b03928316600482015233602482015260448101859052606481019190915291169063114fd66490608401602060405180830381600087803b1580156135e157600080fd5b505af11580156135f5573d6000803e3d6000fd5b505050506040513d601f19601f8201168201806040525081019061361991906150b8565b5061013d5461013c5461362c9190615245565b61013c55600082815261014060205260409020600581015461364f908390615245565b60058201556007810154613664908390615245565b6007820155600083815261013f60209081526040808320338452909152902060018101546136b05733600090815261014160209081526040822080546001810182559083529120018490555b6000815560018101546136c4908490615245565b6001820155604051838152849033907fe5c4e2521320c9bf477fd178a50f99ad0a3242b16ff67be0f697b0998ccfd3169060200160405180910390a361013b546040516350ca72cd60e01b81526002600482015230602482015233604482015260648101869052608481018590526001600160a01b03909116906350ca72cd9060a401611690565b600082815261013f602090815260408083206001600160a01b03851684528252808320815160608082018452825482526001808401548387015260029384015460ff908116151584870152898852610140808852868920875161018081018952815481529381015498840198909852948701549582019590955260038601549181019190915260048501546080820152600585015460a0820152600685015460c0820152600785015460e08201526008850154610100828101919091526009860154610120830152600a909501548085161580159483018590529590049093161515610160840152926138425750602082015115155b801561385057508160400151155b8015612d7b57508060600151600114801561386c575081516001145b80612d7b57506060810151158015612d7b57505051159392505050565b60c95460ff166138d25760405162461bcd60e51b815260206004820152601460248201527314185d5cd8589b194e881b9bdd081c185d5cd95960621b6044820152606401610b3c565b61012d5461010090046001600160a01b0316331461391e5760405162461bcd60e51b81526020600482015260096024820152682737ba1030b236b4b760b91b6044820152606401610b3c565b6000811161396e5760405162461bcd60e51b815260206004820152601660248201527f4d7573742062652067726561746572207468616e2030000000000000000000006044820152606401610b3c565b61012f8190556040518181527f6efaca79509f934278cc6180e6675623f6c3b11afb2f4f96fb714d229d58f22790602001612acf565b6097546001600160a01b031633146139fe5760405162461bcd60e51b815260206004820181905260248201527f4f776e61626c653a2063616c6c6572206973206e6f7420746865206f776e65726044820152606401610b3c565b6040517fa9059cbb000000000000000000000000000000000000000000000000000000008152336004820152602481018290526001600160a01b0383169063a9059cbb90604401602060405180830381600087803b158015613a5f57600080fd5b505af1158015613a73573d6000803e3d6000fd5b505050506040513d601f19601f82011682018060405250810190613a979190615098565b50816001600160a01b03167f14f11966a996e0629572e51064726d2057a80fbd34efc066682c06a71dbb6e9882604051613ad391815260200190565b60405180910390a25050565b61012d5461010090046001600160a01b03163314613b2b5760405162461bcd60e51b81526020600482015260096024820152682737ba1030b236b4b760b91b6044820152606401610b3c565b6001600160a01b038116613b815760405162461bcd60e51b815260206004820152601660248201527f43616e6e6f74206265207a65726f2061646472657373000000000000000000006044820152606401610b3c565b61012e80546001600160a01b0319166001600160a01b0383169081179091556040519081527fc47d127c07bdd56c5ccba00463ce3bd3c1bca71b4670eea6e5d0c02e4aa156e290602001612acf565b60c95460ff16613c195760405162461bcd60e51b815260206004820152601460248201527314185d5cd8589b194e881b9bdd081c185d5cd95960621b6044820152606401610b3c565b61012d5461010090046001600160a01b03163314613c655760405162461bcd60e51b81526020600482015260096024820152682737ba1030b236b4b760b91b6044820152606401610b3c565b6101358190556040518181527f93ccaceac092ffb842c46b8718667a13a80e9058dcd0bd403d0b47215b30da0790602001612acf565b6101416020528160005260406000208181548110613cb857600080fd5b90600052602060002001600091509150505481565b6097546001600160a01b03163314613d275760405162461bcd60e51b815260206004820181905260248201527f4f776e61626c653a2063616c6c6572206973206e6f7420746865206f776e65726044820152606401610b3c565b6001600160a01b038116613d8c5760405162461bcd60e51b815260206004820152602660248201527f4f776e61626c653a206e6577206f776e657220697320746865207a65726f206160448201526564647265737360d01b6064820152608401610b3c565b61181d816148ef565b6000826001600160a01b03168260405160006040518083038185875af1925050503d8060008114613de2576040519150601f19603f3d011682016040523d82523d6000602084013e613de7565b606091505b5050905080613e5e5760405162461bcd60e51b815260206004820152602560248201527f5472616e7366657248656c7065723a204d415449435f5452414e534645525f4660448201527f41494c45440000000000000000000000000000000000000000000000000000006064820152608401610b3c565b505050565b600054610100900460ff16613ece5760405162461bcd60e51b815260206004820152602b60248201527f496e697469616c697a61626c653a20636f6e7472616374206973206e6f74206960448201526a6e697469616c697a696e6760a81b6064820152608401610b3c565b612b3e6149bc565b600054610100900460ff16612b3e5760405162461bcd60e51b815260206004820152602b60248201527f496e697469616c697a61626c653a20636f6e7472616374206973206e6f74206960448201526a6e697469616c697a696e6760a81b6064820152608401610b3c565b600054610100900460ff16613fac5760405162461bcd60e51b815260206004820152602b60248201527f496e697469616c697a61626c653a20636f6e7472616374206973206e6f74206960448201526a6e697469616c697a696e6760a81b6064820152608401610b3c565b612b3e614a30565b600054610100900460ff1661401f5760405162461bcd60e51b815260206004820152602b60248201527f496e697469616c697a61626c653a20636f6e7472616374206973206e6f74206960448201526a6e697469616c697a696e6760a81b6064820152608401610b3c565b612b3e614aa2565b7f7e644d79422f17c01e4894b5f4f588d331ebfa28653d42ae832dc59e38c9798f614050614b19565b604080516001600160a01b03928316815291841660208301520160405180910390a161181d81614b41565b60008181526101406020526040812060010154158015906140ad57506000828152610140602052604090206002015415155b80156140ca57506000828152610140602052604090206001015442115b80156140e757506000828152610140602052604090206002015442105b92915050565b60007f360894a13ba1a3210667c828492db98dca3e2076cc3735a920a3ca505d382bbc5b546001600160a01b0316919050565b6097546001600160a01b0316331461181d5760405162461bcd60e51b815260206004820181905260248201527f4f776e61626c653a2063616c6c6572206973206e6f7420746865206f776e65726044820152606401610b3c565b7f4910fdfa16fed3260ed0e7147f7cc6da11a60208b5b9406d12a635614ffd91435460ff16156141ad57613e5e83614bea565b826001600160a01b03166352d1902d6040518163ffffffff1660e01b815260040160206040518083038186803b1580156141e657600080fd5b505afa925050508015614216575060408051601f3d908101601f19168201909252614213918101906150b8565b60015b6142885760405162461bcd60e51b815260206004820152602e60248201527f45524331393637557067726164653a206e657720696d706c656d656e7461746960448201527f6f6e206973206e6f7420555550530000000000000000000000000000000000006064820152608401610b3c565b7f360894a13ba1a3210667c828492db98dca3e2076cc3735a920a3ca505d382bbc811461431d5760405162461bcd60e51b815260206004820152602960248201527f45524331393637557067726164653a20756e737570706f727465642070726f7860448201527f6961626c655555494400000000000000000000000000000000000000000000006064820152608401610b3c565b50613e5e838383614c8e565b60c95460ff166143725760405162461bcd60e51b815260206004820152601460248201527314185d5cd8589b194e881b9bdd081c185d5cd95960621b6044820152606401610b3c565b60c9805460ff191690557f5db9ee0a495bf2e6ff9c91a7834c1ba4fdd244a5e8aa4e537bd38aeae4b073aa335b6040516001600160a01b03909116815260200160405180910390a1565b600081815261014060205260409020426001820181905561012f546143e091615245565b600282015581815560006005820181905560405183917f939f42374aa9bf1d8d8cd56d8a9110cb040cd8dfeae44080c6fcf2645e51b45291a25050565b600083815261014060205260409020600101546144a25760405162461bcd60e51b815260206004820152602a60248201527f43616e206f6e6c7920656e6420726f756e6420616674657220726f756e64206860448201527f61732073746172746564000000000000000000000000000000000000000000006064820152608401610b3c565b6000838152610140602052604090206002015442101561452a5760405162461bcd60e51b815260206004820152602760248201527f43616e206f6e6c7920656e6420726f756e6420616674657220636c6f7365546960448201527f6d657374616d70000000000000000000000000000000000000000000000000006064820152608401610b3c565b600083815261014060205260408082206003810184905560048101859055600a8101805460ff1916600117905590519091849186917f3de62ea950fc2ed1ed823bb23086296729e73cdd05823251b76e36665ff267b591a350505050565b600081815261014060205260409020600801541580156145b8575060008181526101406020526040902060090154155b6146045760405162461bcd60e51b815260206004820152601260248201527f526577617264732063616c63756c6174656400000000000000000000000000006044820152606401610b3c565b6000818152610140602052604081206006810154909190819081906146635783600701549250612710610131548560050154614640919061527d565b61464a919061525d565b915081846005015461465c919061529c565b90506146e6565b60078401546146895783600601549250612710610131548560050154614640919061527d565b8360030154600114156146b35783600601549250612710610131548560050154614640919061527d565b60038401546146d95783600701549250612710610131548560050154614640919061527d565b5050506005810154600090815b6008840183905560098401819055604080518481526020810183905290810183905285907f6dfdfcb09c8804d0058826cd2539f1acfbe3cb887c9be03d928035bce0f1a58d9060600160405180910390a25050505050565b61012d5460ff166147b75760405162461bcd60e51b815260206004820152603160248201527f43616e206f6e6c792072756e2061667465722067656e6573697353746172745260448201527f6f756e64206973207472696767657265640000000000000000000000000000006064820152608401610b3c565b61014060006147c760018461529c565b8152602001908152602001600020600201546000141561484f5760405162461bcd60e51b815260206004820152602e60248201527f43616e206f6e6c7920737461727420726f756e6420616674657220726f756e6460448201527f206e2d312068617320656e6465640000000000000000000000000000000000006064820152608401610b3c565b610140600061485f60018461529c565b8152602001908152602001600020600201544210156148e65760405162461bcd60e51b815260206004820152603760248201527f43616e206f6e6c79207374617274206e657720726f756e64206166746572207260448201527f6f756e64206e2d3120636c6f736554696d657374616d700000000000000000006064820152608401610b3c565b61181d816143bc565b609780546001600160a01b038381166001600160a01b0319831681179093556040519116919082907f8be0079c531659141344cd1fd0a4f28419497f9722a3daafe3b4186f6b6457e090600090a35050565b60c95460ff16156149875760405162461bcd60e51b815260206004820152601060248201526f14185d5cd8589b194e881c185d5cd95960821b6044820152606401610b3c565b60c9805460ff191660011790557f62e78cea01bee320cd4e420270b5ea74000d11b0c9f74754ebdbfc544b05a25861439f3390565b600054610100900460ff16614a275760405162461bcd60e51b815260206004820152602b60248201527f496e697469616c697a61626c653a20636f6e7472616374206973206e6f74206960448201526a6e697469616c697a696e6760a81b6064820152608401610b3c565b612b3e336148ef565b600054610100900460ff16614a9b5760405162461bcd60e51b815260206004820152602b60248201527f496e697469616c697a61626c653a20636f6e7472616374206973206e6f74206960448201526a6e697469616c697a696e6760a81b6064820152608401610b3c565b600160fb55565b600054610100900460ff16614b0d5760405162461bcd60e51b815260206004820152602b60248201527f496e697469616c697a61626c653a20636f6e7472616374206973206e6f74206960448201526a6e697469616c697a696e6760a81b6064820152608401610b3c565b60c9805460ff19169055565b60007fb53127684a568b3173ae13b9f8a6016e243e63b6e8ee1178d6a717850b5d6103614111565b6001600160a01b038116614ba65760405162461bcd60e51b815260206004820152602660248201527f455243313936373a206e65772061646d696e20697320746865207a65726f206160448201526564647265737360d01b6064820152608401610b3c565b807fb53127684a568b3173ae13b9f8a6016e243e63b6e8ee1178d6a717850b5d61035b80546001600160a01b0319166001600160a01b039290921691909117905550565b6001600160a01b0381163b614c675760405162461bcd60e51b815260206004820152602d60248201527f455243313936373a206e657720696d706c656d656e746174696f6e206973206e60448201527f6f74206120636f6e7472616374000000000000000000000000000000000000006064820152608401610b3c565b807f360894a13ba1a3210667c828492db98dca3e2076cc3735a920a3ca505d382bbc614bc9565b614c9783614cb3565b600082511180614ca45750805b15613e5e57611c348383614cf3565b614cbc81614bea565b6040516001600160a01b038216907fbc7cd75a20ee27fd9adebab32041f755214dbc6bffa90cc0225b39da2e5c2d3b90600090a250565b60606001600160a01b0383163b614d725760405162461bcd60e51b815260206004820152602660248201527f416464726573733a2064656c65676174652063616c6c20746f206e6f6e2d636f60448201527f6e747261637400000000000000000000000000000000000000000000000000006064820152608401610b3c565b600080846001600160a01b031684604051614d8d919061515b565b600060405180830381855af49150503d8060008114614dc8576040519150601f19603f3d011682016040523d82523d6000602084013e614dcd565b606091505b5091509150612d7b828260405180606001604052806027815260200161533c6027913960608315614dff575081614e29565b825115614e0f5782518084602001fd5b8160405162461bcd60e51b8152600401610b3c9190615212565b9392505050565b600060208284031215614e41578081fd5b8135614e2981615326565b600060208284031215614e5d578081fd5b8151614e2981615326565b6000806000806000806000806000806101408b8d031215614e87578586fd5b8a35614e9281615326565b995060208b0135614ea281615326565b985060408b0135975060608b0135965060808b0135955060a08b0135945060c08b0135614ece81615326565b935060e08b0135614ede81615326565b92506101008b0135614eef81615326565b809250506101208b013590509295989b9194979a5092959850565b60008060408385031215614f1c578182fd5b8235614f2781615326565b9150602083013567ffffffffffffffff80821115614f43578283fd5b818501915085601f830112614f56578283fd5b813581811115614f6857614f68615310565b604051601f8201601f19908116603f01168101908382118183101715614f9057614f90615310565b81604052828152886020848701011115614fa8578586fd5b82602086016020830137856020848301015280955050505050509250929050565b60008060408385031215614fdb578182fd5b8235614fe681615326565b946020939093013593505050565b600080600060608486031215615008578283fd5b833561501381615326565b95602085013595506040909401359392505050565b6000806020838503121561503a578182fd5b823567ffffffffffffffff80821115615051578384fd5b818501915085601f830112615064578384fd5b813581811115615072578485fd5b8660208260051b8501011115615086578485fd5b60209290920196919550909350505050565b6000602082840312156150a9578081fd5b81518015158114614e29578182fd5b6000602082840312156150c9578081fd5b5051919050565b6000602082840312156150e1578081fd5b5035919050565b600080604083850312156150fa578182fd5b82359150602083013561510c81615326565b809150509250929050565b60008060408385031215615129578182fd5b50508035926020909101359150565b6000806040838503121561514a578182fd5b505080516020909101519092909150565b6000825161516d8184602087016152b3565b9190910192915050565b60608082528451828201819052600091906020906080850190828901855b828110156151b157815184529284019290840190600101615195565b50505084810382860152865180825287830191830190855b818110156151fb57835180518452858101518685015260409081015115159084015292840192918501916001016151c9565b505080945050505050826040830152949350505050565b60208152600082518060208401526152318160408501602087016152b3565b601f01601f19169190910160400192915050565b60008219821115615258576152586152fa565b500190565b60008261527857634e487b7160e01b81526012600452602481fd5b500490565b6000816000190483118215151615615297576152976152fa565b500290565b6000828210156152ae576152ae6152fa565b500390565b60005b838110156152ce5781810151838201526020016152b6565b83811115611c345750506000910152565b60006000198214156152f3576152f36152fa565b5060010190565b634e487b7160e01b600052601160045260246000fd5b634e487b7160e01b600052604160045260246000fd5b6001600160a01b038116811461181d57600080fdfe416464726573733a206c6f772d6c6576656c2064656c65676174652063616c6c206661696c6564a2646970667358221220a7dd646dcc0857e5053576d6bf55d4969d1715b9756d0cf95c143f1e19e0b84064736f6c63430008040033",
  "devdoc": {
    "kind": "dev",
    "methods": {
      "claimTreasury()": {
        "details": "Callable by admin"
      },
      "getUserRounds(address,uint256,uint256)": {
        "params": {
          "cursor": ": cursor",
          "size": ": size",
          "user": ": user address"
        }
      },
      "getUserRoundsLength(address)": {
        "params": {
          "user": ": user address"
        }
      },
      "initialize(address,address,uint256,uint256,uint256,uint256,address,address,address,uint256)": {
        "params": {
          "_adminAddress": ": admin address",
          "_intervalSeconds": ": number of time within an interval",
          "_minBetAmount": ": minimum bet amounts (in wei)",
          "_operatorAddress": ": operator address",
          "_oracleUpdateAllowance": ": oracle update allowance",
          "_treasuryFee": ": treasury fee (1000 = 10%)"
        }
      },
      "owner()": {
        "details": "Returns the address of the current owner."
      },
      "pause()": {
        "details": "Callable by admin or operator"
      },
      "paused()": {
        "details": "Returns true if the contract is paused, and false otherwise."
      },
      "proxiableUUID()": {
        "details": "Implementation of the ERC1822 {proxiableUUID} function. This returns the storage slot used by the implementation. It is used to validate that the this implementation remains valid after an upgrade. IMPORTANT: A proxy pointing at a proxiable contract should not be considered proxiable itself, because this risks bricking a proxy that upgrades to it, by delegating to itself until out of gas. Thus it is critical that this function revert if invoked through a proxy. This is guaranteed by the `notDelegated` modifier."
      },
      "recoverToken(address,uint256)": {
        "details": "Callable by owner",
        "params": {
          "_amount": ": token amount",
          "_token": ": token address"
        }
      },
      "refundable(uint256,address)": {
        "params": {
          "epoch": ": epoch",
          "user": ": user address"
        }
      },
      "renounceOwnership()": {
        "details": "Leaves the contract without owner. It will not be possible to call `onlyOwner` functions anymore. Can only be called by the current owner. NOTE: Renouncing ownership will leave the contract without an owner, thereby removing any functionality that is only available to the owner."
      },
      "setAdmin(address)": {
        "details": "Callable by owner"
      },
      "setFeeAmount(uint256)": {
        "details": "Callable by admin"
      },
      "setFeeToken(address)": {
        "details": "Callable by admin"
      },
      "setIntervalSeconds(uint256)": {
        "details": "Callable by admin"
      },
      "setMinBetAmount(uint256)": {
        "details": "Callable by admin"
      },
      "setOperator(address)": {
        "details": "Callable by admin"
      },
      "setOracleUpdateAllowance(uint256)": {
        "details": "Callable by admin"
      },
      "setTreasuryFee(uint256)": {
        "details": "Callable by admin"
      },
      "transferOwnership(address)": {
        "details": "Transfers ownership of the contract to a new account (`newOwner`). Can only be called by the current owner."
      },
      "upgradeTo(address)": {
        "details": "Upgrade the implementation of the proxy to `newImplementation`. Calls {_authorizeUpgrade}. Emits an {Upgraded} event."
      },
      "upgradeToAndCall(address,bytes)": {
        "details": "Upgrade the implementation of the proxy to `newImplementation`, and subsequently execute the function call encoded in `data`. Calls {_authorizeUpgrade}. Emits an {Upgraded} event."
      }
    },
    "version": 1
  },
  "userdoc": {
    "kind": "user",
    "methods": {
      "claimTreasury()": {
        "notice": "Claim all rewards in treasury"
      },
      "getUserRounds(address,uint256,uint256)": {
        "notice": "Returns round epochs and bet information for a user that has participated"
      },
      "getUserRoundsLength(address)": {
        "notice": "Returns round epochs length"
      },
      "initialize(address,address,uint256,uint256,uint256,uint256,address,address,address,uint256)": {
        "notice": "Initialize function from proxy contract"
      },
      "pause()": {
        "notice": "called by the admin to pause, triggers stopped state"
      },
      "recoverToken(address,uint256)": {
        "notice": "It allows the owner to recover tokens sent to the contract by mistake"
      },
      "refundable(uint256,address)": {
        "notice": "Get the refundable stats of specific epoch and user account"
      },
      "setAdmin(address)": {
        "notice": "Set admin address"
      },
      "setFeeAmount(uint256)": {
        "notice": "Set fee amount"
      },
      "setFeeToken(address)": {
        "notice": "Set fee token address"
      },
      "setIntervalSeconds(uint256)": {
        "notice": "Set interval seconds"
      },
      "setMinBetAmount(uint256)": {
        "notice": "Set minBetAmount"
      },
      "setOperator(address)": {
        "notice": "Set operator address"
      },
      "setOracleUpdateAllowance(uint256)": {
        "notice": "Set oracle update allowance"
      },
      "setTreasuryFee(uint256)": {
        "notice": "Set treasury fee"
      },
      "unpause()": {
        "notice": "called by the admin to unpause, returns to normal state Reset genesis state. Once paused, the rounds would need to be kickstarted by genesis"
      }
    },
    "version": 1
  },
  "storageLayout": {
    "storage": [
      {
        "astId": 519,
        "contract": "contracts/OFCointossHouse.sol:OFCointossHouse",
        "label": "_initialized",
        "offset": 0,
        "slot": "0",
        "type": "t_bool"
      },
      {
        "astId": 522,
        "contract": "contracts/OFCointossHouse.sol:OFCointossHouse",
        "label": "_initializing",
        "offset": 1,
        "slot": "0",
        "type": "t_bool"
      },
      {
        "astId": 501,
        "contract": "contracts/OFCointossHouse.sol:OFCointossHouse",
        "label": "__gap",
        "offset": 0,
        "slot": "1",
        "type": "t_array(t_uint256)50_storage"
      },
      {
        "astId": 721,
        "contract": "contracts/OFCointossHouse.sol:OFCointossHouse",
        "label": "__gap",
        "offset": 0,
        "slot": "51",
        "type": "t_array(t_uint256)50_storage"
      },
      {
        "astId": 2116,
        "contract": "contracts/OFCointossHouse.sol:OFCointossHouse",
        "label": "__gap",
        "offset": 0,
        "slot": "101",
        "type": "t_array(t_uint256)50_storage"
      },
      {
        "astId": 10,
        "contract": "contracts/OFCointossHouse.sol:OFCointossHouse",
        "label": "_owner",
        "offset": 0,
        "slot": "151",
        "type": "t_address"
      },
      {
        "astId": 122,
        "contract": "contracts/OFCointossHouse.sol:OFCointossHouse",
        "label": "__gap",
        "offset": 0,
        "slot": "152",
        "type": "t_array(t_uint256)49_storage"
      },
      {
        "astId": 743,
        "contract": "contracts/OFCointossHouse.sol:OFCointossHouse",
        "label": "_paused",
        "offset": 0,
        "slot": "201",
        "type": "t_bool"
      },
      {
        "astId": 832,
        "contract": "contracts/OFCointossHouse.sol:OFCointossHouse",
        "label": "__gap",
        "offset": 0,
        "slot": "202",
        "type": "t_array(t_uint256)49_storage"
      },
      {
        "astId": 847,
        "contract": "contracts/OFCointossHouse.sol:OFCointossHouse",
        "label": "_status",
        "offset": 0,
        "slot": "251",
        "type": "t_uint256"
      },
      {
        "astId": 891,
        "contract": "contracts/OFCointossHouse.sol:OFCointossHouse",
        "label": "__gap",
        "offset": 0,
        "slot": "252",
        "type": "t_array(t_uint256)49_storage"
      },
      {
        "astId": 6998,
        "contract": "contracts/OFCointossHouse.sol:OFCointossHouse",
        "label": "genesisStartOnce",
        "offset": 0,
        "slot": "301",
        "type": "t_bool"
      },
      {
        "astId": 7000,
        "contract": "contracts/OFCointossHouse.sol:OFCointossHouse",
        "label": "adminAddress",
        "offset": 1,
        "slot": "301",
        "type": "t_address"
      },
      {
        "astId": 7002,
        "contract": "contracts/OFCointossHouse.sol:OFCointossHouse",
        "label": "operatorAddress",
        "offset": 0,
        "slot": "302",
        "type": "t_address"
      },
      {
        "astId": 7004,
        "contract": "contracts/OFCointossHouse.sol:OFCointossHouse",
        "label": "intervalSeconds",
        "offset": 0,
        "slot": "303",
        "type": "t_uint256"
      },
      {
        "astId": 7006,
        "contract": "contracts/OFCointossHouse.sol:OFCointossHouse",
        "label": "minBetAmount",
        "offset": 0,
        "slot": "304",
        "type": "t_uint256"
      },
      {
        "astId": 7008,
        "contract": "contracts/OFCointossHouse.sol:OFCointossHouse",
        "label": "treasuryFee",
        "offset": 0,
        "slot": "305",
        "type": "t_uint256"
      },
      {
        "astId": 7010,
        "contract": "contracts/OFCointossHouse.sol:OFCointossHouse",
        "label": "treasuryAmount",
        "offset": 0,
        "slot": "306",
        "type": "t_uint256"
      },
      {
        "astId": 7012,
        "contract": "contracts/OFCointossHouse.sol:OFCointossHouse",
        "label": "currentEpoch",
        "offset": 0,
        "slot": "307",
        "type": "t_uint256"
      },
      {
        "astId": 7014,
        "contract": "contracts/OFCointossHouse.sol:OFCointossHouse",
        "label": "oracleLatestRoundId",
        "offset": 0,
        "slot": "308",
        "type": "t_uint256"
      },
      {
        "astId": 7016,
        "contract": "contracts/OFCointossHouse.sol:OFCointossHouse",
        "label": "oracleUpdateAllowance",
        "offset": 0,
        "slot": "309",
        "type": "t_uint256"
      },
      {
        "astId": 7021,
        "contract": "contracts/OFCointossHouse.sol:OFCointossHouse",
        "label": "keyHash",
        "offset": 0,
        "slot": "310",
        "type": "t_bytes32"
      },
      {
        "astId": 7023,
        "contract": "contracts/OFCointossHouse.sol:OFCointossHouse",
        "label": "fee",
        "offset": 0,
        "slot": "311",
        "type": "t_uint256"
      },
      {
        "astId": 7025,
        "contract": "contracts/OFCointossHouse.sol:OFCointossHouse",
        "label": "randomResult",
        "offset": 0,
        "slot": "312",
        "type": "t_uint256"
      },
      {
        "astId": 7027,
        "contract": "contracts/OFCointossHouse.sol:OFCointossHouse",
        "label": "count",
        "offset": 0,
        "slot": "313",
        "type": "t_uint256"
      },
      {
        "astId": 7029,
        "contract": "contracts/OFCointossHouse.sol:OFCointossHouse",
        "label": "tokenAddress",
        "offset": 0,
        "slot": "314",
        "type": "t_address"
      },
      {
        "astId": 7031,
        "contract": "contracts/OFCointossHouse.sol:OFCointossHouse",
        "label": "routerContract",
        "offset": 0,
        "slot": "315",
        "type": "t_address"
      },
      {
        "astId": 7033,
        "contract": "contracts/OFCointossHouse.sol:OFCointossHouse",
        "label": "totalFeeAmount",
        "offset": 0,
        "slot": "316",
        "type": "t_uint256"
      },
      {
        "astId": 7035,
        "contract": "contracts/OFCointossHouse.sol:OFCointossHouse",
        "label": "feeAmount",
        "offset": 0,
        "slot": "317",
        "type": "t_uint256"
      },
      {
        "astId": 7037,
        "contract": "contracts/OFCointossHouse.sol:OFCointossHouse",
        "label": "feeToken",
        "offset": 0,
        "slot": "318",
        "type": "t_address"
      },
      {
        "astId": 7076,
        "contract": "contracts/OFCointossHouse.sol:OFCointossHouse",
        "label": "ledger",
        "offset": 0,
        "slot": "319",
        "type": "t_mapping(t_uint256,t_mapping(t_address,t_struct(BetInfo)7069_storage))"
      },
      {
        "astId": 7081,
        "contract": "contracts/OFCointossHouse.sol:OFCointossHouse",
        "label": "rounds",
        "offset": 0,
        "slot": "320",
        "type": "t_mapping(t_uint256,t_struct(Round)7062_storage)"
      },
      {
        "astId": 7086,
        "contract": "contracts/OFCointossHouse.sol:OFCointossHouse",
        "label": "userRounds",
        "offset": 0,
        "slot": "321",
        "type": "t_mapping(t_address,t_array(t_uint256)dyn_storage)"
      }
    ],
    "types": {
      "t_address": {
        "encoding": "inplace",
        "label": "address",
        "numberOfBytes": "20"
      },
      "t_array(t_uint256)49_storage": {
        "base": "t_uint256",
        "encoding": "inplace",
        "label": "uint256[49]",
        "numberOfBytes": "1568"
      },
      "t_array(t_uint256)50_storage": {
        "base": "t_uint256",
        "encoding": "inplace",
        "label": "uint256[50]",
        "numberOfBytes": "1600"
      },
      "t_array(t_uint256)dyn_storage": {
        "base": "t_uint256",
        "encoding": "dynamic_array",
        "label": "uint256[]",
        "numberOfBytes": "32"
      },
      "t_bool": {
        "encoding": "inplace",
        "label": "bool",
        "numberOfBytes": "1"
      },
      "t_bytes32": {
        "encoding": "inplace",
        "label": "bytes32",
        "numberOfBytes": "32"
      },
      "t_int256": {
        "encoding": "inplace",
        "label": "int256",
        "numberOfBytes": "32"
      },
      "t_mapping(t_address,t_array(t_uint256)dyn_storage)": {
        "encoding": "mapping",
        "key": "t_address",
        "label": "mapping(address => uint256[])",
        "numberOfBytes": "32",
        "value": "t_array(t_uint256)dyn_storage"
      },
      "t_mapping(t_address,t_struct(BetInfo)7069_storage)": {
        "encoding": "mapping",
        "key": "t_address",
        "label": "mapping(address => struct OFCointossHouseStorage.BetInfo)",
        "numberOfBytes": "32",
        "value": "t_struct(BetInfo)7069_storage"
      },
      "t_mapping(t_uint256,t_mapping(t_address,t_struct(BetInfo)7069_storage))": {
        "encoding": "mapping",
        "key": "t_uint256",
        "label": "mapping(uint256 => mapping(address => struct OFCointossHouseStorage.BetInfo))",
        "numberOfBytes": "32",
        "value": "t_mapping(t_address,t_struct(BetInfo)7069_storage)"
      },
      "t_mapping(t_uint256,t_struct(Round)7062_storage)": {
        "encoding": "mapping",
        "key": "t_uint256",
        "label": "mapping(uint256 => struct OFCointossHouseStorage.Round)",
        "numberOfBytes": "32",
        "value": "t_struct(Round)7062_storage"
      },
      "t_struct(BetInfo)7069_storage": {
        "encoding": "inplace",
        "label": "struct OFCointossHouseStorage.BetInfo",
        "members": [
          {
            "astId": 7064,
            "contract": "contracts/OFCointossHouse.sol:OFCointossHouse",
            "label": "position",
            "offset": 0,
            "slot": "0",
            "type": "t_uint256"
          },
          {
            "astId": 7066,
            "contract": "contracts/OFCointossHouse.sol:OFCointossHouse",
            "label": "amount",
            "offset": 0,
            "slot": "1",
            "type": "t_uint256"
          },
          {
            "astId": 7068,
            "contract": "contracts/OFCointossHouse.sol:OFCointossHouse",
            "label": "claimed",
            "offset": 0,
            "slot": "2",
            "type": "t_bool"
          }
        ],
        "numberOfBytes": "96"
      },
      "t_struct(Round)7062_storage": {
        "encoding": "inplace",
        "label": "struct OFCointossHouseStorage.Round",
        "members": [
          {
            "astId": 7039,
            "contract": "contracts/OFCointossHouse.sol:OFCointossHouse",
            "label": "epoch",
            "offset": 0,
            "slot": "0",
            "type": "t_uint256"
          },
          {
            "astId": 7041,
            "contract": "contracts/OFCointossHouse.sol:OFCointossHouse",
            "label": "startTimestamp",
            "offset": 0,
            "slot": "1",
            "type": "t_uint256"
          },
          {
            "astId": 7043,
            "contract": "contracts/OFCointossHouse.sol:OFCointossHouse",
            "label": "closeTimestamp",
            "offset": 0,
            "slot": "2",
            "type": "t_uint256"
          },
          {
            "astId": 7045,
            "contract": "contracts/OFCointossHouse.sol:OFCointossHouse",
            "label": "tossResult",
            "offset": 0,
            "slot": "3",
            "type": "t_int256"
          },
          {
            "astId": 7047,
            "contract": "contracts/OFCointossHouse.sol:OFCointossHouse",
            "label": "closeOracleId",
            "offset": 0,
            "slot": "4",
            "type": "t_uint256"
          },
          {
            "astId": 7049,
            "contract": "contracts/OFCointossHouse.sol:OFCointossHouse",
            "label": "totalAmount",
            "offset": 0,
            "slot": "5",
            "type": "t_uint256"
          },
          {
            "astId": 7051,
            "contract": "contracts/OFCointossHouse.sol:OFCointossHouse",
            "label": "headsAmount",
            "offset": 0,
            "slot": "6",
            "type": "t_uint256"
          },
          {
            "astId": 7053,
            "contract": "contracts/OFCointossHouse.sol:OFCointossHouse",
            "label": "tailsAmount",
            "offset": 0,
            "slot": "7",
            "type": "t_uint256"
          },
          {
            "astId": 7055,
            "contract": "contracts/OFCointossHouse.sol:OFCointossHouse",
            "label": "rewardBaseCalAmount",
            "offset": 0,
            "slot": "8",
            "type": "t_uint256"
          },
          {
            "astId": 7057,
            "contract": "contracts/OFCointossHouse.sol:OFCointossHouse",
            "label": "rewardAmount",
            "offset": 0,
            "slot": "9",
            "type": "t_uint256"
          },
          {
            "astId": 7059,
            "contract": "contracts/OFCointossHouse.sol:OFCointossHouse",
            "label": "oracleCalled",
            "offset": 0,
            "slot": "10",
            "type": "t_bool"
          },
          {
            "astId": 7061,
            "contract": "contracts/OFCointossHouse.sol:OFCointossHouse",
            "label": "ifRefundable",
            "offset": 1,
            "slot": "10",
            "type": "t_bool"
          }
        ],
        "numberOfBytes": "352"
      },
      "t_uint256": {
        "encoding": "inplace",
        "label": "uint256",
        "numberOfBytes": "32"
      }
    }
  }
}