{
  "address": "0x72AeBC251b23895440d3741D4788720A9C48BA82",
  "abi": [
    {
      "anonymous": false,
      "inputs": [
        {
          "indexed": false,
          "internalType": "address",
          "name": "previousAdmin",
          "type": "address"
        },
        {
          "indexed": false,
          "internalType": "address",
          "name": "newAdmin",
          "type": "address"
        }
      ],
      "name": "AdminChanged",
      "type": "event"
    },
    {
      "anonymous": false,
      "inputs": [
        {
          "indexed": true,
          "internalType": "address",
          "name": "beacon",
          "type": "address"
        }
      ],
      "name": "BeaconUpgraded",
      "type": "event"
    },
    {
      "anonymous": false,
      "inputs": [
        {
          "indexed": true,
          "internalType": "address",
          "name": "sender",
          "type": "address"
        },
        {
          "indexed": true,
          "internalType": "uint256",
          "name": "epoch",
          "type": "uint256"
        },
        {
          "indexed": false,
          "internalType": "uint256",
          "name": "amount",
          "type": "uint256"
        }
      ],
      "name": "BetBear",
      "type": "event"
    },
    {
      "anonymous": false,
      "inputs": [
        {
          "indexed": true,
          "internalType": "address",
          "name": "sender",
          "type": "address"
        },
        {
          "indexed": true,
          "internalType": "uint256",
          "name": "epoch",
          "type": "uint256"
        },
        {
          "indexed": false,
          "internalType": "uint256",
          "name": "amount",
          "type": "uint256"
        }
      ],
      "name": "BetBull",
      "type": "event"
    },
    {
      "anonymous": false,
      "inputs": [
        {
          "indexed": true,
          "internalType": "address",
          "name": "sender",
          "type": "address"
        },
        {
          "indexed": true,
          "internalType": "uint256",
          "name": "epoch",
          "type": "uint256"
        },
        {
          "indexed": false,
          "internalType": "uint256",
          "name": "amount",
          "type": "uint256"
        }
      ],
      "name": "Claim",
      "type": "event"
    },
    {
      "anonymous": false,
      "inputs": [
        {
          "indexed": true,
          "internalType": "address",
          "name": "sender",
          "type": "address"
        },
        {
          "indexed": true,
          "internalType": "uint256",
          "name": "epoch",
          "type": "uint256"
        },
        {
          "indexed": false,
          "internalType": "uint256",
          "name": "amount",
          "type": "uint256"
        }
      ],
      "name": "ClaimBonus",
      "type": "event"
    },
    {
      "anonymous": false,
      "inputs": [
        {
          "indexed": true,
          "internalType": "uint256",
          "name": "epoch",
          "type": "uint256"
        },
        {
          "indexed": true,
          "internalType": "uint256",
          "name": "roundId",
          "type": "uint256"
        },
        {
          "indexed": false,
          "internalType": "int256",
          "name": "price",
          "type": "int256"
        }
      ],
      "name": "EndRound",
      "type": "event"
    },
    {
      "anonymous": false,
      "inputs": [
        {
          "indexed": true,
          "internalType": "uint256",
          "name": "epoch",
          "type": "uint256"
        },
        {
          "indexed": true,
          "internalType": "uint256",
          "name": "roundId",
          "type": "uint256"
        },
        {
          "indexed": false,
          "internalType": "int256",
          "name": "price",
          "type": "int256"
        }
      ],
      "name": "LockRound",
      "type": "event"
    },
    {
      "anonymous": false,
      "inputs": [
        {
          "indexed": false,
          "internalType": "address",
          "name": "admin",
          "type": "address"
        }
      ],
      "name": "NewAdminAddress",
      "type": "event"
    },
    {
      "anonymous": false,
      "inputs": [
        {
          "indexed": false,
          "internalType": "uint256",
          "name": "bufferSeconds",
          "type": "uint256"
        },
        {
          "indexed": false,
          "internalType": "uint256",
          "name": "intervalSeconds",
          "type": "uint256"
        }
      ],
      "name": "NewBufferAndIntervalSeconds",
      "type": "event"
    },
    {
      "anonymous": false,
      "inputs": [
        {
          "indexed": true,
          "internalType": "uint256",
          "name": "epoch",
          "type": "uint256"
        },
        {
          "indexed": false,
          "internalType": "uint256",
          "name": "minBetAmount",
          "type": "uint256"
        }
      ],
      "name": "NewMinBetAmount",
      "type": "event"
    },
    {
      "anonymous": false,
      "inputs": [
        {
          "indexed": false,
          "internalType": "address",
          "name": "operator",
          "type": "address"
        }
      ],
      "name": "NewOperatorAddress",
      "type": "event"
    },
    {
      "anonymous": false,
      "inputs": [
        {
          "indexed": false,
          "internalType": "address",
          "name": "oracle",
          "type": "address"
        }
      ],
      "name": "NewOracle",
      "type": "event"
    },
    {
      "anonymous": false,
      "inputs": [
        {
          "indexed": false,
          "internalType": "uint256",
          "name": "oracleUpdateAllowance",
          "type": "uint256"
        }
      ],
      "name": "NewOracleUpdateAllowance",
      "type": "event"
    },
    {
      "anonymous": false,
      "inputs": [
        {
          "indexed": true,
          "internalType": "uint256",
          "name": "epoch",
          "type": "uint256"
        },
        {
          "indexed": false,
          "internalType": "uint256",
          "name": "treasuryFee",
          "type": "uint256"
        }
      ],
      "name": "NewTreasuryFee",
      "type": "event"
    },
    {
      "anonymous": false,
      "inputs": [
        {
          "indexed": true,
          "internalType": "address",
          "name": "previousOwner",
          "type": "address"
        },
        {
          "indexed": true,
          "internalType": "address",
          "name": "newOwner",
          "type": "address"
        }
      ],
      "name": "OwnershipTransferred",
      "type": "event"
    },
    {
      "anonymous": false,
      "inputs": [
        {
          "indexed": true,
          "internalType": "uint256",
          "name": "epoch",
          "type": "uint256"
        }
      ],
      "name": "Pause",
      "type": "event"
    },
    {
      "anonymous": false,
      "inputs": [
        {
          "indexed": false,
          "internalType": "address",
          "name": "account",
          "type": "address"
        }
      ],
      "name": "Paused",
      "type": "event"
    },
    {
      "anonymous": false,
      "inputs": [
        {
          "indexed": true,
          "internalType": "uint256",
          "name": "epoch",
          "type": "uint256"
        }
      ],
      "name": "Refundable",
      "type": "event"
    },
    {
      "anonymous": false,
      "inputs": [
        {
          "indexed": true,
          "internalType": "uint256",
          "name": "epoch",
          "type": "uint256"
        },
        {
          "indexed": false,
          "internalType": "uint256",
          "name": "rewardBaseCalAmount",
          "type": "uint256"
        },
        {
          "indexed": false,
          "internalType": "uint256",
          "name": "rewardAmount",
          "type": "uint256"
        },
        {
          "indexed": false,
          "internalType": "uint256",
          "name": "treasuryAmount",
          "type": "uint256"
        }
      ],
      "name": "RewardsCalculated",
      "type": "event"
    },
    {
      "anonymous": false,
      "inputs": [
        {
          "indexed": true,
          "internalType": "uint256",
          "name": "epoch",
          "type": "uint256"
        }
      ],
      "name": "StartRound",
      "type": "event"
    },
    {
      "anonymous": false,
      "inputs": [
        {
          "indexed": true,
          "internalType": "address",
          "name": "token",
          "type": "address"
        },
        {
          "indexed": false,
          "internalType": "uint256",
          "name": "amount",
          "type": "uint256"
        }
      ],
      "name": "TokenRecovery",
      "type": "event"
    },
    {
      "anonymous": false,
      "inputs": [
        {
          "indexed": false,
          "internalType": "uint256",
          "name": "amount",
          "type": "uint256"
        }
      ],
      "name": "TreasuryClaim",
      "type": "event"
    },
    {
      "anonymous": false,
      "inputs": [
        {
          "indexed": true,
          "internalType": "uint256",
          "name": "epoch",
          "type": "uint256"
        }
      ],
      "name": "Unpause",
      "type": "event"
    },
    {
      "anonymous": false,
      "inputs": [
        {
          "indexed": false,
          "internalType": "address",
          "name": "account",
          "type": "address"
        }
      ],
      "name": "Unpaused",
      "type": "event"
    },
    {
      "anonymous": false,
      "inputs": [
        {
          "indexed": true,
          "internalType": "address",
          "name": "implementation",
          "type": "address"
        }
      ],
      "name": "Upgraded",
      "type": "event"
    },
    {
      "inputs": [],
      "name": "EV_BEAR",
      "outputs": [
        {
          "internalType": "uint256",
          "name": "",
          "type": "uint256"
        }
      ],
      "stateMutability": "view",
      "type": "function"
    },
    {
      "inputs": [],
      "name": "EV_BULL",
      "outputs": [
        {
          "internalType": "uint256",
          "name": "",
          "type": "uint256"
        }
      ],
      "stateMutability": "view",
      "type": "function"
    },
    {
      "inputs": [],
      "name": "EV_CLAIM",
      "outputs": [
        {
          "internalType": "uint256",
          "name": "",
          "type": "uint256"
        }
      ],
      "stateMutability": "view",
      "type": "function"
    },
    {
      "inputs": [],
      "name": "EV_CLAIM_BONUS",
      "outputs": [
        {
          "internalType": "uint256",
          "name": "",
          "type": "uint256"
        }
      ],
      "stateMutability": "view",
      "type": "function"
    },
    {
      "inputs": [],
      "name": "EV_RESULT",
      "outputs": [
        {
          "internalType": "uint256",
          "name": "",
          "type": "uint256"
        }
      ],
      "stateMutability": "view",
      "type": "function"
    },
    {
      "inputs": [],
      "name": "MAX_TREASURY_FEE",
      "outputs": [
        {
          "internalType": "uint256",
          "name": "",
          "type": "uint256"
        }
      ],
      "stateMutability": "view",
      "type": "function"
    },
    {
      "inputs": [],
      "name": "Position_Bear",
      "outputs": [
        {
          "internalType": "uint256",
          "name": "",
          "type": "uint256"
        }
      ],
      "stateMutability": "view",
      "type": "function"
    },
    {
      "inputs": [],
      "name": "Position_Bull",
      "outputs": [
        {
          "internalType": "uint256",
          "name": "",
          "type": "uint256"
        }
      ],
      "stateMutability": "view",
      "type": "function"
    },
    {
      "inputs": [],
      "name": "_getPriceFromOracle",
      "outputs": [
        {
          "internalType": "uint80",
          "name": "",
          "type": "uint80"
        },
        {
          "internalType": "int256",
          "name": "",
          "type": "int256"
        }
      ],
      "stateMutability": "payable",
      "type": "function"
    },
    {
      "inputs": [],
      "name": "adminAddress",
      "outputs": [
        {
          "internalType": "address",
          "name": "",
          "type": "address"
        }
      ],
      "stateMutability": "view",
      "type": "function"
    },
    {
      "inputs": [
        {
          "internalType": "uint256",
          "name": "epoch",
          "type": "uint256"
        }
      ],
      "name": "betBear",
      "outputs": [],
      "stateMutability": "payable",
      "type": "function"
    },
    {
      "inputs": [
        {
          "internalType": "uint256",
          "name": "epoch",
          "type": "uint256"
        }
      ],
      "name": "betBull",
      "outputs": [],
      "stateMutability": "payable",
      "type": "function"
    },
    {
      "inputs": [
        {
          "internalType": "uint256",
          "name": "epoch",
          "type": "uint256"
        },
        {
          "internalType": "address",
          "name": "user",
          "type": "address"
        }
      ],
      "name": "bonusClaimable",
      "outputs": [
        {
          "internalType": "bool",
          "name": "",
          "type": "bool"
        }
      ],
      "stateMutability": "view",
      "type": "function"
    },
    {
      "inputs": [],
      "name": "bufferSeconds",
      "outputs": [
        {
          "internalType": "uint256",
          "name": "",
          "type": "uint256"
        }
      ],
      "stateMutability": "view",
      "type": "function"
    },
    {
      "inputs": [
        {
          "internalType": "uint256[]",
          "name": "epochs",
          "type": "uint256[]"
        }
      ],
      "name": "claim",
      "outputs": [],
      "stateMutability": "nonpayable",
      "type": "function"
    },
    {
      "inputs": [
        {
          "internalType": "uint256[]",
          "name": "epochs",
          "type": "uint256[]"
        }
      ],
      "name": "claimBonusRewards",
      "outputs": [],
      "stateMutability": "nonpayable",
      "type": "function"
    },
    {
      "inputs": [],
      "name": "claimTreasury",
      "outputs": [],
      "stateMutability": "nonpayable",
      "type": "function"
    },
    {
      "inputs": [
        {
          "internalType": "uint256",
          "name": "epoch",
          "type": "uint256"
        },
        {
          "internalType": "address",
          "name": "user",
          "type": "address"
        }
      ],
      "name": "claimable",
      "outputs": [
        {
          "internalType": "bool",
          "name": "",
          "type": "bool"
        }
      ],
      "stateMutability": "view",
      "type": "function"
    },
    {
      "inputs": [],
      "name": "currentEpoch",
      "outputs": [
        {
          "internalType": "uint256",
          "name": "",
          "type": "uint256"
        }
      ],
      "stateMutability": "view",
      "type": "function"
    },
    {
      "inputs": [],
      "name": "executeRound",
      "outputs": [],
      "stateMutability": "nonpayable",
      "type": "function"
    },
    {
      "inputs": [],
      "name": "genesisLockOnce",
      "outputs": [
        {
          "internalType": "bool",
          "name": "",
          "type": "bool"
        }
      ],
      "stateMutability": "view",
      "type": "function"
    },
    {
      "inputs": [],
      "name": "genesisLockRound",
      "outputs": [],
      "stateMutability": "nonpayable",
      "type": "function"
    },
    {
      "inputs": [],
      "name": "genesisStartOnce",
      "outputs": [
        {
          "internalType": "bool",
          "name": "",
          "type": "bool"
        }
      ],
      "stateMutability": "view",
      "type": "function"
    },
    {
      "inputs": [],
      "name": "genesisStartRound",
      "outputs": [],
      "stateMutability": "nonpayable",
      "type": "function"
    },
    {
      "inputs": [
        {
          "internalType": "address",
          "name": "user",
          "type": "address"
        },
        {
          "internalType": "uint256",
          "name": "cursor",
          "type": "uint256"
        },
        {
          "internalType": "uint256",
          "name": "size",
          "type": "uint256"
        }
      ],
      "name": "getUserRounds",
      "outputs": [
        {
          "internalType": "uint256[]",
          "name": "",
          "type": "uint256[]"
        },
        {
          "components": [
            {
              "internalType": "uint256",
              "name": "position",
              "type": "uint256"
            },
            {
              "internalType": "uint256",
              "name": "amount",
              "type": "uint256"
            },
            {
              "internalType": "bool",
              "name": "claimed",
              "type": "bool"
            },
            {
              "internalType": "bool",
              "name": "bonusClaimed",
              "type": "bool"
            }
          ],
          "internalType": "struct OFPredictionP2PStorage.BetInfo[]",
          "name": "",
          "type": "tuple[]"
        },
        {
          "internalType": "uint256",
          "name": "",
          "type": "uint256"
        }
      ],
      "stateMutability": "view",
      "type": "function"
    },
    {
      "inputs": [
        {
          "internalType": "address",
          "name": "user",
          "type": "address"
        }
      ],
      "name": "getUserRoundsLength",
      "outputs": [
        {
          "internalType": "uint256",
          "name": "",
          "type": "uint256"
        }
      ],
      "stateMutability": "view",
      "type": "function"
    },
    {
      "inputs": [
        {
          "internalType": "address",
          "name": "_oracleAddress",
          "type": "address"
        },
        {
          "internalType": "address",
          "name": "_adminAddress",
          "type": "address"
        },
        {
          "internalType": "address",
          "name": "_operatorAddress",
          "type": "address"
        },
        {
          "internalType": "uint256",
          "name": "_intervalSeconds",
          "type": "uint256"
        },
        {
          "internalType": "uint256",
          "name": "_bufferSeconds",
          "type": "uint256"
        },
        {
          "internalType": "uint256",
          "name": "_minBetAmount",
          "type": "uint256"
        },
        {
          "internalType": "uint256",
          "name": "_oracleUpdateAllowance",
          "type": "uint256"
        },
        {
          "internalType": "uint256",
          "name": "_treasuryFee",
          "type": "uint256"
        },
        {
          "internalType": "address",
          "name": "_tokenAddress",
          "type": "address"
        },
        {
          "internalType": "address",
          "name": "_routerContract",
          "type": "address"
        }
      ],
      "name": "initialize",
      "outputs": [],
      "stateMutability": "nonpayable",
      "type": "function"
    },
    {
      "inputs": [],
      "name": "intervalSeconds",
      "outputs": [
        {
          "internalType": "uint256",
          "name": "",
          "type": "uint256"
        }
      ],
      "stateMutability": "view",
      "type": "function"
    },
    {
      "inputs": [
        {
          "internalType": "uint256",
          "name": "",
          "type": "uint256"
        },
        {
          "internalType": "address",
          "name": "",
          "type": "address"
        }
      ],
      "name": "ledger",
      "outputs": [
        {
          "internalType": "uint256",
          "name": "position",
          "type": "uint256"
        },
        {
          "internalType": "uint256",
          "name": "amount",
          "type": "uint256"
        },
        {
          "internalType": "bool",
          "name": "claimed",
          "type": "bool"
        },
        {
          "internalType": "bool",
          "name": "bonusClaimed",
          "type": "bool"
        }
      ],
      "stateMutability": "view",
      "type": "function"
    },
    {
      "inputs": [
        {
          "internalType": "uint256",
          "name": "epoch",
          "type": "uint256"
        }
      ],
      "name": "makeRefundable",
      "outputs": [],
      "stateMutability": "nonpayable",
      "type": "function"
    },
    {
      "inputs": [],
      "name": "minBetAmount",
      "outputs": [
        {
          "internalType": "uint256",
          "name": "",
          "type": "uint256"
        }
      ],
      "stateMutability": "view",
      "type": "function"
    },
    {
      "inputs": [],
      "name": "operatorAddress",
      "outputs": [
        {
          "internalType": "address",
          "name": "",
          "type": "address"
        }
      ],
      "stateMutability": "view",
      "type": "function"
    },
    {
      "inputs": [],
      "name": "oracle",
      "outputs": [
        {
          "internalType": "address",
          "name": "",
          "type": "address"
        }
      ],
      "stateMutability": "view",
      "type": "function"
    },
    {
      "inputs": [],
      "name": "oracleLatestRoundId",
      "outputs": [
        {
          "internalType": "uint256",
          "name": "",
          "type": "uint256"
        }
      ],
      "stateMutability": "view",
      "type": "function"
    },
    {
      "inputs": [],
      "name": "oracleUpdateAllowance",
      "outputs": [
        {
          "internalType": "uint256",
          "name": "",
          "type": "uint256"
        }
      ],
      "stateMutability": "view",
      "type": "function"
    },
    {
      "inputs": [],
      "name": "owner",
      "outputs": [
        {
          "internalType": "address",
          "name": "",
          "type": "address"
        }
      ],
      "stateMutability": "view",
      "type": "function"
    },
    {
      "inputs": [],
      "name": "pause",
      "outputs": [],
      "stateMutability": "nonpayable",
      "type": "function"
    },
    {
      "inputs": [],
      "name": "paused",
      "outputs": [
        {
          "internalType": "bool",
          "name": "",
          "type": "bool"
        }
      ],
      "stateMutability": "view",
      "type": "function"
    },
    {
      "inputs": [],
      "name": "proxiableUUID",
      "outputs": [
        {
          "internalType": "bytes32",
          "name": "",
          "type": "bytes32"
        }
      ],
      "stateMutability": "view",
      "type": "function"
    },
    {
      "inputs": [
        {
          "internalType": "address",
          "name": "_token",
          "type": "address"
        },
        {
          "internalType": "uint256",
          "name": "_amount",
          "type": "uint256"
        }
      ],
      "name": "recoverToken",
      "outputs": [],
      "stateMutability": "nonpayable",
      "type": "function"
    },
    {
      "inputs": [
        {
          "internalType": "uint256",
          "name": "epoch",
          "type": "uint256"
        },
        {
          "internalType": "address",
          "name": "user",
          "type": "address"
        }
      ],
      "name": "refundable",
      "outputs": [
        {
          "internalType": "bool",
          "name": "",
          "type": "bool"
        }
      ],
      "stateMutability": "view",
      "type": "function"
    },
    {
      "inputs": [],
      "name": "renounceOwnership",
      "outputs": [],
      "stateMutability": "nonpayable",
      "type": "function"
    },
    {
      "inputs": [
        {
          "internalType": "uint256",
          "name": "",
          "type": "uint256"
        }
      ],
      "name": "rounds",
      "outputs": [
        {
          "internalType": "uint256",
          "name": "epoch",
          "type": "uint256"
        },
        {
          "internalType": "uint256",
          "name": "startTimestamp",
          "type": "uint256"
        },
        {
          "internalType": "uint256",
          "name": "lockTimestamp",
          "type": "uint256"
        },
        {
          "internalType": "uint256",
          "name": "closeTimestamp",
          "type": "uint256"
        },
        {
          "internalType": "int256",
          "name": "lockPrice",
          "type": "int256"
        },
        {
          "internalType": "int256",
          "name": "closePrice",
          "type": "int256"
        },
        {
          "internalType": "uint256",
          "name": "totalAmount",
          "type": "uint256"
        },
        {
          "internalType": "uint256",
          "name": "bullAmount",
          "type": "uint256"
        },
        {
          "internalType": "uint256",
          "name": "bearAmount",
          "type": "uint256"
        },
        {
          "internalType": "uint256",
          "name": "rewardBaseCalAmount",
          "type": "uint256"
        },
        {
          "internalType": "uint256",
          "name": "rewardAmount",
          "type": "uint256"
        },
        {
          "internalType": "bool",
          "name": "oracleCalled",
          "type": "bool"
        },
        {
          "internalType": "bool",
          "name": "ifRefundable",
          "type": "bool"
        }
      ],
      "stateMutability": "view",
      "type": "function"
    },
    {
      "inputs": [],
      "name": "routerContract",
      "outputs": [
        {
          "internalType": "address",
          "name": "",
          "type": "address"
        }
      ],
      "stateMutability": "view",
      "type": "function"
    },
    {
      "inputs": [
        {
          "internalType": "address",
          "name": "_adminAddress",
          "type": "address"
        }
      ],
      "name": "setAdmin",
      "outputs": [],
      "stateMutability": "nonpayable",
      "type": "function"
    },
    {
      "inputs": [
        {
          "internalType": "uint256",
          "name": "_bufferSeconds",
          "type": "uint256"
        },
        {
          "internalType": "uint256",
          "name": "_intervalSeconds",
          "type": "uint256"
        }
      ],
      "name": "setBufferAndIntervalSeconds",
      "outputs": [],
      "stateMutability": "nonpayable",
      "type": "function"
    },
    {
      "inputs": [
        {
          "internalType": "uint256",
          "name": "_minBetAmount",
          "type": "uint256"
        }
      ],
      "name": "setMinBetAmount",
      "outputs": [],
      "stateMutability": "nonpayable",
      "type": "function"
    },
    {
      "inputs": [
        {
          "internalType": "address",
          "name": "_operatorAddress",
          "type": "address"
        }
      ],
      "name": "setOperator",
      "outputs": [],
      "stateMutability": "nonpayable",
      "type": "function"
    },
    {
      "inputs": [
        {
          "internalType": "address",
          "name": "_oracle",
          "type": "address"
        }
      ],
      "name": "setOracle",
      "outputs": [],
      "stateMutability": "nonpayable",
      "type": "function"
    },
    {
      "inputs": [
        {
          "internalType": "uint256",
          "name": "_oracleUpdateAllowance",
          "type": "uint256"
        }
      ],
      "name": "setOracleUpdateAllowance",
      "outputs": [],
      "stateMutability": "nonpayable",
      "type": "function"
    },
    {
      "inputs": [
        {
          "internalType": "uint256",
          "name": "_treasuryFee",
          "type": "uint256"
        }
      ],
      "name": "setTreasuryFee",
      "outputs": [],
      "stateMutability": "nonpayable",
      "type": "function"
    },
    {
      "inputs": [],
      "name": "tokenAddress",
      "outputs": [
        {
          "internalType": "address",
          "name": "",
          "type": "address"
        }
      ],
      "stateMutability": "view",
      "type": "function"
    },
    {
      "inputs": [
        {
          "internalType": "address",
          "name": "newOwner",
          "type": "address"
        }
      ],
      "name": "transferOwnership",
      "outputs": [],
      "stateMutability": "nonpayable",
      "type": "function"
    },
    {
      "inputs": [],
      "name": "treasuryAmount",
      "outputs": [
        {
          "internalType": "uint256",
          "name": "",
          "type": "uint256"
        }
      ],
      "stateMutability": "view",
      "type": "function"
    },
    {
      "inputs": [],
      "name": "treasuryFee",
      "outputs": [
        {
          "internalType": "uint256",
          "name": "",
          "type": "uint256"
        }
      ],
      "stateMutability": "view",
      "type": "function"
    },
    {
      "inputs": [],
      "name": "unpause",
      "outputs": [],
      "stateMutability": "nonpayable",
      "type": "function"
    },
    {
      "inputs": [
        {
          "internalType": "address",
          "name": "newImplementation",
          "type": "address"
        }
      ],
      "name": "upgradeTo",
      "outputs": [],
      "stateMutability": "nonpayable",
      "type": "function"
    },
    {
      "inputs": [
        {
          "internalType": "address",
          "name": "newImplementation",
          "type": "address"
        },
        {
          "internalType": "bytes",
          "name": "data",
          "type": "bytes"
        }
      ],
      "name": "upgradeToAndCall",
      "outputs": [],
      "stateMutability": "payable",
      "type": "function"
    },
    {
      "inputs": [
        {
          "internalType": "address",
          "name": "",
          "type": "address"
        },
        {
          "internalType": "uint256",
          "name": "",
          "type": "uint256"
        }
      ],
      "name": "userRounds",
      "outputs": [
        {
          "internalType": "uint256",
          "name": "",
          "type": "uint256"
        }
      ],
      "stateMutability": "view",
      "type": "function"
    }
  ],
  "transactionHash": "0x36d805b4b4d69b70516e9c522f8a10dbfc6c46812c6198bf9c93c3da9ed26481",
  "args": [],
  "numDeployments": 1,
  "solcInputHash": "ab20f7579c850e0fbcbcfcb1ce50b5a1",
  "bytecode": "0x60a06040523060601b60805234801561001757600080fd5b5060805160601c615d526200005360003960008181610e2301528181610ea8015281816111e2015281816112670152611ae00152615d526000f3fe60806040526004361061038b5760003560e01c80637adbf973116101dc578063aa6b873a11610102578063eaba2361116100a0578063f7fdec281161006f578063f7fdec2814610ae3578063fa968eea14610b05578063faf147e014610b1c578063fc6f946814610b3157600080fd5b8063eaba236114610a7f578063ec32470314610a96578063f2b3c80914610aad578063f2fde38b14610ac357600080fd5b8063cc32d176116100dc578063cc32d17614610a13578063cf2f503914610a2a578063d9d55eac14610a4a578063dd1f759614610a5f57600080fd5b8063aa6b873a146109c0578063b29a8140146109d3578063b3ab15fb146109f357600080fd5b8063890dc7661161017a578063951fd60011610149578063951fd600146109505780639d76ea581461097f578063a0c7f71c146109a0578063a890075f146104bd57600080fd5b8063890dc766146108055780638c65c81f146108255780638da5cb5b14610912578063941548c31461093057600080fd5b80637d1cd04f116101b65780637d1cd04f146107985780637dc0d1d0146107af5780638456cb59146107d057806385eea923146107e557600080fd5b80637adbf973146107435780637b3205f5146107635780637bf412541461077857600080fd5b80634fb6314e116102c15780636ba4c1381161025f5780637285c58b1161022e5780637285c58b1461067b57806376671808146106f757806377e741c71461070e57806378aa23a41461072e57600080fd5b80636ba4c138146106065780636c18859314610626578063704b6c0214610646578063715018a61461066657600080fd5b806357fb096f1161029b57806357fb096f146105af5780635c975abb146105c257806360554011146105da5780636a500dab146105f157600080fd5b80634fb6314e1461055057806351aae1321461057a57806352d1902d1461059a57600080fd5b8063368acb091161032e578063452fd75a11610308578063452fd75a146104e75780634f1ef286146104fc5780634f72d8461461050f5780634f7cf35b1461053057600080fd5b8063368acb09146104a65780633ce206da146104bd5780633f4ba83a146104d257600080fd5b806312a6e4d21161036a57806312a6e4d214610417578063205083ba1461043a578063273867d41461044f5780633659cfe61461048657600080fd5b80623bdc74146103905780630f74174f146103a7578063127effb2146103de575b600080fd5b34801561039c57600080fd5b506103a5610b52565b005b3480156103b357600080fd5b5061012d546103c990600160a01b900460ff1681565b60405190151581526020015b60405180910390f35b3480156103ea57600080fd5b5061012f546103ff906001600160a01b031681565b6040516001600160a01b0390911681526020016103d5565b34801561042357600080fd5b5061042c600481565b6040519081526020016103d5565b34801561044657600080fd5b5061042c600a81565b34801561045b57600080fd5b5061042c61046a366004615790565b6001600160a01b0316600090815261013a602052604090205490565b34801561049257600080fd5b506103a56104a1366004615790565b610e18565b3480156104b257600080fd5b5061042c6101345481565b3480156104c957600080fd5b5061042c600181565b3480156104de57600080fd5b506103a5610f6b565b3480156104f357600080fd5b506103a561105b565b6103a561050a36600461586a565b6111d7565b34801561051b57600080fd5b5061013c546103ff906001600160a01b031681565b34801561053c57600080fd5b506103a561054b366004615a30565b61131b565b61055861136b565b6040805169ffffffffffffffffffff90931683526020830191909152016103d5565b34801561058657600080fd5b506103a5610595366004615988565b61151c565b3480156105a657600080fd5b5061042c611ad3565b6103a56105bd366004615a30565b611b98565b3480156105ce57600080fd5b5060c95460ff166103c9565b3480156105e657600080fd5b5061042c6101375481565b3480156105fd57600080fd5b5061042c600581565b34801561061257600080fd5b506103a5610621366004615988565b611fd4565b34801561063257600080fd5b506103a5610641366004615a30565b6127b0565b34801561065257600080fd5b506103a5610661366004615790565b6128ce565b34801561067257600080fd5b506103a56129d4565b34801561068757600080fd5b506106cf610696366004615a48565b61013860209081526000928352604080842090915290825290208054600182015460029092015490919060ff8082169161010090041684565b60408051948552602085019390935290151591830191909152151560608201526080016103d5565b34801561070357600080fd5b5061042c6101355481565b34801561071a57600080fd5b506103a5610729366004615a30565b612a3a565b34801561073a57600080fd5b5061042c600081565b34801561074f57600080fd5b506103a561075e366004615790565b612b56565b34801561076f57600080fd5b506103a5612c91565b34801561078457600080fd5b506103c9610793366004615a48565b612e92565b3480156107a457600080fd5b5061042c6101315481565b3480156107bb57600080fd5b5061012d546103ff906001600160a01b031681565b3480156107dc57600080fd5b506103a5612fc1565b3480156107f157600080fd5b506103a56108003660046157c8565b6130a4565b34801561081157600080fd5b506103a5610820366004615a77565b613288565b34801561083157600080fd5b506108ac610840366004615a30565b61013960205260009081526040902080546001820154600283015460038401546004850154600586015460068701546007880154600889015460098a0154600a8b0154600b909b0154999a98999798969795969495939492939192909160ff808216916101009004168d565b604080519d8e5260208e019c909c529a8c019990995260608b019790975260808a019590955260a089019390935260c088019190915260e0870152610100860152610120850152610140840152151561016083015215156101808201526101a0016103d5565b34801561091e57600080fd5b506097546001600160a01b03166103ff565b34801561093c57600080fd5b506103c961094b366004615a48565b6133d6565b34801561095c57600080fd5b5061097061096b366004615954565b6134fe565b6040516103d593929190615b26565b34801561098b57600080fd5b5061013b546103ff906001600160a01b031681565b3480156109ac57600080fd5b506103c96109bb366004615a48565b613803565b6103a56109ce366004615a30565b613999565b3480156109df57600080fd5b506103a56109ee366004615929565b613d9d565b3480156109ff57600080fd5b506103a5610a0e366004615790565b613ed8565b348015610a1f57600080fd5b5061042c6101335481565b348015610a3657600080fd5b506103a5610a45366004615a30565b613fc4565b348015610a5657600080fd5b506103a561408a565b348015610a6b57600080fd5b5061042c610a7a366004615929565b6142c5565b348015610a8b57600080fd5b5061042c6101305481565b348015610aa257600080fd5b5061042c6101365481565b348015610ab957600080fd5b5061042c6103e881565b348015610acf57600080fd5b506103a5610ade366004615790565b6142f7565b348015610aef57600080fd5b5061012d546103c990600160a81b900460ff1681565b348015610b1157600080fd5b5061042c6101325481565b348015610b2857600080fd5b5061042c600b81565b348015610b3d57600080fd5b5061012e546103ff906001600160a01b031681565b600260fb541415610baa5760405162461bcd60e51b815260206004820152601f60248201527f5265656e7472616e637947756172643a207265656e7472616e742063616c6c0060448201526064015b60405180910390fd5b600260fb5561012e546001600160a01b03163314610bf65760405162461bcd60e51b81526020600482015260096024820152682737ba1030b236b4b760b91b6044820152606401610ba1565b610134805460009182905561013c54604080517f2c035b7400000000000000000000000000000000000000000000000000000000815290519293926001600160a01b0390921691632c035b7491600480820192602092909190829003018186803b158015610c6357600080fd5b505afa158015610c77573d6000803e3d6000fd5b505050506040513d601f19601f82011682018060405250810190610c9b91906157ac565b9050600061013c60009054906101000a90046001600160a01b03166001600160a01b0316631c578fde6040518163ffffffff1660e01b815260040160206040518083038186803b158015610cee57600080fd5b505afa158015610d02573d6000803e3d6000fd5b505050506040513d601f19601f82011682018060405250810190610d2691906157ac565b61013c546040517f75ecb9f90000000000000000000000000000000000000000000000000000000081526004810186905291925060009182916001600160a01b0316906375ecb9f990602401604080518083038186803b158015610d8957600080fd5b505afa158015610d9d573d6000803e3d6000fd5b505050506040513d601f19601f82011682018060405250810190610dc19190615a98565b91509150610dcf84836143bf565b610dd983826143bf565b6040518581527fb9197c6b8e21274bd1e2d9c956a88af5cfee510f630fab3f046300f88b4223619060200160405180910390a15050600160fb55505050565b306001600160a01b037f0000000000000000000000000000000000000000000000000000000000000000161415610ea65760405162461bcd60e51b815260206004820152602c60248201527f46756e6374696f6e206d7573742062652063616c6c6564207468726f7567682060448201526b19195b1959d85d1958d85b1b60a21b6064820152608401610ba1565b7f00000000000000000000000000000000000000000000000000000000000000006001600160a01b0316610ed861448d565b6001600160a01b031614610f435760405162461bcd60e51b815260206004820152602c60248201527f46756e6374696f6e206d7573742062652063616c6c6564207468726f7567682060448201526b6163746976652070726f787960a01b6064820152608401610ba1565b610f4c816144c0565b60408051600080825260208201909252610f689183919061451a565b50565b60c95460ff16610fb45760405162461bcd60e51b815260206004820152601460248201527314185d5cd8589b194e881b9bdd081c185d5cd95960621b6044820152606401610ba1565b61012e546001600160a01b03163314610ffb5760405162461bcd60e51b81526020600482015260096024820152682737ba1030b236b4b760b91b6044820152606401610ba1565b61012d80547fffffffffffffffffffff0000ffffffffffffffffffffffffffffffffffffffff16905561102c6146c9565b610135546040517faaa520fdd7d2c83061d632fa017b0432407e798818af63ea908589fceda39ab790600090a2565b60c95460ff16156110a15760405162461bcd60e51b815260206004820152601060248201526f14185d5cd8589b194e881c185d5cd95960821b6044820152606401610ba1565b61012e546001600160a01b03163314806110c6575061012f546001600160a01b031633145b6111075760405162461bcd60e51b81526020600482015260126024820152712737ba1037b832b930ba37b917b0b236b4b760711b6044820152606401610ba1565b61012d54600160a81b900460ff16156111885760405162461bcd60e51b815260206004820152602360248201527f43616e206f6e6c792072756e2067656e657369735374617274526f756e64206f60448201527f6e636500000000000000000000000000000000000000000000000000000000006064820152608401610ba1565b61013554611197906001615bff565b6101358190556111a69061475c565b61012d80547fffffffffffffffffffff00ffffffffffffffffffffffffffffffffffffffffff16600160a81b179055565b306001600160a01b037f00000000000000000000000000000000000000000000000000000000000000001614156112655760405162461bcd60e51b815260206004820152602c60248201527f46756e6374696f6e206d7573742062652063616c6c6564207468726f7567682060448201526b19195b1959d85d1958d85b1b60a21b6064820152608401610ba1565b7f00000000000000000000000000000000000000000000000000000000000000006001600160a01b031661129761448d565b6001600160a01b0316146113025760405162461bcd60e51b815260206004820152602c60248201527f46756e6374696f6e206d7573742062652063616c6c6564207468726f7567682060448201526b6163746976652070726f787960a01b6064820152608401610ba1565b61130b826144c0565b6113178282600161451a565b5050565b61012e546001600160a01b031633146113625760405162461bcd60e51b81526020600482015260096024820152682737ba1030b236b4b760b91b6044820152606401610ba1565b610f68816147dd565b6000806000610137544261137f9190615bff565b9050600080600061012d60009054906101000a90046001600160a01b03166001600160a01b031663feaf968c6040518163ffffffff1660e01b815260040160a060405180830381600087803b1580156113d757600080fd5b505af11580156113eb573d6000803e3d6000fd5b505050506040513d601f19601f8201168201806040525081019061140f9190615abb565b50935050925092508381111561148d5760405162461bcd60e51b815260206004820152602e60248201527f4f7261636c6520757064617465206578636565646564206d61782074696d657360448201527f74616d7020616c6c6f77616e63650000000000000000000000000000000000006064820152608401610ba1565b610136548369ffffffffffffffffffff16116115115760405162461bcd60e51b815260206004820152603d60248201527f4f7261636c652075706461746520726f756e644964206d757374206265206c6160448201527f72676572207468616e206f7261636c654c6174657374526f756e6449640000006064820152608401610ba1565b509094909350915050565b600260fb54141561156f5760405162461bcd60e51b815260206004820152601f60248201527f5265656e7472616e637947756172643a207265656e7472616e742063616c6c006044820152606401610ba1565b600260fb55333b156115ba5760405162461bcd60e51b815260206004820152601460248201527310dbdb9d1c9858dd081b9bdd08185b1b1bddd95960621b6044820152606401610ba1565b3332146116095760405162461bcd60e51b815260206004820152601a60248201527f50726f787920636f6e7472616374206e6f7420616c6c6f7765640000000000006044820152606401610ba1565b6000805b82811015611a1757610139600085858481811061163a57634e487b7160e01b600052603260045260246000fd5b90506020020135815260200190815260200160002060010154600014156116a35760405162461bcd60e51b815260206004820152601560248201527f526f756e6420686173206e6f74207374617274656400000000000000000000006044820152606401610ba1565b61013960008585848181106116c857634e487b7160e01b600052603260045260246000fd5b90506020020135815260200190815260200160002060030154421161172f5760405162461bcd60e51b815260206004820152601360248201527f526f756e6420686173206e6f7420656e646564000000000000000000000000006044820152606401610ba1565b6000610139600086868581811061175657634e487b7160e01b600052603260045260246000fd5b60209081029290920135835250810191909152604001600020600b015460ff161561185b576117ab85858481811061179e57634e487b7160e01b600052603260045260246000fd5b90506020020135336133d6565b6117f75760405162461bcd60e51b815260206004820152601c60248201527f4e6f7420656c696769626c6520666f7220626f6e757320636c61696d000000006044820152606401610ba1565b610138600086868581811061181c57634e487b7160e01b600052603260045260246000fd5b9050602002013581526020019081526020016000206000336001600160a01b03166001600160a01b031681526020019081526020016000206001015490505b6001610138600087878681811061188257634e487b7160e01b600052603260045260246000fd5b602090810292909201358352508181019290925260409081016000908120338252909252902060020180549115156101000261ff00199092169190911790556118cb8184615bff565b92508484838181106118ed57634e487b7160e01b600052603260045260246000fd5b90506020020135336001600160a01b03167f7e567203bd9dab3b24539e75d82375de02e29a014088b0266d5905880d2692b68360405161192f91815260200190565b60405180910390a361013c546001600160a01b03166350ca72cd600a303389898881811061196d57634e487b7160e01b600052603260045260246000fd5b60405160e088901b7fffffffff0000000000000000000000000000000000000000000000000000000016815260048101969096526001600160a01b039485166024870152929093166044850152602090910201356064830152506084810184905260a401600060405180830381600087803b1580156119eb57600080fd5b505af11580156119ff573d6000803e3d6000fd5b50505050508080611a0f90615c99565b91505061160d565b508015611ac95761013c5461013b546040517f5e8c2c8d0000000000000000000000000000000000000000000000000000000081526001600160a01b03918216600482015233602482015260448101849052911690635e8c2c8d90606401602060405180830381600087803b158015611a8f57600080fd5b505af1158015611aa3573d6000803e3d6000fd5b505050506040513d601f19601f82011682018060405250810190611ac79190615a18565b505b5050600160fb5550565b6000306001600160a01b037f00000000000000000000000000000000000000000000000000000000000000001614611b735760405162461bcd60e51b815260206004820152603860248201527f555550535570677261646561626c653a206d757374206e6f742062652063616c60448201527f6c6564207468726f7567682064656c656761746563616c6c00000000000000006064820152608401610ba1565b507f360894a13ba1a3210667c828492db98dca3e2076cc3735a920a3ca505d382bbc90565b60c95460ff1615611bde5760405162461bcd60e51b815260206004820152601060248201526f14185d5cd8589b194e881c185d5cd95960821b6044820152606401610ba1565b600260fb541415611c315760405162461bcd60e51b815260206004820152601f60248201527f5265656e7472616e637947756172643a207265656e7472616e742063616c6c006044820152606401610ba1565b600260fb55333b15611c7c5760405162461bcd60e51b815260206004820152601460248201527310dbdb9d1c9858dd081b9bdd08185b1b1bddd95960621b6044820152606401610ba1565b333214611ccb5760405162461bcd60e51b815260206004820152601a60248201527f50726f787920636f6e7472616374206e6f7420616c6c6f7765640000000000006044820152606401610ba1565b610135548114611d1d5760405162461bcd60e51b815260206004820152601560248201527f42657420697320746f6f206561726c792f6c61746500000000000000000000006044820152606401610ba1565b611d2681614881565b611d725760405162461bcd60e51b815260206004820152601260248201527f526f756e64206e6f74206265747461626c6500000000000000000000000000006044820152606401610ba1565b61013254341015611dda5760405162461bcd60e51b815260206004820152602c60248201527f42657420616d6f756e74206d7573742062652067726561746572207468616e2060448201526b1b5a5b90995d105b5bdd5b9d60a21b6064820152608401610ba1565b600081815261013860209081526040808320338452909152902060010154349015611e675760008281526101386020908152604080832033845290915290205415611e675760405162461bcd60e51b815260206004820152601d60248201527f43616e206f6e6c7920626574206f6e207468652073616d6520736964650000006044820152606401610ba1565b6000828152610139602052604090206006810154611e86908390615bff565b60068201556007810154611e9b908390615bff565b6007820155600083815261013860209081526040808320338452909152902060010154611ee65733600090815261013a60209081526040822080546001810182559083529120018390555b60008381526101386020908152604080832033845290915281209081556001810154611f13908490615bff565b6001820155604051838152849033907f438122d8cff518d18388099a5181f0d17a12b4f1b55faedf6e4a6acee0060c129060200160405180910390a361013c546040516350ca72cd60e01b81526005600482015230602482015233604482015260648101869052608481018590526001600160a01b03909116906350ca72cd9060a4015b600060405180830381600087803b158015611fb157600080fd5b505af1158015611fc5573d6000803e3d6000fd5b5050600160fb55505050505050565b600260fb5414156120275760405162461bcd60e51b815260206004820152601f60248201527f5265656e7472616e637947756172643a207265656e7472616e742063616c6c006044820152606401610ba1565b600260fb55333b156120725760405162461bcd60e51b815260206004820152601460248201527310dbdb9d1c9858dd081b9bdd08185b1b1bddd95960621b6044820152606401610ba1565b3332146120c15760405162461bcd60e51b815260206004820152601a60248201527f50726f787920636f6e7472616374206e6f7420616c6c6f7765640000000000006044820152606401610ba1565b6000805b8281101561279f5761013960008585848181106120f257634e487b7160e01b600052603260045260246000fd5b905060200201358152602001908152602001600020600101546000141561215b5760405162461bcd60e51b815260206004820152601560248201527f526f756e6420686173206e6f74207374617274656400000000000000000000006044820152606401610ba1565b610139600085858481811061218057634e487b7160e01b600052603260045260246000fd5b905060200201358152602001908152602001600020600301544211806121ed575061013960008585848181106121c657634e487b7160e01b600052603260045260246000fd5b905060200201358152602001908152602001600020600b0160019054906101000a900460ff165b6122395760405162461bcd60e51b815260206004820152601360248201527f526f756e6420686173206e6f7420656e646564000000000000000000000000006044820152606401610ba1565b6000610139600086868581811061226057634e487b7160e01b600052603260045260246000fd5b60209081029290920135835250810191909152604001600020600b015460ff1615612466576122b58585848181106122a857634e487b7160e01b600052603260045260246000fd5b9050602002013533613803565b6123015760405162461bcd60e51b815260206004820152601660248201527f4e6f7420656c696769626c6520666f7220636c61696d000000000000000000006044820152606401610ba1565b6000610139600087878681811061232857634e487b7160e01b600052603260045260246000fd5b60209081029290920135835250818101929092526040908101600090812082516101a081018452815481526001820154948101949094526002810154928401929092526003820154606084015260048201546080840152600582015460a0840152600682015460c0840152600782015460e084015260088201546101008085019190915260098301546101208501819052600a8401546101408601819052600b9094015460ff808216151561016088015292900490911615156101808501529293506101389089898881811061240e57634e487b7160e01b600052603260045260246000fd5b9050602002013581526020019081526020016000206000336001600160a01b03166001600160a01b03168152602001908152602001600020600101546124549190615c37565b61245e9190615c17565b9150506125ea565b61249685858481811061248957634e487b7160e01b600052603260045260246000fd5b9050602002013533612e92565b6124e25760405162461bcd60e51b815260206004820152601760248201527f4e6f7420656c696769626c6520666f7220726566756e640000000000000000006044820152606401610ba1565b600061271061013354610138600089898881811061251057634e487b7160e01b600052603260045260246000fd5b9050602002013581526020019081526020016000206000336001600160a01b03166001600160a01b03168152602001908152602001600020600101546125569190615c37565b6125609190615c17565b905080610138600088888781811061258857634e487b7160e01b600052603260045260246000fd5b9050602002013581526020019081526020016000206000336001600160a01b03166001600160a01b03168152602001908152602001600020600101546125ce9190615c56565b91508061013460008282546125e39190615bff565b9091555050505b6001610138600087878681811061261157634e487b7160e01b600052603260045260246000fd5b6020908102929092013583525081810192909252604090810160009081203382529092529020600201805460ff19169115159190911790556126538184615bff565b925084848381811061267557634e487b7160e01b600052603260045260246000fd5b90506020020135336001600160a01b03167f34fcbac0073d7c3d388e51312faf357774904998eeb8fca628b9e6f65ee1cbf7836040516126b791815260200190565b60405180910390a361013c546001600160a01b03166350ca72cd600130338989888181106126f557634e487b7160e01b600052603260045260246000fd5b60405160e088901b7fffffffff0000000000000000000000000000000000000000000000000000000016815260048101969096526001600160a01b039485166024870152929093166044850152602090910201356064830152506084810184905260a401600060405180830381600087803b15801561277357600080fd5b505af1158015612787573d6000803e3d6000fd5b5050505050808061279790615c99565b9150506120c5565b508015611ac957611ac933826143bf565b60c95460ff166127f95760405162461bcd60e51b815260206004820152601460248201527314185d5cd8589b194e881b9bdd081c185d5cd95960621b6044820152606401610ba1565b61012e546001600160a01b031633146128405760405162461bcd60e51b81526020600482015260096024820152682737ba1030b236b4b760b91b6044820152606401610ba1565b8061288d5760405162461bcd60e51b815260206004820152601560248201527f4d757374206265207375706572696f7220746f203000000000000000000000006044820152606401610ba1565b610132819055610135546040518281527f90eb87c560a0213754ceb3a7fa3012f01acab0a35602c1e1995adf69dabc9d50906020015b60405180910390a250565b6097546001600160a01b031633146129285760405162461bcd60e51b815260206004820181905260248201527f4f776e61626c653a2063616c6c6572206973206e6f7420746865206f776e65726044820152606401610ba1565b6001600160a01b03811661297e5760405162461bcd60e51b815260206004820152601660248201527f43616e6e6f74206265207a65726f2061646472657373000000000000000000006044820152606401610ba1565b61012e80546001600160a01b0319166001600160a01b0383169081179091556040519081527f137b621413925496477d46e5055ac0d56178bdd724ba8bf843afceef18268ba3906020015b60405180910390a150565b6097546001600160a01b03163314612a2e5760405162461bcd60e51b815260206004820181905260248201527f4f776e61626c653a2063616c6c6572206973206e6f7420746865206f776e65726044820152606401610ba1565b612a3860006148f0565b565b60c95460ff16612a835760405162461bcd60e51b815260206004820152601460248201527314185d5cd8589b194e881b9bdd081c185d5cd95960621b6044820152606401610ba1565b61012e546001600160a01b03163314612aca5760405162461bcd60e51b81526020600482015260096024820152682737ba1030b236b4b760b91b6044820152606401610ba1565b6103e8811115612b1c5760405162461bcd60e51b815260206004820152601560248201527f54726561737572792066656520746f6f206869676800000000000000000000006044820152606401610ba1565b610133819055610135546040518281527fb1c4ee38d35556741133da7ff9b6f7ab0fa88d0406133126ff128f635490a857906020016128c3565b60c95460ff16612b9f5760405162461bcd60e51b815260206004820152601460248201527314185d5cd8589b194e881b9bdd081c185d5cd95960621b6044820152606401610ba1565b61012e546001600160a01b03163314612be65760405162461bcd60e51b81526020600482015260096024820152682737ba1030b236b4b760b91b6044820152606401610ba1565b6001600160a01b038116612c3c5760405162461bcd60e51b815260206004820152601660248201527f43616e6e6f74206265207a65726f2061646472657373000000000000000000006044820152606401610ba1565b60006101365561012d80546001600160a01b0319166001600160a01b0383169081179091556040519081527fb3eacd0e351fafdfefdec84e1cd19679b38dbcd63ea7c2c24da17fd2bc3b3c0e906020016129c9565b60c95460ff1615612cd75760405162461bcd60e51b815260206004820152601060248201526f14185d5cd8589b194e881c185d5cd95960821b6044820152606401610ba1565b61012e546001600160a01b0316331480612cfc575061012f546001600160a01b031633145b612d3d5760405162461bcd60e51b81526020600482015260126024820152712737ba1037b832b930ba37b917b0b236b4b760711b6044820152606401610ba1565b61012d54600160a81b900460ff168015612d61575061012d54600160a01b900460ff165b612df95760405162461bcd60e51b815260206004820152604660248201527f43616e206f6e6c792072756e2061667465722067656e6573697353746172745260448201527f6f756e6420616e642067656e657369734c6f636b526f756e642069732074726960648201527f6767657265640000000000000000000000000000000000000000000000000000608482015260a401610ba1565b600080612e0461136b565b915091508169ffffffffffffffffffff1661013681905550612e36610135548369ffffffffffffffffffff1683614942565b612e5c600161013554612e499190615c56565b8369ffffffffffffffffffff1683614aa0565b612e74600161013554612e6f9190615c56565b614c24565b61013554612e83906001615bff565b61013581905561131790614eac565b6000828152610138602090815260408083206001600160a01b03851684528252808320815160808082018452825482526001808401548387015260029384015460ff80821615158588015261010091829004811615156060808701919091528b8a526101398952878a2088516101a081018a528154815294810154998501999099529588015496830196909652600387015494820194909452600486015491810191909152600585015460a0820152600685015460c0820152600785015460e08201526008850154818401526009850154610120820152600a850154610140820152600b90940154808416151561016086015291909104909116158015610180840181905291929190612fa757508160400151155b8015612fb65750602082015115155b925050505b92915050565b60c95460ff16156130075760405162461bcd60e51b815260206004820152601060248201526f14185d5cd8589b194e881c185d5cd95960821b6044820152606401610ba1565b61012e546001600160a01b031633148061302c575061012f546001600160a01b031633145b61306d5760405162461bcd60e51b81526020600482015260126024820152712737ba1037b832b930ba37b917b0b236b4b760711b6044820152606401610ba1565b613075615064565b610135546040517f68b095021b1f40fe513109f513c66692f0b3219aee674a69f4efc57badb8201d90600090a2565b600054610100900460ff166130bf5760005460ff16156130c3565b303b155b6131355760405162461bcd60e51b815260206004820152602e60248201527f496e697469616c697a61626c653a20636f6e747261637420697320616c72656160448201527f647920696e697469616c697a65640000000000000000000000000000000000006064820152608401610ba1565b600054610100900460ff16158015613157576000805461ffff19166101011790555b61315f6150df565b613167615152565b61316f6151bd565b613177615230565b613180336152a3565b6103e88411156131d25760405162461bcd60e51b815260206004820152601560248201527f54726561737572792066656520746f6f206869676800000000000000000000006044820152606401610ba1565b61012d805461012e80546001600160a01b03199081166001600160a01b038f81169190911790925561012f805482168e84161790556101318c90556101308b90556101328a905561013789905561013388905561013b8054821688841617905561013c80549091168683161790558d167fffffffffffffffffffff00000000000000000000000000000000000000000000909116179055801561327b576000805461ff00191690555b5050505050505050505050565b60c95460ff166132d15760405162461bcd60e51b815260206004820152601460248201527314185d5cd8589b194e881b9bdd081c185d5cd95960621b6044820152606401610ba1565b61012e546001600160a01b031633146133185760405162461bcd60e51b81526020600482015260096024820152682737ba1030b236b4b760b91b6044820152606401610ba1565b80821061338d5760405162461bcd60e51b815260206004820152603160248201527f6275666665725365636f6e6473206d75737420626520696e666572696f72207460448201527f6f20696e74657276616c5365636f6e64730000000000000000000000000000006064820152608401610ba1565b61013082905561013181905560408051838152602081018390527fe60149e0431fec12df63dfab5fce2a9cefe9a4d3df5f41cb626f579ae1f2b91a910160405180910390a15050565b6000828152610138602090815260408083206001600160a01b03851684528252808320815160808082018452825482526001808401548387015260029384015460ff80821615158588015261010091829004811615156060808701919091528b8a526101398952878a2088516101a081018a528154815294810154998501999099529588015496830196909652600387015494820194909452600486015491810191909152600585015460a0820152600685015460c0820152600785015460e08201526008850154818401526009850154610120820152600a850154610140820152600b90940154808416158015610160870181905293909104909316151561018085015292916134ea5750602082015115155b8015612fb657505060600151159392505050565b6001600160a01b038316600090815261013a60205260408120546060918291849086111561356e5760405162461bcd60e51b815260206004820152601460248201527f437572736f72206f7574206f6620626f756e64730000000000000000000000006044820152606401610ba1565b6001600160a01b038716600090815261013a6020526040902054613593908790615c56565b8111156135c2576001600160a01b038716600090815261013a60205260409020546135bf908790615c56565b90505b60008167ffffffffffffffff8111156135eb57634e487b7160e01b600052604160045260246000fd5b604051908082528060200260200182016040528015613614578160200160208202803683370190505b50905060008267ffffffffffffffff81111561364057634e487b7160e01b600052604160045260246000fd5b60405190808252806020026020018201604052801561369257816020015b60408051608081018252600080825260208083018290529282018190526060820152825260001990920191018161365e5790505b50905060005b838110156137e4576001600160a01b038a16600090815261013a602052604090206136c3828b615bff565b815481106136e157634e487b7160e01b600052603260045260246000fd5b906000526020600020015483828151811061370c57634e487b7160e01b600052603260045260246000fd5b602002602001018181525050610138600084838151811061373d57634e487b7160e01b600052603260045260246000fd5b602090810291909101810151825281810192909252604090810160009081206001600160a01b038e16825283528190208151608081018352815481526001820154938101939093526002015460ff8082161515928401929092526101009004161515606082015282518390839081106137c657634e487b7160e01b600052603260045260246000fd5b602002602001018190525080806137dc90615c99565b915050613698565b5081816137f1858b615bff565b95509550955050505093509350939050565b6000828152610138602090815260408083206001600160a01b03851684528252808320815160808082018452825482526001808401548387015260029384015460ff80821615158588015261010091829004811615156060808701919091528b8a526101398952878a2088516101a081018a5281548152948101549985019990995295880154968301969096526003870154948201949094526004860154918101829052600586015460a08201819052600687015460c0830152600787015460e08301526008870154828601526009870154610120830152600a870154610140830152600b909601548086161515610160830152939093049093161515610180830152929091141561391a57600092505050612fbb565b806101600151801561392f5750602082015115155b801561393d57508160400151155b8015612fb6575080608001518160a0015113801561395a57508151155b80613978575080608001518160a00151128015613978575081516001145b80613985575060e0810151155b80612fb65750610100015115949350505050565b60c95460ff16156139df5760405162461bcd60e51b815260206004820152601060248201526f14185d5cd8589b194e881c185d5cd95960821b6044820152606401610ba1565b600260fb541415613a325760405162461bcd60e51b815260206004820152601f60248201527f5265656e7472616e637947756172643a207265656e7472616e742063616c6c006044820152606401610ba1565b600260fb55333b15613a7d5760405162461bcd60e51b815260206004820152601460248201527310dbdb9d1c9858dd081b9bdd08185b1b1bddd95960621b6044820152606401610ba1565b333214613acc5760405162461bcd60e51b815260206004820152601a60248201527f50726f787920636f6e7472616374206e6f7420616c6c6f7765640000000000006044820152606401610ba1565b610135548114613b1e5760405162461bcd60e51b815260206004820152601560248201527f42657420697320746f6f206561726c792f6c61746500000000000000000000006044820152606401610ba1565b613b2781614881565b613b735760405162461bcd60e51b815260206004820152601260248201527f526f756e64206e6f74206265747461626c6500000000000000000000000000006044820152606401610ba1565b61013254341015613bdb5760405162461bcd60e51b815260206004820152602c60248201527f42657420616d6f756e74206d7573742062652067726561746572207468616e2060448201526b1b5a5b90995d105b5bdd5b9d60a21b6064820152608401610ba1565b600081815261013860209081526040808320338452909152902060010154349015613c6a57600082815261013860209081526040808320338452909152902054600114613c6a5760405162461bcd60e51b815260206004820152601d60248201527f43616e206f6e6c7920626574206f6e207468652073616d6520736964650000006044820152606401610ba1565b6000828152610139602052604090206006810154613c89908390615bff565b60068201556008810154613c9e908390615bff565b6008820155600083815261013860209081526040808320338452909152902060010154613ce95733600090815261013a60209081526040822080546001810182559083529120018390555b60008381526101386020908152604080832033845290915290206001808255810154613d16908490615bff565b6001820155604051838152849033907f0d8c1fe3e67ab767116a81f122b83c2557a8c2564019cb7c4f83de1aeb1f1f0d9060200160405180910390a361013c546040516350ca72cd60e01b815260048082015230602482015233604482015260648101869052608481018590526001600160a01b03909116906350ca72cd9060a401611f97565b6097546001600160a01b03163314613df75760405162461bcd60e51b815260206004820181905260248201527f4f776e61626c653a2063616c6c6572206973206e6f7420746865206f776e65726044820152606401610ba1565b6040517fa9059cbb000000000000000000000000000000000000000000000000000000008152336004820152602481018290526001600160a01b0383169063a9059cbb90604401602060405180830381600087803b158015613e5857600080fd5b505af1158015613e6c573d6000803e3d6000fd5b505050506040513d601f19601f82011682018060405250810190613e9091906159f8565b50816001600160a01b03167f14f11966a996e0629572e51064726d2057a80fbd34efc066682c06a71dbb6e9882604051613ecc91815260200190565b60405180910390a25050565b61012e546001600160a01b03163314613f1f5760405162461bcd60e51b81526020600482015260096024820152682737ba1030b236b4b760b91b6044820152606401610ba1565b6001600160a01b038116613f755760405162461bcd60e51b815260206004820152601660248201527f43616e6e6f74206265207a65726f2061646472657373000000000000000000006044820152606401610ba1565b61012f80546001600160a01b0319166001600160a01b0383169081179091556040519081527fc47d127c07bdd56c5ccba00463ce3bd3c1bca71b4670eea6e5d0c02e4aa156e2906020016129c9565b60c95460ff1661400d5760405162461bcd60e51b815260206004820152601460248201527314185d5cd8589b194e881b9bdd081c185d5cd95960621b6044820152606401610ba1565b61012e546001600160a01b031633146140545760405162461bcd60e51b81526020600482015260096024820152682737ba1030b236b4b760b91b6044820152606401610ba1565b6101378190556040518181527f93ccaceac092ffb842c46b8718667a13a80e9058dcd0bd403d0b47215b30da07906020016129c9565b60c95460ff16156140d05760405162461bcd60e51b815260206004820152601060248201526f14185d5cd8589b194e881c185d5cd95960821b6044820152606401610ba1565b61012e546001600160a01b03163314806140f5575061012f546001600160a01b031633145b6141365760405162461bcd60e51b81526020600482015260126024820152712737ba1037b832b930ba37b917b0b236b4b760711b6044820152606401610ba1565b61012d54600160a81b900460ff166141b65760405162461bcd60e51b815260206004820152603160248201527f43616e206f6e6c792072756e2061667465722067656e6573697353746172745260448201527f6f756e64206973207472696767657265640000000000000000000000000000006064820152608401610ba1565b61012d54600160a01b900460ff16156142375760405162461bcd60e51b815260206004820152602260248201527f43616e206f6e6c792072756e2067656e657369734c6f636b526f756e64206f6e60448201527f63650000000000000000000000000000000000000000000000000000000000006064820152608401610ba1565b60008061424261136b565b915091508169ffffffffffffffffffff1661013681905550614274610135548369ffffffffffffffffffff1683614942565b61013554614283906001615bff565b6101358190556142929061475c565b505061012d80547fffffffffffffffffffffff00ffffffffffffffffffffffffffffffffffffffff16600160a01b179055565b61013a60205281600052604060002081815481106142e257600080fd5b90600052602060002001600091509150505481565b6097546001600160a01b031633146143515760405162461bcd60e51b815260206004820181905260248201527f4f776e61626c653a2063616c6c6572206973206e6f7420746865206f776e65726044820152606401610ba1565b6001600160a01b0381166143b65760405162461bcd60e51b815260206004820152602660248201527f4f776e61626c653a206e6577206f776e657220697320746865207a65726f206160448201526564647265737360d01b6064820152608401610ba1565b610f68816148f0565b6000826001600160a01b03168260405160006040518083038185875af1925050503d806000811461440c576040519150601f19603f3d011682016040523d82523d6000602084013e614411565b606091505b50509050806144885760405162461bcd60e51b815260206004820152602560248201527f5472616e7366657248656c7065723a204d415449435f5452414e534645525f4660448201527f41494c45440000000000000000000000000000000000000000000000000000006064820152608401610ba1565b505050565b60007f360894a13ba1a3210667c828492db98dca3e2076cc3735a920a3ca505d382bbc5b546001600160a01b0316919050565b6097546001600160a01b03163314610f685760405162461bcd60e51b815260206004820181905260248201527f4f776e61626c653a2063616c6c6572206973206e6f7420746865206f776e65726044820152606401610ba1565b7f4910fdfa16fed3260ed0e7147f7cc6da11a60208b5b9406d12a635614ffd91435460ff161561454d57614488836152f7565b826001600160a01b03166352d1902d6040518163ffffffff1660e01b815260040160206040518083038186803b15801561458657600080fd5b505afa9250505080156145b6575060408051601f3d908101601f191682019092526145b391810190615a18565b60015b6146285760405162461bcd60e51b815260206004820152602e60248201527f45524331393637557067726164653a206e657720696d706c656d656e7461746960448201527f6f6e206973206e6f7420555550530000000000000000000000000000000000006064820152608401610ba1565b7f360894a13ba1a3210667c828492db98dca3e2076cc3735a920a3ca505d382bbc81146146bd5760405162461bcd60e51b815260206004820152602960248201527f45524331393637557067726164653a20756e737570706f727465642070726f7860448201527f6961626c655555494400000000000000000000000000000000000000000000006064820152608401610ba1565b506144888383836153b8565b60c95460ff166147125760405162461bcd60e51b815260206004820152601460248201527314185d5cd8589b194e881b9bdd081c185d5cd95960621b6044820152606401610ba1565b60c9805460ff191690557f5db9ee0a495bf2e6ff9c91a7834c1ba4fdd244a5e8aa4e537bd38aeae4b073aa335b6040516001600160a01b03909116815260200160405180910390a1565b60008181526101396020526040902042600182018190556101315461478091615bff565b6002808301919091556101315461479691615c37565b6147a09042615bff565b600382015581815560006006820181905560405183917f939f42374aa9bf1d8d8cd56d8a9110cb040cd8dfeae44080c6fcf2645e51b45291a25050565b600081815261013960205260409020600b81015460ff16156148415760405162461bcd60e51b815260206004820152601a60248201527f526f756e642068617320636c6f73656420636f72726563746c790000000000006044820152606401610ba1565b600b8101805461ff00191661010017905560405182907f0fe7cad4e9802ec3c47f750d248ecee315e4f165d036236829c770274c35430890600090a25050565b60008181526101396020526040812060010154158015906148b357506000828152610139602052604090206002015415155b80156148d057506000828152610139602052604090206001015442115b8015612fbb57505060009081526101396020526040902060020154421090565b609780546001600160a01b038381166001600160a01b0319831681179093556040519116919082907f8be0079c531659141344cd1fd0a4f28419497f9722a3daafe3b4186f6b6457e090600090a35050565b600083815261013960205260409020600101546149c75760405162461bcd60e51b815260206004820152602b60248201527f43616e206f6e6c79206c6f636b20726f756e6420616674657220726f756e642060448201527f68617320737461727465640000000000000000000000000000000000000000006064820152608401610ba1565b60008381526101396020526040902060020154421015614a395760405162461bcd60e51b815260206004820152602760248201527f43616e206f6e6c79206c6f636b20726f756e64206166746572206c6f636b546960448201526606d657374616d760cc1b6064820152608401610ba1565b60008381526101396020526040902061013154614a569042615bff565b600382015560048101829055604051828152839085907f482e76a65b448a42deef26e99e58fb20c85e26f075defff8df6aa80459b39006906020015b60405180910390a350505050565b60008381526101396020526040902060020154614b255760405162461bcd60e51b815260206004820152602960248201527f43616e206f6e6c7920656e6420726f756e6420616674657220726f756e64206860448201527f6173206c6f636b656400000000000000000000000000000000000000000000006064820152608401610ba1565b60008381526101396020526040902060030154421015614b975760405162461bcd60e51b815260206004820152602760248201527f43616e206f6e6c7920656e6420726f756e6420616674657220636c6f7365546960448201526606d657374616d760cc1b6064820152608401610ba1565b6101305460008481526101396020526040902060030154614bb89190615bff565b421115614bc857614bc8836147dd565b600083815261013960205260409081902060058101839055600b8101805460ff191660011790559051839085907fb6ff1fe915db84788cbbbc017f0d2bef9485fad9fd0bd8ce9340fde0d8410dd890614a929086815260200190565b60008181526101396020526040902060090154158015614c545750600081815261013960205260409020600a0154155b614ca05760405162461bcd60e51b815260206004820152601260248201527f526577617264732063616c63756c6174656400000000000000000000000000006044820152606401610ba1565b600081815261013960205260408120600781015490919081908190614cff5783600801549250612710610133548560060154614cdc9190615c37565b614ce69190615c17565b9150818460060154614cf89190615c56565b9050614d8c565b6008840154614d255783600701549250612710610133548560060154614cdc9190615c37565b836004015484600501541315614d525783600701549250612710610133548560060154614cdc9190615c37565b836004015484600501541215614d7f5783600801549250612710610133548560060154614cdc9190615c37565b5050506006810154600090815b60098401839055600a84018190556101348054839190600090614db0908490615bff565b9091555050604080518481526020810183905290810183905285907f6dfdfcb09c8804d0058826cd2539f1acfbe3cb887c9be03d928035bce0f1a58d9060600160405180910390a26000846004015485600501541215614e1257506004614e26565b846004015485600501541315614e26575060055b61013c54610135546040516350ca72cd60e01b8152600b60048201523060248201523360448201526064810191909152608481018390526001600160a01b03909116906350ca72cd9060a401600060405180830381600087803b158015614e8c57600080fd5b505af1158015614ea0573d6000803e3d6000fd5b50505050505050505050565b61012d54600160a81b900460ff16614f2c5760405162461bcd60e51b815260206004820152603160248201527f43616e206f6e6c792072756e2061667465722067656e6573697353746172745260448201527f6f756e64206973207472696767657265640000000000000000000000000000006064820152608401610ba1565b6101396000614f3c600284615c56565b81526020019081526020016000206003015460001415614fc45760405162461bcd60e51b815260206004820152602e60248201527f43616e206f6e6c7920737461727420726f756e6420616674657220726f756e6460448201527f206e2d322068617320656e6465640000000000000000000000000000000000006064820152608401610ba1565b6101396000614fd4600284615c56565b81526020019081526020016000206003015442101561505b5760405162461bcd60e51b815260206004820152603760248201527f43616e206f6e6c79207374617274206e657720726f756e64206166746572207260448201527f6f756e64206e2d3220636c6f736554696d657374616d700000000000000000006064820152608401610ba1565b610f688161475c565b60c95460ff16156150aa5760405162461bcd60e51b815260206004820152601060248201526f14185d5cd8589b194e881c185d5cd95960821b6044820152606401610ba1565b60c9805460ff191660011790557f62e78cea01bee320cd4e420270b5ea74000d11b0c9f74754ebdbfc544b05a25861473f3390565b600054610100900460ff1661514a5760405162461bcd60e51b815260206004820152602b60248201527f496e697469616c697a61626c653a20636f6e7472616374206973206e6f74206960448201526a6e697469616c697a696e6760a81b6064820152608401610ba1565b612a386153e3565b600054610100900460ff16612a385760405162461bcd60e51b815260206004820152602b60248201527f496e697469616c697a61626c653a20636f6e7472616374206973206e6f74206960448201526a6e697469616c697a696e6760a81b6064820152608401610ba1565b600054610100900460ff166152285760405162461bcd60e51b815260206004820152602b60248201527f496e697469616c697a61626c653a20636f6e7472616374206973206e6f74206960448201526a6e697469616c697a696e6760a81b6064820152608401610ba1565b612a38615457565b600054610100900460ff1661529b5760405162461bcd60e51b815260206004820152602b60248201527f496e697469616c697a61626c653a20636f6e7472616374206973206e6f74206960448201526a6e697469616c697a696e6760a81b6064820152608401610ba1565b612a386154c9565b7f7e644d79422f17c01e4894b5f4f588d331ebfa28653d42ae832dc59e38c9798f6152cc615540565b604080516001600160a01b03928316815291841660208301520160405180910390a1610f6881615568565b6001600160a01b0381163b6153745760405162461bcd60e51b815260206004820152602d60248201527f455243313936373a206e657720696d706c656d656e746174696f6e206973206e60448201527f6f74206120636f6e7472616374000000000000000000000000000000000000006064820152608401610ba1565b807f360894a13ba1a3210667c828492db98dca3e2076cc3735a920a3ca505d382bbc5b80546001600160a01b0319166001600160a01b039290921691909117905550565b6153c1836155f4565b6000825111806153ce5750805b15614488576153dd8383615634565b50505050565b600054610100900460ff1661544e5760405162461bcd60e51b815260206004820152602b60248201527f496e697469616c697a61626c653a20636f6e7472616374206973206e6f74206960448201526a6e697469616c697a696e6760a81b6064820152608401610ba1565b612a38336148f0565b600054610100900460ff166154c25760405162461bcd60e51b815260206004820152602b60248201527f496e697469616c697a61626c653a20636f6e7472616374206973206e6f74206960448201526a6e697469616c697a696e6760a81b6064820152608401610ba1565b600160fb55565b600054610100900460ff166155345760405162461bcd60e51b815260206004820152602b60248201527f496e697469616c697a61626c653a20636f6e7472616374206973206e6f74206960448201526a6e697469616c697a696e6760a81b6064820152608401610ba1565b60c9805460ff19169055565b60007fb53127684a568b3173ae13b9f8a6016e243e63b6e8ee1178d6a717850b5d61036144b1565b6001600160a01b0381166155cd5760405162461bcd60e51b815260206004820152602660248201527f455243313936373a206e65772061646d696e20697320746865207a65726f206160448201526564647265737360d01b6064820152608401610ba1565b807fb53127684a568b3173ae13b9f8a6016e243e63b6e8ee1178d6a717850b5d6103615397565b6155fd816152f7565b6040516001600160a01b038216907fbc7cd75a20ee27fd9adebab32041f755214dbc6bffa90cc0225b39da2e5c2d3b90600090a250565b60606001600160a01b0383163b6156b35760405162461bcd60e51b815260206004820152602660248201527f416464726573733a2064656c65676174652063616c6c20746f206e6f6e2d636f60448201527f6e747261637400000000000000000000000000000000000000000000000000006064820152608401610ba1565b600080846001600160a01b0316846040516156ce9190615b0a565b600060405180830381855af49150503d8060008114615709576040519150601f19603f3d011682016040523d82523d6000602084013e61570e565b606091505b5091509150612fb68282604051806060016040528060278152602001615cf6602791396060831561574057508161576a565b8251156157505782518084602001fd5b8160405162461bcd60e51b8152600401610ba19190615bcc565b9392505050565b805169ffffffffffffffffffff8116811461578b57600080fd5b919050565b6000602082840312156157a1578081fd5b813561576a81615ce0565b6000602082840312156157bd578081fd5b815161576a81615ce0565b6000806000806000806000806000806101408b8d0312156157e7578586fd5b8a356157f281615ce0565b995060208b013561580281615ce0565b985060408b013561581281615ce0565b975060608b0135965060808b0135955060a08b0135945060c08b0135935060e08b013592506101008b013561584681615ce0565b91506101208b013561585781615ce0565b809150509295989b9194979a5092959850565b6000806040838503121561587c578182fd5b823561588781615ce0565b9150602083013567ffffffffffffffff808211156158a3578283fd5b818501915085601f8301126158b6578283fd5b8135818111156158c8576158c8615cca565b604051601f8201601f19908116603f011681019083821181831017156158f0576158f0615cca565b81604052828152886020848701011115615908578586fd5b82602086016020830137856020848301015280955050505050509250929050565b6000806040838503121561593b578182fd5b823561594681615ce0565b946020939093013593505050565b600080600060608486031215615968578283fd5b833561597381615ce0565b95602085013595506040909401359392505050565b6000806020838503121561599a578182fd5b823567ffffffffffffffff808211156159b1578384fd5b818501915085601f8301126159c4578384fd5b8135818111156159d2578485fd5b8660208260051b85010111156159e6578485fd5b60209290920196919550909350505050565b600060208284031215615a09578081fd5b8151801515811461576a578182fd5b600060208284031215615a29578081fd5b5051919050565b600060208284031215615a41578081fd5b5035919050565b60008060408385031215615a5a578182fd5b823591506020830135615a6c81615ce0565b809150509250929050565b60008060408385031215615a89578182fd5b50508035926020909101359150565b60008060408385031215615aaa578182fd5b505080516020909101519092909150565b600080600080600060a08688031215615ad2578283fd5b615adb86615771565b9450602086015193506040860151925060608601519150615afe60808701615771565b90509295509295909350565b60008251615b1c818460208701615c6d565b9190910192915050565b6060808252845182820181905260009190608090818501906020808a01865b83811015615b6157815185529382019390820190600101615b45565b50508683038188015288518084528982019382019250865b81811015615bb45784518051855283810151848601526040808201511515908601528701511515878501529382019392850192600101615b79565b50505080945050505050826040830152949350505050565b6020815260008251806020840152615beb816040850160208701615c6d565b601f01601f19169190910160400192915050565b60008219821115615c1257615c12615cb4565b500190565b600082615c3257634e487b7160e01b81526012600452602481fd5b500490565b6000816000190483118215151615615c5157615c51615cb4565b500290565b600082821015615c6857615c68615cb4565b500390565b60005b83811015615c88578181015183820152602001615c70565b838111156153dd5750506000910152565b6000600019821415615cad57615cad615cb4565b5060010190565b634e487b7160e01b600052601160045260246000fd5b634e487b7160e01b600052604160045260246000fd5b6001600160a01b0381168114610f6857600080fdfe416464726573733a206c6f772d6c6576656c2064656c65676174652063616c6c206661696c6564a26469706673582212207e472463a3437806600fba98179b373274b20636deecc97a84a143436ad427cc64736f6c63430008040033",
  "devdoc": {
    "kind": "dev",
    "methods": {
      "claimTreasury()": {
        "details": "Callable by admin"
      },
      "genesisLockRound()": {
        "details": "Callable by operator"
      },
      "genesisStartRound()": {
        "details": "Callable by admin or operator"
      },
      "getUserRounds(address,uint256,uint256)": {
        "params": {
          "cursor": ": cursor",
          "size": ": size",
          "user": ": user address"
        }
      },
      "getUserRoundsLength(address)": {
        "params": {
          "user": ": user address"
        }
      },
      "initialize(address,address,address,uint256,uint256,uint256,uint256,uint256,address,address)": {
        "params": {
          "_adminAddress": ": admin address",
          "_bufferSeconds": ": buffer of time for resolution of price or time between the rounds",
          "_intervalSeconds": ": duration of each round",
          "_minBetAmount": ": minimum bet amounts (in wei)",
          "_operatorAddress": ": operator address",
          "_oracleAddress": ": chainlink oracle address for getting WETH price",
          "_oracleUpdateAllowance": ": oracle update allowance",
          "_routerContract": ": treasury fee (1000 = 10%)",
          "_treasuryFee": ": treasury fee (1000 = 10%)"
        }
      },
      "makeRefundable(uint256)": {
        "details": "This functin is called to manually mark a round as refundable",
        "params": {
          "epoch": "round is g"
        }
      },
      "owner()": {
        "details": "Returns the address of the current owner."
      },
      "pause()": {
        "details": "Callable by admin or operator"
      },
      "paused()": {
        "details": "Returns true if the contract is paused, and false otherwise."
      },
      "proxiableUUID()": {
        "details": "Implementation of the ERC1822 {proxiableUUID} function. This returns the storage slot used by the implementation. It is used to validate that the this implementation remains valid after an upgrade. IMPORTANT: A proxy pointing at a proxiable contract should not be considered proxiable itself, because this risks bricking a proxy that upgrades to it, by delegating to itself until out of gas. Thus it is critical that this function revert if invoked through a proxy. This is guaranteed by the `notDelegated` modifier."
      },
      "recoverToken(address,uint256)": {
        "details": "Callable by owner",
        "params": {
          "_amount": ": token amount",
          "_token": ": token address"
        }
      },
      "refundable(uint256,address)": {
        "params": {
          "epoch": ": epoch",
          "user": ": user address"
        }
      },
      "renounceOwnership()": {
        "details": "Leaves the contract without owner. It will not be possible to call `onlyOwner` functions anymore. Can only be called by the current owner. NOTE: Renouncing ownership will leave the contract without an owner, thereby removing any functionality that is only available to the owner."
      },
      "setAdmin(address)": {
        "details": "Callable by owner"
      },
      "setBufferAndIntervalSeconds(uint256,uint256)": {
        "details": "Callable by admin"
      },
      "setMinBetAmount(uint256)": {
        "details": "Callable by admin"
      },
      "setOperator(address)": {
        "details": "Callable by admin"
      },
      "setOracle(address)": {
        "details": "Callable by admin"
      },
      "setOracleUpdateAllowance(uint256)": {
        "details": "Callable by admin"
      },
      "setTreasuryFee(uint256)": {
        "details": "Callable by admin"
      },
      "transferOwnership(address)": {
        "details": "Transfers ownership of the contract to a new account (`newOwner`). Can only be called by the current owner."
      },
      "upgradeTo(address)": {
        "details": "Upgrade the implementation of the proxy to `newImplementation`. Calls {_authorizeUpgrade}. Emits an {Upgraded} event."
      },
      "upgradeToAndCall(address,bytes)": {
        "details": "Upgrade the implementation of the proxy to `newImplementation`, and subsequently execute the function call encoded in `data`. Calls {_authorizeUpgrade}. Emits an {Upgraded} event."
      }
    },
    "title": "OFPredictionP2P",
    "version": 1
  },
  "userdoc": {
    "kind": "user",
    "methods": {
      "claimTreasury()": {
        "notice": "Claim all rewards in treasury"
      },
      "genesisLockRound()": {
        "notice": "Lock genesis round"
      },
      "genesisStartRound()": {
        "notice": "Start genesis round"
      },
      "getUserRounds(address,uint256,uint256)": {
        "notice": "Returns round epochs and bet information for a user that has participated"
      },
      "getUserRoundsLength(address)": {
        "notice": "Returns round epochs length"
      },
      "initialize(address,address,address,uint256,uint256,uint256,uint256,uint256,address,address)": {
        "notice": "Initializer"
      },
      "pause()": {
        "notice": "called by the admin to pause, triggers stopped state"
      },
      "recoverToken(address,uint256)": {
        "notice": "It allows the owner to recover tokens sent to the contract by mistake"
      },
      "refundable(uint256,address)": {
        "notice": "Get the refundable stats of specific epoch and user account"
      },
      "setAdmin(address)": {
        "notice": "Set admin address"
      },
      "setBufferAndIntervalSeconds(uint256,uint256)": {
        "notice": "Set buffer and interval (in seconds)"
      },
      "setMinBetAmount(uint256)": {
        "notice": "Set minBetAmount"
      },
      "setOperator(address)": {
        "notice": "Set operator address"
      },
      "setOracle(address)": {
        "notice": "Set Oracle address"
      },
      "setOracleUpdateAllowance(uint256)": {
        "notice": "Set oracle update allowance"
      },
      "setTreasuryFee(uint256)": {
        "notice": "Set treasury fee"
      },
      "unpause()": {
        "notice": "called by the admin to unpause, returns to normal state Reset genesis state. Once paused, the rounds would need to be kickstarted by genesis"
      }
    },
    "version": 1
  },
  "storageLayout": {
    "storage": [
      {
        "astId": 519,
        "contract": "contracts/OFPredictionP2P.sol:OFPredictionP2P",
        "label": "_initialized",
        "offset": 0,
        "slot": "0",
        "type": "t_bool"
      },
      {
        "astId": 522,
        "contract": "contracts/OFPredictionP2P.sol:OFPredictionP2P",
        "label": "_initializing",
        "offset": 1,
        "slot": "0",
        "type": "t_bool"
      },
      {
        "astId": 501,
        "contract": "contracts/OFPredictionP2P.sol:OFPredictionP2P",
        "label": "__gap",
        "offset": 0,
        "slot": "1",
        "type": "t_array(t_uint256)50_storage"
      },
      {
        "astId": 721,
        "contract": "contracts/OFPredictionP2P.sol:OFPredictionP2P",
        "label": "__gap",
        "offset": 0,
        "slot": "51",
        "type": "t_array(t_uint256)50_storage"
      },
      {
        "astId": 2116,
        "contract": "contracts/OFPredictionP2P.sol:OFPredictionP2P",
        "label": "__gap",
        "offset": 0,
        "slot": "101",
        "type": "t_array(t_uint256)50_storage"
      },
      {
        "astId": 10,
        "contract": "contracts/OFPredictionP2P.sol:OFPredictionP2P",
        "label": "_owner",
        "offset": 0,
        "slot": "151",
        "type": "t_address"
      },
      {
        "astId": 122,
        "contract": "contracts/OFPredictionP2P.sol:OFPredictionP2P",
        "label": "__gap",
        "offset": 0,
        "slot": "152",
        "type": "t_array(t_uint256)49_storage"
      },
      {
        "astId": 743,
        "contract": "contracts/OFPredictionP2P.sol:OFPredictionP2P",
        "label": "_paused",
        "offset": 0,
        "slot": "201",
        "type": "t_bool"
      },
      {
        "astId": 832,
        "contract": "contracts/OFPredictionP2P.sol:OFPredictionP2P",
        "label": "__gap",
        "offset": 0,
        "slot": "202",
        "type": "t_array(t_uint256)49_storage"
      },
      {
        "astId": 847,
        "contract": "contracts/OFPredictionP2P.sol:OFPredictionP2P",
        "label": "_status",
        "offset": 0,
        "slot": "251",
        "type": "t_uint256"
      },
      {
        "astId": 891,
        "contract": "contracts/OFPredictionP2P.sol:OFPredictionP2P",
        "label": "__gap",
        "offset": 0,
        "slot": "252",
        "type": "t_array(t_uint256)49_storage"
      },
      {
        "astId": 12793,
        "contract": "contracts/OFPredictionP2P.sol:OFPredictionP2P",
        "label": "oracle",
        "offset": 0,
        "slot": "301",
        "type": "t_address"
      },
      {
        "astId": 12795,
        "contract": "contracts/OFPredictionP2P.sol:OFPredictionP2P",
        "label": "genesisLockOnce",
        "offset": 20,
        "slot": "301",
        "type": "t_bool"
      },
      {
        "astId": 12797,
        "contract": "contracts/OFPredictionP2P.sol:OFPredictionP2P",
        "label": "genesisStartOnce",
        "offset": 21,
        "slot": "301",
        "type": "t_bool"
      },
      {
        "astId": 12799,
        "contract": "contracts/OFPredictionP2P.sol:OFPredictionP2P",
        "label": "adminAddress",
        "offset": 0,
        "slot": "302",
        "type": "t_address"
      },
      {
        "astId": 12801,
        "contract": "contracts/OFPredictionP2P.sol:OFPredictionP2P",
        "label": "operatorAddress",
        "offset": 0,
        "slot": "303",
        "type": "t_address"
      },
      {
        "astId": 12803,
        "contract": "contracts/OFPredictionP2P.sol:OFPredictionP2P",
        "label": "bufferSeconds",
        "offset": 0,
        "slot": "304",
        "type": "t_uint256"
      },
      {
        "astId": 12805,
        "contract": "contracts/OFPredictionP2P.sol:OFPredictionP2P",
        "label": "intervalSeconds",
        "offset": 0,
        "slot": "305",
        "type": "t_uint256"
      },
      {
        "astId": 12807,
        "contract": "contracts/OFPredictionP2P.sol:OFPredictionP2P",
        "label": "minBetAmount",
        "offset": 0,
        "slot": "306",
        "type": "t_uint256"
      },
      {
        "astId": 12809,
        "contract": "contracts/OFPredictionP2P.sol:OFPredictionP2P",
        "label": "treasuryFee",
        "offset": 0,
        "slot": "307",
        "type": "t_uint256"
      },
      {
        "astId": 12811,
        "contract": "contracts/OFPredictionP2P.sol:OFPredictionP2P",
        "label": "treasuryAmount",
        "offset": 0,
        "slot": "308",
        "type": "t_uint256"
      },
      {
        "astId": 12813,
        "contract": "contracts/OFPredictionP2P.sol:OFPredictionP2P",
        "label": "currentEpoch",
        "offset": 0,
        "slot": "309",
        "type": "t_uint256"
      },
      {
        "astId": 12815,
        "contract": "contracts/OFPredictionP2P.sol:OFPredictionP2P",
        "label": "oracleLatestRoundId",
        "offset": 0,
        "slot": "310",
        "type": "t_uint256"
      },
      {
        "astId": 12817,
        "contract": "contracts/OFPredictionP2P.sol:OFPredictionP2P",
        "label": "oracleUpdateAllowance",
        "offset": 0,
        "slot": "311",
        "type": "t_uint256"
      },
      {
        "astId": 12827,
        "contract": "contracts/OFPredictionP2P.sol:OFPredictionP2P",
        "label": "ledger",
        "offset": 0,
        "slot": "312",
        "type": "t_mapping(t_uint256,t_mapping(t_address,t_struct(BetInfo)12877_storage))"
      },
      {
        "astId": 12832,
        "contract": "contracts/OFPredictionP2P.sol:OFPredictionP2P",
        "label": "rounds",
        "offset": 0,
        "slot": "313",
        "type": "t_mapping(t_uint256,t_struct(Round)12868_storage)"
      },
      {
        "astId": 12837,
        "contract": "contracts/OFPredictionP2P.sol:OFPredictionP2P",
        "label": "userRounds",
        "offset": 0,
        "slot": "314",
        "type": "t_mapping(t_address,t_array(t_uint256)dyn_storage)"
      },
      {
        "astId": 12839,
        "contract": "contracts/OFPredictionP2P.sol:OFPredictionP2P",
        "label": "tokenAddress",
        "offset": 0,
        "slot": "315",
        "type": "t_address"
      },
      {
        "astId": 12841,
        "contract": "contracts/OFPredictionP2P.sol:OFPredictionP2P",
        "label": "routerContract",
        "offset": 0,
        "slot": "316",
        "type": "t_address"
      }
    ],
    "types": {
      "t_address": {
        "encoding": "inplace",
        "label": "address",
        "numberOfBytes": "20"
      },
      "t_array(t_uint256)49_storage": {
        "base": "t_uint256",
        "encoding": "inplace",
        "label": "uint256[49]",
        "numberOfBytes": "1568"
      },
      "t_array(t_uint256)50_storage": {
        "base": "t_uint256",
        "encoding": "inplace",
        "label": "uint256[50]",
        "numberOfBytes": "1600"
      },
      "t_array(t_uint256)dyn_storage": {
        "base": "t_uint256",
        "encoding": "dynamic_array",
        "label": "uint256[]",
        "numberOfBytes": "32"
      },
      "t_bool": {
        "encoding": "inplace",
        "label": "bool",
        "numberOfBytes": "1"
      },
      "t_int256": {
        "encoding": "inplace",
        "label": "int256",
        "numberOfBytes": "32"
      },
      "t_mapping(t_address,t_array(t_uint256)dyn_storage)": {
        "encoding": "mapping",
        "key": "t_address",
        "label": "mapping(address => uint256[])",
        "numberOfBytes": "32",
        "value": "t_array(t_uint256)dyn_storage"
      },
      "t_mapping(t_address,t_struct(BetInfo)12877_storage)": {
        "encoding": "mapping",
        "key": "t_address",
        "label": "mapping(address => struct OFPredictionP2PStorage.BetInfo)",
        "numberOfBytes": "32",
        "value": "t_struct(BetInfo)12877_storage"
      },
      "t_mapping(t_uint256,t_mapping(t_address,t_struct(BetInfo)12877_storage))": {
        "encoding": "mapping",
        "key": "t_uint256",
        "label": "mapping(uint256 => mapping(address => struct OFPredictionP2PStorage.BetInfo))",
        "numberOfBytes": "32",
        "value": "t_mapping(t_address,t_struct(BetInfo)12877_storage)"
      },
      "t_mapping(t_uint256,t_struct(Round)12868_storage)": {
        "encoding": "mapping",
        "key": "t_uint256",
        "label": "mapping(uint256 => struct OFPredictionP2PStorage.Round)",
        "numberOfBytes": "32",
        "value": "t_struct(Round)12868_storage"
      },
      "t_struct(BetInfo)12877_storage": {
        "encoding": "inplace",
        "label": "struct OFPredictionP2PStorage.BetInfo",
        "members": [
          {
            "astId": 12870,
            "contract": "contracts/OFPredictionP2P.sol:OFPredictionP2P",
            "label": "position",
            "offset": 0,
            "slot": "0",
            "type": "t_uint256"
          },
          {
            "astId": 12872,
            "contract": "contracts/OFPredictionP2P.sol:OFPredictionP2P",
            "label": "amount",
            "offset": 0,
            "slot": "1",
            "type": "t_uint256"
          },
          {
            "astId": 12874,
            "contract": "contracts/OFPredictionP2P.sol:OFPredictionP2P",
            "label": "claimed",
            "offset": 0,
            "slot": "2",
            "type": "t_bool"
          },
          {
            "astId": 12876,
            "contract": "contracts/OFPredictionP2P.sol:OFPredictionP2P",
            "label": "bonusClaimed",
            "offset": 1,
            "slot": "2",
            "type": "t_bool"
          }
        ],
        "numberOfBytes": "96"
      },
      "t_struct(Round)12868_storage": {
        "encoding": "inplace",
        "label": "struct OFPredictionP2PStorage.Round",
        "members": [
          {
            "astId": 12843,
            "contract": "contracts/OFPredictionP2P.sol:OFPredictionP2P",
            "label": "epoch",
            "offset": 0,
            "slot": "0",
            "type": "t_uint256"
          },
          {
            "astId": 12845,
            "contract": "contracts/OFPredictionP2P.sol:OFPredictionP2P",
            "label": "startTimestamp",
            "offset": 0,
            "slot": "1",
            "type": "t_uint256"
          },
          {
            "astId": 12847,
            "contract": "contracts/OFPredictionP2P.sol:OFPredictionP2P",
            "label": "lockTimestamp",
            "offset": 0,
            "slot": "2",
            "type": "t_uint256"
          },
          {
            "astId": 12849,
            "contract": "contracts/OFPredictionP2P.sol:OFPredictionP2P",
            "label": "closeTimestamp",
            "offset": 0,
            "slot": "3",
            "type": "t_uint256"
          },
          {
            "astId": 12851,
            "contract": "contracts/OFPredictionP2P.sol:OFPredictionP2P",
            "label": "lockPrice",
            "offset": 0,
            "slot": "4",
            "type": "t_int256"
          },
          {
            "astId": 12853,
            "contract": "contracts/OFPredictionP2P.sol:OFPredictionP2P",
            "label": "closePrice",
            "offset": 0,
            "slot": "5",
            "type": "t_int256"
          },
          {
            "astId": 12855,
            "contract": "contracts/OFPredictionP2P.sol:OFPredictionP2P",
            "label": "totalAmount",
            "offset": 0,
            "slot": "6",
            "type": "t_uint256"
          },
          {
            "astId": 12857,
            "contract": "contracts/OFPredictionP2P.sol:OFPredictionP2P",
            "label": "bullAmount",
            "offset": 0,
            "slot": "7",
            "type": "t_uint256"
          },
          {
            "astId": 12859,
            "contract": "contracts/OFPredictionP2P.sol:OFPredictionP2P",
            "label": "bearAmount",
            "offset": 0,
            "slot": "8",
            "type": "t_uint256"
          },
          {
            "astId": 12861,
            "contract": "contracts/OFPredictionP2P.sol:OFPredictionP2P",
            "label": "rewardBaseCalAmount",
            "offset": 0,
            "slot": "9",
            "type": "t_uint256"
          },
          {
            "astId": 12863,
            "contract": "contracts/OFPredictionP2P.sol:OFPredictionP2P",
            "label": "rewardAmount",
            "offset": 0,
            "slot": "10",
            "type": "t_uint256"
          },
          {
            "astId": 12865,
            "contract": "contracts/OFPredictionP2P.sol:OFPredictionP2P",
            "label": "oracleCalled",
            "offset": 0,
            "slot": "11",
            "type": "t_bool"
          },
          {
            "astId": 12867,
            "contract": "contracts/OFPredictionP2P.sol:OFPredictionP2P",
            "label": "ifRefundable",
            "offset": 1,
            "slot": "11",
            "type": "t_bool"
          }
        ],
        "numberOfBytes": "384"
      },
      "t_uint256": {
        "encoding": "inplace",
        "label": "uint256",
        "numberOfBytes": "32"
      }
    }
  }
}