{
  "address": "0xE79b34b6f719a4a6CFfCE8f2e978dcDC9E5Ca7D3",
  "abi": [
    {
      "anonymous": false,
      "inputs": [
        {
          "indexed": false,
          "internalType": "address",
          "name": "previousAdmin",
          "type": "address"
        },
        {
          "indexed": false,
          "internalType": "address",
          "name": "newAdmin",
          "type": "address"
        }
      ],
      "name": "AdminChanged",
      "type": "event"
    },
    {
      "anonymous": false,
      "inputs": [
        {
          "indexed": true,
          "internalType": "address",
          "name": "beacon",
          "type": "address"
        }
      ],
      "name": "BeaconUpgraded",
      "type": "event"
    },
    {
      "anonymous": false,
      "inputs": [
        {
          "indexed": true,
          "internalType": "address",
          "name": "previousOwner",
          "type": "address"
        },
        {
          "indexed": true,
          "internalType": "address",
          "name": "newOwner",
          "type": "address"
        }
      ],
      "name": "OwnershipTransferred",
      "type": "event"
    },
    {
      "anonymous": false,
      "inputs": [
        {
          "indexed": true,
          "internalType": "address",
          "name": "implementation",
          "type": "address"
        }
      ],
      "name": "Upgraded",
      "type": "event"
    },
    {
      "anonymous": false,
      "inputs": [
        {
          "indexed": false,
          "internalType": "uint256",
          "name": "previousBalance",
          "type": "uint256"
        },
        {
          "indexed": false,
          "internalType": "uint256",
          "name": "newBalance",
          "type": "uint256"
        },
        {
          "indexed": false,
          "internalType": "uint256",
          "name": "interestAccumulated",
          "type": "uint256"
        },
        {
          "indexed": false,
          "internalType": "uint256",
          "name": "timestamp",
          "type": "uint256"
        }
      ],
      "name": "enterAmount",
      "type": "event"
    },
    {
      "anonymous": false,
      "inputs": [
        {
          "indexed": false,
          "internalType": "uint256",
          "name": "proviousRate",
          "type": "uint256"
        },
        {
          "indexed": false,
          "internalType": "uint256",
          "name": "newRate",
          "type": "uint256"
        },
        {
          "indexed": false,
          "internalType": "uint256",
          "name": "timestamp",
          "type": "uint256"
        }
      ],
      "name": "newMinStakeAmount",
      "type": "event"
    },
    {
      "anonymous": false,
      "inputs": [
        {
          "indexed": false,
          "internalType": "uint256",
          "name": "proviousRate",
          "type": "uint256"
        },
        {
          "indexed": false,
          "internalType": "uint256",
          "name": "newRate",
          "type": "uint256"
        },
        {
          "indexed": false,
          "internalType": "uint256",
          "name": "timestamp",
          "type": "uint256"
        }
      ],
      "name": "newRate",
      "type": "event"
    },
    {
      "anonymous": false,
      "inputs": [
        {
          "indexed": false,
          "internalType": "uint256",
          "name": "previousBalance",
          "type": "uint256"
        },
        {
          "indexed": false,
          "internalType": "uint256",
          "name": "newBalance",
          "type": "uint256"
        },
        {
          "indexed": false,
          "internalType": "uint256",
          "name": "interestAccumulated",
          "type": "uint256"
        },
        {
          "indexed": false,
          "internalType": "uint256",
          "name": "timestamp",
          "type": "uint256"
        }
      ],
      "name": "retireAmount",
      "type": "event"
    },
    {
      "inputs": [],
      "name": "NEWFIELD",
      "outputs": [
        {
          "internalType": "uint256",
          "name": "",
          "type": "uint256"
        }
      ],
      "stateMutability": "view",
      "type": "function"
    },
    {
      "inputs": [],
      "name": "SECSINDAY",
      "outputs": [
        {
          "internalType": "uint256",
          "name": "",
          "type": "uint256"
        }
      ],
      "stateMutability": "view",
      "type": "function"
    },
    {
      "inputs": [],
      "name": "bold",
      "outputs": [
        {
          "internalType": "address",
          "name": "",
          "type": "address"
        }
      ],
      "stateMutability": "view",
      "type": "function"
    },
    {
      "inputs": [
        {
          "internalType": "uint256",
          "name": "lpAmount",
          "type": "uint256"
        }
      ],
      "name": "calculateEquivalenceInBold",
      "outputs": [
        {
          "internalType": "uint256",
          "name": "",
          "type": "uint256"
        }
      ],
      "stateMutability": "view",
      "type": "function"
    },
    {
      "inputs": [],
      "name": "cashoutAllRewards",
      "outputs": [
        {
          "internalType": "uint256",
          "name": "",
          "type": "uint256"
        }
      ],
      "stateMutability": "nonpayable",
      "type": "function"
    },
    {
      "inputs": [
        {
          "internalType": "uint256",
          "name": "_minStakeAmount",
          "type": "uint256"
        }
      ],
      "name": "changeMinStakeAmount",
      "outputs": [],
      "stateMutability": "nonpayable",
      "type": "function"
    },
    {
      "inputs": [
        {
          "internalType": "uint256",
          "name": "_rate",
          "type": "uint256"
        }
      ],
      "name": "changeRate",
      "outputs": [],
      "stateMutability": "nonpayable",
      "type": "function"
    },
    {
      "inputs": [
        {
          "internalType": "uint256",
          "name": "_amount",
          "type": "uint256"
        }
      ],
      "name": "enter",
      "outputs": [],
      "stateMutability": "nonpayable",
      "type": "function"
    },
    {
      "inputs": [
        {
          "internalType": "address",
          "name": "sender",
          "type": "address"
        }
      ],
      "name": "getCurrentCashout",
      "outputs": [
        {
          "internalType": "uint256",
          "name": "_deposit",
          "type": "uint256"
        },
        {
          "internalType": "uint256",
          "name": "_CurrentInterest",
          "type": "uint256"
        }
      ],
      "stateMutability": "view",
      "type": "function"
    },
    {
      "inputs": [
        {
          "internalType": "address",
          "name": "_token",
          "type": "address"
        },
        {
          "internalType": "address",
          "name": "_bold",
          "type": "address"
        },
        {
          "internalType": "uint256",
          "name": "_rate",
          "type": "uint256"
        },
        {
          "internalType": "uint256",
          "name": "_minAmount",
          "type": "uint256"
        },
        {
          "internalType": "address",
          "name": "_pair",
          "type": "address"
        }
      ],
      "name": "initialize",
      "outputs": [],
      "stateMutability": "nonpayable",
      "type": "function"
    },
    {
      "inputs": [
        {
          "internalType": "uint256",
          "name": "share",
          "type": "uint256"
        }
      ],
      "name": "leave",
      "outputs": [
        {
          "internalType": "uint256",
          "name": "",
          "type": "uint256"
        }
      ],
      "stateMutability": "nonpayable",
      "type": "function"
    },
    {
      "inputs": [],
      "name": "minStakeAmount",
      "outputs": [
        {
          "internalType": "uint256",
          "name": "",
          "type": "uint256"
        }
      ],
      "stateMutability": "view",
      "type": "function"
    },
    {
      "inputs": [],
      "name": "owner",
      "outputs": [
        {
          "internalType": "address",
          "name": "",
          "type": "address"
        }
      ],
      "stateMutability": "view",
      "type": "function"
    },
    {
      "inputs": [],
      "name": "pair",
      "outputs": [
        {
          "internalType": "address",
          "name": "",
          "type": "address"
        }
      ],
      "stateMutability": "view",
      "type": "function"
    },
    {
      "inputs": [],
      "name": "proxiableUUID",
      "outputs": [
        {
          "internalType": "bytes32",
          "name": "",
          "type": "bytes32"
        }
      ],
      "stateMutability": "view",
      "type": "function"
    },
    {
      "inputs": [],
      "name": "rate",
      "outputs": [
        {
          "internalType": "uint256",
          "name": "",
          "type": "uint256"
        }
      ],
      "stateMutability": "view",
      "type": "function"
    },
    {
      "inputs": [],
      "name": "renounceOwnership",
      "outputs": [],
      "stateMutability": "nonpayable",
      "type": "function"
    },
    {
      "inputs": [],
      "name": "token",
      "outputs": [
        {
          "internalType": "address",
          "name": "",
          "type": "address"
        }
      ],
      "stateMutability": "view",
      "type": "function"
    },
    {
      "inputs": [
        {
          "internalType": "address",
          "name": "newOwner",
          "type": "address"
        }
      ],
      "name": "transferOwnership",
      "outputs": [],
      "stateMutability": "nonpayable",
      "type": "function"
    },
    {
      "inputs": [
        {
          "internalType": "address",
          "name": "_token",
          "type": "address"
        },
        {
          "internalType": "address",
          "name": "_bold",
          "type": "address"
        },
        {
          "internalType": "address",
          "name": "_pair",
          "type": "address"
        }
      ],
      "name": "upgrade",
      "outputs": [],
      "stateMutability": "nonpayable",
      "type": "function"
    },
    {
      "inputs": [
        {
          "internalType": "address",
          "name": "newImplementation",
          "type": "address"
        }
      ],
      "name": "upgradeTo",
      "outputs": [],
      "stateMutability": "nonpayable",
      "type": "function"
    },
    {
      "inputs": [
        {
          "internalType": "address",
          "name": "newImplementation",
          "type": "address"
        },
        {
          "internalType": "bytes",
          "name": "data",
          "type": "bytes"
        }
      ],
      "name": "upgradeToAndCall",
      "outputs": [],
      "stateMutability": "payable",
      "type": "function"
    },
    {
      "inputs": [
        {
          "internalType": "address",
          "name": "",
          "type": "address"
        }
      ],
      "name": "users",
      "outputs": [
        {
          "internalType": "uint256",
          "name": "balance",
          "type": "uint256"
        },
        {
          "internalType": "uint256",
          "name": "timestamp",
          "type": "uint256"
        },
        {
          "internalType": "uint256",
          "name": "interestAccumulated",
          "type": "uint256"
        }
      ],
      "stateMutability": "view",
      "type": "function"
    }
  ],
  "transactionHash": "0x4a4f81bbaa66070e2fb3932d4b93a415a396e8a85c06b87adef9907c967751c3",
  "args": [],
  "numDeployments": 1,
  "solcInputHash": "ab20f7579c850e0fbcbcfcb1ce50b5a1",
  "bytecode": "0x60a06040523060601b60805234801561001757600080fd5b5060805160601c611f9f610052600039600081816104c40152818161054e0152818161061c015281816106a101526107620152611f9f6000f3fe6080604052600436106101805760003560e01c8063819e3431116100d6578063dd924acd1161007f578063f2fde38b11610059578063f2fde38b14610432578063f5a8f9df14610452578063fc0c546a1461046757600080fd5b8063dd924acd146103dc578063f000999e146103fc578063f18876841461041c57600080fd5b8063a87430ba116100b0578063a87430ba1461034f578063a8aa1b31146103a6578063aafb7aaa146103c657600080fd5b8063819e3431146102f15780638da5cb5b14610311578063a59f3e0c1461032f57600080fd5b806357fb25cc11610138578063715018a611610112578063715018a614610284578063727d0f351461029957806374e7493b146102d157600080fd5b806357fb25cc1461022d57806358b082541461024d57806367dfd4c91461026457600080fd5b80633659cfe6116101695780633659cfe6146101e35780634f1ef2861461020557806352d1902d1461021857600080fd5b80630ab4179e146101855780632c4e722e146101bf575b600080fd5b34801561019157600080fd5b506101a56101a0366004611c20565b610487565b604080519283526020830191909152015b60405180910390f35b3480156101cb57600080fd5b506101d560cc5481565b6040519081526020016101b6565b3480156101ef57600080fd5b506102036101fe366004611c20565b6104b9565b005b610203610213366004611cd2565b610611565b34801561022457600080fd5b506101d5610755565b34801561023957600080fd5b50610203610248366004611c7c565b61081a565b34801561025957600080fd5b506101d56201518081565b34801561027057600080fd5b506101d561027f366004611e15565b610954565b34801561029057600080fd5b50610203610be6565b3480156102a557600080fd5b5060ca546102b9906001600160a01b031681565b6040516001600160a01b0390911681526020016101b6565b3480156102dd57600080fd5b506102036102ec366004611e15565b610c4c565b3480156102fd57600080fd5b506101d561030c366004611e15565b610cf6565b34801561031d57600080fd5b506097546001600160a01b03166102b9565b34801561033b57600080fd5b5061020361034a366004611e15565b610ebf565b34801561035b57600080fd5b5061038b61036a366004611c20565b60cf6020526000908152604090208054600182015460029092015490919083565b604080519384526020840192909252908201526060016101b6565b3480156103b257600080fd5b5060c9546102b9906001600160a01b031681565b3480156103d257600080fd5b506101d560ce5481565b3480156103e857600080fd5b506102036103f7366004611e15565b611097565b34801561040857600080fd5b50610203610417366004611c3a565b611139565b34801561042857600080fd5b506101d560cd5481565b34801561043e57600080fd5b5061020361044d366004611c20565b6111dd565b34801561045e57600080fd5b506101d56112a5565b34801561047357600080fd5b5060cb546102b9906001600160a01b031681565b6001600160a01b038116600090815260cf60205260408120548190816104ad85836113e6565b91959194509092505050565b306001600160a01b037f000000000000000000000000000000000000000000000000000000000000000016141561054c5760405162461bcd60e51b815260206004820152602c60248201527f46756e6374696f6e206d7573742062652063616c6c6564207468726f7567682060448201526b19195b1959d85d1958d85b1b60a21b60648201526084015b60405180910390fd5b7f00000000000000000000000000000000000000000000000000000000000000006001600160a01b031661057e611468565b6001600160a01b0316146105e95760405162461bcd60e51b815260206004820152602c60248201527f46756e6374696f6e206d7573742062652063616c6c6564207468726f7567682060448201526b6163746976652070726f787960a01b6064820152608401610543565b6105f28161149b565b6040805160008082526020820190925261060e918391906114f5565b50565b306001600160a01b037f000000000000000000000000000000000000000000000000000000000000000016141561069f5760405162461bcd60e51b815260206004820152602c60248201527f46756e6374696f6e206d7573742062652063616c6c6564207468726f7567682060448201526b19195b1959d85d1958d85b1b60a21b6064820152608401610543565b7f00000000000000000000000000000000000000000000000000000000000000006001600160a01b03166106d1611468565b6001600160a01b03161461073c5760405162461bcd60e51b815260206004820152602c60248201527f46756e6374696f6e206d7573742062652063616c6c6564207468726f7567682060448201526b6163746976652070726f787960a01b6064820152608401610543565b6107458261149b565b610751828260016114f5565b5050565b6000306001600160a01b037f000000000000000000000000000000000000000000000000000000000000000016146107f55760405162461bcd60e51b815260206004820152603860248201527f555550535570677261646561626c653a206d757374206e6f742062652063616c60448201527f6c6564207468726f7567682064656c656761746563616c6c00000000000000006064820152608401610543565b507f360894a13ba1a3210667c828492db98dca3e2076cc3735a920a3ca505d382bbc90565b600054610100900460ff166108355760005460ff1615610839565b303b155b6108ab5760405162461bcd60e51b815260206004820152602e60248201527f496e697469616c697a61626c653a20636f6e747261637420697320616c72656160448201527f647920696e697469616c697a65640000000000000000000000000000000000006064820152608401610543565b600054610100900460ff161580156108cd576000805461ffff19166101011790555b6108d56116a9565b6108dd61171c565b6108e633611787565b60cb80546001600160a01b0380891673ffffffffffffffffffffffffffffffffffffffff199283161790925560ca805488841690831617905560cc86905560cd85905560c9805492851692909116919091179055801561094c576000805461ff00191690555b505050505050565b33600090815260cf6020526040812080548311156109da5760405162461bcd60e51b815260206004820152602a60248201527f53686172652063616e6e6f74206265206d6f7265207468616e2063757272656e60448201527f74206465706f73697473000000000000000000000000000000000000000000006064820152608401610543565b60cd54831015610a525760405162461bcd60e51b815260206004820152603a60248201527f576974686472617720616d6f756e742073686f756c64206265206d6f7265207460448201527f68616e20746865206d696e696d756d2072657120616d6f756e740000000000006064820152608401610543565b6000610a618260000154610cf6565b90506000610a6f33836113e6565b600060028501558354909150610a858682611ed3565b845542600185015560cb546040517fa9059cbb000000000000000000000000000000000000000000000000000000008152336004820152602481018890526001600160a01b039091169063a9059cbb90604401602060405180830381600087803b158015610af257600080fd5b505af1158015610b06573d6000803e3d6000fd5b505050506040513d601f19601f82011682018060405250810190610b2a9190611d8f565b5060ca546040516340c10f1960e01b8152336004820152602481018490526001600160a01b03909116906340c10f1990604401600060405180830381600087803b158015610b7757600080fd5b505af1158015610b8b573d6000803e3d6000fd5b505085546001870154604080518681526020810193909352820186905260608201527facd2663d7282bc59d0af0910b598461a6c6d814474a74ea3016964bf9e90fee89250608001905060405180910390a150949350505050565b6097546001600160a01b03163314610c405760405162461bcd60e51b815260206004820181905260248201527f4f776e61626c653a2063616c6c6572206973206e6f7420746865206f776e65726044820152606401610543565b610c4a60006117db565b565b6097546001600160a01b03163314610ca65760405162461bcd60e51b815260206004820181905260248201527f4f776e61626c653a2063616c6c6572206973206e6f7420746865206f776e65726044820152606401610543565b60cc805490829055604080518281526020810184905242918101919091527f81ba4195dc5019444883188177b0c70ab0b3d487423c78334e14bfdab3b8c91b906060015b60405180910390a15050565b60008060c960009054906101000a90046001600160a01b03166001600160a01b03166318160ddd6040518163ffffffff1660e01b815260040160206040518083038186803b158015610d4757600080fd5b505afa158015610d5b573d6000803e3d6000fd5b505050506040513d601f19601f82011682018060405250810190610d7f9190611daf565b905060008111610df75760405162461bcd60e51b815260206004820152603260248201527f50616972206861732030206c69717569646974792e20556e61626c6520746f2060448201527f63616c63756c61746520696e74657265737400000000000000000000000000006064820152608401610543565b60c954604080517f0902f1ac00000000000000000000000000000000000000000000000000000000815290516000926001600160a01b031691630902f1ac916004808301926060929190829003018186803b158015610e5557600080fd5b505afa158015610e69573d6000803e3d6000fd5b505050506040513d601f19601f82011682018060405250810190610e8d9190611dc7565b506dffffffffffffffffffffffffffff169150829050610ead8286611eb4565b610eb79190611e94565b949350505050565b600060cd54821015610f395760405162461bcd60e51b815260206004820152603860248201527f5374616b6520616d6f756e742073686f756c642062652067726561746572207460448201527f68616e206d696e696d756d207374616b6520616d6f756e7400000000000000006064820152608401610543565b33600090815260cf60205260409020805415610f8657805491506000610f5e83610cf6565b90506000610f6c33836113e6565b9050808360020154610f7e9190611e7c565b600284015550505b8054610f93908490611e7c565b815542600182015560cb546040517f23b872dd000000000000000000000000000000000000000000000000000000008152336004820152306024820152604481018590526001600160a01b03909116906323b872dd90606401602060405180830381600087803b15801561100657600080fd5b505af115801561101a573d6000803e3d6000fd5b505050506040513d601f19601f8201168201806040525081019061103e9190611d8f565b5080546002820154600183015460408051868152602081019490945283019190915260608201527fc362164f26ac3ef7417d18d603aabb747e63bec6f911a8eb0a5dadf302773b4d9060800160405180910390a1505050565b6097546001600160a01b031633146110f15760405162461bcd60e51b815260206004820181905260248201527f4f776e61626c653a2063616c6c6572206973206e6f7420746865206f776e65726044820152606401610543565b60cd805490829055604080518281526020810184905242918101919091527fce08ad836776d738b5c6b8b40743e4e2e7d7888d8851407b86a3ec407efba17590606001610cea565b6097546001600160a01b031633146111935760405162461bcd60e51b815260206004820181905260248201527f4f776e61626c653a2063616c6c6572206973206e6f7420746865206f776e65726044820152606401610543565b60ca805473ffffffffffffffffffffffffffffffffffffffff199081166001600160a01b039485161790915560cb805482169484169490941790935560c980549093169116179055565b6097546001600160a01b031633146112375760405162461bcd60e51b815260206004820181905260248201527f4f776e61626c653a2063616c6c6572206973206e6f7420746865206f776e65726044820152606401610543565b6001600160a01b03811661129c5760405162461bcd60e51b815260206004820152602660248201527f4f776e61626c653a206e6577206f776e657220697320746865207a65726f206160448201526564647265737360d01b6064820152608401610543565b61060e816117db565b33600090815260cf6020526040812080546113025760405162461bcd60e51b815260206004820152601460248201527f5573657220686173206e6f206465706f736974730000000000000000000000006044820152606401610543565b60006113118260000154610cf6565b9050600061131f33836113e6565b6000600285015542600185015560ca546040516340c10f1960e01b8152336004820152602481018390529192506001600160a01b0316906340c10f1990604401600060405180830381600087803b15801561137957600080fd5b505af115801561138d573d6000803e3d6000fd5b505084546001860154604080518381526020810193909352820185905260608201527facd2663d7282bc59d0af0910b598461a6c6d814474a74ea3016964bf9e90fee89250608001905060405180910390a19392505050565b6001600160a01b038216600090815260cf602052604081206001810154829062015180906114149042611ed3565b61141e9190611e94565b905060006237b1d060cc5483876114359190611eb4565b61143f9190611eb4565b6114499190611e94565b9050600081846002015461145d9190611e7c565b979650505050505050565b60007f360894a13ba1a3210667c828492db98dca3e2076cc3735a920a3ca505d382bbc5b546001600160a01b0316919050565b6097546001600160a01b0316331461060e5760405162461bcd60e51b815260206004820181905260248201527f4f776e61626c653a2063616c6c6572206973206e6f7420746865206f776e65726044820152606401610543565b7f4910fdfa16fed3260ed0e7147f7cc6da11a60208b5b9406d12a635614ffd91435460ff161561152d576115288361183a565b505050565b826001600160a01b03166352d1902d6040518163ffffffff1660e01b815260040160206040518083038186803b15801561156657600080fd5b505afa925050508015611596575060408051601f3d908101601f1916820190925261159391810190611daf565b60015b6116085760405162461bcd60e51b815260206004820152602e60248201527f45524331393637557067726164653a206e657720696d706c656d656e7461746960448201527f6f6e206973206e6f7420555550530000000000000000000000000000000000006064820152608401610543565b7f360894a13ba1a3210667c828492db98dca3e2076cc3735a920a3ca505d382bbc811461169d5760405162461bcd60e51b815260206004820152602960248201527f45524331393637557067726164653a20756e737570706f727465642070726f7860448201527f6961626c655555494400000000000000000000000000000000000000000000006064820152608401610543565b50611528838383611908565b600054610100900460ff166117145760405162461bcd60e51b815260206004820152602b60248201527f496e697469616c697a61626c653a20636f6e7472616374206973206e6f74206960448201526a6e697469616c697a696e6760a81b6064820152608401610543565b610c4a611933565b600054610100900460ff16610c4a5760405162461bcd60e51b815260206004820152602b60248201527f496e697469616c697a61626c653a20636f6e7472616374206973206e6f74206960448201526a6e697469616c697a696e6760a81b6064820152608401610543565b7f7e644d79422f17c01e4894b5f4f588d331ebfa28653d42ae832dc59e38c9798f6117b06119a7565b604080516001600160a01b03928316815291841660208301520160405180910390a161060e816119cf565b609780546001600160a01b0383811673ffffffffffffffffffffffffffffffffffffffff19831681179093556040519116919082907f8be0079c531659141344cd1fd0a4f28419497f9722a3daafe3b4186f6b6457e090600090a35050565b6001600160a01b0381163b6118b75760405162461bcd60e51b815260206004820152602d60248201527f455243313936373a206e657720696d706c656d656e746174696f6e206973206e60448201527f6f74206120636f6e7472616374000000000000000000000000000000000000006064820152608401610543565b807f360894a13ba1a3210667c828492db98dca3e2076cc3735a920a3ca505d382bbc5b805473ffffffffffffffffffffffffffffffffffffffff19166001600160a01b039290921691909117905550565b61191183611a5b565b60008251118061191e5750805b156115285761192d8383611a9b565b50505050565b600054610100900460ff1661199e5760405162461bcd60e51b815260206004820152602b60248201527f496e697469616c697a61626c653a20636f6e7472616374206973206e6f74206960448201526a6e697469616c697a696e6760a81b6064820152608401610543565b610c4a336117db565b60007fb53127684a568b3173ae13b9f8a6016e243e63b6e8ee1178d6a717850b5d610361148c565b6001600160a01b038116611a345760405162461bcd60e51b815260206004820152602660248201527f455243313936373a206e65772061646d696e20697320746865207a65726f206160448201526564647265737360d01b6064820152608401610543565b807fb53127684a568b3173ae13b9f8a6016e243e63b6e8ee1178d6a717850b5d61036118da565b611a648161183a565b6040516001600160a01b038216907fbc7cd75a20ee27fd9adebab32041f755214dbc6bffa90cc0225b39da2e5c2d3b90600090a250565b60606001600160a01b0383163b611b1a5760405162461bcd60e51b815260206004820152602660248201527f416464726573733a2064656c65676174652063616c6c20746f206e6f6e2d636f60448201527f6e747261637400000000000000000000000000000000000000000000000000006064820152608401610543565b600080846001600160a01b031684604051611b359190611e2d565b600060405180830381855af49150503d8060008114611b70576040519150601f19603f3d011682016040523d82523d6000602084013e611b75565b606091505b5091509150611b9d8282604051806060016040528060278152602001611f4360279139611ba6565b95945050505050565b60608315611bb5575081611bdf565b825115611bc55782518084602001fd5b8160405162461bcd60e51b81526004016105439190611e49565b9392505050565b80356001600160a01b0381168114611bfd57600080fd5b919050565b80516dffffffffffffffffffffffffffff81168114611bfd57600080fd5b600060208284031215611c31578081fd5b611bdf82611be6565b600080600060608486031215611c4e578182fd5b611c5784611be6565b9250611c6560208501611be6565b9150611c7360408501611be6565b90509250925092565b600080600080600060a08688031215611c93578081fd5b611c9c86611be6565b9450611caa60208701611be6565b93506040860135925060608601359150611cc660808701611be6565b90509295509295909350565b60008060408385031215611ce4578182fd5b611ced83611be6565b9150602083013567ffffffffffffffff80821115611d09578283fd5b818501915085601f830112611d1c578283fd5b813581811115611d2e57611d2e611f2c565b604051601f8201601f19908116603f01168101908382118183101715611d5657611d56611f2c565b81604052828152886020848701011115611d6e578586fd5b82602086016020830137856020848301015280955050505050509250929050565b600060208284031215611da0578081fd5b81518015158114611bdf578182fd5b600060208284031215611dc0578081fd5b5051919050565b600080600060608486031215611ddb578283fd5b611de484611c02565b9250611df260208501611c02565b9150604084015163ffffffff81168114611e0a578182fd5b809150509250925092565b600060208284031215611e26578081fd5b5035919050565b60008251611e3f818460208701611eea565b9190910192915050565b6020815260008251806020840152611e68816040850160208701611eea565b601f01601f19169190910160400192915050565b60008219821115611e8f57611e8f611f16565b500190565b600082611eaf57634e487b7160e01b81526012600452602481fd5b500490565b6000816000190483118215151615611ece57611ece611f16565b500290565b600082821015611ee557611ee5611f16565b500390565b60005b83811015611f05578181015183820152602001611eed565b8381111561192d5750506000910152565b634e487b7160e01b600052601160045260246000fd5b634e487b7160e01b600052604160045260246000fdfe416464726573733a206c6f772d6c6576656c2064656c65676174652063616c6c206661696c6564a2646970667358221220324c2c693cb7d1958714a3dd518c44b3fde2a621e9d4e47de4fe369dd0c2caba64736f6c63430008040033",
  "devdoc": {
    "kind": "dev",
    "methods": {
      "calculateEquivalenceInBold(uint256)": {
        "details": "calculate Bold equivalence of LP token using LiquidiyPool information",
        "params": {
          "lpAmount": "LP amount to transform in bold"
        },
        "returns": {
          "_0": "equivalent bold amount Transforms LP to bold taken into consideration LP supply EXAMPLE:   LP amount = 5000 LP tokens (you have staked)   Max supply= 1000,0000 LP Tokens (you control 0.5% of all LP tokens [5000])   Bold supply in LP Pool: 100,000 Bold tokens (calculations will use 0,5% of these tokens 500) So lpAmount (5000) -----> boldAmount(500)"
        }
      },
      "changeRate(uint256)": {
        "details": "Change interest rate ",
        "params": {
          "_rate": "new interestrate (2000 =>20%)"
        }
      },
      "initialize(address,address,uint256,uint256,address)": {
        "details": "initialize function",
        "params": {
          "_bold": "Token to pay earnings",
          "_minAmount": "Minimun amount allowed to stake",
          "_rate": "intetest (20% =>2000)",
          "_token": "Token used to stake"
        }
      },
      "owner()": {
        "details": "Returns the address of the current owner."
      },
      "proxiableUUID()": {
        "details": "Implementation of the ERC1822 {proxiableUUID} function. This returns the storage slot used by the implementation. It is used to validate that the this implementation remains valid after an upgrade. IMPORTANT: A proxy pointing at a proxiable contract should not be considered proxiable itself, because this risks bricking a proxy that upgrades to it, by delegating to itself until out of gas. Thus it is critical that this function revert if invoked through a proxy. This is guaranteed by the `notDelegated` modifier."
      },
      "renounceOwnership()": {
        "details": "Leaves the contract without owner. It will not be possible to call `onlyOwner` functions anymore. Can only be called by the current owner. NOTE: Renouncing ownership will leave the contract without an owner, thereby removing any functionality that is only available to the owner."
      },
      "transferOwnership(address)": {
        "details": "Transfers ownership of the contract to a new account (`newOwner`). Can only be called by the current owner."
      },
      "upgradeTo(address)": {
        "details": "Upgrade the implementation of the proxy to `newImplementation`. Calls {_authorizeUpgrade}. Emits an {Upgraded} event."
      },
      "upgradeToAndCall(address,bytes)": {
        "details": "Upgrade the implementation of the proxy to `newImplementation`, and subsequently execute the function call encoded in `data`. Calls {_authorizeUpgrade}. Emits an {Upgraded} event."
      }
    },
    "version": 1
  },
  "userdoc": {
    "kind": "user",
    "methods": {},
    "version": 1
  },
  "storageLayout": {
    "storage": [
      {
        "astId": 519,
        "contract": "contracts/OFLPStaking.sol:OFLPStaking",
        "label": "_initialized",
        "offset": 0,
        "slot": "0",
        "type": "t_bool"
      },
      {
        "astId": 522,
        "contract": "contracts/OFLPStaking.sol:OFLPStaking",
        "label": "_initializing",
        "offset": 1,
        "slot": "0",
        "type": "t_bool"
      },
      {
        "astId": 501,
        "contract": "contracts/OFLPStaking.sol:OFLPStaking",
        "label": "__gap",
        "offset": 0,
        "slot": "1",
        "type": "t_array(t_uint256)50_storage"
      },
      {
        "astId": 721,
        "contract": "contracts/OFLPStaking.sol:OFLPStaking",
        "label": "__gap",
        "offset": 0,
        "slot": "51",
        "type": "t_array(t_uint256)50_storage"
      },
      {
        "astId": 2116,
        "contract": "contracts/OFLPStaking.sol:OFLPStaking",
        "label": "__gap",
        "offset": 0,
        "slot": "101",
        "type": "t_array(t_uint256)50_storage"
      },
      {
        "astId": 10,
        "contract": "contracts/OFLPStaking.sol:OFLPStaking",
        "label": "_owner",
        "offset": 0,
        "slot": "151",
        "type": "t_address"
      },
      {
        "astId": 122,
        "contract": "contracts/OFLPStaking.sol:OFLPStaking",
        "label": "__gap",
        "offset": 0,
        "slot": "152",
        "type": "t_array(t_uint256)49_storage"
      },
      {
        "astId": 9977,
        "contract": "contracts/OFLPStaking.sol:OFLPStaking",
        "label": "pair",
        "offset": 0,
        "slot": "201",
        "type": "t_address"
      },
      {
        "astId": 9979,
        "contract": "contracts/OFLPStaking.sol:OFLPStaking",
        "label": "bold",
        "offset": 0,
        "slot": "202",
        "type": "t_address"
      },
      {
        "astId": 9981,
        "contract": "contracts/OFLPStaking.sol:OFLPStaking",
        "label": "token",
        "offset": 0,
        "slot": "203",
        "type": "t_address"
      },
      {
        "astId": 9983,
        "contract": "contracts/OFLPStaking.sol:OFLPStaking",
        "label": "rate",
        "offset": 0,
        "slot": "204",
        "type": "t_uint256"
      },
      {
        "astId": 9985,
        "contract": "contracts/OFLPStaking.sol:OFLPStaking",
        "label": "minStakeAmount",
        "offset": 0,
        "slot": "205",
        "type": "t_uint256"
      },
      {
        "astId": 9994,
        "contract": "contracts/OFLPStaking.sol:OFLPStaking",
        "label": "NEWFIELD",
        "offset": 0,
        "slot": "206",
        "type": "t_uint256"
      },
      {
        "astId": 9537,
        "contract": "contracts/OFLPStaking.sol:OFLPStaking",
        "label": "users",
        "offset": 0,
        "slot": "207",
        "type": "t_mapping(t_address,t_struct(UserInfo)9532_storage)"
      }
    ],
    "types": {
      "t_address": {
        "encoding": "inplace",
        "label": "address",
        "numberOfBytes": "20"
      },
      "t_array(t_uint256)49_storage": {
        "base": "t_uint256",
        "encoding": "inplace",
        "label": "uint256[49]",
        "numberOfBytes": "1568"
      },
      "t_array(t_uint256)50_storage": {
        "base": "t_uint256",
        "encoding": "inplace",
        "label": "uint256[50]",
        "numberOfBytes": "1600"
      },
      "t_bool": {
        "encoding": "inplace",
        "label": "bool",
        "numberOfBytes": "1"
      },
      "t_mapping(t_address,t_struct(UserInfo)9532_storage)": {
        "encoding": "mapping",
        "key": "t_address",
        "label": "mapping(address => struct OFLPStaking.UserInfo)",
        "numberOfBytes": "32",
        "value": "t_struct(UserInfo)9532_storage"
      },
      "t_struct(UserInfo)9532_storage": {
        "encoding": "inplace",
        "label": "struct OFLPStaking.UserInfo",
        "members": [
          {
            "astId": 9527,
            "contract": "contracts/OFLPStaking.sol:OFLPStaking",
            "label": "balance",
            "offset": 0,
            "slot": "0",
            "type": "t_uint256"
          },
          {
            "astId": 9529,
            "contract": "contracts/OFLPStaking.sol:OFLPStaking",
            "label": "timestamp",
            "offset": 0,
            "slot": "1",
            "type": "t_uint256"
          },
          {
            "astId": 9531,
            "contract": "contracts/OFLPStaking.sol:OFLPStaking",
            "label": "interestAccumulated",
            "offset": 0,
            "slot": "2",
            "type": "t_uint256"
          }
        ],
        "numberOfBytes": "96"
      },
      "t_uint256": {
        "encoding": "inplace",
        "label": "uint256",
        "numberOfBytes": "32"
      }
    }
  }
}