{
  "address": "0xd8f69e85dBA76d946EF2e6e41dec103536f4a0d7",
  "abi": [
    {
      "anonymous": false,
      "inputs": [
        {
          "indexed": false,
          "internalType": "address",
          "name": "previousAdmin",
          "type": "address"
        },
        {
          "indexed": false,
          "internalType": "address",
          "name": "newAdmin",
          "type": "address"
        }
      ],
      "name": "AdminChanged",
      "type": "event"
    },
    {
      "anonymous": false,
      "inputs": [
        {
          "indexed": true,
          "internalType": "address",
          "name": "beacon",
          "type": "address"
        }
      ],
      "name": "BeaconUpgraded",
      "type": "event"
    },
    {
      "anonymous": false,
      "inputs": [
        {
          "indexed": true,
          "internalType": "address",
          "name": "previousOwner",
          "type": "address"
        },
        {
          "indexed": true,
          "internalType": "address",
          "name": "newOwner",
          "type": "address"
        }
      ],
      "name": "OwnershipTransferred",
      "type": "event"
    },
    {
      "anonymous": false,
      "inputs": [
        {
          "indexed": true,
          "internalType": "address",
          "name": "implementation",
          "type": "address"
        }
      ],
      "name": "Upgraded",
      "type": "event"
    },
    {
      "anonymous": false,
      "inputs": [
        {
          "indexed": false,
          "internalType": "uint256",
          "name": "previousBalance",
          "type": "uint256"
        },
        {
          "indexed": false,
          "internalType": "uint256",
          "name": "newBalance",
          "type": "uint256"
        },
        {
          "indexed": false,
          "internalType": "uint256",
          "name": "interestAccumulated",
          "type": "uint256"
        },
        {
          "indexed": false,
          "internalType": "uint256",
          "name": "timestamp",
          "type": "uint256"
        }
      ],
      "name": "enterAmount",
      "type": "event"
    },
    {
      "anonymous": false,
      "inputs": [
        {
          "indexed": false,
          "internalType": "uint256",
          "name": "proviousRate",
          "type": "uint256"
        },
        {
          "indexed": false,
          "internalType": "uint256",
          "name": "newRate",
          "type": "uint256"
        },
        {
          "indexed": false,
          "internalType": "uint256",
          "name": "timestamp",
          "type": "uint256"
        }
      ],
      "name": "newMinStakeAmount",
      "type": "event"
    },
    {
      "anonymous": false,
      "inputs": [
        {
          "indexed": false,
          "internalType": "uint256",
          "name": "proviousRate",
          "type": "uint256"
        },
        {
          "indexed": false,
          "internalType": "uint256",
          "name": "newRate",
          "type": "uint256"
        },
        {
          "indexed": false,
          "internalType": "uint256",
          "name": "timestamp",
          "type": "uint256"
        }
      ],
      "name": "newRate",
      "type": "event"
    },
    {
      "anonymous": false,
      "inputs": [
        {
          "indexed": false,
          "internalType": "uint256",
          "name": "previousBalance",
          "type": "uint256"
        },
        {
          "indexed": false,
          "internalType": "uint256",
          "name": "newBalance",
          "type": "uint256"
        },
        {
          "indexed": false,
          "internalType": "uint256",
          "name": "interestAccumulated",
          "type": "uint256"
        },
        {
          "indexed": false,
          "internalType": "uint256",
          "name": "timestamp",
          "type": "uint256"
        }
      ],
      "name": "retireAmount",
      "type": "event"
    },
    {
      "inputs": [],
      "name": "SECSINDAY",
      "outputs": [
        {
          "internalType": "uint256",
          "name": "",
          "type": "uint256"
        }
      ],
      "stateMutability": "view",
      "type": "function"
    },
    {
      "inputs": [],
      "name": "bold",
      "outputs": [
        {
          "internalType": "contract BoldToken",
          "name": "",
          "type": "address"
        }
      ],
      "stateMutability": "view",
      "type": "function"
    },
    {
      "inputs": [],
      "name": "cashoutAllRewards",
      "outputs": [
        {
          "internalType": "uint256",
          "name": "",
          "type": "uint256"
        }
      ],
      "stateMutability": "nonpayable",
      "type": "function"
    },
    {
      "inputs": [
        {
          "internalType": "uint256",
          "name": "_minStakeAmount",
          "type": "uint256"
        }
      ],
      "name": "changeMinStakeAmount",
      "outputs": [],
      "stateMutability": "nonpayable",
      "type": "function"
    },
    {
      "inputs": [
        {
          "internalType": "address",
          "name": "_owner",
          "type": "address"
        }
      ],
      "name": "changeOwner",
      "outputs": [],
      "stateMutability": "nonpayable",
      "type": "function"
    },
    {
      "inputs": [
        {
          "internalType": "uint256",
          "name": "_rate",
          "type": "uint256"
        }
      ],
      "name": "changeRate",
      "outputs": [],
      "stateMutability": "nonpayable",
      "type": "function"
    },
    {
      "inputs": [
        {
          "internalType": "uint256",
          "name": "_amount",
          "type": "uint256"
        }
      ],
      "name": "enter",
      "outputs": [],
      "stateMutability": "nonpayable",
      "type": "function"
    },
    {
      "inputs": [
        {
          "internalType": "address",
          "name": "sender",
          "type": "address"
        }
      ],
      "name": "getCurrentCashout",
      "outputs": [
        {
          "internalType": "uint256",
          "name": "_deposit",
          "type": "uint256"
        },
        {
          "internalType": "uint256",
          "name": "_CurrentInterest",
          "type": "uint256"
        }
      ],
      "stateMutability": "view",
      "type": "function"
    },
    {
      "inputs": [
        {
          "internalType": "address",
          "name": "_token",
          "type": "address"
        },
        {
          "internalType": "address",
          "name": "_bold",
          "type": "address"
        },
        {
          "internalType": "uint256",
          "name": "_rate",
          "type": "uint256"
        },
        {
          "internalType": "uint256",
          "name": "_minAmount",
          "type": "uint256"
        }
      ],
      "name": "initialize",
      "outputs": [],
      "stateMutability": "nonpayable",
      "type": "function"
    },
    {
      "inputs": [
        {
          "internalType": "uint256",
          "name": "share",
          "type": "uint256"
        }
      ],
      "name": "leave",
      "outputs": [
        {
          "internalType": "uint256",
          "name": "",
          "type": "uint256"
        }
      ],
      "stateMutability": "nonpayable",
      "type": "function"
    },
    {
      "inputs": [],
      "name": "minStakeAmount",
      "outputs": [
        {
          "internalType": "uint256",
          "name": "",
          "type": "uint256"
        }
      ],
      "stateMutability": "view",
      "type": "function"
    },
    {
      "inputs": [],
      "name": "owner",
      "outputs": [
        {
          "internalType": "address",
          "name": "",
          "type": "address"
        }
      ],
      "stateMutability": "view",
      "type": "function"
    },
    {
      "inputs": [],
      "name": "proxiableUUID",
      "outputs": [
        {
          "internalType": "bytes32",
          "name": "",
          "type": "bytes32"
        }
      ],
      "stateMutability": "view",
      "type": "function"
    },
    {
      "inputs": [],
      "name": "rate",
      "outputs": [
        {
          "internalType": "uint256",
          "name": "",
          "type": "uint256"
        }
      ],
      "stateMutability": "view",
      "type": "function"
    },
    {
      "inputs": [],
      "name": "renounceOwnership",
      "outputs": [],
      "stateMutability": "nonpayable",
      "type": "function"
    },
    {
      "inputs": [],
      "name": "token",
      "outputs": [
        {
          "internalType": "contract IERC20",
          "name": "",
          "type": "address"
        }
      ],
      "stateMutability": "view",
      "type": "function"
    },
    {
      "inputs": [
        {
          "internalType": "address",
          "name": "newOwner",
          "type": "address"
        }
      ],
      "name": "transferOwnership",
      "outputs": [],
      "stateMutability": "nonpayable",
      "type": "function"
    },
    {
      "inputs": [
        {
          "internalType": "address",
          "name": "_token",
          "type": "address"
        },
        {
          "internalType": "address",
          "name": "_bold",
          "type": "address"
        }
      ],
      "name": "upgrade",
      "outputs": [],
      "stateMutability": "nonpayable",
      "type": "function"
    },
    {
      "inputs": [
        {
          "internalType": "address",
          "name": "newImplementation",
          "type": "address"
        }
      ],
      "name": "upgradeTo",
      "outputs": [],
      "stateMutability": "nonpayable",
      "type": "function"
    },
    {
      "inputs": [
        {
          "internalType": "address",
          "name": "newImplementation",
          "type": "address"
        },
        {
          "internalType": "bytes",
          "name": "data",
          "type": "bytes"
        }
      ],
      "name": "upgradeToAndCall",
      "outputs": [],
      "stateMutability": "payable",
      "type": "function"
    },
    {
      "inputs": [
        {
          "internalType": "address",
          "name": "",
          "type": "address"
        }
      ],
      "name": "users",
      "outputs": [
        {
          "internalType": "uint256",
          "name": "balance",
          "type": "uint256"
        },
        {
          "internalType": "uint256",
          "name": "timestamp",
          "type": "uint256"
        },
        {
          "internalType": "uint256",
          "name": "interestAccumulated",
          "type": "uint256"
        }
      ],
      "stateMutability": "view",
      "type": "function"
    }
  ],
  "transactionHash": "0xdfbb639e50b58cd79be7c18d30b04d7bde4b0190f9665f0120815dfd0413cfdc",
  "args": [],
  "numDeployments": 1,
  "solcInputHash": "ab20f7579c850e0fbcbcfcb1ce50b5a1",
  "bytecode": "0x60a06040523060601b60805234801561001757600080fd5b5060805160601c611d186100526000396000818161047801528181610502015281816105d00152818161065501526107160152611d186000f3fe60806040526004361061016a5760003560e01c80638da5cb5b116100cb578063dd924acd1161007f578063f2fde38b11610059578063f2fde38b146103e6578063f5a8f9df14610406578063fc0c546a1461041b57600080fd5b8063dd924acd14610390578063eb990c59146103b0578063f1887684146103d057600080fd5b8063a59f3e0c116100b0578063a59f3e0c146102f9578063a6f9dae114610319578063a87430ba1461033957600080fd5b80638da5cb5b146102bb57806399a88ec4146102d957600080fd5b806358b0825411610122578063715018a611610107578063715018a61461024e578063727d0f351461026357806374e7493b1461029b57600080fd5b806358b082541461021757806367dfd4c91461022e57600080fd5b80633659cfe6116101535780633659cfe6146101cd5780634f1ef286146101ef57806352d1902d1461020257600080fd5b80630ab4179e1461016f5780632c4e722e146101a9575b600080fd5b34801561017b57600080fd5b5061018f61018a366004611a0c565b61043b565b604080519283526020830191909152015b60405180910390f35b3480156101b557600080fd5b506101bf60cb5481565b6040519081526020016101a0565b3480156101d957600080fd5b506101ed6101e8366004611a0c565b61046d565b005b6101ed6101fd366004611a99565b6105c5565b34801561020e57600080fd5b506101bf610709565b34801561022357600080fd5b506101bf6201518081565b34801561023a57600080fd5b506101bf610249366004611b8e565b6107ce565b34801561025a57600080fd5b506101ed610a52565b34801561026f57600080fd5b5060c954610283906001600160a01b031681565b6040516001600160a01b0390911681526020016101a0565b3480156102a757600080fd5b506101ed6102b6366004611b8e565b610ab8565b3480156102c757600080fd5b506097546001600160a01b0316610283565b3480156102e557600080fd5b506101ed6102f4366004611a26565b610b62565b34801561030557600080fd5b506101ed610314366004611b8e565b610bfa565b34801561032557600080fd5b506101ed610334366004611a0c565b610dc4565b34801561034557600080fd5b50610375610354366004611a0c565b60cd6020526000908152604090208054600182015460029092015490919083565b604080519384526020840192909252908201526060016101a0565b34801561039c57600080fd5b506101ed6103ab366004611b8e565b610e27565b3480156103bc57600080fd5b506101ed6103cb366004611a58565b610ec9565b3480156103dc57600080fd5b506101bf60cc5481565b3480156103f257600080fd5b506101ed610401366004611a0c565b610ff5565b34801561041257600080fd5b506101bf6110bd565b34801561042757600080fd5b5060ca54610283906001600160a01b031681565b6001600160a01b038116600090815260cd602052604081205481908161046185836111f0565b91959194509092505050565b306001600160a01b037f00000000000000000000000000000000000000000000000000000000000000001614156105005760405162461bcd60e51b815260206004820152602c60248201527f46756e6374696f6e206d7573742062652063616c6c6564207468726f7567682060448201526b19195b1959d85d1958d85b1b60a21b60648201526084015b60405180910390fd5b7f00000000000000000000000000000000000000000000000000000000000000006001600160a01b0316610532611272565b6001600160a01b03161461059d5760405162461bcd60e51b815260206004820152602c60248201527f46756e6374696f6e206d7573742062652063616c6c6564207468726f7567682060448201526b6163746976652070726f787960a01b60648201526084016104f7565b6105a6816112a5565b604080516000808252602082019092526105c2918391906112ff565b50565b306001600160a01b037f00000000000000000000000000000000000000000000000000000000000000001614156106535760405162461bcd60e51b815260206004820152602c60248201527f46756e6374696f6e206d7573742062652063616c6c6564207468726f7567682060448201526b19195b1959d85d1958d85b1b60a21b60648201526084016104f7565b7f00000000000000000000000000000000000000000000000000000000000000006001600160a01b0316610685611272565b6001600160a01b0316146106f05760405162461bcd60e51b815260206004820152602c60248201527f46756e6374696f6e206d7573742062652063616c6c6564207468726f7567682060448201526b6163746976652070726f787960a01b60648201526084016104f7565b6106f9826112a5565b610705828260016112ff565b5050565b6000306001600160a01b037f000000000000000000000000000000000000000000000000000000000000000016146107a95760405162461bcd60e51b815260206004820152603860248201527f555550535570677261646561626c653a206d757374206e6f742062652063616c60448201527f6c6564207468726f7567682064656c656761746563616c6c000000000000000060648201526084016104f7565b507f360894a13ba1a3210667c828492db98dca3e2076cc3735a920a3ca505d382bbc90565b33600090815260cd6020526040812080548311156108545760405162461bcd60e51b815260206004820152602a60248201527f53686172652063616e6e6f74206265206d6f7265207468616e2063757272656e60448201527f74206465706f736974730000000000000000000000000000000000000000000060648201526084016104f7565b60cc548310156108cc5760405162461bcd60e51b815260206004820152603a60248201527f576974686472617720616d6f756e742073686f756c64206265206d6f7265207460448201527f68616e20746865206d696e696d756d2072657120616d6f756e7400000000000060648201526084016104f7565b60006108dc3383600001546111f0565b6000600284015582549091506108f28582611c4c565b835542600184015560ca546040517fa9059cbb000000000000000000000000000000000000000000000000000000008152336004820152602481018790526001600160a01b039091169063a9059cbb90604401602060405180830381600087803b15801561095f57600080fd5b505af1158015610973573d6000803e3d6000fd5b505050506040513d601f19601f820116820180604052508101906109979190611b56565b5060c9546040516340c10f1960e01b8152336004820152602481018490526001600160a01b03909116906340c10f1990604401600060405180830381600087803b1580156109e457600080fd5b505af11580156109f8573d6000803e3d6000fd5b505084546001860154604080518681526020810193909352820186905260608201527facd2663d7282bc59d0af0910b598461a6c6d814474a74ea3016964bf9e90fee89250608001905060405180910390a1509392505050565b6097546001600160a01b03163314610aac5760405162461bcd60e51b815260206004820181905260248201527f4f776e61626c653a2063616c6c6572206973206e6f7420746865206f776e657260448201526064016104f7565b610ab660006114b3565b565b6097546001600160a01b03163314610b125760405162461bcd60e51b815260206004820181905260248201527f4f776e61626c653a2063616c6c6572206973206e6f7420746865206f776e657260448201526064016104f7565b60cb805490829055604080518281526020810184905242918101919091527f81ba4195dc5019444883188177b0c70ab0b3d487423c78334e14bfdab3b8c91b906060015b60405180910390a15050565b6097546001600160a01b03163314610bbc5760405162461bcd60e51b815260206004820181905260248201527f4f776e61626c653a2063616c6c6572206973206e6f7420746865206f776e657260448201526064016104f7565b60c980546001600160a01b0392831673ffffffffffffffffffffffffffffffffffffffff199182161790915560ca8054939092169216919091179055565b600060cc54821015610c745760405162461bcd60e51b815260206004820152603860248201527f5374616b6520616d6f756e742073686f756c642062652067726561746572207460448201527f68616e206d696e696d756d207374616b6520616d6f756e74000000000000000060648201526084016104f7565b33600090815260cd60205260409020805415610cb357805491506000610c9a33846111f0565b9050808260020154610cac9190611bf5565b6002830155505b8054610cc0908490611bf5565b815542600182015560ca546040517f23b872dd000000000000000000000000000000000000000000000000000000008152336004820152306024820152604481018590526001600160a01b03909116906323b872dd90606401602060405180830381600087803b158015610d3357600080fd5b505af1158015610d47573d6000803e3d6000fd5b505050506040513d601f19601f82011682018060405250810190610d6b9190611b56565b5080546002820154600183015460408051868152602081019490945283019190915260608201527fc362164f26ac3ef7417d18d603aabb747e63bec6f911a8eb0a5dadf302773b4d9060800160405180910390a1505050565b6097546001600160a01b03163314610e1e5760405162461bcd60e51b815260206004820181905260248201527f4f776e61626c653a2063616c6c6572206973206e6f7420746865206f776e657260448201526064016104f7565b6105c281610ff5565b6097546001600160a01b03163314610e815760405162461bcd60e51b815260206004820181905260248201527f4f776e61626c653a2063616c6c6572206973206e6f7420746865206f776e657260448201526064016104f7565b60cc805490829055604080518281526020810184905242918101919091527fce08ad836776d738b5c6b8b40743e4e2e7d7888d8851407b86a3ec407efba17590606001610b56565b600054610100900460ff16610ee45760005460ff1615610ee8565b303b155b610f5a5760405162461bcd60e51b815260206004820152602e60248201527f496e697469616c697a61626c653a20636f6e747261637420697320616c72656160448201527f647920696e697469616c697a656400000000000000000000000000000000000060648201526084016104f7565b600054610100900460ff16158015610f7c576000805461ffff19166101011790555b610f84611512565b610f8c611585565b610f95336115f0565b60c980546001600160a01b0380871673ffffffffffffffffffffffffffffffffffffffff199283161790925560ca80549288169290911691909117905560cb83905560cc8290558015610fee576000805461ff00191690555b5050505050565b6097546001600160a01b0316331461104f5760405162461bcd60e51b815260206004820181905260248201527f4f776e61626c653a2063616c6c6572206973206e6f7420746865206f776e657260448201526064016104f7565b6001600160a01b0381166110b45760405162461bcd60e51b815260206004820152602660248201527f4f776e61626c653a206e6577206f776e657220697320746865207a65726f206160448201526564647265737360d01b60648201526084016104f7565b6105c2816114b3565b33600090815260cd60205260408120805461111a5760405162461bcd60e51b815260206004820152601460248201527f5573657220686173206e6f206465706f7369747300000000000000000000000060448201526064016104f7565b600061112a3383600001546111f0565b6000600284015542600184015560c9546040516340c10f1960e01b8152336004820152602481018390529192506001600160a01b0316906340c10f1990604401600060405180830381600087803b15801561118457600080fd5b505af1158015611198573d6000803e3d6000fd5b505083546001850154604080518381526020810193909352820185905260608201527facd2663d7282bc59d0af0910b598461a6c6d814474a74ea3016964bf9e90fee89250608001905060405180910390a192915050565b6001600160a01b038216600090815260cd6020526040812060018101548290620151809061121e9042611c4c565b6112289190611c0d565b905060006237b1d060cb54838761123f9190611c2d565b6112499190611c2d565b6112539190611c0d565b905060008184600201546112679190611bf5565b979650505050505050565b60007f360894a13ba1a3210667c828492db98dca3e2076cc3735a920a3ca505d382bbc5b546001600160a01b0316919050565b6097546001600160a01b031633146105c25760405162461bcd60e51b815260206004820181905260248201527f4f776e61626c653a2063616c6c6572206973206e6f7420746865206f776e657260448201526064016104f7565b7f4910fdfa16fed3260ed0e7147f7cc6da11a60208b5b9406d12a635614ffd91435460ff16156113375761133283611644565b505050565b826001600160a01b03166352d1902d6040518163ffffffff1660e01b815260040160206040518083038186803b15801561137057600080fd5b505afa9250505080156113a0575060408051601f3d908101601f1916820190925261139d91810190611b76565b60015b6114125760405162461bcd60e51b815260206004820152602e60248201527f45524331393637557067726164653a206e657720696d706c656d656e7461746960448201527f6f6e206973206e6f74205555505300000000000000000000000000000000000060648201526084016104f7565b7f360894a13ba1a3210667c828492db98dca3e2076cc3735a920a3ca505d382bbc81146114a75760405162461bcd60e51b815260206004820152602960248201527f45524331393637557067726164653a20756e737570706f727465642070726f7860448201527f6961626c6555554944000000000000000000000000000000000000000000000060648201526084016104f7565b50611332838383611712565b609780546001600160a01b0383811673ffffffffffffffffffffffffffffffffffffffff19831681179093556040519116919082907f8be0079c531659141344cd1fd0a4f28419497f9722a3daafe3b4186f6b6457e090600090a35050565b600054610100900460ff1661157d5760405162461bcd60e51b815260206004820152602b60248201527f496e697469616c697a61626c653a20636f6e7472616374206973206e6f74206960448201526a6e697469616c697a696e6760a81b60648201526084016104f7565b610ab661173d565b600054610100900460ff16610ab65760405162461bcd60e51b815260206004820152602b60248201527f496e697469616c697a61626c653a20636f6e7472616374206973206e6f74206960448201526a6e697469616c697a696e6760a81b60648201526084016104f7565b7f7e644d79422f17c01e4894b5f4f588d331ebfa28653d42ae832dc59e38c9798f6116196117b1565b604080516001600160a01b03928316815291841660208301520160405180910390a16105c2816117d9565b6001600160a01b0381163b6116c15760405162461bcd60e51b815260206004820152602d60248201527f455243313936373a206e657720696d706c656d656e746174696f6e206973206e60448201527f6f74206120636f6e74726163740000000000000000000000000000000000000060648201526084016104f7565b807f360894a13ba1a3210667c828492db98dca3e2076cc3735a920a3ca505d382bbc5b805473ffffffffffffffffffffffffffffffffffffffff19166001600160a01b039290921691909117905550565b61171b83611865565b6000825111806117285750805b156113325761173783836118a5565b50505050565b600054610100900460ff166117a85760405162461bcd60e51b815260206004820152602b60248201527f496e697469616c697a61626c653a20636f6e7472616374206973206e6f74206960448201526a6e697469616c697a696e6760a81b60648201526084016104f7565b610ab6336114b3565b60007fb53127684a568b3173ae13b9f8a6016e243e63b6e8ee1178d6a717850b5d6103611296565b6001600160a01b03811661183e5760405162461bcd60e51b815260206004820152602660248201527f455243313936373a206e65772061646d696e20697320746865207a65726f206160448201526564647265737360d01b60648201526084016104f7565b807fb53127684a568b3173ae13b9f8a6016e243e63b6e8ee1178d6a717850b5d61036116e4565b61186e81611644565b6040516001600160a01b038216907fbc7cd75a20ee27fd9adebab32041f755214dbc6bffa90cc0225b39da2e5c2d3b90600090a250565b60606001600160a01b0383163b6119245760405162461bcd60e51b815260206004820152602660248201527f416464726573733a2064656c65676174652063616c6c20746f206e6f6e2d636f60448201527f6e7472616374000000000000000000000000000000000000000000000000000060648201526084016104f7565b600080846001600160a01b03168460405161193f9190611ba6565b600060405180830381855af49150503d806000811461197a576040519150601f19603f3d011682016040523d82523d6000602084013e61197f565b606091505b50915091506119a78282604051806060016040528060278152602001611cbc602791396119b0565b95945050505050565b606083156119bf5750816119e9565b8251156119cf5782518084602001fd5b8160405162461bcd60e51b81526004016104f79190611bc2565b9392505050565b80356001600160a01b0381168114611a0757600080fd5b919050565b600060208284031215611a1d578081fd5b6119e9826119f0565b60008060408385031215611a38578081fd5b611a41836119f0565b9150611a4f602084016119f0565b90509250929050565b60008060008060808587031215611a6d578182fd5b611a76856119f0565b9350611a84602086016119f0565b93969395505050506040820135916060013590565b60008060408385031215611aab578182fd5b611ab4836119f0565b9150602083013567ffffffffffffffff80821115611ad0578283fd5b818501915085601f830112611ae3578283fd5b813581811115611af557611af5611ca5565b604051601f8201601f19908116603f01168101908382118183101715611b1d57611b1d611ca5565b81604052828152886020848701011115611b35578586fd5b82602086016020830137856020848301015280955050505050509250929050565b600060208284031215611b67578081fd5b815180151581146119e9578182fd5b600060208284031215611b87578081fd5b5051919050565b600060208284031215611b9f578081fd5b5035919050565b60008251611bb8818460208701611c63565b9190910192915050565b6020815260008251806020840152611be1816040850160208701611c63565b601f01601f19169190910160400192915050565b60008219821115611c0857611c08611c8f565b500190565b600082611c2857634e487b7160e01b81526012600452602481fd5b500490565b6000816000190483118215151615611c4757611c47611c8f565b500290565b600082821015611c5e57611c5e611c8f565b500390565b60005b83811015611c7e578181015183820152602001611c66565b838111156117375750506000910152565b634e487b7160e01b600052601160045260246000fd5b634e487b7160e01b600052604160045260246000fdfe416464726573733a206c6f772d6c6576656c2064656c65676174652063616c6c206661696c6564a2646970667358221220c32b45a2f6b019fdb4f3903ff3f15a2a9d7677663e7603fd9036adb96825600664736f6c63430008040033",
  "devdoc": {
    "kind": "dev",
    "methods": {
      "initialize(address,address,uint256,uint256)": {
        "details": "initialize function",
        "params": {
          "_bold": "Token to pay earnings",
          "_minAmount": "Minimun amount allowed to stake",
          "_rate": "intetest",
          "_token": "Token used to stake"
        }
      },
      "owner()": {
        "details": "Returns the address of the current owner."
      },
      "proxiableUUID()": {
        "details": "Implementation of the ERC1822 {proxiableUUID} function. This returns the storage slot used by the implementation. It is used to validate that the this implementation remains valid after an upgrade. IMPORTANT: A proxy pointing at a proxiable contract should not be considered proxiable itself, because this risks bricking a proxy that upgrades to it, by delegating to itself until out of gas. Thus it is critical that this function revert if invoked through a proxy. This is guaranteed by the `notDelegated` modifier."
      },
      "renounceOwnership()": {
        "details": "Leaves the contract without owner. It will not be possible to call `onlyOwner` functions anymore. Can only be called by the current owner. NOTE: Renouncing ownership will leave the contract without an owner, thereby removing any functionality that is only available to the owner."
      },
      "transferOwnership(address)": {
        "details": "Transfers ownership of the contract to a new account (`newOwner`). Can only be called by the current owner."
      },
      "upgradeTo(address)": {
        "details": "Upgrade the implementation of the proxy to `newImplementation`. Calls {_authorizeUpgrade}. Emits an {Upgraded} event."
      },
      "upgradeToAndCall(address,bytes)": {
        "details": "Upgrade the implementation of the proxy to `newImplementation`, and subsequently execute the function call encoded in `data`. Calls {_authorizeUpgrade}. Emits an {Upgraded} event."
      }
    },
    "version": 1
  },
  "userdoc": {
    "kind": "user",
    "methods": {},
    "version": 1
  },
  "storageLayout": {
    "storage": [
      {
        "astId": 519,
        "contract": "contracts/OFStaking.sol:OFStaking",
        "label": "_initialized",
        "offset": 0,
        "slot": "0",
        "type": "t_bool"
      },
      {
        "astId": 522,
        "contract": "contracts/OFStaking.sol:OFStaking",
        "label": "_initializing",
        "offset": 1,
        "slot": "0",
        "type": "t_bool"
      },
      {
        "astId": 501,
        "contract": "contracts/OFStaking.sol:OFStaking",
        "label": "__gap",
        "offset": 0,
        "slot": "1",
        "type": "t_array(t_uint256)50_storage"
      },
      {
        "astId": 721,
        "contract": "contracts/OFStaking.sol:OFStaking",
        "label": "__gap",
        "offset": 0,
        "slot": "51",
        "type": "t_array(t_uint256)50_storage"
      },
      {
        "astId": 2116,
        "contract": "contracts/OFStaking.sol:OFStaking",
        "label": "__gap",
        "offset": 0,
        "slot": "101",
        "type": "t_array(t_uint256)50_storage"
      },
      {
        "astId": 10,
        "contract": "contracts/OFStaking.sol:OFStaking",
        "label": "_owner",
        "offset": 0,
        "slot": "151",
        "type": "t_address"
      },
      {
        "astId": 122,
        "contract": "contracts/OFStaking.sol:OFStaking",
        "label": "__gap",
        "offset": 0,
        "slot": "152",
        "type": "t_array(t_uint256)49_storage"
      },
      {
        "astId": 15778,
        "contract": "contracts/OFStaking.sol:OFStaking",
        "label": "bold",
        "offset": 0,
        "slot": "201",
        "type": "t_contract(BoldToken)4290"
      },
      {
        "astId": 15781,
        "contract": "contracts/OFStaking.sol:OFStaking",
        "label": "token",
        "offset": 0,
        "slot": "202",
        "type": "t_contract(IERC20)3501"
      },
      {
        "astId": 15783,
        "contract": "contracts/OFStaking.sol:OFStaking",
        "label": "rate",
        "offset": 0,
        "slot": "203",
        "type": "t_uint256"
      },
      {
        "astId": 15785,
        "contract": "contracts/OFStaking.sol:OFStaking",
        "label": "minStakeAmount",
        "offset": 0,
        "slot": "204",
        "type": "t_uint256"
      },
      {
        "astId": 15804,
        "contract": "contracts/OFStaking.sol:OFStaking",
        "label": "users",
        "offset": 0,
        "slot": "205",
        "type": "t_mapping(t_address,t_struct(UserInfo)15799_storage)"
      }
    ],
    "types": {
      "t_address": {
        "encoding": "inplace",
        "label": "address",
        "numberOfBytes": "20"
      },
      "t_array(t_uint256)49_storage": {
        "base": "t_uint256",
        "encoding": "inplace",
        "label": "uint256[49]",
        "numberOfBytes": "1568"
      },
      "t_array(t_uint256)50_storage": {
        "base": "t_uint256",
        "encoding": "inplace",
        "label": "uint256[50]",
        "numberOfBytes": "1600"
      },
      "t_bool": {
        "encoding": "inplace",
        "label": "bool",
        "numberOfBytes": "1"
      },
      "t_contract(BoldToken)4290": {
        "encoding": "inplace",
        "label": "contract BoldToken",
        "numberOfBytes": "20"
      },
      "t_contract(IERC20)3501": {
        "encoding": "inplace",
        "label": "contract IERC20",
        "numberOfBytes": "20"
      },
      "t_mapping(t_address,t_struct(UserInfo)15799_storage)": {
        "encoding": "mapping",
        "key": "t_address",
        "label": "mapping(address => struct OFStakingStorage.UserInfo)",
        "numberOfBytes": "32",
        "value": "t_struct(UserInfo)15799_storage"
      },
      "t_struct(UserInfo)15799_storage": {
        "encoding": "inplace",
        "label": "struct OFStakingStorage.UserInfo",
        "members": [
          {
            "astId": 15794,
            "contract": "contracts/OFStaking.sol:OFStaking",
            "label": "balance",
            "offset": 0,
            "slot": "0",
            "type": "t_uint256"
          },
          {
            "astId": 15796,
            "contract": "contracts/OFStaking.sol:OFStaking",
            "label": "timestamp",
            "offset": 0,
            "slot": "1",
            "type": "t_uint256"
          },
          {
            "astId": 15798,
            "contract": "contracts/OFStaking.sol:OFStaking",
            "label": "interestAccumulated",
            "offset": 0,
            "slot": "2",
            "type": "t_uint256"
          }
        ],
        "numberOfBytes": "96"
      },
      "t_uint256": {
        "encoding": "inplace",
        "label": "uint256",
        "numberOfBytes": "32"
      }
    }
  }
}