{
  "address": "0x61Ad2013F698983f2dA83Ec230f14109EaD58147",
  "abi": [
    {
      "anonymous": false,
      "inputs": [
        {
          "indexed": false,
          "internalType": "address",
          "name": "previousAdmin",
          "type": "address"
        },
        {
          "indexed": false,
          "internalType": "address",
          "name": "newAdmin",
          "type": "address"
        }
      ],
      "name": "AdminChanged",
      "type": "event"
    },
    {
      "anonymous": false,
      "inputs": [
        {
          "indexed": true,
          "internalType": "address",
          "name": "beacon",
          "type": "address"
        }
      ],
      "name": "BeaconUpgraded",
      "type": "event"
    },
    {
      "anonymous": false,
      "inputs": [
        {
          "indexed": true,
          "internalType": "address",
          "name": "previousOwner",
          "type": "address"
        },
        {
          "indexed": true,
          "internalType": "address",
          "name": "newOwner",
          "type": "address"
        }
      ],
      "name": "OwnershipTransferred",
      "type": "event"
    },
    {
      "anonymous": false,
      "inputs": [
        {
          "indexed": true,
          "internalType": "address",
          "name": "implementation",
          "type": "address"
        }
      ],
      "name": "Upgraded",
      "type": "event"
    },
    {
      "anonymous": false,
      "inputs": [
        {
          "indexed": true,
          "internalType": "uint256",
          "name": "_type",
          "type": "uint256"
        },
        {
          "indexed": true,
          "internalType": "address",
          "name": "_caller",
          "type": "address"
        },
        {
          "indexed": false,
          "internalType": "address",
          "name": "_sender",
          "type": "address"
        },
        {
          "indexed": true,
          "internalType": "uint256",
          "name": "_epoch",
          "type": "uint256"
        },
        {
          "indexed": false,
          "internalType": "uint256",
          "name": "_amount",
          "type": "uint256"
        },
        {
          "indexed": false,
          "internalType": "uint256",
          "name": "timestamp",
          "type": "uint256"
        }
      ],
      "name": "betEvent",
      "type": "event"
    },
    {
      "anonymous": false,
      "inputs": [
        {
          "indexed": true,
          "internalType": "address",
          "name": "_address",
          "type": "address"
        },
        {
          "indexed": false,
          "internalType": "bool",
          "name": "banned",
          "type": "bool"
        }
      ],
      "name": "blackListEvent",
      "type": "event"
    },
    {
      "anonymous": false,
      "inputs": [
        {
          "indexed": false,
          "internalType": "address",
          "name": "_contract",
          "type": "address"
        },
        {
          "indexed": false,
          "internalType": "bool",
          "name": "allowed",
          "type": "bool"
        }
      ],
      "name": "contractAllowed",
      "type": "event"
    },
    {
      "anonymous": false,
      "inputs": [
        {
          "indexed": false,
          "internalType": "address",
          "name": "_contract",
          "type": "address"
        },
        {
          "indexed": false,
          "internalType": "bool",
          "name": "allowed",
          "type": "bool"
        }
      ],
      "name": "contractDisallowed",
      "type": "event"
    },
    {
      "inputs": [
        {
          "internalType": "address",
          "name": "_banned",
          "type": "address"
        }
      ],
      "name": "addToBlackList",
      "outputs": [],
      "stateMutability": "nonpayable",
      "type": "function"
    },
    {
      "inputs": [
        {
          "internalType": "address",
          "name": "_contract",
          "type": "address"
        }
      ],
      "name": "allowContract",
      "outputs": [],
      "stateMutability": "nonpayable",
      "type": "function"
    },
    {
      "inputs": [],
      "name": "bold",
      "outputs": [
        {
          "internalType": "address",
          "name": "",
          "type": "address"
        }
      ],
      "stateMutability": "view",
      "type": "function"
    },
    {
      "inputs": [
        {
          "internalType": "address",
          "name": "_token",
          "type": "address"
        },
        {
          "internalType": "address",
          "name": "_to",
          "type": "address"
        },
        {
          "internalType": "uint256",
          "name": "_amount",
          "type": "uint256"
        }
      ],
      "name": "bonusPayment",
      "outputs": [
        {
          "internalType": "uint256",
          "name": "result",
          "type": "uint256"
        }
      ],
      "stateMutability": "nonpayable",
      "type": "function"
    },
    {
      "inputs": [
        {
          "internalType": "address",
          "name": "_token",
          "type": "address"
        },
        {
          "internalType": "address",
          "name": "_user",
          "type": "address"
        },
        {
          "internalType": "uint256",
          "name": "_amount",
          "type": "uint256"
        }
      ],
      "name": "calculateEquivalenceFromBold",
      "outputs": [
        {
          "internalType": "uint256",
          "name": "",
          "type": "uint256"
        }
      ],
      "stateMutability": "view",
      "type": "function"
    },
    {
      "inputs": [
        {
          "internalType": "address",
          "name": "_token",
          "type": "address"
        },
        {
          "internalType": "address",
          "name": "_user",
          "type": "address"
        },
        {
          "internalType": "uint256",
          "name": "_amount",
          "type": "uint256"
        }
      ],
      "name": "calculateEquivalenceToBold",
      "outputs": [
        {
          "internalType": "uint256",
          "name": "",
          "type": "uint256"
        }
      ],
      "stateMutability": "view",
      "type": "function"
    },
    {
      "inputs": [
        {
          "internalType": "uint256",
          "name": "_amount",
          "type": "uint256"
        }
      ],
      "name": "calculateTreasuryFees",
      "outputs": [
        {
          "internalType": "uint256",
          "name": "_treasuryAmount",
          "type": "uint256"
        },
        {
          "internalType": "uint256",
          "name": "_txFeeAmount",
          "type": "uint256"
        }
      ],
      "stateMutability": "view",
      "type": "function"
    },
    {
      "inputs": [
        {
          "internalType": "address",
          "name": "newEquivalence",
          "type": "address"
        }
      ],
      "name": "changeEquivalence",
      "outputs": [],
      "stateMutability": "nonpayable",
      "type": "function"
    },
    {
      "inputs": [
        {
          "internalType": "address",
          "name": "_contract",
          "type": "address"
        }
      ],
      "name": "disAllowContract",
      "outputs": [],
      "stateMutability": "nonpayable",
      "type": "function"
    },
    {
      "inputs": [
        {
          "internalType": "uint256",
          "name": "_type",
          "type": "uint256"
        },
        {
          "internalType": "address",
          "name": "_caller",
          "type": "address"
        },
        {
          "internalType": "address",
          "name": "_sender",
          "type": "address"
        },
        {
          "internalType": "uint256",
          "name": "_epoch",
          "type": "uint256"
        },
        {
          "internalType": "uint256",
          "name": "_amount",
          "type": "uint256"
        }
      ],
      "name": "emitEvent",
      "outputs": [],
      "stateMutability": "nonpayable",
      "type": "function"
    },
    {
      "inputs": [],
      "name": "equivalenceContract",
      "outputs": [
        {
          "internalType": "address",
          "name": "",
          "type": "address"
        }
      ],
      "stateMutability": "view",
      "type": "function"
    },
    {
      "inputs": [],
      "name": "getTreasuryWallet",
      "outputs": [
        {
          "internalType": "address",
          "name": "",
          "type": "address"
        }
      ],
      "stateMutability": "view",
      "type": "function"
    },
    {
      "inputs": [],
      "name": "getTxFeeWallet",
      "outputs": [
        {
          "internalType": "address",
          "name": "",
          "type": "address"
        }
      ],
      "stateMutability": "view",
      "type": "function"
    },
    {
      "inputs": [
        {
          "internalType": "address",
          "name": "_equivalenceContract",
          "type": "address"
        }
      ],
      "name": "initialize",
      "outputs": [],
      "stateMutability": "nonpayable",
      "type": "function"
    },
    {
      "inputs": [
        {
          "internalType": "address",
          "name": "_contract",
          "type": "address"
        }
      ],
      "name": "isAllowedContract",
      "outputs": [
        {
          "internalType": "bool",
          "name": "",
          "type": "bool"
        }
      ],
      "stateMutability": "view",
      "type": "function"
    },
    {
      "inputs": [
        {
          "internalType": "address",
          "name": "_address",
          "type": "address"
        }
      ],
      "name": "isInBlackList",
      "outputs": [
        {
          "internalType": "bool",
          "name": "",
          "type": "bool"
        }
      ],
      "stateMutability": "view",
      "type": "function"
    },
    {
      "inputs": [
        {
          "internalType": "address",
          "name": "_token",
          "type": "address"
        },
        {
          "internalType": "address",
          "name": "_to",
          "type": "address"
        },
        {
          "internalType": "uint256",
          "name": "_amount",
          "type": "uint256"
        }
      ],
      "name": "mint",
      "outputs": [
        {
          "internalType": "uint256",
          "name": "result",
          "type": "uint256"
        }
      ],
      "stateMutability": "nonpayable",
      "type": "function"
    },
    {
      "inputs": [],
      "name": "owner",
      "outputs": [
        {
          "internalType": "address",
          "name": "",
          "type": "address"
        }
      ],
      "stateMutability": "view",
      "type": "function"
    },
    {
      "inputs": [
        {
          "internalType": "address",
          "name": "_token",
          "type": "address"
        },
        {
          "internalType": "address",
          "name": "_from",
          "type": "address"
        },
        {
          "internalType": "uint256",
          "name": "_amount",
          "type": "uint256"
        }
      ],
      "name": "payment",
      "outputs": [
        {
          "internalType": "uint256",
          "name": "result",
          "type": "uint256"
        }
      ],
      "stateMutability": "nonpayable",
      "type": "function"
    },
    {
      "inputs": [
        {
          "internalType": "address",
          "name": "_token",
          "type": "address"
        },
        {
          "internalType": "address",
          "name": "_to",
          "type": "address"
        },
        {
          "internalType": "uint256",
          "name": "_amount",
          "type": "uint256"
        }
      ],
      "name": "profit",
      "outputs": [
        {
          "internalType": "uint256",
          "name": "result",
          "type": "uint256"
        }
      ],
      "stateMutability": "nonpayable",
      "type": "function"
    },
    {
      "inputs": [],
      "name": "proxiableUUID",
      "outputs": [
        {
          "internalType": "bytes32",
          "name": "",
          "type": "bytes32"
        }
      ],
      "stateMutability": "view",
      "type": "function"
    },
    {
      "inputs": [
        {
          "internalType": "address",
          "name": "_unbanned",
          "type": "address"
        }
      ],
      "name": "removeFromBlackList",
      "outputs": [],
      "stateMutability": "nonpayable",
      "type": "function"
    },
    {
      "inputs": [],
      "name": "renounceOwnership",
      "outputs": [],
      "stateMutability": "nonpayable",
      "type": "function"
    },
    {
      "inputs": [
        {
          "internalType": "address",
          "name": "_addr",
          "type": "address"
        }
      ],
      "name": "setPredictionToken",
      "outputs": [],
      "stateMutability": "nonpayable",
      "type": "function"
    },
    {
      "inputs": [
        {
          "internalType": "uint256",
          "name": "value",
          "type": "uint256"
        }
      ],
      "name": "setTreasuryFee",
      "outputs": [],
      "stateMutability": "nonpayable",
      "type": "function"
    },
    {
      "inputs": [
        {
          "internalType": "address",
          "name": "_addr",
          "type": "address"
        }
      ],
      "name": "setTreasuryToken",
      "outputs": [],
      "stateMutability": "nonpayable",
      "type": "function"
    },
    {
      "inputs": [
        {
          "internalType": "address",
          "name": "_addr",
          "type": "address"
        }
      ],
      "name": "setTreasuryWallet",
      "outputs": [],
      "stateMutability": "nonpayable",
      "type": "function"
    },
    {
      "inputs": [
        {
          "internalType": "address",
          "name": "_addr",
          "type": "address"
        }
      ],
      "name": "setTxFeeWallet",
      "outputs": [],
      "stateMutability": "nonpayable",
      "type": "function"
    },
    {
      "inputs": [
        {
          "internalType": "address",
          "name": "_token",
          "type": "address"
        },
        {
          "internalType": "address",
          "name": "_to",
          "type": "address"
        },
        {
          "internalType": "uint256",
          "name": "_amount",
          "type": "uint256"
        }
      ],
      "name": "tokenToWeth",
      "outputs": [
        {
          "internalType": "uint256",
          "name": "result",
          "type": "uint256"
        }
      ],
      "stateMutability": "nonpayable",
      "type": "function"
    },
    {
      "inputs": [
        {
          "internalType": "address",
          "name": "_token",
          "type": "address"
        },
        {
          "internalType": "address",
          "name": "_from",
          "type": "address"
        },
        {
          "internalType": "uint256",
          "name": "_amount",
          "type": "uint256"
        },
        {
          "internalType": "uint256",
          "name": "treasuryfee",
          "type": "uint256"
        }
      ],
      "name": "transferAndBurn",
      "outputs": [
        {
          "internalType": "uint256",
          "name": "result",
          "type": "uint256"
        }
      ],
      "stateMutability": "nonpayable",
      "type": "function"
    },
    {
      "inputs": [
        {
          "internalType": "address",
          "name": "newOwner",
          "type": "address"
        }
      ],
      "name": "transferOwnership",
      "outputs": [],
      "stateMutability": "nonpayable",
      "type": "function"
    },
    {
      "inputs": [],
      "name": "treasuryFee",
      "outputs": [
        {
          "internalType": "uint256",
          "name": "",
          "type": "uint256"
        }
      ],
      "stateMutability": "view",
      "type": "function"
    },
    {
      "inputs": [],
      "name": "treasuryToken",
      "outputs": [
        {
          "internalType": "address",
          "name": "",
          "type": "address"
        }
      ],
      "stateMutability": "view",
      "type": "function"
    },
    {
      "inputs": [],
      "name": "treasuryWallet",
      "outputs": [
        {
          "internalType": "address",
          "name": "",
          "type": "address"
        }
      ],
      "stateMutability": "view",
      "type": "function"
    },
    {
      "inputs": [],
      "name": "txFeeWallet",
      "outputs": [
        {
          "internalType": "address",
          "name": "",
          "type": "address"
        }
      ],
      "stateMutability": "view",
      "type": "function"
    },
    {
      "inputs": [
        {
          "internalType": "address",
          "name": "newImplementation",
          "type": "address"
        }
      ],
      "name": "upgradeTo",
      "outputs": [],
      "stateMutability": "nonpayable",
      "type": "function"
    },
    {
      "inputs": [
        {
          "internalType": "address",
          "name": "newImplementation",
          "type": "address"
        },
        {
          "internalType": "bytes",
          "name": "data",
          "type": "bytes"
        }
      ],
      "name": "upgradeToAndCall",
      "outputs": [],
      "stateMutability": "payable",
      "type": "function"
    }
  ],
  "transactionHash": "0xcc5d6567efb2f373d9f1272167705eed6d7ee4119124a25f00251a492ada2f06",
  "args": [],
  "numDeployments": 1,
  "solcInputHash": "ab20f7579c850e0fbcbcfcb1ce50b5a1",
  "bytecode": "0x60a06040523060601b60805234801561001757600080fd5b5060805160601c612a4d61005260003960008181610ad101528181610b5601528181610eac01528181610f3101526110c20152612a4d6000f3fe60806040526004361061026a5760003560e01c8063727d0f3511610153578063c4d66de8116100cb578063edb1d80a1161007f578063f43b855511610064578063f43b8555146106e3578063f6bd02fa1461071c578063fd67de801461073c57600080fd5b8063edb1d80a146106a3578063f2fde38b146106c357600080fd5b8063cc32d176116100b0578063cc32d1761461064d578063de0b169e14610663578063e19cb55b1461068357600080fd5b8063c4d66de81461060d578063c6c3bbe61461062d57600080fd5b806399b23dc311610122578063b083586c11610107578063b083586c146105ad578063b2ce514b146105cd578063c3553d87146105ed57600080fd5b806399b23dc31461056d578063a8602fea1461058d57600080fd5b8063727d0f35146104da57806375ecb9f9146104fa57806377e741c71461052f5780638da5cb5b1461054f57600080fd5b80634a619fa6116101e657806352d1902d116101b55780636891da141161019a5780636891da141461045c57806370b2973e1461047c578063715018a6146104c557600080fd5b806352d1902d146104275780635e8c2c8d1461043c57600080fd5b80634a619fa6146103b45780634ca92278146103d45780634f1ef286146103f457806350ca72cd1461040757600080fd5b80632c035b741161023d578063417c73a711610222578063417c73a7146103545780634626402b146103745780634a49ac4c1461039457600080fd5b80632c035b74146103165780633659cfe61461033457600080fd5b8063025f18f01461026f578063114fd6641461029157806316791191146102c45780631c578fde146102e4575b600080fd5b34801561027b57600080fd5b5061028f61028a3660046126e3565b61075c565b005b34801561029d57600080fd5b506102b16102ac366004612738565b610821565b6040519081526020015b60405180910390f35b3480156102d057600080fd5b5061028f6102df3660046126e3565b610a06565b3480156102f057600080fd5b5060ce546001600160a01b03165b6040516001600160a01b0390911681526020016102bb565b34801561032257600080fd5b5060cf546001600160a01b03166102fe565b34801561034057600080fd5b5061028f61034f3660046126e3565b610ac6565b34801561036057600080fd5b5061028f61036f3660046126e3565b610c19565b34801561038057600080fd5b5060cf546102fe906001600160a01b031681565b3480156103a057600080fd5b5061028f6103af3660046126e3565b610d38565b3480156103c057600080fd5b5060ce546102fe906001600160a01b031681565b3480156103e057600080fd5b506102b16103ef3660046126fd565b610df0565b61028f610402366004612779565b610ea1565b34801561041357600080fd5b5061028f610422366004612886565b610fe5565b34801561043357600080fd5b506102b16110b5565b34801561044857600080fd5b506102b16104573660046126fd565b61117a565b34801561046857600080fd5b506102b16104773660046126fd565b6112eb565b34801561048857600080fd5b506104b56104973660046126e3565b6001600160a01b0316600090815260c9602052604090205460ff1690565b60405190151581526020016102bb565b3480156104d157600080fd5b5061028f611346565b3480156104e657600080fd5b5060cd546102fe906001600160a01b031681565b34801561050657600080fd5b5061051a61051536600461286e565b61139a565b604080519283526020830191909152016102bb565b34801561053b57600080fd5b5061028f61054a36600461286e565b6113d0565b34801561055b57600080fd5b506097546001600160a01b03166102fe565b34801561057957600080fd5b506102b16105883660046126fd565b611494565b34801561059957600080fd5b5061028f6105a83660046126e3565b611619565b3480156105b957600080fd5b5060d0546102fe906001600160a01b031681565b3480156105d957600080fd5b5060cc546102fe906001600160a01b031681565b3480156105f957600080fd5b5061028f6106083660046126e3565b6116d9565b34801561061957600080fd5b5061028f6106283660046126e3565b61177f565b34801561063957600080fd5b506102b16106483660046126fd565b611880565b34801561065957600080fd5b506102b160cb5481565b34801561066f57600080fd5b506102b161067e3660046126fd565b6119dd565b34801561068f57600080fd5b5061028f61069e3660046126e3565b611bd1565b3480156106af57600080fd5b5061028f6106be3660046126e3565b611c91565b3480156106cf57600080fd5b5061028f6106de3660046126e3565b611cfb565b3480156106ef57600080fd5b506104b56106fe3660046126e3565b6001600160a01b0316600090815260ca602052604090205460ff1690565b34801561072857600080fd5b5061028f6107373660046126e3565b611db1565b34801561074857600080fd5b506102b16107573660046126fd565b611e54565b6097546001600160a01b031633146107a95760405162461bcd60e51b815260206004820181905260248201526000805160206129d183398151915260448201526064015b60405180910390fd5b6001600160a01b0381166107ff5760405162461bcd60e51b815260206004820152601a60248201527f4e657720616464726573732063616e6e6f74206265207a65726f00000000000060448201526064016107a0565b60cd80546001600160a01b0319166001600160a01b0392909216919091179055565b33600090815260ca602052604081205460ff1661089a5760405162461bcd60e51b815260206004820152603160248201527f6f6e6c79416c6c6f776564436f6e7472616374733a20546869732061646472656044820152701cdcc81a5cc81b9bdd08185b1b1bddd959607a1b60648201526084016107a0565b836108bd816001600160a01b0316600090815260c9602052604090205460ff1690565b156109145760405162461bcd60e51b815260206004820152602160248201527f426c61636b4c6973743a204164647265737320697320626c61636b6c697374656044820152601960fa1b60648201526084016107a0565b6040516323b872dd60e01b81526001600160a01b038681166004830152306024830152604482018690528716906323b872dd90606401602060405180830381600087803b15801561096457600080fd5b505af1158015610978573d6000803e3d6000fd5b505050506040513d601f19601f8201168201806040525081019061099c9190612836565b50604051632770a7eb60e21b8152306004820152602481018590526001600160a01b03871690639dc29fac90604401600060405180830381600087803b1580156109e557600080fd5b505af11580156109f9573d6000803e3d6000fd5b5050505050949350505050565b6097546001600160a01b03163314610a4e5760405162461bcd60e51b815260206004820181905260248201526000805160206129d183398151915260448201526064016107a0565b6001600160a01b038116610aa45760405162461bcd60e51b815260206004820152601a60248201527f4e657720616464726573732063616e6e6f74206265207a65726f00000000000060448201526064016107a0565b60ce80546001600160a01b0319166001600160a01b0392909216919091179055565b306001600160a01b037f0000000000000000000000000000000000000000000000000000000000000000161415610b545760405162461bcd60e51b815260206004820152602c60248201527f46756e6374696f6e206d7573742062652063616c6c6564207468726f7567682060448201526b19195b1959d85d1958d85b1b60a21b60648201526084016107a0565b7f00000000000000000000000000000000000000000000000000000000000000006001600160a01b0316610b86611f7c565b6001600160a01b031614610bf15760405162461bcd60e51b815260206004820152602c60248201527f46756e6374696f6e206d7573742062652063616c6c6564207468726f7567682060448201526b6163746976652070726f787960a01b60648201526084016107a0565b610bfa81611faf565b60408051600080825260208201909252610c1691839190611ff7565b50565b6097546001600160a01b03163314610c615760405162461bcd60e51b815260206004820181905260248201526000805160206129d183398151915260448201526064016107a0565b6001600160a01b038116301415610cba5760405162461bcd60e51b815260206004820152601760248201527f526f757465722063616e6e6f742062652062616e6e656400000000000000000060448201526064016107a0565b6001600160a01b038116600090815260c9602052604090205460ff16610c16576001600160a01b038116600081815260c96020908152604091829020805460ff1916600190811790915591519182527f1233dccd4f82d63e4d4540be871a7c3fc6c6b69b90b43fb7387471d0ec1a381591015b60405180910390a250565b6097546001600160a01b03163314610d805760405162461bcd60e51b815260206004820181905260248201526000805160206129d183398151915260448201526064016107a0565b6001600160a01b038116600090815260c9602052604090205460ff1615610c16576001600160a01b038116600081815260c960209081526040808320805460ff19169055519182527f1233dccd4f82d63e4d4540be871a7c3fc6c6b69b90b43fb7387471d0ec1a38159101610d2d565b60d0546040517f65f572460000000000000000000000000000000000000000000000000000000081526001600160a01b03858116600483015284811660248301526044820184905260009216906365f57246906064015b60206040518083038186803b158015610e5f57600080fd5b505afa158015610e73573d6000803e3d6000fd5b505050506040513d601f19601f82011682018060405250810190610e979190612856565b90505b9392505050565b306001600160a01b037f0000000000000000000000000000000000000000000000000000000000000000161415610f2f5760405162461bcd60e51b815260206004820152602c60248201527f46756e6374696f6e206d7573742062652063616c6c6564207468726f7567682060448201526b19195b1959d85d1958d85b1b60a21b60648201526084016107a0565b7f00000000000000000000000000000000000000000000000000000000000000006001600160a01b0316610f61611f7c565b6001600160a01b031614610fcc5760405162461bcd60e51b815260206004820152602c60248201527f46756e6374696f6e206d7573742062652063616c6c6564207468726f7567682060448201526b6163746976652070726f787960a01b60648201526084016107a0565b610fd582611faf565b610fe182826001611ff7565b5050565b33600090815260ca602052604090205460ff1661105e5760405162461bcd60e51b815260206004820152603160248201527f6f6e6c79416c6c6f776564436f6e7472616374733a20546869732061646472656044820152701cdcc81a5cc81b9bdd08185b1b1bddd959607a1b60648201526084016107a0565b604080516001600160a01b0385811682526020820184905242828401529151849287169188917f8726598244657a9ed0e09ccf3f089dd04dc8070090d3a730c0d24f02cb97d23d9181900360600190a45050505050565b6000306001600160a01b037f000000000000000000000000000000000000000000000000000000000000000016146111555760405162461bcd60e51b815260206004820152603860248201527f555550535570677261646561626c653a206d757374206e6f742062652063616c60448201527f6c6564207468726f7567682064656c656761746563616c6c000000000000000060648201526084016107a0565b507f360894a13ba1a3210667c828492db98dca3e2076cc3735a920a3ca505d382bbc90565b33600090815260ca602052604081205460ff166111f35760405162461bcd60e51b815260206004820152603160248201527f6f6e6c79416c6c6f776564436f6e7472616374733a20546869732061646472656044820152701cdcc81a5cc81b9bdd08185b1b1bddd959607a1b60648201526084016107a0565b82611216816001600160a01b0316600090815260c9602052604090205460ff1690565b1561126d5760405162461bcd60e51b815260206004820152602160248201527f426c61636b4c6973743a204164647265737320697320626c61636b6c697374656044820152601960fa1b60648201526084016107a0565b600061127a8686866112eb565b60cd546040516340c10f1960e01b81526001600160a01b038881166004830152602482018490529293509116906340c10f1990604401600060405180830381600087803b1580156112ca57600080fd5b505af11580156112de573d6000803e3d6000fd5b5050505050509392505050565b60d0546040517f44b7795d0000000000000000000000000000000000000000000000000000000081526001600160a01b03858116600483015284811660248301526044820184905260009216906344b7795d90606401610e47565b6097546001600160a01b0316331461138e5760405162461bcd60e51b815260206004820181905260248201526000805160206129d183398151915260448201526064016107a0565b61139860006121ab565b565b6000806000606460cb54856113af9190612942565b6113b99190612922565b9050806113c68186612961565b9250925050915091565b6097546001600160a01b031633146114185760405162461bcd60e51b815260206004820181905260248201526000805160206129d183398151915260448201526064016107a0565b606481111561148f5760405162461bcd60e51b815260206004820152603760248201527f526f75746572202d207472656173757279206665652063616e6e6f742062652060448201527f67726561746572207468616e203130302028313030252900000000000000000060648201526084016107a0565b60cb55565b33600090815260ca602052604081205460ff1661150d5760405162461bcd60e51b815260206004820152603160248201527f6f6e6c79416c6c6f776564436f6e7472616374733a20546869732061646472656044820152701cdcc81a5cc81b9bdd08185b1b1bddd959607a1b60648201526084016107a0565b82611530816001600160a01b0316600090815260c9602052604090205460ff1690565b156115875760405162461bcd60e51b815260206004820152602160248201527f426c61636b4c6973743a204164647265737320697320626c61636b6c697374656044820152601960fa1b60648201526084016107a0565b6040516323b872dd60e01b81526001600160a01b038581166004830152306024830152604482018590528616906323b872dd906064015b602060405180830381600087803b1580156115d857600080fd5b505af11580156115ec573d6000803e3d6000fd5b505050506040513d601f19601f820116820180604052508101906116109190612836565b50509392505050565b6097546001600160a01b031633146116615760405162461bcd60e51b815260206004820181905260248201526000805160206129d183398151915260448201526064016107a0565b6001600160a01b0381166116b75760405162461bcd60e51b815260206004820152601a60248201527f4e657720616464726573732063616e6e6f74206265207a65726f00000000000060448201526064016107a0565b60cf80546001600160a01b0319166001600160a01b0392909216919091179055565b6097546001600160a01b031633146117215760405162461bcd60e51b815260206004820181905260248201526000805160206129d183398151915260448201526064016107a0565b6001600160a01b038116600081815260ca60209081526040808320805460ff191690558051938452908301919091527ffb9a45d7fbad775f8943043d7db93f0ca0ec4e53628c359d71e68e8ffb2420ee91015b60405180910390a150565b600054610100900460ff1661179a5760005460ff161561179e565b303b155b6118105760405162461bcd60e51b815260206004820152602e60248201527f496e697469616c697a61626c653a20636f6e747261637420697320616c72656160448201527f647920696e697469616c697a656400000000000000000000000000000000000060648201526084016107a0565b600054610100900460ff16158015611832576000805461ffff19166101011790555b61183a6121fd565b611842612270565b61184b336122db565b60d080546001600160a01b0319166001600160a01b038416179055603260cb558015610fe1576000805461ff00191690555050565b33600090815260ca602052604081205460ff166118f95760405162461bcd60e51b815260206004820152603160248201527f6f6e6c79416c6c6f776564436f6e7472616374733a20546869732061646472656044820152701cdcc81a5cc81b9bdd08185b1b1bddd959607a1b60648201526084016107a0565b8261191c816001600160a01b0316600090815260c9602052604090205460ff1690565b156119735760405162461bcd60e51b815260206004820152602160248201527f426c61636b4c6973743a204164647265737320697320626c61636b6c697374656044820152601960fa1b60648201526084016107a0565b6040516340c10f1960e01b81526001600160a01b038581166004830152602482018590528616906340c10f1990604401600060405180830381600087803b1580156119bd57600080fd5b505af11580156119d1573d6000803e3d6000fd5b50505050509392505050565b33600090815260ca602052604081205460ff16611a565760405162461bcd60e51b815260206004820152603160248201527f6f6e6c79416c6c6f776564436f6e7472616374733a20546869732061646472656044820152701cdcc81a5cc81b9bdd08185b1b1bddd959607a1b60648201526084016107a0565b82611a79816001600160a01b0316600090815260c9602052604090205460ff1690565b15611ad05760405162461bcd60e51b815260206004820152602160248201527f426c61636b4c6973743a204164647265737320697320626c61636b6c697374656044820152601960fa1b60648201526084016107a0565b604051632770a7eb60e21b8152306004820152602481018490526001600160a01b03861690639dc29fac90604401600060405180830381600087803b158015611b1857600080fd5b505af1158015611b2c573d6000803e3d6000fd5b505050506000611b3d868686610df0565b60cc5460cf5460405163a9059cbb60e01b81526001600160a01b03918216600482015260248101849052929350169063a9059cbb90604401602060405180830381600087803b158015611b8f57600080fd5b505af1158015611ba3573d6000803e3d6000fd5b505050506040513d601f19601f82011682018060405250810190611bc79190612836565b5050509392505050565b6097546001600160a01b03163314611c195760405162461bcd60e51b815260206004820181905260248201526000805160206129d183398151915260448201526064016107a0565b6001600160a01b038116611c6f5760405162461bcd60e51b815260206004820152601a60248201527f4e657720616464726573732063616e6e6f74206265207a65726f00000000000060448201526064016107a0565b60cc80546001600160a01b0319166001600160a01b0392909216919091179055565b6097546001600160a01b03163314611cd95760405162461bcd60e51b815260206004820181905260248201526000805160206129d183398151915260448201526064016107a0565b60d080546001600160a01b0319166001600160a01b0392909216919091179055565b6097546001600160a01b03163314611d435760405162461bcd60e51b815260206004820181905260248201526000805160206129d183398151915260448201526064016107a0565b6001600160a01b038116611da85760405162461bcd60e51b815260206004820152602660248201527f4f776e61626c653a206e6577206f776e657220697320746865207a65726f206160448201526564647265737360d01b60648201526084016107a0565b610c16816121ab565b6097546001600160a01b03163314611df95760405162461bcd60e51b815260206004820181905260248201526000805160206129d183398151915260448201526064016107a0565b6001600160a01b038116600081815260ca6020908152604091829020805460ff191660019081179091558251938452908301527f2ec8f336603617481663f140ac276b52eda7174a518a742c99cca131f42739929101611774565b33600090815260ca602052604081205460ff16611ecd5760405162461bcd60e51b815260206004820152603160248201527f6f6e6c79416c6c6f776564436f6e7472616374733a20546869732061646472656044820152701cdcc81a5cc81b9bdd08185b1b1bddd959607a1b60648201526084016107a0565b82611ef0816001600160a01b0316600090815260c9602052604090205460ff1690565b15611f475760405162461bcd60e51b815260206004820152602160248201527f426c61636b4c6973743a204164647265737320697320626c61636b6c697374656044820152601960fa1b60648201526084016107a0565b60405163a9059cbb60e01b81526001600160a01b0385811660048301526024820185905286169063a9059cbb906044016115be565b60007f360894a13ba1a3210667c828492db98dca3e2076cc3735a920a3ca505d382bbc5b546001600160a01b0316919050565b6097546001600160a01b03163314610c165760405162461bcd60e51b815260206004820181905260248201526000805160206129d183398151915260448201526064016107a0565b7f4910fdfa16fed3260ed0e7147f7cc6da11a60208b5b9406d12a635614ffd91435460ff161561202f5761202a8361232f565b505050565b826001600160a01b03166352d1902d6040518163ffffffff1660e01b815260040160206040518083038186803b15801561206857600080fd5b505afa925050508015612098575060408051601f3d908101601f1916820190925261209591810190612856565b60015b61210a5760405162461bcd60e51b815260206004820152602e60248201527f45524331393637557067726164653a206e657720696d706c656d656e7461746960448201527f6f6e206973206e6f74205555505300000000000000000000000000000000000060648201526084016107a0565b7f360894a13ba1a3210667c828492db98dca3e2076cc3735a920a3ca505d382bbc811461219f5760405162461bcd60e51b815260206004820152602960248201527f45524331393637557067726164653a20756e737570706f727465642070726f7860448201527f6961626c6555554944000000000000000000000000000000000000000000000060648201526084016107a0565b5061202a8383836123f0565b609780546001600160a01b038381166001600160a01b0319831681179093556040519116919082907f8be0079c531659141344cd1fd0a4f28419497f9722a3daafe3b4186f6b6457e090600090a35050565b600054610100900460ff166122685760405162461bcd60e51b815260206004820152602b60248201527f496e697469616c697a61626c653a20636f6e7472616374206973206e6f74206960448201526a6e697469616c697a696e6760a81b60648201526084016107a0565b61139861241b565b600054610100900460ff166113985760405162461bcd60e51b815260206004820152602b60248201527f496e697469616c697a61626c653a20636f6e7472616374206973206e6f74206960448201526a6e697469616c697a696e6760a81b60648201526084016107a0565b7f7e644d79422f17c01e4894b5f4f588d331ebfa28653d42ae832dc59e38c9798f61230461248f565b604080516001600160a01b03928316815291841660208301520160405180910390a1610c16816124b7565b6001600160a01b0381163b6123ac5760405162461bcd60e51b815260206004820152602d60248201527f455243313936373a206e657720696d706c656d656e746174696f6e206973206e60448201527f6f74206120636f6e74726163740000000000000000000000000000000000000060648201526084016107a0565b807f360894a13ba1a3210667c828492db98dca3e2076cc3735a920a3ca505d382bbc5b80546001600160a01b0319166001600160a01b039290921691909117905550565b6123f983612543565b6000825111806124065750805b1561202a576124158383612583565b50505050565b600054610100900460ff166124865760405162461bcd60e51b815260206004820152602b60248201527f496e697469616c697a61626c653a20636f6e7472616374206973206e6f74206960448201526a6e697469616c697a696e6760a81b60648201526084016107a0565b611398336121ab565b60007fb53127684a568b3173ae13b9f8a6016e243e63b6e8ee1178d6a717850b5d6103611fa0565b6001600160a01b03811661251c5760405162461bcd60e51b815260206004820152602660248201527f455243313936373a206e65772061646d696e20697320746865207a65726f206160448201526564647265737360d01b60648201526084016107a0565b807fb53127684a568b3173ae13b9f8a6016e243e63b6e8ee1178d6a717850b5d61036123cf565b61254c8161232f565b6040516001600160a01b038216907fbc7cd75a20ee27fd9adebab32041f755214dbc6bffa90cc0225b39da2e5c2d3b90600090a250565b60606001600160a01b0383163b6126025760405162461bcd60e51b815260206004820152602660248201527f416464726573733a2064656c65676174652063616c6c20746f206e6f6e2d636f60448201527f6e7472616374000000000000000000000000000000000000000000000000000060648201526084016107a0565b600080846001600160a01b03168460405161261d91906128d3565b600060405180830381855af49150503d8060008114612658576040519150601f19603f3d011682016040523d82523d6000602084013e61265d565b606091505b509150915061268582826040518060600160405280602781526020016129f16027913961268e565b95945050505050565b6060831561269d575081610e9a565b8251156126ad5782518084602001fd5b8160405162461bcd60e51b81526004016107a091906128ef565b80356001600160a01b03811681146126de57600080fd5b919050565b6000602082840312156126f4578081fd5b610e9a826126c7565b600080600060608486031215612711578182fd5b61271a846126c7565b9250612728602085016126c7565b9150604084013590509250925092565b6000806000806080858703121561274d578081fd5b612756856126c7565b9350612764602086016126c7565b93969395505050506040820135916060013590565b6000806040838503121561278b578182fd5b612794836126c7565b9150602083013567ffffffffffffffff808211156127b0578283fd5b818501915085601f8301126127c3578283fd5b8135818111156127d5576127d56129ba565b604051601f8201601f19908116603f011681019083821181831017156127fd576127fd6129ba565b81604052828152886020848701011115612815578586fd5b82602086016020830137856020848301015280955050505050509250929050565b600060208284031215612847578081fd5b81518015158114610e9a578182fd5b600060208284031215612867578081fd5b5051919050565b60006020828403121561287f578081fd5b5035919050565b600080600080600060a0868803121561289d578081fd5b853594506128ad602087016126c7565b93506128bb604087016126c7565b94979396509394606081013594506080013592915050565b600082516128e5818460208701612978565b9190910192915050565b602081526000825180602084015261290e816040850160208701612978565b601f01601f19169190910160400192915050565b60008261293d57634e487b7160e01b81526012600452602481fd5b500490565b600081600019048311821515161561295c5761295c6129a4565b500290565b600082821015612973576129736129a4565b500390565b60005b8381101561299357818101518382015260200161297b565b838111156124155750506000910152565b634e487b7160e01b600052601160045260246000fd5b634e487b7160e01b600052604160045260246000fdfe4f776e61626c653a2063616c6c6572206973206e6f7420746865206f776e6572416464726573733a206c6f772d6c6576656c2064656c65676174652063616c6c206661696c6564a264697066735822122094b8f59568f1c16e8f03c7dad95d335fbdcd92d3541aeee10f22d738790e5fd864736f6c63430008040033",
  "devdoc": {
    "kind": "dev",
    "methods": {
      "addToBlackList(address)": {
        "details": "Add a new address to black list",
        "params": {
          "_banned": "address to be banned"
        }
      },
      "calculateEquivalenceFromBold(address,address,uint256)": {
        "details": "calculate equivalence of BOLD in token",
        "params": {
          "_amount": "Amout to convert",
          "_token": "token to convert",
          "_user": "user request the equivalence"
        },
        "returns": {
          "_0": "amount in token"
        }
      },
      "calculateEquivalenceToBold(address,address,uint256)": {
        "details": "calculate equivalence in BOLD token",
        "params": {
          "_amount": "Amout to convert",
          "_token": "token to convert",
          "_user": "user request the equivalence"
        },
        "returns": {
          "_0": "amount in Bold"
        }
      },
      "calculateTreasuryFees(uint256)": {
        "details": "Calculate treasury fees for each treasury wallet",
        "params": {
          "_amount": "Amount in Matic to distribute"
        },
        "returns": {
          "_treasuryAmount": "amount corresponding to treasury wallet",
          "_txFeeAmount": "amount corresponding to tx wallet"
        }
      },
      "changeEquivalence(address)": {
        "details": "Change token equivalence contract",
        "params": {
          "newEquivalence": "new Equivalence contract"
        }
      },
      "emitEvent(uint256,address,address,uint256,uint256)": {
        "details": "emit an event on behalf of other contract",
        "params": {
          "_amount": "amount of token transfered",
          "_caller": "contract which emits event",
          "_epoch": "round in which the event has been emitted",
          "_sender": "User address which has bet or claim",
          "_type": "type of event"
        }
      },
      "getTreasuryWallet()": {
        "details": "Getter for treasuryWallet",
        "returns": {
          "_0": "Treasury Wallet"
        }
      },
      "getTxFeeWallet()": {
        "details": "Getter for TxFeeWallet",
        "returns": {
          "_0": "TX Fee Wallet"
        }
      },
      "isInBlackList(address)": {
        "details": "Check if address is blacklisted",
        "params": {
          "_address": "address to check if it is blacklisted"
        },
        "returns": {
          "_0": "true if address is blackListed"
        }
      },
      "owner()": {
        "details": "Returns the address of the current owner."
      },
      "proxiableUUID()": {
        "details": "Implementation of the ERC1822 {proxiableUUID} function. This returns the storage slot used by the implementation. It is used to validate that the this implementation remains valid after an upgrade. IMPORTANT: A proxy pointing at a proxiable contract should not be considered proxiable itself, because this risks bricking a proxy that upgrades to it, by delegating to itself until out of gas. Thus it is critical that this function revert if invoked through a proxy. This is guaranteed by the `notDelegated` modifier."
      },
      "removeFromBlackList(address)": {
        "details": "Add a new address to black list",
        "params": {
          "_unbanned": "address to be unbanned"
        }
      },
      "renounceOwnership()": {
        "details": "Leaves the contract without owner. It will not be possible to call `onlyOwner` functions anymore. Can only be called by the current owner. NOTE: Renouncing ownership will leave the contract without an owner, thereby removing any functionality that is only available to the owner."
      },
      "setTreasuryFee(uint256)": {
        "details": "Configure percentage of treasury that are sent to treasury wallet. Remaining would be transfered to tx wallet",
        "params": {
          "value": "percentage to send to treasury wallet (50%-> value=50)"
        }
      },
      "transferOwnership(address)": {
        "details": "Transfers ownership of the contract to a new account (`newOwner`). Can only be called by the current owner."
      },
      "upgradeTo(address)": {
        "details": "Upgrade the implementation of the proxy to `newImplementation`. Calls {_authorizeUpgrade}. Emits an {Upgraded} event."
      },
      "upgradeToAndCall(address,bytes)": {
        "details": "Upgrade the implementation of the proxy to `newImplementation`, and subsequently execute the function call encoded in `data`. Calls {_authorizeUpgrade}. Emits an {Upgraded} event."
      }
    },
    "title": "Router contract ",
    "version": 1
  },
  "userdoc": {
    "kind": "user",
    "methods": {
      "addToBlackList(address)": {
        "notice": "if address was previosly banned, nothing happens"
      },
      "removeFromBlackList(address)": {
        "notice": "if address was not previosly banned, nothing happens"
      }
    },
    "version": 1
  },
  "storageLayout": {
    "storage": [
      {
        "astId": 519,
        "contract": "contracts/Router.sol:Router",
        "label": "_initialized",
        "offset": 0,
        "slot": "0",
        "type": "t_bool"
      },
      {
        "astId": 522,
        "contract": "contracts/Router.sol:Router",
        "label": "_initializing",
        "offset": 1,
        "slot": "0",
        "type": "t_bool"
      },
      {
        "astId": 501,
        "contract": "contracts/Router.sol:Router",
        "label": "__gap",
        "offset": 0,
        "slot": "1",
        "type": "t_array(t_uint256)50_storage"
      },
      {
        "astId": 721,
        "contract": "contracts/Router.sol:Router",
        "label": "__gap",
        "offset": 0,
        "slot": "51",
        "type": "t_array(t_uint256)50_storage"
      },
      {
        "astId": 2116,
        "contract": "contracts/Router.sol:Router",
        "label": "__gap",
        "offset": 0,
        "slot": "101",
        "type": "t_array(t_uint256)50_storage"
      },
      {
        "astId": 10,
        "contract": "contracts/Router.sol:Router",
        "label": "_owner",
        "offset": 0,
        "slot": "151",
        "type": "t_address"
      },
      {
        "astId": 122,
        "contract": "contracts/Router.sol:Router",
        "label": "__gap",
        "offset": 0,
        "slot": "152",
        "type": "t_array(t_uint256)49_storage"
      },
      {
        "astId": 16469,
        "contract": "contracts/Router.sol:Router",
        "label": "blackList",
        "offset": 0,
        "slot": "201",
        "type": "t_mapping(t_address,t_bool)"
      },
      {
        "astId": 16473,
        "contract": "contracts/Router.sol:Router",
        "label": "allowedcontracts",
        "offset": 0,
        "slot": "202",
        "type": "t_mapping(t_address,t_bool)"
      },
      {
        "astId": 16475,
        "contract": "contracts/Router.sol:Router",
        "label": "treasuryFee",
        "offset": 0,
        "slot": "203",
        "type": "t_uint256"
      },
      {
        "astId": 16477,
        "contract": "contracts/Router.sol:Router",
        "label": "treasuryToken",
        "offset": 0,
        "slot": "204",
        "type": "t_address"
      },
      {
        "astId": 16479,
        "contract": "contracts/Router.sol:Router",
        "label": "bold",
        "offset": 0,
        "slot": "205",
        "type": "t_address"
      },
      {
        "astId": 16481,
        "contract": "contracts/Router.sol:Router",
        "label": "txFeeWallet",
        "offset": 0,
        "slot": "206",
        "type": "t_address"
      },
      {
        "astId": 16483,
        "contract": "contracts/Router.sol:Router",
        "label": "treasuryWallet",
        "offset": 0,
        "slot": "207",
        "type": "t_address"
      },
      {
        "astId": 16485,
        "contract": "contracts/Router.sol:Router",
        "label": "equivalenceContract",
        "offset": 0,
        "slot": "208",
        "type": "t_address"
      }
    ],
    "types": {
      "t_address": {
        "encoding": "inplace",
        "label": "address",
        "numberOfBytes": "20"
      },
      "t_array(t_uint256)49_storage": {
        "base": "t_uint256",
        "encoding": "inplace",
        "label": "uint256[49]",
        "numberOfBytes": "1568"
      },
      "t_array(t_uint256)50_storage": {
        "base": "t_uint256",
        "encoding": "inplace",
        "label": "uint256[50]",
        "numberOfBytes": "1600"
      },
      "t_bool": {
        "encoding": "inplace",
        "label": "bool",
        "numberOfBytes": "1"
      },
      "t_mapping(t_address,t_bool)": {
        "encoding": "mapping",
        "key": "t_address",
        "label": "mapping(address => bool)",
        "numberOfBytes": "32",
        "value": "t_bool"
      },
      "t_uint256": {
        "encoding": "inplace",
        "label": "uint256",
        "numberOfBytes": "32"
      }
    }
  }
}